{
  "_format": "hh-sol-artifact-1",
  "contractName": "VaultVested",
  "sourceName": "contracts/Vaults/VaultVested.sol",
  "abi": [
    {
      "inputs": [
        {
          "internalType": "address",
          "name": "_global",
          "type": "address"
        },
        {
          "internalType": "address",
          "name": "_bnb",
          "type": "address"
        },
        {
          "internalType": "address",
          "name": "_globalMasterChef",
          "type": "address"
        },
        {
          "internalType": "address",
          "name": "_vaultLocked",
          "type": "address"
        }
      ],
      "stateMutability": "nonpayable",
      "type": "constructor"
    },
    {
      "anonymous": false,
      "inputs": [
        {
          "indexed": true,
          "internalType": "address",
          "name": "_user",
          "type": "address"
        },
        {
          "indexed": false,
          "internalType": "uint256",
          "name": "_amount",
          "type": "uint256"
        }
      ],
      "name": "Deposited",
      "type": "event"
    },
    {
      "anonymous": false,
      "inputs": [
        {
          "indexed": false,
          "internalType": "uint256",
          "name": "_distributedAmount",
          "type": "uint256"
        }
      ],
      "name": "Distributed",
      "type": "event"
    },
    {
      "anonymous": false,
      "inputs": [
        {
          "indexed": true,
          "internalType": "address",
          "name": "previousOwner",
          "type": "address"
        },
        {
          "indexed": true,
          "internalType": "address",
          "name": "newOwner",
          "type": "address"
        }
      ],
      "name": "OwnershipTransferred",
      "type": "event"
    },
    {
      "anonymous": false,
      "inputs": [
        {
          "indexed": true,
          "internalType": "address",
          "name": "_user",
          "type": "address"
        },
        {
          "indexed": false,
          "internalType": "uint256",
          "name": "_amount",
          "type": "uint256"
        }
      ],
      "name": "RewardPaid",
      "type": "event"
    },
    {
      "anonymous": false,
      "inputs": [
        {
          "indexed": true,
          "internalType": "address",
          "name": "_user",
          "type": "address"
        },
        {
          "indexed": false,
          "internalType": "uint256",
          "name": "_amount",
          "type": "uint256"
        },
        {
          "indexed": false,
          "internalType": "uint256",
          "name": "_penaltyFees",
          "type": "uint256"
        }
      ],
      "name": "Withdrawn",
      "type": "event"
    },
    {
      "inputs": [],
      "name": "DUST",
      "outputs": [
        {
          "internalType": "uint256",
          "name": "",
          "type": "uint256"
        }
      ],
      "stateMutability": "view",
      "type": "function"
    },
    {
      "inputs": [
        {
          "internalType": "address",
          "name": "_user",
          "type": "address"
        }
      ],
      "name": "amountOfUser",
      "outputs": [
        {
          "internalType": "uint256",
          "name": "totalAmount",
          "type": "uint256"
        }
      ],
      "stateMutability": "view",
      "type": "function"
    },
    {
      "inputs": [
        {
          "internalType": "uint256",
          "name": "_time",
          "type": "uint256"
        },
        {
          "internalType": "address",
          "name": "_user",
          "type": "address"
        }
      ],
      "name": "availableForWithdraw",
      "outputs": [
        {
          "internalType": "uint256",
          "name": "totalAmount",
          "type": "uint256"
        }
      ],
      "stateMutability": "view",
      "type": "function"
    },
    {
      "inputs": [],
      "name": "balance",
      "outputs": [
        {
          "internalType": "uint256",
          "name": "amount",
          "type": "uint256"
        }
      ],
      "stateMutability": "view",
      "type": "function"
    },
    {
      "inputs": [
        {
          "internalType": "address",
          "name": "_account",
          "type": "address"
        }
      ],
      "name": "balanceOf",
      "outputs": [
        {
          "internalType": "uint256",
          "name": "",
          "type": "uint256"
        }
      ],
      "stateMutability": "view",
      "type": "function"
    },
    {
      "inputs": [],
      "name": "bnb",
      "outputs": [
        {
          "internalType": "contract IBEP20",
          "name": "",
          "type": "address"
        }
      ],
      "stateMutability": "view",
      "type": "function"
    },
    {
      "inputs": [],
      "name": "bnbBalance",
      "outputs": [
        {
          "internalType": "uint256",
          "name": "",
          "type": "uint256"
        }
      ],
      "stateMutability": "view",
      "type": "function"
    },
    {
      "inputs": [
        {
          "internalType": "address",
          "name": "",
          "type": "address"
        }
      ],
      "name": "bnbEarned",
      "outputs": [
        {
          "internalType": "uint256",
          "name": "",
          "type": "uint256"
        }
      ],
      "stateMutability": "view",
      "type": "function"
    },
    {
      "inputs": [
        {
          "internalType": "uint256",
          "name": "_amount",
          "type": "uint256"
        },
        {
          "internalType": "address",
          "name": "_account",
          "type": "address"
        }
      ],
      "name": "deposit",
      "outputs": [],
      "stateMutability": "nonpayable",
      "type": "function"
    },
    {
      "inputs": [
        {
          "internalType": "address",
          "name": "",
          "type": "address"
        },
        {
          "internalType": "uint256",
          "name": "",
          "type": "uint256"
        }
      ],
      "name": "depositInfo",
      "outputs": [
        {
          "internalType": "uint256",
          "name": "amount",
          "type": "uint256"
        },
        {
          "internalType": "uint256",
          "name": "nextWithdraw",
          "type": "uint256"
        }
      ],
      "stateMutability": "view",
      "type": "function"
    },
    {
      "inputs": [
        {
          "internalType": "address",
          "name": "",
          "type": "address"
        }
      ],
      "name": "depositories",
      "outputs": [
        {
          "internalType": "bool",
          "name": "",
          "type": "bool"
        }
      ],
      "stateMutability": "view",
      "type": "function"
    },
    {
      "inputs": [
        {
          "internalType": "address",
          "name": "_account",
          "type": "address"
        }
      ],
      "name": "earned",
      "outputs": [
        {
          "internalType": "uint256",
          "name": "",
          "type": "uint256"
        }
      ],
      "stateMutability": "view",
      "type": "function"
    },
    {
      "inputs": [],
      "name": "getReward",
      "outputs": [],
      "stateMutability": "nonpayable",
      "type": "function"
    },
    {
      "inputs": [],
      "name": "getUsersLength",
      "outputs": [
        {
          "internalType": "uint256",
          "name": "",
          "type": "uint256"
        }
      ],
      "stateMutability": "view",
      "type": "function"
    },
    {
      "inputs": [],
      "name": "global",
      "outputs": [
        {
          "internalType": "contract IBEP20",
          "name": "",
          "type": "address"
        }
      ],
      "stateMutability": "view",
      "type": "function"
    },
    {
      "inputs": [],
      "name": "globalMasterChef",
      "outputs": [
        {
          "internalType": "contract IGlobalMasterChef",
          "name": "",
          "type": "address"
        }
      ],
      "stateMutability": "view",
      "type": "function"
    },
    {
      "inputs": [],
      "name": "minTokenAmountToDistribute",
      "outputs": [
        {
          "internalType": "uint256",
          "name": "",
          "type": "uint256"
        }
      ],
      "stateMutability": "view",
      "type": "function"
    },
    {
      "inputs": [],
      "name": "owner",
      "outputs": [
        {
          "internalType": "address",
          "name": "",
          "type": "address"
        }
      ],
      "stateMutability": "view",
      "type": "function"
    },
    {
      "inputs": [],
      "name": "penaltyFees",
      "outputs": [
        {
          "internalType": "uint16",
          "name": "fee",
          "type": "uint16"
        },
        {
          "internalType": "uint256",
          "name": "interval",
          "type": "uint256"
        }
      ],
      "stateMutability": "view",
      "type": "function"
    },
    {
      "inputs": [],
      "name": "pid",
      "outputs": [
        {
          "internalType": "uint256",
          "name": "",
          "type": "uint256"
        }
      ],
      "stateMutability": "view",
      "type": "function"
    },
    {
      "inputs": [],
      "name": "renounceOwnership",
      "outputs": [],
      "stateMutability": "nonpayable",
      "type": "function"
    },
    {
      "inputs": [],
      "name": "rewardsToken",
      "outputs": [
        {
          "internalType": "address",
          "name": "",
          "type": "address"
        }
      ],
      "stateMutability": "view",
      "type": "function"
    },
    {
      "inputs": [
        {
          "internalType": "address",
          "name": "_depository",
          "type": "address"
        },
        {
          "internalType": "bool",
          "name": "_canDeposit",
          "type": "bool"
        }
      ],
      "name": "setDepositary",
      "outputs": [],
      "stateMutability": "nonpayable",
      "type": "function"
    },
    {
      "inputs": [
        {
          "internalType": "uint256",
          "name": "_newAmount",
          "type": "uint256"
        }
      ],
      "name": "setMinTokenAmountToDistribute",
      "outputs": [],
      "stateMutability": "nonpayable",
      "type": "function"
    },
    {
      "inputs": [
        {
          "internalType": "uint16",
          "name": "_fee",
          "type": "uint16"
        },
        {
          "internalType": "uint256",
          "name": "_interval",
          "type": "uint256"
        }
      ],
      "name": "setPenaltyFees",
      "outputs": [],
      "stateMutability": "nonpayable",
      "type": "function"
    },
    {
      "inputs": [
        {
          "internalType": "address",
          "name": "_rewarder",
          "type": "address"
        },
        {
          "internalType": "bool",
          "name": "_canReward",
          "type": "bool"
        }
      ],
      "name": "setRewarder",
      "outputs": [],
      "stateMutability": "nonpayable",
      "type": "function"
    },
    {
      "inputs": [],
      "name": "stakingToken",
      "outputs": [
        {
          "internalType": "address",
          "name": "",
          "type": "address"
        }
      ],
      "stateMutability": "view",
      "type": "function"
    },
    {
      "inputs": [],
      "name": "totalSupply",
      "outputs": [
        {
          "internalType": "uint256",
          "name": "",
          "type": "uint256"
        }
      ],
      "stateMutability": "view",
      "type": "function"
    },
    {
      "inputs": [
        {
          "internalType": "address",
          "name": "newOwner",
          "type": "address"
        }
      ],
      "name": "transferOwnership",
      "outputs": [],
      "stateMutability": "nonpayable",
      "type": "function"
    },
    {
      "inputs": [
        {
          "internalType": "uint256",
          "name": "_amount",
          "type": "uint256"
        }
      ],
      "name": "triggerDistribute",
      "outputs": [],
      "stateMutability": "nonpayable",
      "type": "function"
    },
    {
      "inputs": [
        {
          "internalType": "uint256",
          "name": "",
          "type": "uint256"
        }
      ],
      "name": "users",
      "outputs": [
        {
          "internalType": "address",
          "name": "",
          "type": "address"
        }
      ],
      "stateMutability": "view",
      "type": "function"
    },
    {
      "inputs": [],
      "name": "vaultLocked",
      "outputs": [
        {
          "internalType": "contract VaultLocked",
          "name": "",
          "type": "address"
        }
      ],
      "stateMutability": "view",
      "type": "function"
    },
    {
      "inputs": [],
      "name": "withdraw",
      "outputs": [],
      "stateMutability": "nonpayable",
      "type": "function"
    },
    {
      "inputs": [],
      "name": "withdrawWithoutFees",
      "outputs": [],
      "stateMutability": "nonpayable",
      "type": "function"
    }
  ],
  "bytecode": "0x60806040523480156200001157600080fd5b506040516200287138038062002871833981810160405260808110156200003757600080fd5b5080516020820151604083015160609093015160016000908155929391926200005f6200013c565b600180546001600160a01b0319166001600160a01b038316908117909155604051919250906000907f8be0079c531659141344cd1fd0a4f28419497f9722a3daafe3b4186f6b6457e0908290a35060006009819055600580546001600160a01b038088166001600160a01b03199283161792839055600680548883169084161790556007805487831690841617905560088054868316931692909217909155600b92909255670de0b6b3a7640000600a55600f805461ffff19166064179055628284806010556200013291168362000140565b50505050620005a4565b3390565b62000166816000846001600160a01b03166200019160201b62001361179092919060201c565b6200018d81600019846001600160a01b03166200019160201b62001361179092919060201c565b5050565b8015806200021b575060408051636eb1769f60e11b81523060048201526001600160a01b03848116602483015291519185169163dd62ed3e91604480820192602092909190829003018186803b158015620001eb57600080fd5b505afa15801562000200573d6000803e3d6000fd5b505050506040513d60208110156200021757600080fd5b5051155b620002585760405162461bcd60e51b81526004018080602001828103825260368152602001806200283b6036913960400191505060405180910390fd5b604080516001600160a01b038416602482015260448082018490528251808303909101815260649091019091526020810180516001600160e01b0390811663095ea7b360e01b17909152620002b0918591620002b516565b505050565b606062000311826040518060400160405280602081526020017f5361666542455032303a206c6f772d6c6576656c2063616c6c206661696c6564815250856001600160a01b03166200037160201b62001492179092919060201c565b805190915015620002b0578080602001905160208110156200033257600080fd5b5051620002b05760405162461bcd60e51b815260040180806020018281038252602a815260200180620027eb602a913960400191505060405180910390fd5b60606200038284846000856200038c565b90505b9392505050565b606082471015620003cf5760405162461bcd60e51b8152600401808060200182810382526026815260200180620028156026913960400191505060405180910390fd5b620003da85620004f4565b6200042c576040805162461bcd60e51b815260206004820152601d60248201527f416464726573733a2063616c6c20746f206e6f6e2d636f6e7472616374000000604482015290519081900360640190fd5b60006060866001600160a01b031685876040518082805190602001908083835b602083106200046d5780518252601f1990920191602091820191016200044c565b6001836020036101000a03801982511681845116808217855250505050505090500191505060006040518083038185875af1925050503d8060008114620004d1576040519150601f19603f3d011682016040523d82523d6000602084013e620004d6565b606091505b509092509050620004e9828286620004fa565b979650505050505050565b3b151590565b606083156200050b57508162000385565b8251156200051c5782518084602001fd5b8160405162461bcd60e51b81526004018080602001828103825283818151815260200191508051906020019080838360005b83811015620005685781810151838201526020016200054e565b50505050905090810190601f168015620005965780820380516001836020036101000a031916815260200191505b509250505060405180910390fd5b61223780620005b46000396000f3fe608060405234801561001057600080fd5b50600436106102255760003560e01c806372f702f31161012a578063c66cfd00116100bd578063d70f4c791161008c578063f106845411610071578063f106845414610549578063f2fde38b14610551578063f7cbe4eb1461057757610225565b8063d70f4c7914610539578063e07148851461054157610225565b8063c66cfd00146104c9578063cdc0e2e7146104ef578063d013cbe214610529578063d1af0c7d1461053157610225565b8063a750212e116100f9578063a750212e14610427578063b69ef8a814610455578063b9d774df1461045d578063c10cf7f4146104a257610225565b806372f702f3146103e15780638da5cb5b146103e95780639be0e577146103f1578063a05f99061461041f57610225565b80633d18b912116101bd578063595b1a3e1161018c5780636e553f65116101715780636e553f651461038757806370a08231146103b3578063715018a6146103d957610225565b8063595b1a3e146103625780636d94ad2f1461036a57610225565b80633d18b9121461032d57806349a876e4146103355780634e0cd7991461033d5780634e4c72df1461034557610225565b806321b11a2e116101f957806321b11a2e146102b45780632c561893146102e0578063365b98b2146103065780633ccfd60b1461032357610225565b80628cc2621461022a57806318160ddd146102625780631d2005c31461026a57806320d4e92d1461028e575b600080fd5b6102506004803603602081101561024057600080fd5b50356001600160a01b031661057f565b60408051918252519081900360200190f35b6102506105b9565b6102726105bf565b604080516001600160a01b039092168252519081900360200190f35b610250600480360360208110156102a457600080fd5b50356001600160a01b03166105ce565b610250600480360360408110156102ca57600080fd5b50803590602001356001600160a01b0316610695565b610250600480360360208110156102f657600080fd5b50356001600160a01b0316610762565b6102726004803603602081101561031c57600080fd5b5035610774565b61032b61079b565b005b61032b6108e5565b610272610971565b610250610980565b61032b6004803603602081101561035b57600080fd5b5035610986565b610250610a55565b61032b6004803603602081101561038057600080fd5b5035610a5b565b61032b6004803603604081101561039d57600080fd5b50803590602001356001600160a01b0316610aca565b610250600480360360208110156103c957600080fd5b50356001600160a01b0316610d42565b61032b610d66565b610272610e1a565b610272610e29565b61032b6004803603604081101561040757600080fd5b506001600160a01b0381351690602001351515610e38565b610272610ef6565b61032b6004803603604081101561043d57600080fd5b506001600160a01b0381351690602001351515610f05565b610250610fc0565b6104896004803603604081101561047357600080fd5b506001600160a01b03813516906020013561105d565b6040805192835260208301919091528051918290030190f35b61032b600480360360408110156104b857600080fd5b5061ffff8135169060200135611096565b6104d161111c565b6040805161ffff909316835260208301919091528051918290030190f35b6105156004803603602081101561050557600080fd5b50356001600160a01b031661112c565b604080519115158252519081900360200190f35b610250611141565b610272611147565b610250611156565b61027261115c565b61025061116b565b61032b6004803603602081101561056757600080fd5b50356001600160a01b0316611171565b61032b6111e7565b60008061058b836105ce565b11156105b057506001600160a01b0381166000908152600d60205260409020546105b4565b5060005b919050565b600e5481565b6008546001600160a01b031681565b6001600160a01b03811660009081526004602090815260408083208054825181850281018501909352808352606093859084015b8282101561064857838290600052602060002090600202016040518060400160405290816000820154815260200160018201548152505081526020019060010190610602565b50505050905060005b815181101561068e5761068482828151811061066957fe5b602002602001015160000151846114ab90919063ffffffff16565b9250600101610651565b5050919050565b6001600160a01b03811660009081526004602090815260408083208054825181850281018501909352808352606093859084015b8282101561070f578382906000526020600020906002020160405180604001604052908160008201548152602001600182015481525050815260200190600101906106c9565b50505050905060005b815181101561075a578482828151811061072e57fe5b60200260200101516020015110156107525761074f82828151811061066957fe5b92505b600101610718565b505092915050565b600d6020526000908152604090205481565b600c818154811061078157fe5b6000918252602090912001546001600160a01b0316905081565b600260005414156107f3576040805162461bcd60e51b815260206004820152601f60248201527f5265656e7472616e637947756172643a207265656e7472616e742063616c6c00604482015290519081900360640190fd5b60026000908155610803336105ce565b905060006108114233610695565b9050600061081f8383611505565b9050600061082c3361057f565b60075460408051631058d28160e01b81526004810188905290519293506001600160a01b0390911691631058d2819160248082019260009290919082900301818387803b15801561087c57600080fd5b505af1158015610890573d6000803e3d6000fd5b5050505061089e8284611562565b6108a781611759565b600e546108b49085611505565b600e556108c0336117b8565b6108c9336117d9565b5050336000908152600d60205260408120819055600190555050565b6002600054141561093d576040805162461bcd60e51b815260206004820152601f60248201527f5265656e7472616e637947756172643a207265656e7472616e742063616c6c00604482015290519081900360640190fd5b6002600090815561094d3361057f565b905061095881611759565b50336000908152600d6020526040812081905560019055565b6006546001600160a01b031681565b6103e881565b600260005414156109de576040805162461bcd60e51b815260206004820152601f60248201527f5265656e7472616e637947756172643a207265656e7472616e742063616c6c00604482015290519081900360640190fd5b600260009081553381526003602052604090205460ff161515600114610a355760405162461bcd60e51b81526004018080602001828103825260268152602001806121076026913960400191505060405180910390fd5b600b54610a4290826114ab565b600b55610a4d6118c6565b506001600055565b600c5490565b610a63611a25565b6001546001600160a01b03908116911614610ac5576040805162461bcd60e51b815260206004820181905260248201527f4f776e61626c653a2063616c6c6572206973206e6f7420746865206f776e6572604482015290519081900360640190fd5b600a55565b3360009081526002602052604090205460ff161515600114610b1d5760405162461bcd60e51b81526004018080602001828103825260298152602001806121d96029913960400191505060405180910390fd5b600554600090610b38906001600160a01b0316333086611a29565b60046000836001600160a01b03166001600160a01b031681526020019081526020016000206040518060400160405280858152602001610b86600f60010154426114ab90919063ffffffff16565b905281546001818101845560009384526020808520845160029094020192835590920151910155600754604080517f41441d3b0000000000000000000000000000000000000000000000000000000081526004810187905290516001600160a01b03909216926341441d3b9260248084019382900301818387803b158015610c0d57600080fd5b505af1158015610c21573d6000803e3d6000fd5b5050505060005b600c54811015610c7557826001600160a01b0316600c8281548110610c4957fe5b6000918252602090912001546001600160a01b03161415610c6d5760019150610c75565b600101610c28565b5080610cc757600c80546001810182556000919091527fdf6966c971051c3d54ec59162606531493a51404a002842f56009d7e5cf4a8c70180546001600160a01b0319166001600160a01b0384161790555b600e54610cd490846114ab565b600e55610ce08261057f565b610cfe576001600160a01b0382166000908152600d60205260408120555b6040805184815290516001600160a01b038416917f2da466a7b24304f47e87fa2e1e5a81b9831ce54fec19055ce277ca2f39ba42c4919081900360200190a2505050565b6000600e5460001415610d57575060006105b4565b610d60826105ce565b92915050565b610d6e611a25565b6001546001600160a01b03908116911614610dd0576040805162461bcd60e51b815260206004820181905260248201527f4f776e61626c653a2063616c6c6572206973206e6f7420746865206f776e6572604482015290519081900360640190fd5b6001546040516000916001600160a01b0316907f8be0079c531659141344cd1fd0a4f28419497f9722a3daafe3b4186f6b6457e0908390a3600180546001600160a01b0319169055565b6005546001600160a01b031690565b6001546001600160a01b031690565b610e40611a25565b6001546001600160a01b03908116911614610ea2576040805162461bcd60e51b815260206004820181905260248201527f4f776e61626c653a2063616c6c6572206973206e6f7420746865206f776e6572604482015290519081900360640190fd5b8015610ed1576001600160a01b0382166000908152600260205260409020805460ff1916821515179055610ef2565b6001600160a01b0382166000908152600260205260409020805460ff191690555b5050565b6005546001600160a01b031681565b610f0d611a25565b6001546001600160a01b03908116911614610f6f576040805162461bcd60e51b815260206004820181905260248201527f4f776e61626c653a2063616c6c6572206973206e6f7420746865206f776e6572604482015290519081900360640190fd5b8015610f9e576001600160a01b0382166000908152600360205260409020805460ff1916821515179055610ef2565b506001600160a01b03166000908152600360205260409020805460ff19169055565b600754600954604080517f93f1a40b000000000000000000000000000000000000000000000000000000008152600481019290925230602483015280516000936001600160a01b0316926393f1a40b926044808301939192829003018186803b15801561102c57600080fd5b505afa158015611040573d6000803e3d6000fd5b505050506040513d604081101561105657600080fd5b5051919050565b6004602052816000526040600020818154811061107657fe5b600091825260209091206002909102018054600190910154909250905082565b61109e611a25565b6001546001600160a01b03908116911614611100576040805162461bcd60e51b815260206004820181905260248201527f4f776e61626c653a2063616c6c6572206973206e6f7420746865206f776e6572604482015290519081900360640190fd5b600f805461ffff191661ffff9390931692909217909155601055565b600f5460105461ffff9091169082565b60026020526000908152604090205460ff1681565b600b5481565b6006546001600160a01b031690565b600a5481565b6007546001600160a01b031681565b60095481565b611179611a25565b6001546001600160a01b039081169116146111db576040805162461bcd60e51b815260206004820181905260248201527f4f776e61626c653a2063616c6c6572206973206e6f7420746865206f776e6572604482015290519081900360640190fd5b6111e481611aa2565b50565b6002600054141561123f576040805162461bcd60e51b815260206004820152601f60248201527f5265656e7472616e637947756172643a207265656e7472616e742063616c6c00604482015290519081900360640190fd5b600260009081556112504233610695565b9050600081116112915760405162461bcd60e51b815260040180806020018281038252602f8152602001806121aa602f913960400191505060405180910390fd5b600061129c3361057f565b60075460408051631058d28160e01b81526004810186905290519293506001600160a01b0390911691631058d2819160248082019260009290919082900301818387803b1580156112ec57600080fd5b505af1158015611300573d6000803e3d6000fd5b5050505061130f600083611562565b61131881611759565b600e546113259083611505565b600e5561133133611b43565b61133a336105ce565b61134757611347336117d9565b5050336000908152600d6020526040812081905560019055565b8015806114005750604080517fdd62ed3e0000000000000000000000000000000000000000000000000000000081523060048201526001600160a01b03848116602483015291519185169163dd62ed3e91604480820192602092909190829003018186803b1580156113d257600080fd5b505afa1580156113e6573d6000803e3d6000fd5b505050506040513d60208110156113fc57600080fd5b5051155b61143b5760405162461bcd60e51b81526004018080602001828103825260368152602001806121746036913960400191505060405180910390fd5b604080516001600160a01b038416602482015260448082018490528251808303909101815260649091019091526020810180516001600160e01b031663095ea7b360e01b17905261148d908490611c99565b505050565b60606114a18484600085611d4a565b90505b9392505050565b6000828201838110156114a4576040805162461bcd60e51b815260206004820152601b60248201527f536166654d6174683a206164646974696f6e206f766572666c6f770000000000604482015290519081900360640190fd5b60008282111561155c576040805162461bcd60e51b815260206004820152601e60248201527f536166654d6174683a207375627472616374696f6e206f766572666c6f770000604482015290519081900360640190fd5b50900390565b600080821561158f57600554611582906001600160a01b03163385611ea6565b61158c82846114ab565b91505b831561171957600f546000906115b890612710906115b290889061ffff16611f11565b90611f6a565b905060006115c68683611505565b90506103e88210156115e3576115dc81836114ab565b90506116e7565b6005546008546040805163095ea7b360e01b81526001600160a01b039283166004820152602481018690529051919092169163095ea7b39160448083019260209291908290030181600087803b15801561163c57600080fd5b505af1158015611650573d6000803e3d6000fd5b505050506040513d602081101561166657600080fd5b5050600854604080517f8bdf67f20000000000000000000000000000000000000000000000000000000081526004810185905290516001600160a01b0390921691638bdf67f29160248082019260009290919082900301818387803b1580156116ce57600080fd5b505af11580156116e2573d6000803e3d6000fd5b505050505b6005546116fe906001600160a01b03163383611ea6565b61170884826114ab565b935061171483836114ab565b925050505b6040805183815260208101839052815133927f92ccf450a286a957af52509bc1c9939d1a6a481783e142e41e2499f0bb66ebc6928290030190a250505050565b6103e8811015611768576111e4565b60065461177f906001600160a01b03163383611ea6565b60408051828152905133917fe2403640ba68fed3a2f88b7557551d1993f84b99bb10ff833f0cf8db0c5e0486919081900360200190a250565b6001600160a01b03811660009081526004602052604081206111e49161207b565b60005b600c54811015610ef257816001600160a01b0316600c82815481106117fd57fe5b6000918252602090912001546001600160a01b031614156118be57805b600c546000190181101561188f57600c816001018154811061183857fe5b600091825260209091200154600c80546001600160a01b03909216918390811061185e57fe5b600091825260209091200180546001600160a01b0319166001600160a01b039290921691909117905560010161181a565b50600c80548061189b57fe5b600082815260209020810160001990810180546001600160a01b03191690550190555b6001016117dc565b600b54600a548110156118d95750611a23565b600c546118e65750611a23565b60005b600c548110156119d9576000611930600e546115b2606461192a600c878154811061191057fe5b6000918252602090912001546001600160a01b03166105ce565b90611f11565b9050600061194360646115b28685611f11565b600b549091506119539082611505565b600b8190555061199981600d6000600c878154811061196e57fe5b60009182526020808320909101546001600160a01b03168352820192909252604001902054906114ab565b600d6000600c86815481106119aa57fe5b60009182526020808320909101546001600160a01b0316835282019290925260400190205550506001016118e9565b507fddc9c30275a04c48091f24199f9c405765de34d979d6847f5b9798a57232d2e5611a10600b548361150590919063ffffffff16565b60408051918252519081900360200190a1505b565b3390565b604080516001600160a01b0380861660248301528416604482015260648082018490528251808303909101815260849091019091526020810180516001600160e01b03167f23b872dd00000000000000000000000000000000000000000000000000000000179052611a9c908590611c99565b50505050565b6001600160a01b038116611ae75760405162461bcd60e51b81526004018080602001828103825260268152602001806120e16026913960400191505060405180910390fd5b6001546040516001600160a01b038084169216907f8be0079c531659141344cd1fd0a4f28419497f9722a3daafe3b4186f6b6457e090600090a3600180546001600160a01b0319166001600160a01b0392909216919091179055565b425b6001600160a01b03821660009081526004602052604090205415801590611b9e57506001600160a01b03821660009081526004602052604081208054839290611b8a57fe5b906000526020600020906002020160010154105b15610ef25760005b6001600160a01b03831660009081526004602052604090205460001901811015611c54576001600160a01b0383166000908152600460205260409020805460018301908110611bf157fe5b906000526020600020906002020160046000856001600160a01b03166001600160a01b031681526020019081526020016000208281548110611c2f57fe5b6000918252602090912082546002909202019081556001918201549082015501611ba6565b506001600160a01b0382166000908152600460205260409020805480611c7657fe5b600082815260208120600260001990930192830201818155600101559055611b45565b6060611cee826040518060400160405280602081526020017f5361666542455032303a206c6f772d6c6576656c2063616c6c206661696c6564815250856001600160a01b03166114929092919063ffffffff16565b80519091501561148d57808060200190516020811015611d0d57600080fd5b505161148d5760405162461bcd60e51b815260040180806020018281038252602a8152602001806120b7602a913960400191505060405180910390fd5b606082471015611d8b5760405162461bcd60e51b815260040180806020018281038252602681526020018061212d6026913960400191505060405180910390fd5b611d9485611fd1565b611de5576040805162461bcd60e51b815260206004820152601d60248201527f416464726573733a2063616c6c20746f206e6f6e2d636f6e7472616374000000604482015290519081900360640190fd5b60006060866001600160a01b031685876040518082805190602001908083835b60208310611e245780518252601f199092019160209182019101611e05565b6001836020036101000a03801982511681845116808217855250505050505090500191505060006040518083038185875af1925050503d8060008114611e86576040519150601f19603f3d011682016040523d82523d6000602084013e611e8b565b606091505b5091509150611e9b828286611fd7565b979650505050505050565b604080516001600160a01b038416602482015260448082018490528251808303909101815260649091019091526020810180516001600160e01b03167fa9059cbb0000000000000000000000000000000000000000000000000000000017905261148d908490611c99565b600082611f2057506000610d60565b82820282848281611f2d57fe5b04146114a45760405162461bcd60e51b81526004018080602001828103825260218152602001806121536021913960400191505060405180910390fd5b6000808211611fc0576040805162461bcd60e51b815260206004820152601a60248201527f536166654d6174683a206469766973696f6e206279207a65726f000000000000604482015290519081900360640190fd5b818381611fc957fe5b049392505050565b3b151590565b60608315611fe65750816114a4565b825115611ff65782518084602001fd5b8160405162461bcd60e51b81526004018080602001828103825283818151815260200191508051906020019080838360005b83811015612040578181015183820152602001612028565b50505050905090810190601f16801561206d5780820380516001836020036101000a031916815260200191505b509250505060405180910390fd5b50805460008255600202906000526020600020908101906111e491905b808211156120b25760008082556001820155600201612098565b509056fe5361666542455032303a204245503230206f7065726174696f6e20646964206e6f7420737563636565644f776e61626c653a206e6577206f776e657220697320746865207a65726f20616464726573734f6e6c79207265776172646572732063616e20706572666f726d207468697320616374696f6e416464726573733a20696e73756666696369656e742062616c616e636520666f722063616c6c536166654d6174683a206d756c7469706c69636174696f6e206f766572666c6f775361666542455032303a20617070726f76652066726f6d206e6f6e2d7a65726f20746f206e6f6e2d7a65726f20616c6c6f77616e63655661756c745665737465643a204e6f20746f6b656e7320746f20776974686472617720776974686f757420666565734f6e6c79206465706f7369746f726965732063616e20706572666f726d207468697320616374696f6ea2646970667358221220f8d0b9aeb12bac77f85fd4c602235d1e20b26bfec86558109e2da1935c3765ec64736f6c634300060c00335361666542455032303a204245503230206f7065726174696f6e20646964206e6f742073756363656564416464726573733a20696e73756666696369656e742062616c616e636520666f722063616c6c5361666542455032303a20617070726f76652066726f6d206e6f6e2d7a65726f20746f206e6f6e2d7a65726f20616c6c6f77616e6365",
  "linkReferences": {},
  "deployedLinkReferences": {}
}