{
  "_format": "hh-sol-artifact-1",
  "contractName": "Oracle",
  "sourceName": "contracts/Helpers/Oracle.sol",
  "abi": [
    {
      "inputs": [
        {
          "internalType": "address",
          "name": "factory_",
          "type": "address"
        },
        {
          "internalType": "bytes32",
          "name": "INIT_CODE_HASH_",
          "type": "bytes32"
        },
        {
          "internalType": "address",
          "name": "priceUpdater_",
          "type": "address"
        }
      ],
      "stateMutability": "nonpayable",
      "type": "constructor"
    },
    {
      "inputs": [],
      "name": "CYCLE",
      "outputs": [
        {
          "internalType": "uint256",
          "name": "",
          "type": "uint256"
        }
      ],
      "stateMutability": "view",
      "type": "function"
    },
    {
      "inputs": [
        {
          "internalType": "address",
          "name": "tokenIn",
          "type": "address"
        },
        {
          "internalType": "uint256",
          "name": "amountIn",
          "type": "uint256"
        },
        {
          "internalType": "address",
          "name": "tokenOut",
          "type": "address"
        }
      ],
      "name": "consult",
      "outputs": [
        {
          "internalType": "uint256",
          "name": "amountOut",
          "type": "uint256"
        }
      ],
      "stateMutability": "view",
      "type": "function"
    },
    {
      "inputs": [],
      "name": "factory",
      "outputs": [
        {
          "internalType": "address",
          "name": "",
          "type": "address"
        }
      ],
      "stateMutability": "view",
      "type": "function"
    },
    {
      "inputs": [
        {
          "internalType": "address",
          "name": "tokenA",
          "type": "address"
        },
        {
          "internalType": "address",
          "name": "tokenB",
          "type": "address"
        }
      ],
      "name": "pairFor",
      "outputs": [
        {
          "internalType": "address",
          "name": "pair",
          "type": "address"
        }
      ],
      "stateMutability": "view",
      "type": "function"
    },
    {
      "inputs": [
        {
          "internalType": "address",
          "name": "",
          "type": "address"
        }
      ],
      "name": "pairObservations",
      "outputs": [
        {
          "internalType": "uint256",
          "name": "timestamp",
          "type": "uint256"
        },
        {
          "internalType": "uint256",
          "name": "price0Cumulative",
          "type": "uint256"
        },
        {
          "internalType": "uint256",
          "name": "price1Cumulative",
          "type": "uint256"
        }
      ],
      "stateMutability": "view",
      "type": "function"
    },
    {
      "inputs": [],
      "name": "priceUpdater",
      "outputs": [
        {
          "internalType": "address",
          "name": "",
          "type": "address"
        }
      ],
      "stateMutability": "view",
      "type": "function"
    },
    {
      "inputs": [
        {
          "internalType": "address",
          "name": "tokenA",
          "type": "address"
        },
        {
          "internalType": "address",
          "name": "tokenB",
          "type": "address"
        }
      ],
      "name": "sortTokens",
      "outputs": [
        {
          "internalType": "address",
          "name": "token0",
          "type": "address"
        },
        {
          "internalType": "address",
          "name": "token1",
          "type": "address"
        }
      ],
      "stateMutability": "pure",
      "type": "function"
    },
    {
      "inputs": [
        {
          "internalType": "address",
          "name": "tokenA",
          "type": "address"
        },
        {
          "internalType": "address",
          "name": "tokenB",
          "type": "address"
        }
      ],
      "name": "update",
      "outputs": [],
      "stateMutability": "nonpayable",
      "type": "function"
    }
  ],
  "bytecode": "0x60a060405234801561001057600080fd5b50604051610afd380380610afd8339818101604052606081101561003357600080fd5b5080516020820151604090920151606082901b6001600160601b031916608052600192909255600080546001600160a01b0319166001600160a01b03938416178155911690610a699061009490398061045852806104b55250610a696000f3fe608060405234801561001057600080fd5b50600436106100885760003560e01c80639e8d48d01161005b5780639e8d48d0146101c0578063c45a0155146101c8578063c640752d146101d0578063fc612a8d1461020057610088565b8063402e1abf1461008d578063544caa56146100d15780638c86f1e41461012e57806396ed28f914610176575b600080fd5b6100b3600480360360208110156100a357600080fd5b50356001600160a01b0316610208565b60408051938452602084019290925282820152519081900360600190f35b6100ff600480360360408110156100e757600080fd5b506001600160a01b0381358116916020013516610228565b60405180836001600160a01b03168152602001826001600160a01b031681526020019250505060405180910390f35b6101646004803603606081101561014457600080fd5b506001600160a01b03813581169160208101359160409091013516610306565b60408051918252519081900360200190f35b6101a46004803603604081101561018c57600080fd5b506001600160a01b03813581169160200135166103dc565b604080516001600160a01b039092168252519081900360200190f35b6101646104ad565b6101a46104b3565b6101fe600480360360408110156101e657600080fd5b506001600160a01b03813581169160200135166104d7565b005b6101a46105cc565b600260208190526000918252604090912080546001820154919092015483565b600080826001600160a01b0316846001600160a01b0316141561027c5760405162461bcd60e51b81526004018080602001828103825260238152602001806109ee6023913960400191505060405180910390fd5b826001600160a01b0316846001600160a01b03161061029c57828461029f565b83835b90925090506001600160a01b0382166102ff576040805162461bcd60e51b815260206004820152601c60248201527f42535753776170466163746f72793a205a45524f5f4144445245535300000000604482015290519081900360640190fd5b9250929050565b60008061031385846103dc565b6001600160a01b0381166000908152600260205260409020600181015491925090158061035a57506001600160a01b03821660009081526002602081905260409091200154155b1561036a576000925050506103d5565b8054420360008061037a856105db565b5091509150600061038b8a89610228565b509050896001600160a01b0316816001600160a01b031614156103c5576103b8856001015484868c6107dc565b96505050505050506103d5565b6103b8856002015483868c6107dc565b9392505050565b60008060006103eb8585610228565b604080516bffffffffffffffffffffffff19606094851b811660208084019190915293851b81166034830152825160288184030181526048830184528051908501206001547fff0000000000000000000000000000000000000000000000000000000000000060688501527f000000000000000000000000000000000000000000000000000000000000000090961b9091166069830152607d820152609d808201949094528151808203909401845260bd019052815191012095945050505050565b61038481565b7f000000000000000000000000000000000000000000000000000000000000000081565b6000546001600160a01b031633146105205760405162461bcd60e51b81526004018080602001828103825260368152602001806109b86036913960400191505060405180910390fd5b600061052c83836103dc565b6001600160a01b038116600090815260026020526040902080549192509042036103848110156105a3576040805162461bcd60e51b815260206004820152601d60248201527f4253574f7261636c653a20504552494f445f4e4f545f454c4150534544000000604482015290519081900360640190fd5b6000806105af856105db565b504286556001860191909155600290940193909355505050505050565b6000546001600160a01b031681565b60008060006105e861083a565b9050836001600160a01b0316635909c0d56040518163ffffffff1660e01b815260040160206040518083038186803b15801561062357600080fd5b505afa158015610637573d6000803e3d6000fd5b505050506040513d602081101561064d57600080fd5b5051604080517f5a3d549300000000000000000000000000000000000000000000000000000000815290519194506001600160a01b03861691635a3d549391600480820192602092909190829003018186803b1580156106ac57600080fd5b505afa1580156106c0573d6000803e3d6000fd5b505050506040513d60208110156106d657600080fd5b5051604080517f0902f1ac0000000000000000000000000000000000000000000000000000000081529051919350600091829182916001600160a01b03891691630902f1ac916004808301926060929190829003018186803b15801561073b57600080fd5b505afa15801561074f573d6000803e3d6000fd5b505050506040513d606081101561076557600080fd5b5080516020820151604090920151909450909250905063ffffffff808216908516146107d25780840363ffffffff811661079f8486610844565b516001600160e01b031602969096019563ffffffff81166107c08585610844565b516001600160e01b0316029590950194505b5050509193909250565b60006107e6610992565b604051806020016040528085888803816107fc57fe5b046001600160e01b03169052905061081c610817828561090d565b61098b565b71ffffffffffffffffffffffffffffffffffff169695505050505050565b63ffffffff421690565b61084c610992565b6000826dffffffffffffffffffffffffffff16116108b1576040805162461bcd60e51b815260206004820152601760248201527f4669786564506f696e743a204449565f42595f5a45524f000000000000000000604482015290519081900360640190fd5b6040805160208101909152806dffffffffffffffffffffffffffff84167bffffffffffffffffffffffffffff0000000000000000000000000000607087901b16816108f857fe5b046001600160e01b0316815250905092915050565b6109156109a4565b600082158061093b57505082516001600160e01b03168281029083828161093857fe5b04145b6109765760405162461bcd60e51b8152600401808060200182810382526023815260200180610a116023913960400191505060405180910390fd5b60408051602081019091529081529392505050565b5160701c90565b60408051602081019091526000815290565b604051806020016040528060008152509056fe4253574f7261636c653a2050726963652063616e20757064617465206f6e6c792070726963652075706461746572206164647265737342535753776170466163746f72793a204944454e544943414c5f4144445245535345534669786564506f696e743a204d554c5449504c49434154494f4e5f4f564552464c4f57a26469706673582212202b3b3619083b5f42942fd65abf4800e7b3ab811a9ebb092601c52cd9143a83d664736f6c634300060c0033",
  "linkReferences": {},
  "deployedLinkReferences": {}
}