{
  "_format": "hh-sol-artifact-1",
  "contractName": "VaultCakeWBNBLP",
  "sourceName": "contracts/Vaults/VaultCakeWBNBLP.sol",
  "abi": [
    {
      "inputs": [
        {
          "internalType": "uint256",
          "name": "_pid",
          "type": "uint256"
        },
        {
          "internalType": "address",
          "name": "_lpToken",
          "type": "address"
        },
        {
          "internalType": "address",
          "name": "_global",
          "type": "address"
        },
        {
          "internalType": "address",
          "name": "_cake",
          "type": "address"
        },
        {
          "internalType": "address",
          "name": "_wbnb",
          "type": "address"
        },
        {
          "internalType": "address",
          "name": "_cakeMasterChef",
          "type": "address"
        },
        {
          "internalType": "address",
          "name": "_cakeRouter",
          "type": "address"
        },
        {
          "internalType": "address",
          "name": "_treasury",
          "type": "address"
        },
        {
          "internalType": "address",
          "name": "_tokenAddresses",
          "type": "address"
        },
        {
          "internalType": "address",
          "name": "_globalRouter",
          "type": "address"
        },
        {
          "internalType": "address",
          "name": "_pathFinder",
          "type": "address"
        },
        {
          "internalType": "address",
          "name": "_vaultDistribution",
          "type": "address"
        },
        {
          "internalType": "address",
          "name": "_vaultVested",
          "type": "address"
        },
        {
          "internalType": "address",
          "name": "_vaultCake",
          "type": "address"
        }
      ],
      "stateMutability": "nonpayable",
      "type": "constructor"
    },
    {
      "anonymous": false,
      "inputs": [
        {
          "indexed": true,
          "internalType": "address",
          "name": "user",
          "type": "address"
        },
        {
          "indexed": false,
          "internalType": "uint256",
          "name": "amount",
          "type": "uint256"
        }
      ],
      "name": "Deposited",
      "type": "event"
    },
    {
      "anonymous": false,
      "inputs": [],
      "name": "DisableWhitelist",
      "type": "event"
    },
    {
      "anonymous": false,
      "inputs": [],
      "name": "EnableWhitelist",
      "type": "event"
    },
    {
      "anonymous": false,
      "inputs": [
        {
          "indexed": false,
          "internalType": "uint256",
          "name": "profit",
          "type": "uint256"
        }
      ],
      "name": "Harvested",
      "type": "event"
    },
    {
      "anonymous": false,
      "inputs": [
        {
          "indexed": true,
          "internalType": "address",
          "name": "previousOwner",
          "type": "address"
        },
        {
          "indexed": true,
          "internalType": "address",
          "name": "newOwner",
          "type": "address"
        }
      ],
      "name": "OwnershipTransferred",
      "type": "event"
    },
    {
      "anonymous": false,
      "inputs": [
        {
          "indexed": false,
          "internalType": "bool",
          "name": "isPaused",
          "type": "bool"
        }
      ],
      "name": "PauseChanged",
      "type": "event"
    },
    {
      "anonymous": false,
      "inputs": [
        {
          "indexed": true,
          "internalType": "address",
          "name": "user",
          "type": "address"
        },
        {
          "indexed": false,
          "internalType": "uint256",
          "name": "amount",
          "type": "uint256"
        }
      ],
      "name": "ProfitPaid",
      "type": "event"
    },
    {
      "anonymous": false,
      "inputs": [
        {
          "indexed": false,
          "internalType": "address",
          "name": "token",
          "type": "address"
        },
        {
          "indexed": false,
          "internalType": "uint256",
          "name": "amount",
          "type": "uint256"
        }
      ],
      "name": "Recovered",
      "type": "event"
    },
    {
      "anonymous": false,
      "inputs": [
        {
          "indexed": false,
          "internalType": "uint256",
          "name": "reward",
          "type": "uint256"
        }
      ],
      "name": "RewardAdded",
      "type": "event"
    },
    {
      "anonymous": false,
      "inputs": [
        {
          "indexed": false,
          "internalType": "uint256",
          "name": "newDuration",
          "type": "uint256"
        }
      ],
      "name": "RewardsDurationUpdated",
      "type": "event"
    },
    {
      "anonymous": false,
      "inputs": [
        {
          "indexed": true,
          "internalType": "address",
          "name": "_address",
          "type": "address"
        },
        {
          "indexed": false,
          "internalType": "bool",
          "name": "whitelist",
          "type": "bool"
        }
      ],
      "name": "Whitelisted",
      "type": "event"
    },
    {
      "anonymous": false,
      "inputs": [
        {
          "indexed": true,
          "internalType": "address",
          "name": "user",
          "type": "address"
        },
        {
          "indexed": false,
          "internalType": "uint256",
          "name": "amount",
          "type": "uint256"
        },
        {
          "indexed": false,
          "internalType": "uint256",
          "name": "withdrawalFee",
          "type": "uint256"
        }
      ],
      "name": "Withdrawn",
      "type": "event"
    },
    {
      "inputs": [],
      "name": "DUST",
      "outputs": [
        {
          "internalType": "uint256",
          "name": "",
          "type": "uint256"
        }
      ],
      "stateMutability": "view",
      "type": "function"
    },
    {
      "inputs": [],
      "name": "GLOBAL_BURN_ADDRESS",
      "outputs": [
        {
          "internalType": "address",
          "name": "",
          "type": "address"
        }
      ],
      "stateMutability": "view",
      "type": "function"
    },
    {
      "inputs": [],
      "name": "MAX_WITHDRAWAL_FEES",
      "outputs": [
        {
          "internalType": "uint16",
          "name": "",
          "type": "uint16"
        }
      ],
      "stateMutability": "view",
      "type": "function"
    },
    {
      "inputs": [],
      "name": "_stakingToken",
      "outputs": [
        {
          "internalType": "contract IBEP20",
          "name": "",
          "type": "address"
        }
      ],
      "stateMutability": "view",
      "type": "function"
    },
    {
      "inputs": [],
      "name": "balanceMC",
      "outputs": [
        {
          "internalType": "uint256",
          "name": "",
          "type": "uint256"
        }
      ],
      "stateMutability": "view",
      "type": "function"
    },
    {
      "inputs": [
        {
          "internalType": "address",
          "name": "account",
          "type": "address"
        }
      ],
      "name": "balanceOf",
      "outputs": [
        {
          "internalType": "uint256",
          "name": "",
          "type": "uint256"
        }
      ],
      "stateMutability": "view",
      "type": "function"
    },
    {
      "inputs": [],
      "name": "cake",
      "outputs": [
        {
          "internalType": "contract IBEP20",
          "name": "",
          "type": "address"
        }
      ],
      "stateMutability": "view",
      "type": "function"
    },
    {
      "inputs": [],
      "name": "cakeMasterChef",
      "outputs": [
        {
          "internalType": "contract ICakeMasterChef",
          "name": "",
          "type": "address"
        }
      ],
      "stateMutability": "view",
      "type": "function"
    },
    {
      "inputs": [],
      "name": "cakeRouter",
      "outputs": [
        {
          "internalType": "contract IRouterV2",
          "name": "",
          "type": "address"
        }
      ],
      "stateMutability": "view",
      "type": "function"
    },
    {
      "inputs": [
        {
          "internalType": "uint256",
          "name": "amount",
          "type": "uint256"
        }
      ],
      "name": "deposit",
      "outputs": [],
      "stateMutability": "nonpayable",
      "type": "function"
    },
    {
      "inputs": [],
      "name": "depositAll",
      "outputs": [],
      "stateMutability": "nonpayable",
      "type": "function"
    },
    {
      "inputs": [
        {
          "internalType": "address",
          "name": "account",
          "type": "address"
        }
      ],
      "name": "depositedAt",
      "outputs": [
        {
          "internalType": "uint256",
          "name": "",
          "type": "uint256"
        }
      ],
      "stateMutability": "view",
      "type": "function"
    },
    {
      "inputs": [
        {
          "internalType": "bool",
          "name": "disable",
          "type": "bool"
        }
      ],
      "name": "disableWhitelist",
      "outputs": [],
      "stateMutability": "nonpayable",
      "type": "function"
    },
    {
      "inputs": [
        {
          "internalType": "address",
          "name": "account",
          "type": "address"
        }
      ],
      "name": "earned",
      "outputs": [
        {
          "internalType": "uint256",
          "name": "",
          "type": "uint256"
        }
      ],
      "stateMutability": "view",
      "type": "function"
    },
    {
      "inputs": [],
      "name": "getReward",
      "outputs": [],
      "stateMutability": "nonpayable",
      "type": "function"
    },
    {
      "inputs": [],
      "name": "getRewardForDuration",
      "outputs": [
        {
          "internalType": "uint256",
          "name": "",
          "type": "uint256"
        }
      ],
      "stateMutability": "view",
      "type": "function"
    },
    {
      "inputs": [],
      "name": "global",
      "outputs": [
        {
          "internalType": "contract IBEP20",
          "name": "",
          "type": "address"
        }
      ],
      "stateMutability": "view",
      "type": "function"
    },
    {
      "inputs": [],
      "name": "globalRouter",
      "outputs": [
        {
          "internalType": "contract IRouterV2",
          "name": "",
          "type": "address"
        }
      ],
      "stateMutability": "view",
      "type": "function"
    },
    {
      "inputs": [],
      "name": "harvest",
      "outputs": [],
      "stateMutability": "nonpayable",
      "type": "function"
    },
    {
      "inputs": [
        {
          "internalType": "address",
          "name": "_address",
          "type": "address"
        }
      ],
      "name": "isWhitelist",
      "outputs": [
        {
          "internalType": "bool",
          "name": "",
          "type": "bool"
        }
      ],
      "stateMutability": "view",
      "type": "function"
    },
    {
      "inputs": [],
      "name": "lastPauseTime",
      "outputs": [
        {
          "internalType": "uint256",
          "name": "",
          "type": "uint256"
        }
      ],
      "stateMutability": "view",
      "type": "function"
    },
    {
      "inputs": [],
      "name": "lastTimeRewardApplicable",
      "outputs": [
        {
          "internalType": "uint256",
          "name": "",
          "type": "uint256"
        }
      ],
      "stateMutability": "view",
      "type": "function"
    },
    {
      "inputs": [],
      "name": "lastUpdateTime",
      "outputs": [
        {
          "internalType": "uint256",
          "name": "",
          "type": "uint256"
        }
      ],
      "stateMutability": "view",
      "type": "function"
    },
    {
      "inputs": [],
      "name": "minter",
      "outputs": [
        {
          "internalType": "contract IMinter",
          "name": "",
          "type": "address"
        }
      ],
      "stateMutability": "view",
      "type": "function"
    },
    {
      "inputs": [],
      "name": "owner",
      "outputs": [
        {
          "internalType": "address",
          "name": "",
          "type": "address"
        }
      ],
      "stateMutability": "view",
      "type": "function"
    },
    {
      "inputs": [],
      "name": "pathFinder",
      "outputs": [
        {
          "internalType": "contract IPathFinder",
          "name": "",
          "type": "address"
        }
      ],
      "stateMutability": "view",
      "type": "function"
    },
    {
      "inputs": [],
      "name": "paused",
      "outputs": [
        {
          "internalType": "bool",
          "name": "",
          "type": "bool"
        }
      ],
      "stateMutability": "view",
      "type": "function"
    },
    {
      "inputs": [],
      "name": "periodFinish",
      "outputs": [
        {
          "internalType": "uint256",
          "name": "",
          "type": "uint256"
        }
      ],
      "stateMutability": "view",
      "type": "function"
    },
    {
      "inputs": [],
      "name": "pid",
      "outputs": [
        {
          "internalType": "uint256",
          "name": "",
          "type": "uint256"
        }
      ],
      "stateMutability": "view",
      "type": "function"
    },
    {
      "inputs": [],
      "name": "priceShare",
      "outputs": [
        {
          "internalType": "uint256",
          "name": "",
          "type": "uint256"
        }
      ],
      "stateMutability": "view",
      "type": "function"
    },
    {
      "inputs": [
        {
          "internalType": "address",
          "name": "account",
          "type": "address"
        }
      ],
      "name": "principalOf",
      "outputs": [
        {
          "internalType": "uint256",
          "name": "",
          "type": "uint256"
        }
      ],
      "stateMutability": "view",
      "type": "function"
    },
    {
      "inputs": [
        {
          "internalType": "address",
          "name": "_token",
          "type": "address"
        },
        {
          "internalType": "uint256",
          "name": "amount",
          "type": "uint256"
        }
      ],
      "name": "recoverToken",
      "outputs": [],
      "stateMutability": "nonpayable",
      "type": "function"
    },
    {
      "inputs": [],
      "name": "renounceOwnership",
      "outputs": [],
      "stateMutability": "nonpayable",
      "type": "function"
    },
    {
      "inputs": [],
      "name": "rewardPerToken",
      "outputs": [
        {
          "internalType": "uint256",
          "name": "",
          "type": "uint256"
        }
      ],
      "stateMutability": "view",
      "type": "function"
    },
    {
      "inputs": [],
      "name": "rewardPerTokenStored",
      "outputs": [
        {
          "internalType": "uint256",
          "name": "",
          "type": "uint256"
        }
      ],
      "stateMutability": "view",
      "type": "function"
    },
    {
      "inputs": [],
      "name": "rewardRate",
      "outputs": [
        {
          "internalType": "uint256",
          "name": "",
          "type": "uint256"
        }
      ],
      "stateMutability": "view",
      "type": "function"
    },
    {
      "inputs": [
        {
          "internalType": "address",
          "name": "",
          "type": "address"
        }
      ],
      "name": "rewards",
      "outputs": [
        {
          "internalType": "uint256",
          "name": "",
          "type": "uint256"
        }
      ],
      "stateMutability": "view",
      "type": "function"
    },
    {
      "inputs": [],
      "name": "rewardsDuration",
      "outputs": [
        {
          "internalType": "uint256",
          "name": "",
          "type": "uint256"
        }
      ],
      "stateMutability": "view",
      "type": "function"
    },
    {
      "inputs": [],
      "name": "rewardsSetUp",
      "outputs": [
        {
          "internalType": "uint16",
          "name": "toUser",
          "type": "uint16"
        },
        {
          "internalType": "uint16",
          "name": "toOperations",
          "type": "uint16"
        },
        {
          "internalType": "uint16",
          "name": "toBuyGlobal",
          "type": "uint16"
        },
        {
          "internalType": "uint16",
          "name": "toBuyWBNB",
          "type": "uint16"
        },
        {
          "internalType": "uint16",
          "name": "toMintGlobal",
          "type": "uint16"
        }
      ],
      "stateMutability": "view",
      "type": "function"
    },
    {
      "inputs": [],
      "name": "rewardsToken",
      "outputs": [
        {
          "internalType": "address",
          "name": "",
          "type": "address"
        }
      ],
      "stateMutability": "view",
      "type": "function"
    },
    {
      "inputs": [
        {
          "internalType": "address",
          "name": "_minter",
          "type": "address"
        }
      ],
      "name": "setMinter",
      "outputs": [],
      "stateMutability": "nonpayable",
      "type": "function"
    },
    {
      "inputs": [
        {
          "internalType": "bool",
          "name": "_paused",
          "type": "bool"
        }
      ],
      "name": "setPaused",
      "outputs": [],
      "stateMutability": "nonpayable",
      "type": "function"
    },
    {
      "inputs": [
        {
          "internalType": "uint16",
          "name": "_toUser",
          "type": "uint16"
        },
        {
          "internalType": "uint16",
          "name": "_toOperations",
          "type": "uint16"
        },
        {
          "internalType": "uint16",
          "name": "_toBuyGlobal",
          "type": "uint16"
        },
        {
          "internalType": "uint16",
          "name": "_toBuyWBNB",
          "type": "uint16"
        },
        {
          "internalType": "uint16",
          "name": "_toMintGlobal",
          "type": "uint16"
        }
      ],
      "name": "setRewards",
      "outputs": [],
      "stateMutability": "nonpayable",
      "type": "function"
    },
    {
      "inputs": [
        {
          "internalType": "address",
          "name": "_address",
          "type": "address"
        },
        {
          "internalType": "bool",
          "name": "_on",
          "type": "bool"
        }
      ],
      "name": "setWhitelist",
      "outputs": [],
      "stateMutability": "nonpayable",
      "type": "function"
    },
    {
      "inputs": [
        {
          "internalType": "uint16",
          "name": "burn",
          "type": "uint16"
        },
        {
          "internalType": "uint16",
          "name": "team",
          "type": "uint16"
        },
        {
          "internalType": "uint256",
          "name": "interval",
          "type": "uint256"
        }
      ],
      "name": "setWithdrawalFees",
      "outputs": [],
      "stateMutability": "nonpayable",
      "type": "function"
    },
    {
      "inputs": [
        {
          "internalType": "address",
          "name": "account",
          "type": "address"
        }
      ],
      "name": "sharesOf",
      "outputs": [
        {
          "internalType": "uint256",
          "name": "",
          "type": "uint256"
        }
      ],
      "stateMutability": "view",
      "type": "function"
    },
    {
      "inputs": [],
      "name": "stakingToken",
      "outputs": [
        {
          "internalType": "address",
          "name": "",
          "type": "address"
        }
      ],
      "stateMutability": "view",
      "type": "function"
    },
    {
      "inputs": [],
      "name": "tokenAddresses",
      "outputs": [
        {
          "internalType": "contract TokenAddresses",
          "name": "",
          "type": "address"
        }
      ],
      "stateMutability": "view",
      "type": "function"
    },
    {
      "inputs": [],
      "name": "totalSupply",
      "outputs": [
        {
          "internalType": "uint256",
          "name": "",
          "type": "uint256"
        }
      ],
      "stateMutability": "view",
      "type": "function"
    },
    {
      "inputs": [
        {
          "internalType": "address",
          "name": "newOwner",
          "type": "address"
        }
      ],
      "name": "transferOwnership",
      "outputs": [],
      "stateMutability": "nonpayable",
      "type": "function"
    },
    {
      "inputs": [],
      "name": "treasury",
      "outputs": [
        {
          "internalType": "address",
          "name": "",
          "type": "address"
        }
      ],
      "stateMutability": "view",
      "type": "function"
    },
    {
      "inputs": [
        {
          "internalType": "address",
          "name": "",
          "type": "address"
        }
      ],
      "name": "userRewardPerTokenPaid",
      "outputs": [
        {
          "internalType": "uint256",
          "name": "",
          "type": "uint256"
        }
      ],
      "stateMutability": "view",
      "type": "function"
    },
    {
      "inputs": [],
      "name": "vaultDistribution",
      "outputs": [
        {
          "internalType": "contract VaultDistribution",
          "name": "",
          "type": "address"
        }
      ],
      "stateMutability": "view",
      "type": "function"
    },
    {
      "inputs": [],
      "name": "vaultVested",
      "outputs": [
        {
          "internalType": "contract VaultVested",
          "name": "",
          "type": "address"
        }
      ],
      "stateMutability": "view",
      "type": "function"
    },
    {
      "inputs": [],
      "name": "wbnb",
      "outputs": [
        {
          "internalType": "contract IBEP20",
          "name": "",
          "type": "address"
        }
      ],
      "stateMutability": "view",
      "type": "function"
    },
    {
      "inputs": [
        {
          "internalType": "uint256",
          "name": "amount",
          "type": "uint256"
        }
      ],
      "name": "withdraw",
      "outputs": [],
      "stateMutability": "nonpayable",
      "type": "function"
    },
    {
      "inputs": [],
      "name": "withdrawAll",
      "outputs": [],
      "stateMutability": "nonpayable",
      "type": "function"
    },
    {
      "inputs": [
        {
          "internalType": "uint256",
          "name": "_amount",
          "type": "uint256"
        }
      ],
      "name": "withdrawUnderlying",
      "outputs": [],
      "stateMutability": "nonpayable",
      "type": "function"
    },
    {
      "inputs": [
        {
          "internalType": "address",
          "name": "account",
          "type": "address"
        }
      ],
      "name": "withdrawableBalanceOf",
      "outputs": [
        {
          "internalType": "uint256",
          "name": "",
          "type": "uint256"
        }
      ],
      "stateMutability": "view",
      "type": "function"
    },
    {
      "inputs": [],
      "name": "withdrawalFees",
      "outputs": [
        {
          "internalType": "uint16",
          "name": "burn",
          "type": "uint16"
        },
        {
          "internalType": "uint16",
          "name": "team",
          "type": "uint16"
        },
        {
          "internalType": "uint256",
          "name": "interval",
          "type": "uint256"
        }
      ],
      "stateMutability": "view",
      "type": "function"
    }
  ],
  "bytecode": "0x60806040523480156200001157600080fd5b50604051620070f7380380620070f783398181016040526101c08110156200003857600080fd5b8101908080519060200190929190805190602001909291908051906020019092919080519060200190929190805190602001909291908051906020019092919080519060200190929190805190602001909291908051906020019092919080519060200190929190805190602001909291908051906020019092919080519060200190929190805190602001909291905050508d60da819055508c60cc60006101000a8154816001600160a01b0302191690836001600160a01b031602179055508060cd60006101000a8154816001600160a01b0302191690836001600160a01b031602179055508b60ce60006101000a8154816001600160a01b0302191690836001600160a01b031602179055508a60cf60006101000a8154816001600160a01b0302191690836001600160a01b031602179055508960d060006101000a8154816001600160a01b0302191690836001600160a01b031602179055508860d160006101000a8154816001600160a01b0302191690836001600160a01b031602179055508760d260006101000a8154816001600160a01b0302191690836001600160a01b031602179055508660d460006101000a8154816001600160a01b0302191690836001600160a01b031602179055508160d560006101000a8154816001600160a01b0302191690836001600160a01b031602179055508260d660006101000a8154816001600160a01b0302191690836001600160a01b03160217905550620002948960001960cc60009054906101000a90046001600160a01b03166001600160a01b03166200056660201b62001bc7179092919060201c565b6200029e6200068a565b620002a862000792565b620002b262000830565b620002bc62000844565b60d980546001600160a01b038089166001600160a01b0319928316179283905560d7805489831690841617905560d8805488831693169290921790915560408051637b5b874960e11b8152905160009390921691634d9a313691839163f6b70e92916004808201928892909190829003018186803b1580156200033e57600080fd5b505afa15801562000353573d6000803e3d6000fd5b505050506040513d6000823e601f3d908101601f1916820160405260208110156200037d57600080fd5b81019080805160405193929190846401000000008211156200039e57600080fd5b908301906020820185811115620003b457600080fd5b8251640100000000811182820188101715620003cf57600080fd5b82525081516020918201929091019080838360005b83811015620003fe578181015183820152602001620003e4565b50505050905090810190601f1680156200042c5780820380516001836020036101000a031916815260200191505b506040525050506040518263ffffffff1660e01b81526004018080602001828103825283818151815260200191508051906020019080838360005b838110156200048157818101518382015260200162000467565b50505050905090810190601f168015620004af5780820380516001836020036101000a031916815260200191505b509250505060206040518083038186803b158015620004cd57600080fd5b505afa158015620004e2573d6000803e3d6000fd5b505050506040513d6020811015620004f957600080fd5b5051905062000509818a6200085d565b60cf5462000521906001600160a01b0316876200085d565b60d05462000539906001600160a01b0316876200085d565b60cf5462000551906001600160a01b0316836200085d565b505050505050505050505050505050620010da565b801580620005f0575060408051636eb1769f60e11b81523060048201526001600160a01b03848116602483015291519185169163dd62ed3e91604480820192602092909190829003018186803b158015620005c057600080fd5b505afa158015620005d5573d6000803e3d6000fd5b505050506040513d6020811015620005ec57600080fd5b5051155b6200062d5760405162461bcd60e51b81526004018080602001828103825260368152602001806200707b6036913960400191505060405180910390fd5b604080516001600160a01b038416602482015260448082018490528251808303909101815260649091019091526020810180516001600160e01b0390811663095ea7b360e01b1790915262000685918591620008ae16565b505050565b600054610100900460ff1680620006a65750620006a66200096a565b80620006b5575060005460ff16155b620006f25760405162461bcd60e51b815260040180806020018281038252602e8152602001806200704d602e913960400191505060405180910390fd5b600054610100900460ff161580156200071e576000805460ff1961ff0019909116610100171660011790555b6200072862000970565b60006200073462000a18565b6001600160a01b031614156200077c5760405162461bcd60e51b8152600401808060200182810382526026815260200180620070d16026913960400191505060405180910390fd5b80156200078f576000805461ff00191690555b50565b600054610100900460ff1680620007ae5750620007ae6200096a565b80620007bd575060005460ff16155b620007fa5760405162461bcd60e51b815260040180806020018281038252602e8152602001806200704d602e913960400191505060405180910390fd5b600054610100900460ff1615801562000826576000805460ff1961ff0019909116610100171660011790555b6200077c62000970565b62000842603c600a6205460062000a27565b565b62000842611d4c6101906102586105dc6161a862000b2d565b62000883816000846001600160a01b03166200056660201b62001bc7179092919060201c565b620008aa81600019846001600160a01b03166200056660201b62001bc7179092919060201c565b5050565b60606200090a826040518060400160405280602081526020017f5361666542455032303a206c6f772d6c6576656c2063616c6c206661696c6564815250856001600160a01b031662000c9d60201b62001cf3179092919060201c565b80519091501562000685578080602001905160208110156200092b57600080fd5b5051620006855760405162461bcd60e51b815260040180806020018281038252602a81526020018062006ffd602a913960400191505060405180910390fd5b303b1590565b600054610100900460ff16806200098c57506200098c6200096a565b806200099b575060005460ff16155b620009d85760405162461bcd60e51b815260040180806020018281038252602e8152602001806200704d602e913960400191505060405180910390fd5b600054610100900460ff1615801562000a04576000805460ff1961ff0019909116610100171660011790555b62000a0e62000cb8565b6200077c62000d60565b6033546001600160a01b031690565b62000a3162000e63565b6033546001600160a01b0390811691161462000a83576040805162461bcd60e51b81526020600482018190526024820152600080516020620070b1833981519152604482015290519081900360640190fd5b606461ffff1662000aab8361ffff168561ffff1662000e6760201b62001d0c1790919060201c565b111562000aff576040805162461bcd60e51b815260206004820152601860248201527f5769746864726177616c206665657320746f6f20686967680000000000000000604482015290519081900360640190fd5b60e5805461ffff191661ffff9485161763ffff0000191662010000939094169290920292909217905560e655565b62000b3762000e63565b6033546001600160a01b0390811691161462000b89576040805162461bcd60e51b81526020600482018190526024820152600080516020620070b1833981519152604482015290519081900360640190fd5b62000bd18261ffff1662000bbd8561ffff1662000bbd8861ffff168a61ffff1662000e6760201b62001d0c1790919060201c565b62000e6760201b62001d0c1790919060201c565b6127101462000c27576040805162461bcd60e51b815260206004820152601b60248201527f52657761726473206d7573742061646420757020746f20313030250000000000604482015290519081900360640190fd5b60e7805461ffff191661ffff9687161763ffff0000191662010000958716959095029490941761ffff60201b1916640100000000938616939093029290921761ffff60301b19166601000000000000918516919091021761ffff60401b1916680100000000000000009190931602919091179055565b606062000cae848460008562000ec2565b90505b9392505050565b600054610100900460ff168062000cd4575062000cd46200096a565b8062000ce3575060005460ff16155b62000d205760405162461bcd60e51b815260040180806020018281038252602e8152602001806200704d602e913960400191505060405180910390fd5b600054610100900460ff161580156200077c576000805460ff1961ff00199091166101001716600117905580156200078f576000805461ff001916905550565b600054610100900460ff168062000d7c575062000d7c6200096a565b8062000d8b575060005460ff16155b62000dc85760405162461bcd60e51b815260040180806020018281038252602e8152602001806200704d602e913960400191505060405180910390fd5b600054610100900460ff1615801562000df4576000805460ff1961ff0019909116610100171660011790555b600062000e0062000e63565b603380546001600160a01b0319166001600160a01b038316908117909155604051919250906000907f8be0079c531659141344cd1fd0a4f28419497f9722a3daafe3b4186f6b6457e0908290a35080156200078f576000805461ff001916905550565b3390565b60008282018381101562000cb1576040805162461bcd60e51b815260206004820152601b60248201527f536166654d6174683a206164646974696f6e206f766572666c6f770000000000604482015290519081900360640190fd5b60608247101562000f055760405162461bcd60e51b8152600401808060200182810382526026815260200180620070276026913960400191505060405180910390fd5b62000f10856200102a565b62000f62576040805162461bcd60e51b815260206004820152601d60248201527f416464726573733a2063616c6c20746f206e6f6e2d636f6e7472616374000000604482015290519081900360640190fd5b60006060866001600160a01b031685876040518082805190602001908083835b6020831062000fa35780518252601f19909201916020918201910162000f82565b6001836020036101000a03801982511681845116808217855250505050505090500191505060006040518083038185875af1925050503d806000811462001007576040519150601f19603f3d011682016040523d82523d6000602084013e6200100c565b606091505b5090925090506200101f82828662001030565b979650505050505050565b3b151590565b606083156200104157508162000cb1565b825115620010525782518084602001fd5b8160405162461bcd60e51b81526004018080602001828103825283818151815260200191508051906020019080838360005b838110156200109e57818101518382015260200162001084565b50505050905090810190601f168015620010cc5780820380516001836020036101000a031916815260200191505b509250505060405180910390fd5b615f1380620010ea6000396000f3fe608060405234801561001057600080fd5b50600436106103a35760003560e01c80637689a12f116101e9578063c683630d1161010f578063de5f6268116100ad578063f10684541161007c578063f1068454146107d6578063f2fde38b146107de578063f5eb42dc1461051a578063fca3b5aa14610804576103a3565b8063de5f62681461079f578063de869d61146107a7578063df136d65146107c6578063ebe2b12b146107ce576103a3565b8063d12f24e7116100e9578063d12f24e71461077f578063d1af0c7d14610787578063d9c01cf41461078f578063dce1748414610797576103a3565b8063c683630d14610749578063c8f33c911461076f578063cd3daf9d14610777576103a3565b80638da5cb5b11610187578063a05f990611610156578063a05f9906146106f0578063a9989b93146106f8578063b29a814014610700578063b6b55f251461072c576103a3565b80638da5cb5b1461069557806391b4ded91461069d57806398de8873146106a55780639d9cb718146106ad576103a3565b8063853828b6116101c3578063853828b61461065757806389724cdb1461065f5780638b876347146106675780638d72647e1461068d576103a3565b80637689a12f146104785780637b0a47ee1461064757806380faa57d1461064f576103a3565b80633d18b912116102ce5780635c975abb1161026c5780636b74c67f1161023b5780636b74c67f1461062f57806370a082311461051a578063715018a61461063757806372f702f31461063f576103a3565b80635c975abb146106035780635eaa81631461061f57806361d027b31461062757806361e20a1c1461051a576103a3565b80634e0cd799116102a85780634e0cd7991461056f5780634ee2c4ce1461057757806353d6fd59146105a45780635b855860146105d2576103a3565b80633d18b912146105405780634641257d1461054857806349ba1b4914610550576103a3565b806318160ddd116103465780632421a9f2116103155780632421a9f2146104ed5780632e1a7d4d146104f5578063386a9525146105125780633aa6c4f91461051a576103a3565b806318160ddd146104785780631c1f78eb146104805780631db5d34314610488578063208e5acc146104c7576103a3565b80631071a290116103825780631071a2901461042a578063165a516b146104495780631680c6b21461045157806316c38b3c14610459576103a3565b80628cc262146103a85780630700037d146103e05780630754617214610406575b600080fd5b6103ce600480360360208110156103be57600080fd5b50356001600160a01b031661082a565b60408051918252519081900360200190f35b6103ce600480360360208110156103f657600080fd5b50356001600160a01b03166108a8565b61040e6108ba565b604080516001600160a01b039092168252519081900360200190f35b6104476004803603602081101561044057600080fd5b50356108c9565b005b61040e610936565b61040e610945565b6104476004803603602081101561046f57600080fd5b50351515610954565b6103ce610a30565b6103ce610a37565b610490610a55565b6040805161ffff96871681529486166020860152928516848401529084166060840152909216608082015290519081900360a00190f35b6103ce600480360360208110156104dd57600080fd5b50356001600160a01b0316610a90565b61040e610aab565b6104476004803603602081101561050b57600080fd5b5035610aba565b6103ce610c87565b6103ce6004803603602081101561053057600080fd5b50356001600160a01b0316610c8d565b610447610ca8565b610447610f78565b6104476004803603602081101561056657600080fd5b50351515610ff7565b6103ce6110d2565b61057f6110d8565b6040805161ffff94851681529290931660208301528183015290519081900360600190f35b610447600480360360408110156105ba57600080fd5b506001600160a01b03813516906020013515156110f0565b610447600480360360608110156105e857600080fd5b5061ffff8135811691602081013590911690604001356111ba565b61060b6112b8565b604080519115158252519081900360200190f35b6103ce6112c1565b61040e6112cd565b61040e6112dc565b6104476112eb565b61040e6113ac565b6103ce6113bb565b6103ce6113c1565b6104476113cf565b61040e61145b565b6103ce6004803603602081101561067d57600080fd5b50356001600160a01b031661146a565b61040e61147c565b61040e61148b565b6103ce61149a565b61040e6114a0565b610447600480360360a08110156106c357600080fd5b5061ffff8135811691602081013582169160408201358116916060810135821691608090910135166114af565b61040e611617565b61040e611626565b6104476004803603604081101561071657600080fd5b506001600160a01b038135169060200135611635565b6104476004803603602081101561074257600080fd5b5035611703565b61060b6004803603602081101561075f57600080fd5b50356001600160a01b0316611775565b6103ce611793565b6103ce611799565b61040e6117e7565b61040e6117f6565b61040e611805565b61040e61180b565b61044761181a565b6107af611903565b6040805161ffff9092168252519081900360200190f35b6103ce611908565b6103ce61190e565b6103ce611914565b610447600480360360208110156107f457600080fd5b50356001600160a01b031661191a565b6104476004803603602081101561081a57600080fd5b50356001600160a01b0316611a32565b6001600160a01b038116600090815260e1602090815260408083205460e09092528220546108a2919061089c90670de0b6b3a7640000906108969061087790610871611799565b90611d66565b6001600160a01b038816600090815260e3602052604090205490611dc3565b90611e1c565b90611d0c565b92915050565b60e16020526000908152604090205481565b60d3546001600160a01b031681565b3233146108d557600080fd5b33803b63ffffffff811615610931576040805162461bcd60e51b815260206004820152601a60248201527f436f6e74726163742063616c6c73206e6f7420616c6c6f776564000000000000604482015290519081900360640190fd5b505050565b60d5546001600160a01b031681565b60d6546001600160a01b031681565b61095c611e83565b6033546001600160a01b039081169116146109be576040805162461bcd60e51b815260206004820181905260248201527f4f776e61626c653a2063616c6c6572206973206e6f7420746865206f776e6572604482015290519081900360640190fd5b60665460ff16151581151514156109d457610a2d565b6066805460ff1916821515179081905560ff16156109f157426065555b6066546040805160ff90921615158252517f8fb6c181ee25a520cf3dd6565006ef91229fcfe5a989566c2a3b8c115570cec59181900360200190a15b50565b60e2545b90565b6000610a5060dd5460dc54611dc390919063ffffffff16565b905090565b60e75461ffff80821691620100008104821691600160201b820481169166010000000000008104821691680100000000000000009091041685565b6001600160a01b0316600090815260e4602052604090205490565b60cc546001600160a01b031681565b323314610ac657600080fd5b33803b63ffffffff811615610b22576040805162461bcd60e51b815260206004820152601a60248201527f436f6e74726163742063616c6c73206e6f7420616c6c6f776564000000000000604482015290519081900360640190fd5b33610b2b611799565b60df55610b366113c1565b60de556001600160a01b03811615610b7d57610b518161082a565b6001600160a01b038216600090815260e1602090815260408083209390935560df5460e0909152919020555b60008411610bd2576040805162461bcd60e51b815260206004820181905260248201527f416d6f756e74206d7573742062652067726561746572207468616e207a65726f604482015290519081900360640190fd5b60e254610bdf9085611d66565b60e25533600090815260e36020526040902054610bfc9085611d66565b33600090815260e36020526040812091909155610c1885611e87565b90506000610c2586611fdf565b60cc54610c3c906001600160a01b031633886139bf565b6040805187815260208101839052815133927f92ccf450a286a957af52509bc1c9939d1a6a481783e142e41e2499f0bb66ebc6928290030190a2610c7f82613a2a565b505050505050565b60dd5481565b6001600160a01b0316600090815260e3602052604090205490565b323314610cb457600080fd5b33803b63ffffffff811615610d10576040805162461bcd60e51b815260206004820152601a60248201527f436f6e74726163742063616c6c73206e6f7420616c6c6f776564000000000000604482015290519081900360640190fd5b33610d19611799565b60df55610d246113c1565b60de556001600160a01b03811615610d6b57610d3f8161082a565b6001600160a01b038216600090815260e1602090815260408083209390935560df5460e0909152919020555b33600090815260e160205260409020548015610f725733600090815260e16020908152604080832083905560cf5481516370a0823160e01b815230600482015291516001600160a01b03909116926370a082319260248082019391829003018186803b158015610dda57600080fd5b505afa158015610dee573d6000803e3d6000fd5b505050506040513d6020811015610e0457600080fd5b505160cd54604080517f2e1a7d4d0000000000000000000000000000000000000000000000000000000081526004810186905290519293506001600160a01b0390911691632e1a7d4d9160248082019260009290919082900301818387803b158015610e6f57600080fd5b505af1158015610e83573d6000803e3d6000fd5b505060cf54604080516370a0823160e01b8152306004820152905160009450610f0a935085926001600160a01b0316916370a08231916024808301926020929190829003018186803b158015610ed857600080fd5b505afa158015610eec573d6000803e3d6000fd5b505050506040513d6020811015610f0257600080fd5b505190611d66565b90506000610f1784613ba3565b610f3833610f258484611d66565b60cf546001600160a01b031691906139bf565b60408051838152905133917f18b4d88519e317cd323e73f9cb4143659b157408d6c68da2a8e309e0c7155b34919081900360200190a25050505b50505050565b323314610f8457600080fd5b33803b63ffffffff811615610fe0576040805162461bcd60e51b815260206004820152601a60248201527f436f6e74726163742063616c6c73206e6f7420616c6c6f776564000000000000604482015290519081900360640190fd5b6000610fec6000611e87565b905061093181613a2a565b610fff611e83565b6033546001600160a01b03908116911614611061576040805162461bcd60e51b815260206004820181905260248201527f4f776e61626c653a2063616c6c6572206973206e6f7420746865206f776e6572604482015290519081900360640190fd5b609a805460ff191682158015919091179091556110a6576040517f508560e15717a4e9058b9a19d806cb679004a1bd953376f71fda71c141e5dc5390600090a1610a2d565b6040517fa2927d972f7cfc5ff8b7ad79f9adf0bdb885d0e569f40d0037df2e1299616ae090600090a150565b6103e881565b60e55460e65461ffff80831692620100009004169083565b6110f8611e83565b6033546001600160a01b0390811691161461115a576040805162461bcd60e51b815260206004820181905260248201527f4f776e61626c653a2063616c6c6572206973206e6f7420746865206f776e6572604482015290519081900360640190fd5b6001600160a01b038216600081815260996020908152604091829020805460ff1916851515908117909155825190815291517fa54714518c5d275fdcd3d2a461e4858e4e8cb04fb93cd0bca9d6d34115f264409281900390910190a25050565b6111c2611e83565b6033546001600160a01b03908116911614611224576040805162461bcd60e51b815260206004820181905260248201527f4f776e61626c653a2063616c6c6572206973206e6f7420746865206f776e6572604482015290519081900360640190fd5b606461123761ffff858116908516611d0c565b111561128a576040805162461bcd60e51b815260206004820152601860248201527f5769746864726177616c206665657320746f6f20686967680000000000000000604482015290519081900360640190fd5b60e5805461ffff191661ffff9485161763ffff0000191662010000939094169290920292909217905560e655565b60665460ff1681565b670de0b6b3a764000090565b60d4546001600160a01b031681565b60d8546001600160a01b031681565b6112f3611e83565b6033546001600160a01b03908116911614611355576040805162461bcd60e51b815260206004820181905260248201527f4f776e61626c653a2063616c6c6572206973206e6f7420746865206f776e6572604482015290519081900360640190fd5b6033546040516000916001600160a01b0316907f8be0079c531659141344cd1fd0a4f28419497f9722a3daafe3b4186f6b6457e0908390a36033805473ffffffffffffffffffffffffffffffffffffffff19169055565b60cc546001600160a01b031690565b60dc5481565b6000610a504260db546155bd565b3233146113db57600080fd5b33803b63ffffffff811615611437576040805162461bcd60e51b815260206004820152601a60248201527f436f6e74726163742063616c6c73206e6f7420616c6c6f776564000000000000604482015290519081900360640190fd5b600061144233610c8d565b905080156114535761145381610aba565b610931610ca8565b60d7546001600160a01b031681565b60e06020526000908152604090205481565b60d0546001600160a01b031681565b6033546001600160a01b031690565b60655481565b60d2546001600160a01b031681565b6114b7611e83565b6033546001600160a01b03908116911614611519576040805162461bcd60e51b815260206004820181905260248201527f4f776e61626c653a2063616c6c6572206973206e6f7420746865206f776e6572604482015290519081900360640190fd5b6115448261ffff1661089c8561ffff1661089c8861ffff168a61ffff16611d0c90919063ffffffff16565b61271014611599576040805162461bcd60e51b815260206004820152601b60248201527f52657761726473206d7573742061646420757020746f20313030250000000000604482015290519081900360640190fd5b60e7805461ffff191661ffff9687161763ffff0000191662010000958716959095029490941765ffff000000001916600160201b938616939093029290921767ffff00000000000019166601000000000000918516919091021769ffff00000000000000001916680100000000000000009190931602919091179055565b60ce546001600160a01b031681565b60d9546001600160a01b031681565b61163d611e83565b6033546001600160a01b0390811691161461169f576040805162461bcd60e51b815260206004820181905260248201527f4f776e61626c653a2063616c6c6572206973206e6f7420746865206f776e6572604482015290519081900360640190fd5b6116bb6116aa61148b565b6001600160a01b03841690836139bf565b604080516001600160a01b03841681526020810183905281517f8c1256b8896378cd5044f80c202f9772b9d77dc85c8a6eb51967210b09bfaa28929181900390910190a15050565b32331461170f57600080fd5b33803b63ffffffff81161561176b576040805162461bcd60e51b815260206004820152601a60248201527f436f6e74726163742063616c6c73206e6f7420616c6c6f776564000000000000604482015290519081900360640190fd5b61093183336155d3565b6001600160a01b031660009081526099602052604090205460ff1690565b60de5481565b600060e254600014156117af575060df54610a34565b610a506117de60e254610896670de0b6b3a76400006117d860dc546117d860de546108716113c1565b90611dc3565b60df5490611d0c565b60d1546001600160a01b031681565b60cd546001600160a01b031690565b61dead81565b60cf546001600160a01b031681565b32331461182657600080fd5b33803b63ffffffff811615611882576040805162461bcd60e51b815260206004820152601a60248201527f436f6e74726163742063616c6c73206e6f7420616c6c6f776564000000000000604482015290519081900360640190fd5b60cc54604080516370a0823160e01b815233600482015290516118ff926001600160a01b0316916370a08231916024808301926020929190829003018186803b1580156118ce57600080fd5b505afa1580156118e2573d6000803e3d6000fd5b505050506040513d60208110156118f857600080fd5b5051611703565b5050565b606481565b60df5481565b60db5481565b60da5481565b611922611e83565b6033546001600160a01b03908116911614611984576040805162461bcd60e51b815260206004820181905260248201527f4f776e61626c653a2063616c6c6572206973206e6f7420746865206f776e6572604482015290519081900360640190fd5b6001600160a01b0381166119c95760405162461bcd60e51b8152600401808060200182810382526026815260200180615de56026913960400191505060405180910390fd5b6033546040516001600160a01b038084169216907f8be0079c531659141344cd1fd0a4f28419497f9722a3daafe3b4186f6b6457e090600090a36033805473ffffffffffffffffffffffffffffffffffffffff19166001600160a01b0392909216919091179055565b611a3a611e83565b6033546001600160a01b03908116911614611a9c576040805162461bcd60e51b815260206004820181905260248201527f4f776e61626c653a2063616c6c6572206973206e6f7420746865206f776e6572604482015290519081900360640190fd5b604080517faa271e1a00000000000000000000000000000000000000000000000000000000815230600482015290516001600160a01b0383169163aa271e1a916024808301926020929190829003018186803b158015611afb57600080fd5b505afa158015611b0f573d6000803e3d6000fd5b505050506040513d6020811015611b2557600080fd5b50511515600114611b675760405162461bcd60e51b8152600401808060200182810382526030815260200180615e886030913960400191505060405180910390fd5b60cc54611b7f906001600160a01b0316826000611bc7565b60cc54611b98906001600160a01b031682600019611bc7565b60d3805473ffffffffffffffffffffffffffffffffffffffff19166001600160a01b0392909216919091179055565b801580611c665750604080517fdd62ed3e0000000000000000000000000000000000000000000000000000000081523060048201526001600160a01b03848116602483015291519185169163dd62ed3e91604480820192602092909190829003018186803b158015611c3857600080fd5b505afa158015611c4c573d6000803e3d6000fd5b505050506040513d6020811015611c6257600080fd5b5051155b611ca15760405162461bcd60e51b8152600401808060200182810382526036815260200180615e526036913960400191505060405180910390fd5b604080516001600160a01b038416602482015260448082018490528251808303909101815260649091019091526020810180516001600160e01b031663095ea7b360e01b179052610931908490615788565b6060611d028484600085615839565b90505b9392505050565b600082820183811015611d05576040805162461bcd60e51b815260206004820152601b60248201527f536166654d6174683a206164646974696f6e206f766572666c6f770000000000604482015290519081900360640190fd5b600082821115611dbd576040805162461bcd60e51b815260206004820152601e60248201527f536166654d6174683a207375627472616374696f6e206f766572666c6f770000604482015290519081900360640190fd5b50900390565b600082611dd2575060006108a2565b82820282848281611ddf57fe5b0414611d055760405162461bcd60e51b8152600401808060200182810382526021815260200180615e316021913960400191505060405180910390fd5b6000808211611e72576040805162461bcd60e51b815260206004820152601a60248201527f536166654d6174683a206469766973696f6e206279207a65726f000000000000604482015290519081900360640190fd5b818381611e7b57fe5b049392505050565b3390565b60cf54604080516370a0823160e01b8152306004820152905160009283926001600160a01b03909116916370a0823191602480820192602092909190829003018186803b158015611ed757600080fd5b505afa158015611eeb573d6000803e3d6000fd5b505050506040513d6020811015611f0157600080fd5b505160d15460da54604080517f441a3e70000000000000000000000000000000000000000000000000000000008152600481019290925260248201879052519293506001600160a01b039091169163441a3e709160448082019260009290919082900301818387803b158015611f7657600080fd5b505af1158015611f8a573d6000803e3d6000fd5b505060cf54604080516370a0823160e01b81523060048201529051611d0594508593506001600160a01b03909216916370a0823191602480820192602092909190829003018186803b158015610ed857600080fd5b60d25460cf5460d054604080517fbaa2abde0000000000000000000000000000000000000000000000000000000081526001600160a01b039384166004820152918316602483015260448201859052600060648301819052608483018190523060a48401524260c4840152815190948594169263baa2abde9260e480830193919282900301818787803b15801561207557600080fd5b505af1158015612089573d6000803e3d6000fd5b505050506040513d604081101561209f57600080fd5b50805160209182015160e65433600090815260e4909452604090932054919450925042916120cd9190611d0c565b10156125925760d85460d05460cf546040805163a1c421cd60e01b81526001600160a01b039384166004820152918316602483015251606093929092169163a1c421cd91604480820192600092909190829003018186803b15801561213157600080fd5b505afa158015612145573d6000803e3d6000fd5b505050506040513d6000823e601f3d908101601f19168201604052602081101561216e57600080fd5b8101908080516040519392919084600160201b82111561218d57600080fd5b9083019060208201858111156121a257600080fd5b82518660208202830111600160201b821117156121be57600080fd5b82525081516020918201928201910280838360005b838110156121eb5781810151838201526020016121d3565b5050505091909101604081815260d75463d06ca61f60e01b8352600483018a8152602484019283528851604485015288519899506060986001600160a01b03909216975063d06ca61f96508a955089945092606401906020808601910280838360005b8381101561226657818101518382015260200161224e565b50505050905001935050505060006040518083038186803b15801561228a57600080fd5b505afa15801561229e573d6000803e3d6000fd5b505050506040513d6000823e601f3d908101601f1916820160405260208110156122c757600080fd5b8101908080516040519392919084600160201b8211156122e657600080fd5b9083019060208201858111156122fb57600080fd5b82518660208202830111600160201b8211171561231757600080fd5b82525081516020918201928201910280838360005b8381101561234457818101518382015260200161232c565b505050509050016040525050509050606060d760009054906101000a90046001600160a01b03166001600160a01b03166338ed1739856123ac61271061089661251c8860018a51038151811061239657fe5b6020026020010151611dc390919063ffffffff16565b8630426040518663ffffffff1660e01b81526004018086815260200185815260200180602001846001600160a01b03168152602001838152602001828103825285818151815260200191508051906020019060200280838360005b8381101561241f578181015183820152602001612407565b505050509050019650505050505050600060405180830381600087803b15801561244857600080fd5b505af115801561245c573d6000803e3d6000fd5b505050506040513d6000823e601f3d908101601f19168201604052602081101561248557600080fd5b8101908080516040519392919084600160201b8211156124a457600080fd5b9083019060208201858111156124b957600080fd5b82518660208202830111600160201b821117156124d557600080fd5b82525081516020918201928201910280838360005b838110156125025781810151838201526020016124ea565b50505050905001604052505050905060008160018351038151811061252357fe5b6020026020010151905061254433610f258389611d0c90919063ffffffff16565b337f92ccf450a286a957af52509bc1c9939d1a6a481783e142e41e2499f0bb66ebc66125708884611d0c565b60408051918252600060208301528051918290030190a2505050505050610a2d565b60d85460cf5460d0546040805163a1c421cd60e01b81526001600160a01b039384166004820152918316602483015251606093929092169163a1c421cd91604480820192600092909190829003018186803b1580156125f057600080fd5b505afa158015612604573d6000803e3d6000fd5b505050506040513d6000823e601f3d908101601f19168201604052602081101561262d57600080fd5b8101908080516040519392919084600160201b82111561264c57600080fd5b90830190602082018581111561266157600080fd5b82518660208202830111600160201b8211171561267d57600080fd5b82525081516020918201928201910280838360005b838110156126aa578181015183820152602001612692565b5050505091909101604081815260d75463d06ca61f60e01b8352600483018b8152602484019283528851604485015288519899506060986001600160a01b03909216975063d06ca61f96508b955089945092606401906020808601910280838360005b8381101561272557818101518382015260200161270d565b50505050905001935050505060006040518083038186803b15801561274957600080fd5b505afa15801561275d573d6000803e3d6000fd5b505050506040513d6000823e601f3d908101601f19168201604052602081101561278657600080fd5b8101908080516040519392919084600160201b8211156127a557600080fd5b9083019060208201858111156127ba57600080fd5b82518660208202830111600160201b821117156127d657600080fd5b82525081516020918201928201910280838360005b838110156128035781810151838201526020016127eb565b505050509050016040525050509050606060d760009054906101000a90046001600160a01b03166001600160a01b03166338ed17398661285561271061089661251c8860018a51038151811061239657fe5b8630426040518663ffffffff1660e01b81526004018086815260200185815260200180602001846001600160a01b03168152602001838152602001828103825285818151815260200191508051906020019060200280838360005b838110156128c85781810151838201526020016128b0565b505050509050019650505050505050600060405180830381600087803b1580156128f157600080fd5b505af1158015612905573d6000803e3d6000fd5b505050506040513d6000823e601f3d908101601f19168201604052602081101561292e57600080fd5b8101908080516040519392919084600160201b82111561294d57600080fd5b90830190602082018581111561296257600080fd5b82518660208202830111600160201b8211171561297e57600080fd5b82525081516020918201928201910280838360005b838110156129ab578181015183820152602001612993565b50505050905001604052505050905060006129e685836001855103815181106129d057fe5b6020026020010151611d0c90919063ffffffff16565b60e554909150600090612a06906127109061089690859061ffff16611dc3565b60e554909150600090612a2c906127109061089690869062010000900461ffff16611dc3565b90506000612a3e836108718685611d66565b60d85460d05460ce546040805163a1c421cd60e01b81526001600160a01b039384166004820152918316602483015251939450606093919092169163a1c421cd916044808301926000929190829003018186803b158015612a9e57600080fd5b505afa158015612ab2573d6000803e3d6000fd5b505050506040513d6000823e601f3d908101601f191682016040526020811015612adb57600080fd5b8101908080516040519392919084600160201b821115612afa57600080fd5b908301906020820185811115612b0f57600080fd5b82518660208202830111600160201b82111715612b2b57600080fd5b82525081516020918201928201910280838360005b83811015612b58578181015183820152602001612b40565b5050505091909101604081815260d85460d05460d95463484f4ea960e01b855292519899506060986001600160a01b03928316985063a1c421cd9750908216955091169250634d9a313691839163484f4ea991600480820192600092909190829003018186803b158015612bcb57600080fd5b505afa158015612bdf573d6000803e3d6000fd5b505050506040513d6000823e601f3d908101601f191682016040526020811015612c0857600080fd5b8101908080516040519392919084600160201b821115612c2757600080fd5b908301906020820185811115612c3c57600080fd5b8251600160201b811182820188101715612c5557600080fd5b82525081516020918201929091019080838360005b83811015612c82578181015183820152602001612c6a565b50505050905090810190601f168015612caf5780820380516001836020036101000a031916815260200191505b506040525050506040518263ffffffff1660e01b81526004018080602001828103825283818151815260200191508051906020019080838360005b83811015612d02578181015183820152602001612cea565b50505050905090810190601f168015612d2f5780820380516001836020036101000a031916815260200191505b509250505060206040518083038186803b158015612d4c57600080fd5b505afa158015612d60573d6000803e3d6000fd5b505050506040513d6020811015612d7657600080fd5b5051604080517fffffffff0000000000000000000000000000000000000000000000000000000060e086901b1681526001600160a01b039384166004820152929091166024830152516044808301926000929190829003018186803b158015612dde57600080fd5b505afa158015612df2573d6000803e3d6000fd5b505050506040513d6000823e601f3d908101601f191682016040526020811015612e1b57600080fd5b8101908080516040519392919084600160201b821115612e3a57600080fd5b908301906020820185811115612e4f57600080fd5b82518660208202830111600160201b82111715612e6b57600080fd5b82525081516020918201928201910280838360005b83811015612e98578181015183820152602001612e80565b5050505090500160405250505090506103e8851015612ec257612ebb8386611d0c565b92506131c3565b60d7546040805163d06ca61f60e01b815260048101888152602482019283528551604483015285516060946001600160a01b03169363d06ca61f938b938993909291606401906020808601910280838360005b83811015612f2d578181015183820152602001612f15565b50505050905001935050505060006040518083038186803b158015612f5157600080fd5b505afa158015612f65573d6000803e3d6000fd5b505050506040513d6000823e601f3d908101601f191682016040526020811015612f8e57600080fd5b8101908080516040519392919084600160201b821115612fad57600080fd5b908301906020820185811115612fc257600080fd5b82518660208202830111600160201b82111715612fde57600080fd5b82525081516020918201928201910280838360005b8381101561300b578181015183820152602001612ff3565b50505050905001604052505050905060d760009054906101000a90046001600160a01b03166001600160a01b03166338ed17398761305b61271061089661251c8760018951038151811061239657fe5b8661dead426040518663ffffffff1660e01b81526004018086815260200185815260200180602001846001600160a01b03168152602001838152602001828103825285818151815260200191508051906020019060200280838360005b838110156130d05781810151838201526020016130b8565b505050509050019650505050505050600060405180830381600087803b1580156130f957600080fd5b505af115801561310d573d6000803e3d6000fd5b505050506040513d6000823e601f3d908101601f19168201604052602081101561313657600080fd5b8101908080516040519392919084600160201b82111561315557600080fd5b90830190602082018581111561316a57600080fd5b82518660208202830111600160201b8211171561318657600080fd5b82525081516020918201928201910280838360005b838110156131b357818101518382015260200161319b565b5050505090500160405250505050505b6103e88410156131de576131d78385611d0c565b9250613503565b60d7546040805163d06ca61f60e01b815260048101878152602482019283528451604483015284516060946001600160a01b03169363d06ca61f938a938893909291606401906020808601910280838360005b83811015613249578181015183820152602001613231565b50505050905001935050505060006040518083038186803b15801561326d57600080fd5b505afa158015613281573d6000803e3d6000fd5b505050506040513d6000823e601f3d908101601f1916820160405260208110156132aa57600080fd5b8101908080516040519392919084600160201b8211156132c957600080fd5b9083019060208201858111156132de57600080fd5b82518660208202830111600160201b821117156132fa57600080fd5b82525081516020918201928201910280838360005b8381101561332757818101518382015260200161330f565b50505050905001604052505050905060d760009054906101000a90046001600160a01b03166001600160a01b03166338ed17398661337761271061089661251c8760018951038151811061239657fe5b60d4546040517fffffffff0000000000000000000000000000000000000000000000000000000060e086901b16815260048101848152602482018490526001600160a01b0390921660648201819052426084830181905260a0604484019081528a5160a48501528a518b95939492939260c401906020808801910280838360005b838110156134105781810151838201526020016133f8565b505050509050019650505050505050600060405180830381600087803b15801561343957600080fd5b505af115801561344d573d6000803e3d6000fd5b505050506040513d6000823e601f3d908101601f19168201604052602081101561347657600080fd5b8101908080516040519392919084600160201b82111561349557600080fd5b9083019060208201858111156134aa57600080fd5b82518660208202830111600160201b821117156134c657600080fd5b82525081516020918201928201910280838360005b838110156134f35781810151838201526020016134db565b5050505090500160405250505050505b60d85460d05460cf546040805163a1c421cd60e01b81526001600160a01b039384166004820152918316602483015251606093929092169163a1c421cd91604480820192600092909190829003018186803b15801561356157600080fd5b505afa158015613575573d6000803e3d6000fd5b505050506040513d6000823e601f3d908101601f19168201604052602081101561359e57600080fd5b8101908080516040519392919084600160201b8211156135bd57600080fd5b9083019060208201858111156135d257600080fd5b82518660208202830111600160201b821117156135ee57600080fd5b82525081516020918201928201910280838360005b8381101561361b578181015183820152602001613603565b505050509050016040525050509050606060d760009054906101000a90046001600160a01b03166001600160a01b031663d06ca61f868d6040518363ffffffff1660e01b81526004018083815260200180602001828103825283818151815260200191508051906020019060200280838360005b838110156136a757818101518382015260200161368f565b50505050905001935050505060006040518083038186803b1580156136cb57600080fd5b505afa1580156136df573d6000803e3d6000fd5b505050506040513d6000823e601f3d908101601f19168201604052602081101561370857600080fd5b8101908080516040519392919084600160201b82111561372757600080fd5b90830190602082018581111561373c57600080fd5b82518660208202830111600160201b8211171561375857600080fd5b82525081516020918201928201910280838360005b8381101561378557818101518382015260200161376d565b505050509050016040525050509050606060d760009054906101000a90046001600160a01b03166001600160a01b03166338ed1739876137d761271061089661251c8860018a51038151811061239657fe5b8630426040518663ffffffff1660e01b81526004018086815260200185815260200180602001846001600160a01b03168152602001838152602001828103825285818151815260200191508051906020019060200280838360005b8381101561384a578181015183820152602001613832565b505050509050019650505050505050600060405180830381600087803b15801561387357600080fd5b505af1158015613887573d6000803e3d6000fd5b505050506040513d6000823e601f3d908101601f1916820160405260208110156138b057600080fd5b8101908080516040519392919084600160201b8211156138cf57600080fd5b9083019060208201858111156138e457600080fd5b82518660208202830111600160201b8211171561390057600080fd5b82525081516020918201928201910280838360005b8381101561392d578181015183820152602001613915565b50505050905001604052505050905060008160018351038151811061394e57fe5b602090810291909101015160cf54909150613973906001600160a01b031633836139bf565b6040805182815260006020820152815133927f92ccf450a286a957af52509bc1c9939d1a6a481783e142e41e2499f0bb66ebc6928290030190a250505050505050505050505050505050565b604080516001600160a01b038416602482015260448082018490528251808303909101815260649091019091526020810180516001600160e01b03167fa9059cbb00000000000000000000000000000000000000000000000000000000179052610931908490615788565b60cd5460408051633d7ad0b760e21b815230600482015290516000926001600160a01b03169163f5eb42dc916024808301926020929190829003018186803b158015613a7557600080fd5b505afa158015613a89573d6000803e3d6000fd5b505050506040513d6020811015613a9f57600080fd5b505160cd546040805163b6b55f2560e01b81526004810186905290519293506001600160a01b039091169163b6b55f259160248082019260009290919082900301818387803b158015613af157600080fd5b505af1158015613b05573d6000803e3d6000fd5b505060cd5460408051633d7ad0b760e21b8152306004820152905160009450613b5a935085926001600160a01b03169163f5eb42dc916024808301926020929190829003018186803b158015610ed857600080fd5b9050801561093157613b6b81615995565b6040805182815290517f8e55ccfc9778ff8eba1646d765cf1982537ce0f9257054a17b48aad7452501839181900360200190a1505050565b6103e8811015613bb257610a2d565b60d85460cf5460d0546040805163a1c421cd60e01b81526001600160a01b039384166004820152918316602483015251606093929092169163a1c421cd91604480820192600092909190829003018186803b158015613c1057600080fd5b505afa158015613c24573d6000803e3d6000fd5b505050506040513d6000823e601f3d908101601f191682016040526020811015613c4d57600080fd5b8101908080516040519392919084600160201b821115613c6c57600080fd5b908301906020820185811115613c8157600080fd5b82518660208202830111600160201b82111715613c9d57600080fd5b82525081516020918201928201910280838360005b83811015613cca578181015183820152602001613cb2565b5050505091909101604081815260d75463d06ca61f60e01b8352600483018a8152602484019283528851604485015288519899506060986001600160a01b03909216975063d06ca61f96508a955089945092606401906020808601910280838360005b83811015613d45578181015183820152602001613d2d565b50505050905001935050505060006040518083038186803b158015613d6957600080fd5b505afa158015613d7d573d6000803e3d6000fd5b505050506040513d6000823e601f3d908101601f191682016040526020811015613da657600080fd5b8101908080516040519392919084600160201b821115613dc557600080fd5b908301906020820185811115613dda57600080fd5b82518660208202830111600160201b82111715613df657600080fd5b82525081516020918201928201910280838360005b83811015613e23578181015183820152602001613e0b565b505050509050016040525050509050606060d760009054906101000a90046001600160a01b03166001600160a01b03166338ed173985613e7561271061089661251c8860018a51038151811061239657fe5b8630426040518663ffffffff1660e01b81526004018086815260200185815260200180602001846001600160a01b03168152602001838152602001828103825285818151815260200191508051906020019060200280838360005b83811015613ee8578181015183820152602001613ed0565b505050509050019650505050505050600060405180830381600087803b158015613f1157600080fd5b505af1158015613f25573d6000803e3d6000fd5b505050506040513d6000823e601f3d908101601f191682016040526020811015613f4e57600080fd5b8101908080516040519392919084600160201b821115613f6d57600080fd5b908301906020820185811115613f8257600080fd5b82518660208202830111600160201b82111715613f9e57600080fd5b82525081516020918201928201910280838360005b83811015613fcb578181015183820152602001613fb3565b505050509050016040525050509050600081600183510381518110613fec57fe5b602090810291909101015160e7549091504290600090614019906127109061089690869061ffff16611dc3565b60e75490915060009061403f906127109061089690879062010000900461ffff16611dc3565b60e7549091506000906140669061271090610896908890600160201b900461ffff16611dc3565b60e75490915060009061409090612710906108969089906601000000000000900461ffff16611dc3565b90506103e88310156140ad576140a68484611d0c565b935061490e565b60d85460d954604080517f58f7f6d200000000000000000000000000000000000000000000000000000000815290516060936001600160a01b039081169363a1c421cd93911691634d9a31369183916358f7f6d291600480820192600092909190829003018186803b15801561412257600080fd5b505afa158015614136573d6000803e3d6000fd5b505050506040513d6000823e601f3d908101601f19168201604052602081101561415f57600080fd5b8101908080516040519392919084600160201b82111561417e57600080fd5b90830190602082018581111561419357600080fd5b8251600160201b8111828201881017156141ac57600080fd5b82525081516020918201929091019080838360005b838110156141d95781810151838201526020016141c1565b50505050905090810190601f1680156142065780820380516001836020036101000a031916815260200191505b506040525050506040518263ffffffff1660e01b81526004018080602001828103825283818151815260200191508051906020019080838360005b83811015614259578181015183820152602001614241565b50505050905090810190601f1680156142865780820380516001836020036101000a031916815260200191505b509250505060206040518083038186803b1580156142a357600080fd5b505afa1580156142b7573d6000803e3d6000fd5b505050506040513d60208110156142cd57600080fd5b505160d9546040805163484f4ea960e01b815290516001600160a01b0390921691634d9a313691839163484f4ea991600480820192600092909190829003018186803b15801561431c57600080fd5b505afa158015614330573d6000803e3d6000fd5b505050506040513d6000823e601f3d908101601f19168201604052602081101561435957600080fd5b8101908080516040519392919084600160201b82111561437857600080fd5b90830190602082018581111561438d57600080fd5b8251600160201b8111828201881017156143a657600080fd5b82525081516020918201929091019080838360005b838110156143d35781810151838201526020016143bb565b50505050905090810190601f1680156144005780820380516001836020036101000a031916815260200191505b506040525050506040518263ffffffff1660e01b81526004018080602001828103825283818151815260200191508051906020019080838360005b8381101561445357818101518382015260200161443b565b50505050905090810190601f1680156144805780820380516001836020036101000a031916815260200191505b509250505060206040518083038186803b15801561449d57600080fd5b505afa1580156144b1573d6000803e3d6000fd5b505050506040513d60208110156144c757600080fd5b5051604080517fffffffff0000000000000000000000000000000000000000000000000000000060e086901b1681526001600160a01b039384166004820152929091166024830152516044808301926000929190829003018186803b15801561452f57600080fd5b505afa158015614543573d6000803e3d6000fd5b505050506040513d6000823e601f3d908101601f19168201604052602081101561456c57600080fd5b8101908080516040519392919084600160201b82111561458b57600080fd5b9083019060208201858111156145a057600080fd5b82518660208202830111600160201b821117156145bc57600080fd5b82525081516020918201928201910280838360005b838110156145e95781810151838201526020016145d1565b5050505091909101604081815260d75463d06ca61f60e01b8352600483018c8152602484019283528851604485015288519899506060986001600160a01b03909216975063d06ca61f96508c955089945092606401906020808601910280838360005b8381101561466457818101518382015260200161464c565b50505050905001935050505060006040518083038186803b15801561468857600080fd5b505afa15801561469c573d6000803e3d6000fd5b505050506040513d6000823e601f3d908101601f1916820160405260208110156146c557600080fd5b8101908080516040519392919084600160201b8211156146e457600080fd5b9083019060208201858111156146f957600080fd5b82518660208202830111600160201b8211171561471557600080fd5b82525081516020918201928201910280838360005b8381101561474257818101518382015260200161472a565b50505050905001604052505050905060d760009054906101000a90046001600160a01b03166001600160a01b03166338ed17398661479261271061089661251c8760018951038151811061239657fe5b8560d460009054906101000a90046001600160a01b03168c6040518663ffffffff1660e01b81526004018086815260200185815260200180602001846001600160a01b03168152602001838152602001828103825285818151815260200191508051906020019060200280838360005b8381101561481a578181015183820152602001614802565b505050509050019650505050505050600060405180830381600087803b15801561484357600080fd5b505af1158015614857573d6000803e3d6000fd5b505050506040513d6000823e601f3d908101601f19168201604052602081101561488057600080fd5b8101908080516040519392919084600160201b82111561489f57600080fd5b9083019060208201858111156148b457600080fd5b82518660208202830111600160201b821117156148d057600080fd5b82525081516020918201928201910280838360005b838110156148fd5781810151838201526020016148e5565b505050509050016040525050505050505b6103e8811015614929576149228482611d0c565b9350614a14565b60d05460d6546040805163095ea7b360e01b81526001600160a01b039283166004820152602481018590529051919092169163095ea7b39160448083019260209291908290030181600087803b15801561498257600080fd5b505af1158015614996573d6000803e3d6000fd5b505050506040513d60208110156149ac57600080fd5b505060d6546040805163b6b55f2560e01b81526004810184905290516001600160a01b039092169163b6b55f259160248082019260009290919082900301818387803b1580156149fb57600080fd5b505af1158015614a0f573d6000803e3d6000fd5b505050505b6103e8821015614a2f57614a288483611d0c565b9350615107565b60d85460cf5460ce546040805163a1c421cd60e01b81526001600160a01b039384166004820152918316602483015251606093929092169163a1c421cd91604480820192600092909190829003018186803b158015614a8d57600080fd5b505afa158015614aa1573d6000803e3d6000fd5b505050506040513d6000823e601f3d908101601f191682016040526020811015614aca57600080fd5b8101908080516040519392919084600160201b821115614ae957600080fd5b908301906020820185811115614afe57600080fd5b82518660208202830111600160201b82111715614b1a57600080fd5b82525081516020918201928201910280838360005b83811015614b47578181015183820152602001614b2f565b5050505091909101604081815260d75463d06ca61f60e01b8352600483018b8152602484019283528851604485015288519899506060986001600160a01b03909216975063d06ca61f96508b955089945092606401906020808601910280838360005b83811015614bc2578181015183820152602001614baa565b50505050905001935050505060006040518083038186803b158015614be657600080fd5b505afa158015614bfa573d6000803e3d6000fd5b505050506040513d6000823e601f3d908101601f191682016040526020811015614c2357600080fd5b8101908080516040519392919084600160201b821115614c4257600080fd5b908301906020820185811115614c5757600080fd5b82518660208202830111600160201b82111715614c7357600080fd5b82525081516020918201928201910280838360005b83811015614ca0578181015183820152602001614c88565b505050509050016040525050509050606060d760009054906101000a90046001600160a01b03166001600160a01b03166338ed173986614cf261271061089661251c8860018a51038151811061239657fe5b86308d6040518663ffffffff1660e01b81526004018086815260200185815260200180602001846001600160a01b03168152602001838152602001828103825285818151815260200191508051906020019060200280838360005b83811015614d65578181015183820152602001614d4d565b505050509050019650505050505050600060405180830381600087803b158015614d8e57600080fd5b505af1158015614da2573d6000803e3d6000fd5b505050506040513d6000823e601f3d908101601f191682016040526020811015614dcb57600080fd5b8101908080516040519392919084600160201b821115614dea57600080fd5b908301906020820185811115614dff57600080fd5b82518660208202830111600160201b82111715614e1b57600080fd5b82525081516020918201928201910280838360005b83811015614e48578181015183820152602001614e30565b505050509050016040525050509050600081600183510381518110614e6957fe5b60209081029190910181015160ce5460d5546040805163095ea7b360e01b81526001600160a01b03928316600482015260248101859052905193955091169263095ea7b3926044808401938290030181600087803b158015614eca57600080fd5b505af1158015614ede573d6000803e3d6000fd5b505050506040513d6020811015614ef457600080fd5b505060d55460408051636e553f6560e01b81526004810184905233602482015290516001600160a01b0390921691636e553f659160448082019260009290919082900301818387803b158015614f4957600080fd5b505af1158015614f5d573d6000803e3d6000fd5b505060e75460009250614f8a91506127109061089690859068010000000000000000900461ffff16611dc3565b60d354604080517faf2cea5d0000000000000000000000000000000000000000000000000000000081526004810184905230602482015290519293506001600160a01b039091169163af2cea5d9160448082019260009290919082900301818387803b158015614ff957600080fd5b505af115801561500d573d6000803e3d6000fd5b505060ce5460d5546040805163095ea7b360e01b81526001600160a01b03928316600482015260248101879052905191909216935063095ea7b3925060448083019260209291908290030181600087803b15801561506a57600080fd5b505af115801561507e573d6000803e3d6000fd5b505050506040513d602081101561509457600080fd5b505060d55460408051636e553f6560e01b81526004810184905233602482015290516001600160a01b0390921691636e553f659160448082019260009290919082900301818387803b1580156150e957600080fd5b505af11580156150fd573d6000803e3d6000fd5b5050505050505050505b60d85460d05460cf546040805163a1c421cd60e01b81526001600160a01b039384166004820152918316602483015251606093929092169163a1c421cd91604480820192600092909190829003018186803b15801561516557600080fd5b505afa158015615179573d6000803e3d6000fd5b505050506040513d6000823e601f3d908101601f1916820160405260208110156151a257600080fd5b8101908080516040519392919084600160201b8211156151c157600080fd5b9083019060208201858111156151d657600080fd5b82518660208202830111600160201b821117156151f257600080fd5b82525081516020918201928201910280838360005b8381101561521f578181015183820152602001615207565b505050509050016040525050509050606060d760009054906101000a90046001600160a01b03166001600160a01b031663d06ca61f878d6040518363ffffffff1660e01b81526004018083815260200180602001828103825283818151815260200191508051906020019060200280838360005b838110156152ab578181015183820152602001615293565b50505050905001935050505060006040518083038186803b1580156152cf57600080fd5b505afa1580156152e3573d6000803e3d6000fd5b505050506040513d6000823e601f3d908101601f19168201604052602081101561530c57600080fd5b8101908080516040519392919084600160201b82111561532b57600080fd5b90830190602082018581111561534057600080fd5b82518660208202830111600160201b8211171561535c57600080fd5b82525081516020918201928201910280838360005b83811015615389578181015183820152602001615371565b505050509050016040525050509050606060d760009054906101000a90046001600160a01b03166001600160a01b03166338ed1739886153db61271061089661251c8860018a51038151811061239657fe5b8630426040518663ffffffff1660e01b81526004018086815260200185815260200180602001846001600160a01b03168152602001838152602001828103825285818151815260200191508051906020019060200280838360005b8381101561544e578181015183820152602001615436565b505050509050019650505050505050600060405180830381600087803b15801561547757600080fd5b505af115801561548b573d6000803e3d6000fd5b505050506040513d6000823e601f3d908101601f1916820160405260208110156154b457600080fd5b8101908080516040519392919084600160201b8211156154d357600080fd5b9083019060208201858111156154e857600080fd5b82518660208202830111600160201b8211171561550457600080fd5b82525081516020918201928201910280838360005b83811015615531578181015183820152602001615519565b50505050905001604052505050905060008160018351038151811061555257fe5b602090810291909101015160cf54909150615577906001600160a01b031633836139bf565b60408051828152905133917f18b4d88519e317cd323e73f9cb4143659b157408d6c68da2a8e309e0c7155b34919081900360200190a25050505050505050505050505050565b60008183106155cc5781611d05565b5090919050565b60665460ff16156156155760405162461bcd60e51b8152600401808060200182810382526045815260200180615d766045913960600191505060405180910390fd5b8061561e611799565b60df556156296113c1565b60de556001600160a01b03811615615670576156448161082a565b6001600160a01b038216600090815260e1602090815260408083209390935560df5460e0909152919020555b600083116156c5576040805162461bcd60e51b815260206004820181905260248201527f416d6f756e74206d7573742062652067726561746572207468616e207a65726f604482015290519081900360640190fd5b60e2546156d29084611d0c565b60e2556001600160a01b038216600090815260e360205260409020546156f89084611d0c565b6001600160a01b03808416600090815260e3602090815260408083209490945560e490529190912042905560cc546157339116333086615b69565b600061573e84615bdc565b6040805186815290519192506001600160a01b038516917f2da466a7b24304f47e87fa2e1e5a81b9831ce54fec19055ce277ca2f39ba42c49181900360200190a2610f7281613a2a565b60606157dd826040518060400160405280602081526020017f5361666542455032303a206c6f772d6c6576656c2063616c6c206661696c6564815250856001600160a01b0316611cf39092919063ffffffff16565b805190915015610931578080602001905160208110156157fc57600080fd5b50516109315760405162461bcd60e51b815260040180806020018281038252602a815260200180615dbb602a913960400191505060405180910390fd5b60608247101561587a5760405162461bcd60e51b8152600401808060200182810382526026815260200180615e0b6026913960400191505060405180910390fd5b61588385615ccb565b6158d4576040805162461bcd60e51b815260206004820152601d60248201527f416464726573733a2063616c6c20746f206e6f6e2d636f6e7472616374000000604482015290519081900360640190fd5b60006060866001600160a01b031685876040518082805190602001908083835b602083106159135780518252601f1990920191602091820191016158f4565b6001836020036101000a03801982511681845116808217855250505050505090500191505060006040518083038185875af1925050503d8060008114615975576040519150601f19603f3d011682016040523d82523d6000602084013e61597a565b606091505b509150915061598a828286615cd1565b979650505050505050565b600061599f611799565b60df556159aa6113c1565b60de556001600160a01b038116156159f1576159c58161082a565b6001600160a01b038216600090815260e1602090815260408083209390935560df5460e0909152919020555b60db544210615a105760dd54615a08908390611e1c565b60dc55615a53565b60db54600090615a209042611d66565b90506000615a3960dc5483611dc390919063ffffffff16565b60dd54909150615a4d906108968684611d0c565b60dc5550505b60cd5460408051633d7ad0b760e21b815230600482015290516000926001600160a01b03169163f5eb42dc916024808301926020929190829003018186803b158015615a9e57600080fd5b505afa158015615ab2573d6000803e3d6000fd5b505050506040513d6020811015615ac857600080fd5b505160dd54909150615adb908290611e1c565b60dc541115615b1b5760405162461bcd60e51b8152600401808060200182810382526026815260200180615eb86026913960400191505060405180910390fd5b4260de81905560dd54615b2e9190611d0c565b60db556040805184815290517fde88a922e0d3b88b24e9623efeb464919c6bf9f66857a65e2bfcf2ce87a9433d9181900360200190a1505050565b604080516001600160a01b0380861660248301528416604482015260648082018490528251808303909101815260849091019091526020810180516001600160e01b03167f23b872dd00000000000000000000000000000000000000000000000000000000179052610f72908590615788565b60cf54604080516370a0823160e01b8152306004820152905160009283926001600160a01b03909116916370a0823191602480820192602092909190829003018186803b158015615c2c57600080fd5b505afa158015615c40573d6000803e3d6000fd5b505050506040513d6020811015615c5657600080fd5b505160d15460da54604080517fe2bbb158000000000000000000000000000000000000000000000000000000008152600481019290925260248201879052519293506001600160a01b039091169163e2bbb1589160448082019260009290919082900301818387803b158015611f7657600080fd5b3b151590565b60608315615ce0575081611d05565b825115615cf05782518084602001fd5b8160405162461bcd60e51b81526004018080602001828103825283818151815260200191508051906020019080838360005b83811015615d3a578181015183820152602001615d22565b50505050905090810190601f168015615d675780820380516001836020036101000a031916815260200191505b509250505060405180910390fdfe5061757361626c655570677261646561626c653a2063616e6e6f7420626520706572666f726d6564207768696c652074686520636f6e7472616374206973207061757365645361666542455032303a204245503230206f7065726174696f6e20646964206e6f7420737563636565644f776e61626c653a206e6577206f776e657220697320746865207a65726f2061646472657373416464726573733a20696e73756666696369656e742062616c616e636520666f722063616c6c536166654d6174683a206d756c7469706c69636174696f6e206f766572666c6f775361666542455032303a20617070726f76652066726f6d206e6f6e2d7a65726f20746f206e6f6e2d7a65726f20616c6c6f77616e636554686973207661756c74206d7573742062652061206d696e74657220696e206d696e746572277320636f6e74726163747265776172642072617465206d75737420626520696e207468652072696768742072616e6765a2646970667358221220d0707c4c4c43b267cca0ecb501048ccc2357f60e747c684c1c782f13aad5368264736f6c634300060c00335361666542455032303a204245503230206f7065726174696f6e20646964206e6f742073756363656564416464726573733a20696e73756666696369656e742062616c616e636520666f722063616c6c496e697469616c697a61626c653a20636f6e747261637420697320616c726561647920696e697469616c697a65645361666542455032303a20617070726f76652066726f6d206e6f6e2d7a65726f20746f206e6f6e2d7a65726f20616c6c6f77616e63654f776e61626c653a2063616c6c6572206973206e6f7420746865206f776e65725061757361626c655570677261646561626c653a206f776e6572206d75737420626520736574",
  "linkReferences": {},
  "deployedLinkReferences": {}
}