{
  "_format": "hh-sol-artifact-1",
  "contractName": "VaultStakedToGlobal",
  "sourceName": "contracts/Vaults/VaultStakedToGlobal.sol",
  "abi": [
    {
      "inputs": [
        {
          "internalType": "address",
          "name": "_global",
          "type": "address"
        },
        {
          "internalType": "address",
          "name": "_wbnb",
          "type": "address"
        },
        {
          "internalType": "address",
          "name": "_globalMasterChef",
          "type": "address"
        },
        {
          "internalType": "address",
          "name": "_globalRouter",
          "type": "address"
        }
      ],
      "stateMutability": "nonpayable",
      "type": "constructor"
    },
    {
      "anonymous": false,
      "inputs": [
        {
          "indexed": true,
          "internalType": "address",
          "name": "_user",
          "type": "address"
        },
        {
          "indexed": false,
          "internalType": "uint256",
          "name": "_amount",
          "type": "uint256"
        }
      ],
      "name": "Deposited",
      "type": "event"
    },
    {
      "anonymous": false,
      "inputs": [
        {
          "indexed": false,
          "internalType": "uint256",
          "name": "_distributedAmount",
          "type": "uint256"
        }
      ],
      "name": "Distributed",
      "type": "event"
    },
    {
      "anonymous": false,
      "inputs": [
        {
          "indexed": true,
          "internalType": "address",
          "name": "previousOwner",
          "type": "address"
        },
        {
          "indexed": true,
          "internalType": "address",
          "name": "newOwner",
          "type": "address"
        }
      ],
      "name": "OwnershipTransferred",
      "type": "event"
    },
    {
      "anonymous": false,
      "inputs": [
        {
          "indexed": true,
          "internalType": "address",
          "name": "_user",
          "type": "address"
        },
        {
          "indexed": false,
          "internalType": "uint256",
          "name": "_amount",
          "type": "uint256"
        }
      ],
      "name": "RewardPaid",
      "type": "event"
    },
    {
      "anonymous": false,
      "inputs": [
        {
          "indexed": true,
          "internalType": "address",
          "name": "_user",
          "type": "address"
        },
        {
          "indexed": false,
          "internalType": "uint256",
          "name": "_amount",
          "type": "uint256"
        }
      ],
      "name": "Withdrawn",
      "type": "event"
    },
    {
      "inputs": [],
      "name": "DUST",
      "outputs": [
        {
          "internalType": "uint256",
          "name": "",
          "type": "uint256"
        }
      ],
      "stateMutability": "view",
      "type": "function"
    },
    {
      "inputs": [],
      "name": "balance",
      "outputs": [
        {
          "internalType": "uint256",
          "name": "amount",
          "type": "uint256"
        }
      ],
      "stateMutability": "view",
      "type": "function"
    },
    {
      "inputs": [
        {
          "internalType": "address",
          "name": "_account",
          "type": "address"
        }
      ],
      "name": "balanceOf",
      "outputs": [
        {
          "internalType": "uint256",
          "name": "",
          "type": "uint256"
        }
      ],
      "stateMutability": "view",
      "type": "function"
    },
    {
      "inputs": [
        {
          "internalType": "uint256",
          "name": "_amount",
          "type": "uint256"
        }
      ],
      "name": "deposit",
      "outputs": [],
      "stateMutability": "nonpayable",
      "type": "function"
    },
    {
      "inputs": [
        {
          "internalType": "address",
          "name": "_account",
          "type": "address"
        }
      ],
      "name": "earned",
      "outputs": [
        {
          "internalType": "uint256",
          "name": "",
          "type": "uint256"
        }
      ],
      "stateMutability": "view",
      "type": "function"
    },
    {
      "inputs": [],
      "name": "getReward",
      "outputs": [],
      "stateMutability": "nonpayable",
      "type": "function"
    },
    {
      "inputs": [],
      "name": "getUsersLength",
      "outputs": [
        {
          "internalType": "uint256",
          "name": "",
          "type": "uint256"
        }
      ],
      "stateMutability": "view",
      "type": "function"
    },
    {
      "inputs": [],
      "name": "global",
      "outputs": [
        {
          "internalType": "contract IBEP20",
          "name": "",
          "type": "address"
        }
      ],
      "stateMutability": "view",
      "type": "function"
    },
    {
      "inputs": [],
      "name": "globalMasterChef",
      "outputs": [
        {
          "internalType": "contract IGlobalMasterChef",
          "name": "",
          "type": "address"
        }
      ],
      "stateMutability": "view",
      "type": "function"
    },
    {
      "inputs": [],
      "name": "globalRouter",
      "outputs": [
        {
          "internalType": "contract IRouterV2",
          "name": "",
          "type": "address"
        }
      ],
      "stateMutability": "view",
      "type": "function"
    },
    {
      "inputs": [],
      "name": "minTokenAmountToDistribute",
      "outputs": [
        {
          "internalType": "uint256",
          "name": "",
          "type": "uint256"
        }
      ],
      "stateMutability": "view",
      "type": "function"
    },
    {
      "inputs": [],
      "name": "owner",
      "outputs": [
        {
          "internalType": "address",
          "name": "",
          "type": "address"
        }
      ],
      "stateMutability": "view",
      "type": "function"
    },
    {
      "inputs": [],
      "name": "pid",
      "outputs": [
        {
          "internalType": "uint256",
          "name": "",
          "type": "uint256"
        }
      ],
      "stateMutability": "view",
      "type": "function"
    },
    {
      "inputs": [
        {
          "internalType": "address",
          "name": "",
          "type": "address"
        }
      ],
      "name": "principal",
      "outputs": [
        {
          "internalType": "uint256",
          "name": "",
          "type": "uint256"
        }
      ],
      "stateMutability": "view",
      "type": "function"
    },
    {
      "inputs": [
        {
          "internalType": "address",
          "name": "_account",
          "type": "address"
        }
      ],
      "name": "principalOf",
      "outputs": [
        {
          "internalType": "uint256",
          "name": "",
          "type": "uint256"
        }
      ],
      "stateMutability": "view",
      "type": "function"
    },
    {
      "inputs": [],
      "name": "renounceOwnership",
      "outputs": [],
      "stateMutability": "nonpayable",
      "type": "function"
    },
    {
      "inputs": [],
      "name": "rewardsToken",
      "outputs": [
        {
          "internalType": "address",
          "name": "",
          "type": "address"
        }
      ],
      "stateMutability": "view",
      "type": "function"
    },
    {
      "inputs": [
        {
          "internalType": "address",
          "name": "_rewarder",
          "type": "address"
        },
        {
          "internalType": "bool",
          "name": "_canReward",
          "type": "bool"
        }
      ],
      "name": "setRewarder",
      "outputs": [],
      "stateMutability": "nonpayable",
      "type": "function"
    },
    {
      "inputs": [],
      "name": "stakingToken",
      "outputs": [
        {
          "internalType": "address",
          "name": "",
          "type": "address"
        }
      ],
      "stateMutability": "view",
      "type": "function"
    },
    {
      "inputs": [],
      "name": "totalSupply",
      "outputs": [
        {
          "internalType": "uint256",
          "name": "",
          "type": "uint256"
        }
      ],
      "stateMutability": "view",
      "type": "function"
    },
    {
      "inputs": [
        {
          "internalType": "address",
          "name": "newOwner",
          "type": "address"
        }
      ],
      "name": "transferOwnership",
      "outputs": [],
      "stateMutability": "nonpayable",
      "type": "function"
    },
    {
      "inputs": [
        {
          "internalType": "uint256",
          "name": "_amount",
          "type": "uint256"
        }
      ],
      "name": "triggerDistribute",
      "outputs": [],
      "stateMutability": "nonpayable",
      "type": "function"
    },
    {
      "inputs": [
        {
          "internalType": "uint256",
          "name": "",
          "type": "uint256"
        }
      ],
      "name": "users",
      "outputs": [
        {
          "internalType": "address",
          "name": "",
          "type": "address"
        }
      ],
      "stateMutability": "view",
      "type": "function"
    },
    {
      "inputs": [],
      "name": "wbnb",
      "outputs": [
        {
          "internalType": "contract IBEP20",
          "name": "",
          "type": "address"
        }
      ],
      "stateMutability": "view",
      "type": "function"
    },
    {
      "inputs": [],
      "name": "wbnbBalance",
      "outputs": [
        {
          "internalType": "uint256",
          "name": "",
          "type": "uint256"
        }
      ],
      "stateMutability": "view",
      "type": "function"
    },
    {
      "inputs": [
        {
          "internalType": "address",
          "name": "",
          "type": "address"
        }
      ],
      "name": "wbnbEarned",
      "outputs": [
        {
          "internalType": "uint256",
          "name": "",
          "type": "uint256"
        }
      ],
      "stateMutability": "view",
      "type": "function"
    },
    {
      "inputs": [],
      "name": "withdraw",
      "outputs": [],
      "stateMutability": "nonpayable",
      "type": "function"
    }
  ],
  "bytecode": "0x608060405234801561001057600080fd5b50604051611bd8380380611bd88339818101604052608081101561003357600080fd5b508051602082015160408301516060909301516001600090815592939192610059610110565b600180546001600160a01b0319166001600160a01b038316908117909155604051919250906000907f8be0079c531659141344cd1fd0a4f28419497f9722a3daafe3b4186f6b6457e0908290a35060006007819055600380546001600160a01b039687166001600160a01b0319918216179091556004805495871695821695909517909455600d556005805492851692841692909217909155670de0b6b3a764000060085560068054919093169116179055610114565b3390565b611ab5806101236000396000f3fe608060405234801561001057600080fd5b50600436106101b85760003560e01c806372f702f3116100f9578063b69ef8a811610097578063d70f4c7911610071578063d70f4c79146103a0578063e0714885146103a8578063f1068454146103b0578063f2fde38b146103b8576101b8565b8063b69ef8a814610373578063b6b55f251461037b578063d1af0c7d14610398576101b8565b80638da5cb5b116100d35780638da5cb5b1461032d578063a05f990614610335578063a750212e1461033d578063b4c364391461036b576101b8565b806372f702f31461031557806389724cdb1461031d5780638d72647e14610325576101b8565b80633d18b91211610166578063595b1a3e11610140578063595b1a3e146102b957806361e20a1c146102c157806370a08231146102e7578063715018a61461030d576101b8565b80633d18b9121461028c5780634e0cd799146102945780634e4c72df1461029c576101b8565b80632ce0f9d6116101975780632ce0f9d614610223578063365b98b2146102495780633ccfd60b14610282576101b8565b80628cc262146101bd57806318160ddd146101f557806321323953146101fd575b600080fd5b6101e3600480360360208110156101d357600080fd5b50356001600160a01b03166103de565b60408051918252519081900360200190f35b6101e3610418565b6101e36004803603602081101561021357600080fd5b50356001600160a01b031661041e565b6101e36004803603602081101561023957600080fd5b50356001600160a01b0316610430565b6102666004803603602081101561025f57600080fd5b5035610442565b604080516001600160a01b039092168252519081900360200190f35b61028a610469565b005b61028a6105f3565b6101e361067f565b61028a600480360360208110156102b257600080fd5b5035610685565b6101e3610755565b6101e3600480360360208110156102d757600080fd5b50356001600160a01b031661075b565b6101e3600480360360208110156102fd57600080fd5b50356001600160a01b0316610776565b61028a61079a565b61026661084e565b61026661085d565b61026661086c565b61026661087b565b61026661088a565b61028a6004803603604081101561035357600080fd5b506001600160a01b0381351690602001351515610899565b6101e3610957565b6101e361095d565b61028a6004803603602081101561039157600080fd5b50356109fa565b610266610cc0565b6101e3610ccf565b610266610cd5565b6101e3610ce4565b61028a600480360360208110156103ce57600080fd5b50356001600160a01b0316610cea565b6000806103ea8361075b565b111561040f57506001600160a01b0381166000908152600b6020526040902054610413565b5060005b919050565b600c5481565b600b6020526000908152604090205481565b600a6020526000908152604090205481565b6009818154811061044f57fe5b6000918252602090912001546001600160a01b0316905081565b600260005414156104c1576040805162461bcd60e51b815260206004820152601f60248201527f5265656e7472616e637947756172643a207265656e7472616e742063616c6c00604482015290519081900360640190fd5b600260009081556104d133610776565b905060006104de336103de565b600554604080517f1058d2810000000000000000000000000000000000000000000000000000000081526004810186905290519293506001600160a01b0390911691631058d2819160248082019260009290919082900301818387803b15801561054757600080fd5b505af115801561055b573d6000803e3d6000fd5b505060035461057792506001600160a01b031690503384610d60565b61058081610de5565b600c5461058d9083611204565b600c5561059933611261565b336000818152600a60209081526040808320839055600b825280832092909255815185815291517f7084f5476618d8e60b11ef0d7d3f06914655adb8793e28ff7f018d4c76d505d59281900390910190a250506001600055565b6002600054141561064b576040805162461bcd60e51b815260206004820152601f60248201527f5265656e7472616e637947756172643a207265656e7472616e742063616c6c00604482015290519081900360640190fd5b6002600090815561065b336103de565b905061066681610de5565b50336000908152600b6020526040812081905560019055565b6103e881565b600260005414156106dd576040805162461bcd60e51b815260206004820152601f60248201527f5265656e7472616e637947756172643a207265656e7472616e742063616c6c00604482015290519081900360640190fd5b60026000818155338152602091909152604090205460ff1615156001146107355760405162461bcd60e51b8152600401808060200182810382526026815260200180611a136026913960400191505060405180910390fd5b600d54610742908261134e565b600d5561074d6113af565b506001600055565b60095490565b6001600160a01b03166000908152600a602052604090205490565b6000600c546000141561078b57506000610413565b6107948261075b565b92915050565b6107a2611501565b6001546001600160a01b03908116911614610804576040805162461bcd60e51b815260206004820181905260248201527f4f776e61626c653a2063616c6c6572206973206e6f7420746865206f776e6572604482015290519081900360640190fd5b6001546040516000916001600160a01b0316907f8be0079c531659141344cd1fd0a4f28419497f9722a3daafe3b4186f6b6457e0908390a3600180546001600160a01b0319169055565b6003546001600160a01b031690565b6006546001600160a01b031681565b6004546001600160a01b031681565b6001546001600160a01b031690565b6003546001600160a01b031681565b6108a1611501565b6001546001600160a01b03908116911614610903576040805162461bcd60e51b815260206004820181905260248201527f4f776e61626c653a2063616c6c6572206973206e6f7420746865206f776e6572604482015290519081900360640190fd5b8015610932576001600160a01b0382166000908152600260205260409020805460ff1916821515179055610953565b6001600160a01b0382166000908152600260205260409020805460ff191690555b5050565b600d5481565b600554600754604080517f93f1a40b000000000000000000000000000000000000000000000000000000008152600481019290925230602483015280516000936001600160a01b0316926393f1a40b926044808301939192829003018186803b1580156109c957600080fd5b505afa1580156109dd573d6000803e3d6000fd5b505050506040513d60408110156109f357600080fd5b5051919050565b60026000541415610a52576040805162461bcd60e51b815260206004820152601f60248201527f5265656e7472616e637947756172643a207265656e7472616e742063616c6c00604482015290519081900360640190fd5b60026000908155600354610a71906001600160a01b0316333085611505565b600354600554604080517f095ea7b30000000000000000000000000000000000000000000000000000000081526001600160a01b039283166004820152602481018690529051919092169163095ea7b39160448083019260209291908290030181600087803b158015610ae357600080fd5b505af1158015610af7573d6000803e3d6000fd5b505050506040513d6020811015610b0d57600080fd5b5050600554604080517f41441d3b0000000000000000000000000000000000000000000000000000000081526004810185905290516001600160a01b03909216916341441d3b9160248082019260009290919082900301818387803b158015610b7557600080fd5b505af1158015610b89573d6000803e3d6000fd5b5050505060005b600954811015610bdd57336001600160a01b031660098281548110610bb157fe5b6000918252602090912001546001600160a01b03161415610bd55760019150610bdd565b600101610b90565b5080610c2657600980546001810182556000919091527f6e1540171b6c0c960b71a7020d9f60077f6af931a8bbf590da0223dacf75c7af0180546001600160a01b031916331790555b600c54610c33908361134e565b600c55336000908152600a6020526040902054610c50908361134e565b336000818152600a6020526040902091909155610c6c906103de565b610c8157336000908152600b60205260408120555b60408051838152905133917f2da466a7b24304f47e87fa2e1e5a81b9831ce54fec19055ce277ca2f39ba42c4919081900360200190a250506001600055565b6004546001600160a01b031690565b60085481565b6005546001600160a01b031681565b60075481565b610cf2611501565b6001546001600160a01b03908116911614610d54576040805162461bcd60e51b815260206004820181905260248201527f4f776e61626c653a2063616c6c6572206973206e6f7420746865206f776e6572604482015290519081900360640190fd5b610d5d81611593565b50565b604080516001600160a01b038416602482015260448082018490528251808303909101815260649091019091526020810180517bffffffffffffffffffffffffffffffffffffffffffffffffffffffff167fa9059cbb00000000000000000000000000000000000000000000000000000000179052610de0908490611634565b505050565b6103e8811015610df457610d5d565b6040805160028082526060808301845292602083019080368337505060045482519293506001600160a01b031691839150600090610e2e57fe5b6001600160a01b039283166020918202929092010152600354825191169082906001908110610e5957fe5b6001600160a01b03928316602091820292909201810191909152600654604080517fd06ca61f0000000000000000000000000000000000000000000000000000000081526004810187815260248201928352865160448301528651606096949094169463d06ca61f94899489949092606490910191858201910280838360005b83811015610ef1578181015183820152602001610ed9565b50505050905001935050505060006040518083038186803b158015610f1557600080fd5b505afa158015610f29573d6000803e3d6000fd5b505050506040513d6000823e601f3d908101601f191682016040526020811015610f5257600080fd5b8101908080516040519392919084640100000000821115610f7257600080fd5b908301906020820185811115610f8757600080fd5b8251866020820283011164010000000082111715610fa457600080fd5b82525081516020918201928201910280838360005b83811015610fd1578181015183820152602001610fb9565b5050505090500160405250505090506060600660009054906101000a90046001600160a01b03166001600160a01b03166338ed17398561103f61271061103961251c8860018a51038151811061102357fe5b60200260200101516116e590919063ffffffff16565b9061173e565b8633426040518663ffffffff1660e01b81526004018086815260200185815260200180602001846001600160a01b03168152602001838152602001828103825285818151815260200191508051906020019060200280838360005b838110156110b257818101518382015260200161109a565b505050509050019650505050505050600060405180830381600087803b1580156110db57600080fd5b505af11580156110ef573d6000803e3d6000fd5b505050506040513d6000823e601f3d908101601f19168201604052602081101561111857600080fd5b810190808051604051939291908464010000000082111561113857600080fd5b90830190602082018581111561114d57600080fd5b825186602082028301116401000000008211171561116a57600080fd5b82525081516020918201928201910280838360005b8381101561119757818101518382015260200161117f565b505050509050016040525050509050336001600160a01b03167fe2403640ba68fed3a2f88b7557551d1993f84b99bb10ff833f0cf8db0c5e0486826001845103815181106111e157fe5b60200260200101516040518082815260200191505060405180910390a250505050565b60008282111561125b576040805162461bcd60e51b815260206004820152601e60248201527f536166654d6174683a207375627472616374696f6e206f766572666c6f770000604482015290519081900360640190fd5b50900390565b60005b60095481101561095357816001600160a01b03166009828154811061128557fe5b6000918252602090912001546001600160a01b0316141561134657805b6009546000190181101561131757600981600101815481106112c057fe5b600091825260209091200154600980546001600160a01b0390921691839081106112e657fe5b600091825260209091200180546001600160a01b0319166001600160a01b03929092169190911790556001016112a2565b50600980548061132357fe5b600082815260209020810160001990810180546001600160a01b03191690550190555b600101611264565b6000828201838110156113a8576040805162461bcd60e51b815260206004820152601b60248201527f536166654d6174683a206164646974696f6e206f766572666c6f770000000000604482015290519081900360640190fd5b9392505050565b600d546008548110156113c257506114ff565b60005b6009548110156114b557600061140c600c546110396064611406600987815481106113ec57fe5b6000918252602090912001546001600160a01b031661075b565b906116e5565b9050600061141f606461103986856116e5565b600d5490915061142f9082611204565b600d8190555061147581600b60006009878154811061144a57fe5b60009182526020808320909101546001600160a01b031683528201929092526040019020549061134e565b600b60006009868154811061148657fe5b60009182526020808320909101546001600160a01b0316835282019290925260400190205550506001016113c5565b507fddc9c30275a04c48091f24199f9c405765de34d979d6847f5b9798a57232d2e56114ec600d548361120490919063ffffffff16565b60408051918252519081900360200190a1505b565b3390565b604080516001600160a01b0380861660248301528416604482015260648082018490528251808303909101815260849091019091526020810180517bffffffffffffffffffffffffffffffffffffffffffffffffffffffff167f23b872dd0000000000000000000000000000000000000000000000000000000017905261158d908590611634565b50505050565b6001600160a01b0381166115d85760405162461bcd60e51b81526004018080602001828103825260268152602001806119ed6026913960400191505060405180910390fd5b6001546040516001600160a01b038084169216907f8be0079c531659141344cd1fd0a4f28419497f9722a3daafe3b4186f6b6457e090600090a3600180546001600160a01b0319166001600160a01b0392909216919091179055565b6060611689826040518060400160405280602081526020017f5361666542455032303a206c6f772d6c6576656c2063616c6c206661696c6564815250856001600160a01b03166117a59092919063ffffffff16565b805190915015610de0578080602001905160208110156116a857600080fd5b5051610de05760405162461bcd60e51b815260040180806020018281038252602a8152602001806119c3602a913960400191505060405180910390fd5b6000826116f457506000610794565b8282028284828161170157fe5b04146113a85760405162461bcd60e51b8152600401808060200182810382526021815260200180611a5f6021913960400191505060405180910390fd5b6000808211611794576040805162461bcd60e51b815260206004820152601a60248201527f536166654d6174683a206469766973696f6e206279207a65726f000000000000604482015290519081900360640190fd5b81838161179d57fe5b049392505050565b60606117b484846000856117bc565b949350505050565b6060824710156117fd5760405162461bcd60e51b8152600401808060200182810382526026815260200180611a396026913960400191505060405180910390fd5b61180685611918565b611857576040805162461bcd60e51b815260206004820152601d60248201527f416464726573733a2063616c6c20746f206e6f6e2d636f6e7472616374000000604482015290519081900360640190fd5b60006060866001600160a01b031685876040518082805190602001908083835b602083106118965780518252601f199092019160209182019101611877565b6001836020036101000a03801982511681845116808217855250505050505090500191505060006040518083038185875af1925050503d80600081146118f8576040519150601f19603f3d011682016040523d82523d6000602084013e6118fd565b606091505b509150915061190d82828661191e565b979650505050505050565b3b151590565b6060831561192d5750816113a8565b82511561193d5782518084602001fd5b8160405162461bcd60e51b81526004018080602001828103825283818151815260200191508051906020019080838360005b8381101561198757818101518382015260200161196f565b50505050905090810190601f1680156119b45780820380516001836020036101000a031916815260200191505b509250505060405180910390fdfe5361666542455032303a204245503230206f7065726174696f6e20646964206e6f7420737563636565644f776e61626c653a206e6577206f776e657220697320746865207a65726f20616464726573734f6e6c79207265776172646572732063616e20706572666f726d207468697320616374696f6e416464726573733a20696e73756666696369656e742062616c616e636520666f722063616c6c536166654d6174683a206d756c7469706c69636174696f6e206f766572666c6f77a2646970667358221220b28a9ee9091dc63b816fae651c29883a1767559b9e6d94c2ab8c6477249be6d264736f6c634300060c0033",
  "linkReferences": {},
  "deployedLinkReferences": {}
}