{
  "_format": "hh-sol-artifact-1",
  "contractName": "SwapFeeReward",
  "sourceName": "contracts/SwapFeeReward.sol",
  "abi": [
    {
      "inputs": [
        {
          "internalType": "address",
          "name": "_factory",
          "type": "address"
        },
        {
          "internalType": "address",
          "name": "_router",
          "type": "address"
        },
        {
          "internalType": "bytes32",
          "name": "_INIT_CODE_HASH",
          "type": "bytes32"
        },
        {
          "internalType": "contract IOracle",
          "name": "_Oracle",
          "type": "address"
        },
        {
          "internalType": "address",
          "name": "_targetToken",
          "type": "address"
        }
      ],
      "stateMutability": "nonpayable",
      "type": "constructor"
    },
    {
      "anonymous": false,
      "inputs": [
        {
          "indexed": true,
          "internalType": "address",
          "name": "previousOwner",
          "type": "address"
        },
        {
          "indexed": true,
          "internalType": "address",
          "name": "newOwner",
          "type": "address"
        }
      ],
      "name": "OwnershipTransferred",
      "type": "event"
    },
    {
      "anonymous": false,
      "inputs": [
        {
          "indexed": false,
          "internalType": "address",
          "name": "account",
          "type": "address"
        },
        {
          "indexed": false,
          "internalType": "address",
          "name": "input",
          "type": "address"
        },
        {
          "indexed": false,
          "internalType": "address",
          "name": "output",
          "type": "address"
        },
        {
          "indexed": false,
          "internalType": "uint256",
          "name": "amount",
          "type": "uint256"
        },
        {
          "indexed": false,
          "internalType": "uint256",
          "name": "quantity",
          "type": "uint256"
        }
      ],
      "name": "Rewarded",
      "type": "event"
    },
    {
      "anonymous": false,
      "inputs": [
        {
          "indexed": false,
          "internalType": "address",
          "name": "userAddress",
          "type": "address"
        },
        {
          "indexed": false,
          "internalType": "uint256",
          "name": "amount",
          "type": "uint256"
        }
      ],
      "name": "Withdraw",
      "type": "event"
    },
    {
      "inputs": [],
      "name": "INIT_CODE_HASH",
      "outputs": [
        {
          "internalType": "bytes32",
          "name": "",
          "type": "bytes32"
        }
      ],
      "stateMutability": "view",
      "type": "function"
    },
    {
      "inputs": [
        {
          "internalType": "uint256",
          "name": "_percentReward",
          "type": "uint256"
        },
        {
          "internalType": "address",
          "name": "_pair",
          "type": "address"
        }
      ],
      "name": "addPair",
      "outputs": [],
      "stateMutability": "nonpayable",
      "type": "function"
    },
    {
      "inputs": [
        {
          "internalType": "address",
          "name": "_addToken",
          "type": "address"
        }
      ],
      "name": "addWhitelist",
      "outputs": [
        {
          "internalType": "bool",
          "name": "",
          "type": "bool"
        }
      ],
      "stateMutability": "nonpayable",
      "type": "function"
    },
    {
      "inputs": [
        {
          "internalType": "address",
          "name": "tokenA",
          "type": "address"
        },
        {
          "internalType": "address",
          "name": "tokenB",
          "type": "address"
        }
      ],
      "name": "checkPairExist",
      "outputs": [
        {
          "internalType": "bool",
          "name": "",
          "type": "bool"
        }
      ],
      "stateMutability": "view",
      "type": "function"
    },
    {
      "inputs": [],
      "name": "currentPhase",
      "outputs": [
        {
          "internalType": "uint256",
          "name": "",
          "type": "uint256"
        }
      ],
      "stateMutability": "view",
      "type": "function"
    },
    {
      "inputs": [
        {
          "internalType": "address",
          "name": "_delToken",
          "type": "address"
        }
      ],
      "name": "delWhitelist",
      "outputs": [
        {
          "internalType": "bool",
          "name": "",
          "type": "bool"
        }
      ],
      "stateMutability": "nonpayable",
      "type": "function"
    },
    {
      "inputs": [],
      "name": "factory",
      "outputs": [
        {
          "internalType": "address",
          "name": "",
          "type": "address"
        }
      ],
      "stateMutability": "view",
      "type": "function"
    },
    {
      "inputs": [
        {
          "internalType": "address",
          "name": "outputToken",
          "type": "address"
        },
        {
          "internalType": "uint256",
          "name": "outputAmount",
          "type": "uint256"
        },
        {
          "internalType": "address",
          "name": "anchorToken",
          "type": "address"
        }
      ],
      "name": "getQuantity",
      "outputs": [
        {
          "internalType": "uint256",
          "name": "",
          "type": "uint256"
        }
      ],
      "stateMutability": "view",
      "type": "function"
    },
    {
      "inputs": [
        {
          "internalType": "uint256",
          "name": "_index",
          "type": "uint256"
        }
      ],
      "name": "getWhitelist",
      "outputs": [
        {
          "internalType": "address",
          "name": "",
          "type": "address"
        }
      ],
      "stateMutability": "view",
      "type": "function"
    },
    {
      "inputs": [],
      "name": "getWhitelistLength",
      "outputs": [
        {
          "internalType": "uint256",
          "name": "",
          "type": "uint256"
        }
      ],
      "stateMutability": "view",
      "type": "function"
    },
    {
      "inputs": [
        {
          "internalType": "address",
          "name": "_token",
          "type": "address"
        }
      ],
      "name": "isWhitelist",
      "outputs": [
        {
          "internalType": "bool",
          "name": "",
          "type": "bool"
        }
      ],
      "stateMutability": "view",
      "type": "function"
    },
    {
      "inputs": [],
      "name": "maxMiningAmount",
      "outputs": [
        {
          "internalType": "uint256",
          "name": "",
          "type": "uint256"
        }
      ],
      "stateMutability": "view",
      "type": "function"
    },
    {
      "inputs": [],
      "name": "maxMiningInPhase",
      "outputs": [
        {
          "internalType": "uint256",
          "name": "",
          "type": "uint256"
        }
      ],
      "stateMutability": "view",
      "type": "function"
    },
    {
      "inputs": [
        {
          "internalType": "address",
          "name": "",
          "type": "address"
        }
      ],
      "name": "nonces",
      "outputs": [
        {
          "internalType": "uint256",
          "name": "",
          "type": "uint256"
        }
      ],
      "stateMutability": "view",
      "type": "function"
    },
    {
      "inputs": [],
      "name": "oracle",
      "outputs": [
        {
          "internalType": "contract IOracle",
          "name": "",
          "type": "address"
        }
      ],
      "stateMutability": "view",
      "type": "function"
    },
    {
      "inputs": [],
      "name": "owner",
      "outputs": [
        {
          "internalType": "address",
          "name": "",
          "type": "address"
        }
      ],
      "stateMutability": "view",
      "type": "function"
    },
    {
      "inputs": [
        {
          "internalType": "address",
          "name": "tokenA",
          "type": "address"
        },
        {
          "internalType": "address",
          "name": "tokenB",
          "type": "address"
        }
      ],
      "name": "pairFor",
      "outputs": [
        {
          "internalType": "address",
          "name": "pair",
          "type": "address"
        }
      ],
      "stateMutability": "view",
      "type": "function"
    },
    {
      "inputs": [
        {
          "internalType": "address",
          "name": "",
          "type": "address"
        }
      ],
      "name": "pairOfPid",
      "outputs": [
        {
          "internalType": "uint256",
          "name": "",
          "type": "uint256"
        }
      ],
      "stateMutability": "view",
      "type": "function"
    },
    {
      "inputs": [
        {
          "internalType": "uint256",
          "name": "",
          "type": "uint256"
        }
      ],
      "name": "pairsList",
      "outputs": [
        {
          "internalType": "address",
          "name": "pair",
          "type": "address"
        },
        {
          "internalType": "uint256",
          "name": "percentReward",
          "type": "uint256"
        },
        {
          "internalType": "bool",
          "name": "enabled",
          "type": "bool"
        }
      ],
      "stateMutability": "view",
      "type": "function"
    },
    {
      "inputs": [],
      "name": "pairsListLength",
      "outputs": [
        {
          "internalType": "uint256",
          "name": "",
          "type": "uint256"
        }
      ],
      "stateMutability": "view",
      "type": "function"
    },
    {
      "inputs": [],
      "name": "renounceOwnership",
      "outputs": [],
      "stateMutability": "nonpayable",
      "type": "function"
    },
    {
      "inputs": [
        {
          "internalType": "address",
          "name": "account",
          "type": "address"
        }
      ],
      "name": "rewardBalance",
      "outputs": [
        {
          "internalType": "uint256",
          "name": "",
          "type": "uint256"
        }
      ],
      "stateMutability": "view",
      "type": "function"
    },
    {
      "inputs": [],
      "name": "router",
      "outputs": [
        {
          "internalType": "address",
          "name": "",
          "type": "address"
        }
      ],
      "stateMutability": "view",
      "type": "function"
    },
    {
      "inputs": [
        {
          "internalType": "address",
          "name": "_factory",
          "type": "address"
        }
      ],
      "name": "setFactory",
      "outputs": [],
      "stateMutability": "nonpayable",
      "type": "function"
    },
    {
      "inputs": [
        {
          "internalType": "bytes32",
          "name": "_INIT_CODE_HASH",
          "type": "bytes32"
        }
      ],
      "name": "setInitCodeHash",
      "outputs": [],
      "stateMutability": "nonpayable",
      "type": "function"
    },
    {
      "inputs": [
        {
          "internalType": "contract IMinter",
          "name": "iminter",
          "type": "address"
        }
      ],
      "name": "setMinter",
      "outputs": [],
      "stateMutability": "nonpayable",
      "type": "function"
    },
    {
      "inputs": [
        {
          "internalType": "contract IOracle",
          "name": "_oracle",
          "type": "address"
        }
      ],
      "name": "setOracle",
      "outputs": [],
      "stateMutability": "nonpayable",
      "type": "function"
    },
    {
      "inputs": [
        {
          "internalType": "uint256",
          "name": "_pid",
          "type": "uint256"
        },
        {
          "internalType": "uint256",
          "name": "_percentReward",
          "type": "uint256"
        }
      ],
      "name": "setPair",
      "outputs": [],
      "stateMutability": "nonpayable",
      "type": "function"
    },
    {
      "inputs": [
        {
          "internalType": "uint256",
          "name": "_pid",
          "type": "uint256"
        },
        {
          "internalType": "bool",
          "name": "_enabled",
          "type": "bool"
        }
      ],
      "name": "setPairEnabled",
      "outputs": [],
      "stateMutability": "nonpayable",
      "type": "function"
    },
    {
      "inputs": [
        {
          "internalType": "uint256",
          "name": "_newPhase",
          "type": "uint256"
        }
      ],
      "name": "setPhase",
      "outputs": [
        {
          "internalType": "bool",
          "name": "",
          "type": "bool"
        }
      ],
      "stateMutability": "nonpayable",
      "type": "function"
    },
    {
      "inputs": [
        {
          "internalType": "address",
          "name": "newRouter",
          "type": "address"
        }
      ],
      "name": "setRouter",
      "outputs": [],
      "stateMutability": "nonpayable",
      "type": "function"
    },
    {
      "inputs": [
        {
          "internalType": "address",
          "name": "tokenA",
          "type": "address"
        },
        {
          "internalType": "address",
          "name": "tokenB",
          "type": "address"
        }
      ],
      "name": "sortTokens",
      "outputs": [
        {
          "internalType": "address",
          "name": "token0",
          "type": "address"
        },
        {
          "internalType": "address",
          "name": "token1",
          "type": "address"
        }
      ],
      "stateMutability": "pure",
      "type": "function"
    },
    {
      "inputs": [
        {
          "internalType": "address",
          "name": "account",
          "type": "address"
        },
        {
          "internalType": "address",
          "name": "input",
          "type": "address"
        },
        {
          "internalType": "address",
          "name": "output",
          "type": "address"
        },
        {
          "internalType": "uint256",
          "name": "amount",
          "type": "uint256"
        }
      ],
      "name": "swap",
      "outputs": [
        {
          "internalType": "bool",
          "name": "",
          "type": "bool"
        }
      ],
      "stateMutability": "nonpayable",
      "type": "function"
    },
    {
      "inputs": [],
      "name": "targetToken",
      "outputs": [
        {
          "internalType": "address",
          "name": "",
          "type": "address"
        }
      ],
      "stateMutability": "view",
      "type": "function"
    },
    {
      "inputs": [],
      "name": "totalMined",
      "outputs": [
        {
          "internalType": "uint256",
          "name": "",
          "type": "uint256"
        }
      ],
      "stateMutability": "view",
      "type": "function"
    },
    {
      "inputs": [
        {
          "internalType": "address",
          "name": "newOwner",
          "type": "address"
        }
      ],
      "name": "transferOwnership",
      "outputs": [],
      "stateMutability": "nonpayable",
      "type": "function"
    },
    {
      "inputs": [
        {
          "internalType": "uint8",
          "name": "v",
          "type": "uint8"
        },
        {
          "internalType": "bytes32",
          "name": "r",
          "type": "bytes32"
        },
        {
          "internalType": "bytes32",
          "name": "s",
          "type": "bytes32"
        }
      ],
      "name": "withdraw",
      "outputs": [
        {
          "internalType": "bool",
          "name": "",
          "type": "bool"
        }
      ],
      "stateMutability": "nonpayable",
      "type": "function"
    }
  ],
  "bytecode": "0x60806040526a52b7d2dcc80cd2e400000060065569010f0cf064dd592000006007556001600855600060095534801561003757600080fd5b50604051612522380380612522833981810160405260a081101561005a57600080fd5b508051602082015160408301516060840151608090940151929391929091906000610083610125565b600080546001600160a01b0319166001600160a01b0383169081178255604051929350917f8be0079c531659141344cd1fd0a4f28419497f9722a3daafe3b4186f6b6457e0908290a350600380546001600160a01b039687166001600160a01b0319918216179091556004805495871695821695909517909455600592909255600a8054918516918416919091179055600b8054919093169116179055610129565b3390565b6123ea806101386000396000f3fe608060405234801561001057600080fd5b50600436106102775760003560e01c806396db752a11610160578063c45a0155116100d8578063f80f5dd51161008c578063f915f5c411610071578063f915f5c4146106e0578063fca3b5aa14610705578063ff08753b1461072b57610277565b8063f80f5dd5146106b2578063f887ea40146106d857610277565b8063c708ba0c116100bd578063c708ba0c14610634578063cdc9b92614610660578063f2fde38b1461068c57610277565b8063c45a015514610606578063c683630d1461060e57610277565b8063a7ef67f61161012f578063b9e816c711610114578063b9e816c71461058f578063bfbee59f146105bd578063c0d78655146105e057610277565b8063a7ef67f61461051d578063a9678a181461055357610277565b806396db752a146104a457806396ed28f9146104c157806397ecfaab146104ef578063a13202e91461051557610277565b80635bb47808116101f35780637adbf973116101c25780637ecebe00116101a75780637ecebe001461046e5780638798df5b146104945780638da5cb5b1461049c57610277565b80637adbf973146104405780637dc0d1d01461046657610277565b80635bb47808146103a557806367b40cf7146103cb5780636a58f23f146103f1578063715018a61461043857610277565b80632c9dc1591161024a578063327107f71161022f578063327107f71461031c578063544caa56146103405780635556db651461039d57610277565b80632c9dc159146102cc5780632cc82655146102eb57610277565b80630495de501461027c578063055ad42e146102b457806313b1dc42146102bc578063257671f5146102c4575b600080fd5b6102a26004803603602081101561029257600080fd5b50356001600160a01b0316610733565b60408051918252519081900360200190f35b6102a2610745565b6102a261074b565b6102a2610751565b6102e9600480360360208110156102e257600080fd5b5035610757565b005b6103086004803603602081101561030157600080fd5b50356107b4565b604080519115158252519081900360200190f35b610324610817565b604080516001600160a01b039092168252519081900360200190f35b61036e6004803603604081101561035657600080fd5b506001600160a01b0381358116916020013516610826565b60405180836001600160a01b03168152602001826001600160a01b031681526020019250505060405180910390f35b6102a2610904565b6102e9600480360360208110156103bb57600080fd5b50356001600160a01b031661090a565b6102a2600480360360208110156103e157600080fd5b50356001600160a01b03166109c9565b61040e6004803603602081101561040757600080fd5b50356109e4565b604080516001600160a01b0390941684526020840192909252151582820152519081900360600190f35b6102e9610a21565b6102e96004803603602081101561045657600080fd5b50356001600160a01b0316610ac3565b610324610b82565b6102a26004803603602081101561048457600080fd5b50356001600160a01b0316610b91565b6102a2610ba3565b610324610ba9565b610324600480360360208110156104ba57600080fd5b5035610bb8565b610324600480360360408110156104d757600080fd5b506001600160a01b0381358116916020013516610c2a565b6103086004803603602081101561050557600080fd5b50356001600160a01b0316610ce2565b6102a2610d8c565b6102a26004803603606081101561053357600080fd5b506001600160a01b03813581169160208101359160409091013516610d9d565b6103086004803603608081101561056957600080fd5b506001600160a01b03813581169160208101358216916040820135169060600135611186565b610308600480360360408110156105a557600080fd5b506001600160a01b03813581169160200135166113c4565b6102e9600480360360408110156105d357600080fd5b5080359060200135611438565b6102e9600480360360208110156105f657600080fd5b50356001600160a01b03166114b7565b610324611576565b6103086004803603602081101561062457600080fd5b50356001600160a01b0316611585565b6102e96004803603604081101561064a57600080fd5b50803590602001356001600160a01b0316611592565b6103086004803603606081101561067657600080fd5b5060ff813516906020810135906040013561173a565b6102e9600480360360208110156106a257600080fd5b50356001600160a01b0316611923565b610308600480360360208110156106c857600080fd5b50356001600160a01b0316611987565b610324611a31565b6102e9600480360360408110156106f657600080fd5b50803590602001351515611a40565b6102e96004803603602081101561071b57600080fd5b50356001600160a01b0316611acc565b6102a2611bb9565b600f6020526000908152604090205481565b60085481565b60065481565b60055481565b61075f611bbf565b6000546001600160a01b039081169116146107af576040805162461bcd60e51b8152602060048201819052602482015260008051602061231b833981519152604482015290519081900360640190fd5b600555565b60006107be611bbf565b6000546001600160a01b0390811691161461080e576040805162461bcd60e51b8152602060048201819052602482015260008051602061231b833981519152604482015290519081900360640190fd5b50600855600190565b600b546001600160a01b031681565b600080826001600160a01b0316846001600160a01b0316141561087a5760405162461bcd60e51b815260040180806020018281038252602381526020018061233b6023913960400191505060405180910390fd5b826001600160a01b0316846001600160a01b03161061089a57828461089d565b83835b90925090506001600160a01b0382166108fd576040805162461bcd60e51b815260206004820152601c60248201527f42535753776170466163746f72793a205a45524f5f4144445245535300000000604482015290519081900360640190fd5b9250929050565b60095481565b610912611bbf565b6000546001600160a01b03908116911614610962576040805162461bcd60e51b8152602060048201819052602482015260008051602061231b833981519152604482015290519081900360640190fd5b6001600160a01b0381166109a75760405162461bcd60e51b815260040180806020018281038252602b815260200180612278602b913960400191505060405180910390fd5b600380546001600160a01b0319166001600160a01b0392909216919091179055565b6001600160a01b03166000908152600e602052604090205490565b601081815481106109f157fe5b60009182526020909120600390910201805460018201546002909201546001600160a01b03909116925060ff1683565b610a29611bbf565b6000546001600160a01b03908116911614610a79576040805162461bcd60e51b8152602060048201819052602482015260008051602061231b833981519152604482015290519081900360640190fd5b600080546040516001600160a01b03909116907f8be0079c531659141344cd1fd0a4f28419497f9722a3daafe3b4186f6b6457e0908390a3600080546001600160a01b0319169055565b610acb611bbf565b6000546001600160a01b03908116911614610b1b576040805162461bcd60e51b8152602060048201819052602482015260008051602061231b833981519152604482015290519081900360640190fd5b6001600160a01b038116610b605760405162461bcd60e51b815260040180806020018281038252602a8152602001806122d0602a913960400191505060405180910390fd5b600a80546001600160a01b0319166001600160a01b0392909216919091179055565b600a546001600160a01b031681565b600d6020526000908152604090205481565b60105490565b6000546001600160a01b031690565b60006001610bc4610d8c565b03821115610c19576040805162461bcd60e51b815260206004820152601f60248201527f537761704d696e696e673a20696e646578206f7574206f6620626f756e647300604482015290519081900360640190fd5b610c24600183611bc3565b92915050565b6000806000610c398585610826565b600354604080516bffffffffffffffffffffffff19606095861b811660208084019190915294861b81166034830152825160288184030181526048830184528051908601206005547fff0000000000000000000000000000000000000000000000000000000000000060688501529490961b166069820152607d810194909452609d808501929092528051808503909201825260bd909301909252815191012095945050505050565b6000610cec611bbf565b6000546001600160a01b03908116911614610d3c576040805162461bcd60e51b8152602060048201819052602482015260008051602061231b833981519152604482015290519081900360640190fd5b6001600160a01b038216610d815760405162461bcd60e51b81526004018080602001828103825260258152602001806122536025913960400191505060405180910390fd5b610c24600183611bcf565b6000610d986001611be4565b905090565b6000806001600160a01b038581169084161415610dbb57508261117c565b6003546040805163e6a4390560e01b81526001600160a01b038881166004830152868116602483015291516000939092169163e6a4390591604480820192602092909190829003018186803b158015610e1357600080fd5b505afa158015610e27573d6000803e3d6000fd5b505050506040513d6020811015610e3d57600080fd5b50516001600160a01b031614801590610e5b5750610e5b85846113c4565b15610eef57600a5460408051632321bc7960e21b81526001600160a01b03888116600483015260248201889052868116604483015291519190921691638c86f1e4916064808301926020929190829003018186803b158015610ebc57600080fd5b505afa158015610ed0573d6000803e3d6000fd5b505050506040513d6020811015610ee657600080fd5b5051905061117c565b6000610ef9610d8c565b905060005b81811015611179576000610f1182610bb8565b6003546040805163e6a4390560e01b81526001600160a01b038c8116600483015284811660248301529151939450600093919092169163e6a43905916044808301926020929190829003018186803b158015610f6c57600080fd5b505afa158015610f80573d6000803e3d6000fd5b505050506040513d6020811015610f9657600080fd5b50516001600160a01b03161480159061103a57506003546040805163e6a4390560e01b81526001600160a01b038481166004830152898116602483015291516000939092169163e6a4390591604480820192602092909190829003018186803b15801561100257600080fd5b505afa158015611016573d6000803e3d6000fd5b505050506040513d602081101561102c57600080fd5b50516001600160a01b031614155b801561104b575061104b81876113c4565b1561117057600a5460408051632321bc7960e21b81526001600160a01b038b81166004830152602482018b9052848116604483015291516000939290921691638c86f1e491606480820192602092909190829003018186803b1580156110b057600080fd5b505afa1580156110c4573d6000803e3d6000fd5b505050506040513d60208110156110da57600080fd5b5051600a5460408051632321bc7960e21b81526001600160a01b038681166004830152602482018590528b811660448301529151939450911691638c86f1e491606480820192602092909190829003018186803b15801561113a57600080fd5b505afa15801561114e573d6000803e3d6000fd5b505050506040513d602081101561116457600080fd5b50519450611179915050565b50600101610efe565b50505b90505b9392505050565b6004546000906001600160a01b031633146111d25760405162461bcd60e51b815260040180806020018281038252602781526020018061235e6027913960400191505060405180910390fd5b6111db84611585565b15806111ed57506111eb83611585565b155b156111fa575060006113bc565b6009546006541161120d575060006113bc565b60006112198585610c2a565b6001600160a01b0381166000908152600f6020526040812054601080549394509192811061124357fe5b6000918252602090912060039091020180549091506001600160a01b0383811691161415806112775750600281015460ff16155b15611287576000925050506113bc565b60006112938787611bef565b905060006112a18683611c75565b600b549091506000906112c090899084906001600160a01b0316610d9d565b90506112e460646112de866001015484611cdc90919063ffffffff16565b90611c75565b90506112fd600754600854611cdc90919063ffffffff16565b60095461130a9083611d35565b111561131e576000955050505050506113bc565b6001600160a01b038a166000908152600e60205260409020546113419082611d35565b6001600160a01b03808c166000818152600e60209081526040918290209490945580519182528c831693820193909352908a1681830152606081018990526080810183905290517f4f2387711860ea50b6a0e4e7e3a1aadf0685d1c9261c203c2e6a48b2004fd9779181900360a00190a16001955050505050505b949350505050565b6000806113d18484610c2a565b6001600160a01b0381166000908152600f602052604081205460108054939450919281106113fb57fe5b6000918252602090912060039091020180549091506001600160a01b0383811691161461142d57600092505050610c24565b506001949350505050565b611440611bbf565b6000546001600160a01b03908116911614611490576040805162461bcd60e51b8152602060048201819052602482015260008051602061231b833981519152604482015290519081900360640190fd5b806010838154811061149e57fe5b9060005260206000209060030201600101819055505050565b6114bf611bbf565b6000546001600160a01b0390811691161461150f576040805162461bcd60e51b8152602060048201819052602482015260008051602061231b833981519152604482015290519081900360640190fd5b6001600160a01b0381166115545760405162461bcd60e51b815260040180806020018281038252602a815260200180612203602a913960400191505060405180910390fd5b600480546001600160a01b0319166001600160a01b0392909216919091179055565b6003546001600160a01b031681565b6000610c24600183611d8f565b61159a611bbf565b6000546001600160a01b039081169116146115ea576040805162461bcd60e51b8152602060048201819052602482015260008051602061231b833981519152604482015290519081900360640190fd5b6001600160a01b038116611645576040805162461bcd60e51b815260206004820152601960248201527f5f7061697220697320746865207a65726f206164647265737300000000000000604482015290519081900360640190fd5b604080516060810182526001600160a01b03838116825260208201858152600193830184815260108054808701825560009190915293517f1b6847dc741a1b0cd08d278845f9d819d87b734759afb55fe2de5cb82a9ae672600390950294850180546001600160a01b0319169190941617909255517f1b6847dc741a1b0cd08d278845f9d819d87b734759afb55fe2de5cb82a9ae673830155517f1b6847dc741a1b0cd08d278845f9d819d87b734759afb55fe2de5cb82a9ae674909101805460ff191691151591909117905561171a610ba3565b6001600160a01b039092166000908152600f602052604090209103905550565b600060095460065411611794576040805162461bcd60e51b815260206004820152601f60248201527f537761704665655265776172643a204d696e656420616c6c20746f6b656e7300604482015290519081900360640190fd5b336000908152600e60205260409020546007546008546117b391611cdc565b6009546117c09083611d35565b11156117fd5760405162461bcd60e51b815260040180806020018281038252602d8152602001806122a3602d913960400191505060405180910390fd5b61180a3382878787611da4565b801561191857600c54604080517faf2cea5d0000000000000000000000000000000000000000000000000000000081526004810184905233602482015290516001600160a01b039092169163af2cea5d9160448082019260009290919082900301818387803b15801561187c57600080fd5b505af1158015611890573d6000803e3d6000fd5b5050336000908152600e60205260409020546118af9250905082611f3e565b336000818152600e602090815260409182902093909355805191825291810183905281517f884edad9ce6fa2440d8a54cc123490eb96d2768479d49ff9c7366125a9424364929181900390910190a160095461190b9082611d35565b600955506001905061117f565b506000949350505050565b61192b611bbf565b6000546001600160a01b0390811691161461197b576040805162461bcd60e51b8152602060048201819052602482015260008051602061231b833981519152604482015290519081900360640190fd5b61198481611f9b565b50565b6000611991611bbf565b6000546001600160a01b039081169116146119e1576040805162461bcd60e51b8152602060048201819052602482015260008051602061231b833981519152604482015290519081900360640190fd5b6001600160a01b038216611a265760405162461bcd60e51b81526004018080602001828103825260258152602001806122536025913960400191505060405180910390fd5b610c2460018361203b565b6004546001600160a01b031681565b611a48611bbf565b6000546001600160a01b03908116911614611a98576040805162461bcd60e51b8152602060048201819052602482015260008051602061231b833981519152604482015290519081900360640190fd5b8060108381548110611aa657fe5b60009182526020909120600390910201600201805460ff19169115159190911790555050565b604080517faa271e1a00000000000000000000000000000000000000000000000000000000815230600482015290516001600160a01b0383169163aa271e1a916024808301926020929190829003018186803b158015611b2b57600080fd5b505afa158015611b3f573d6000803e3d6000fd5b505050506040513d6020811015611b5557600080fd5b50511515600114611b975760405162461bcd60e51b81526004018080602001828103825260308152602001806123856030913960400191505060405180910390fd5b600c80546001600160a01b0319166001600160a01b0392909216919091179055565b60075481565b3390565b600061117f8383612050565b600061117f836001600160a01b0384166120b4565b6000610c248261217a565b600061117f611bfe8484610c2a565b6001600160a01b03166354cf2aeb6040518163ffffffff1660e01b815260040160206040518083038186803b158015611c3657600080fd5b505afa158015611c4a573d6000803e3d6000fd5b505050506040513d6020811015611c6057600080fd5b50516103e89063ffffffff90811690611f3e16565b6000808211611ccb576040805162461bcd60e51b815260206004820152601a60248201527f536166654d6174683a206469766973696f6e206279207a65726f000000000000604482015290519081900360640190fd5b818381611cd457fe5b049392505050565b600082611ceb57506000610c24565b82820282848281611cf857fe5b041461117f5760405162461bcd60e51b81526004018080602001828103825260218152602001806122fa6021913960400191505060405180910390fd5b60008282018381101561117f576040805162461bcd60e51b815260206004820152601b60248201527f536166654d6174683a206164646974696f6e206f766572666c6f770000000000604482015290519081900360640190fd5b600061117f836001600160a01b03841661217e565b6001600160a01b0385166000908152600d602090815260408083208054600180820190925582516bffffffffffffffffffffffff1960608c901b1681860152603481018a9052605480820192909252835180820390920182526074810184528151918501919091207f19457468657265756d205369676e6564204d6573736167653a0a333200000000609483015260b0808301919091528351808303909101815260d082018085528151918601919091209086905260f0820180855281905260ff891661011083015261013082018890526101508201879052925192949391926101708083019392601f198301929081900390910190855afa158015611eae573d6000803e3d6000fd5b5050604051601f1901519150506001600160a01b03811615801590611ee45750866001600160a01b0316816001600160a01b0316145b611f35576040805162461bcd60e51b815260206004820181905260248201527f537761704665655265776172643a20494e56414c49445f5349474e4154555245604482015290519081900360640190fd5b50505050505050565b600082821115611f95576040805162461bcd60e51b815260206004820152601e60248201527f536166654d6174683a207375627472616374696f6e206f766572666c6f770000604482015290519081900360640190fd5b50900390565b6001600160a01b038116611fe05760405162461bcd60e51b815260040180806020018281038252602681526020018061222d6026913960400191505060405180910390fd5b600080546040516001600160a01b03808516939216917f8be0079c531659141344cd1fd0a4f28419497f9722a3daafe3b4186f6b6457e091a3600080546001600160a01b0319166001600160a01b0392909216919091179055565b600061117f836001600160a01b038416612196565b815460009082106120925760405162461bcd60e51b81526004018080602001828103825260228152602001806121e16022913960400191505060405180910390fd5b8260000182815481106120a157fe5b9060005260206000200154905092915050565b6000818152600183016020526040812054801561217057835460001980830191908101906000908790839081106120e757fe5b906000526020600020015490508087600001848154811061210457fe5b60009182526020808320909101929092558281526001898101909252604090209084019055865487908061213457fe5b60019003818190600052602060002001600090559055866001016000878152602001908152602001600020600090556001945050505050610c24565b6000915050610c24565b5490565b60009081526001919091016020526040902054151590565b60006121a2838361217e565b6121d857508154600181810184556000848152602080822090930184905584548482528286019093526040902091909155610c24565b506000610c2456fe456e756d657261626c655365743a20696e646578206f7574206f6620626f756e6473537761704d696e696e673a206e657720726f7574657220697320746865207a65726f20616464726573734f776e61626c653a206e6577206f776e657220697320746865207a65726f2061646472657373537761704d696e696e673a20746f6b656e20697320746865207a65726f2061646472657373537761704d696e696e673a206e657720666163746f727920697320746865207a65726f2061646472657373537761704665655265776172643a204d696e656420616c6c20746f6b656e7320696e2074686973207068617365537761704d696e696e673a206e6577206f7261636c6520697320746865207a65726f2061646472657373536166654d6174683a206d756c7469706c69636174696f6e206f766572666c6f774f776e61626c653a2063616c6c6572206973206e6f7420746865206f776e657242535753776170466163746f72793a204944454e544943414c5f414444524553534553537761704665655265776172643a2063616c6c6572206973206e6f742074686520726f7574657254686973207661756c74206d7573742062652061206d696e74657220696e206d696e746572277320636f6e7472616374a264697066735822122097a72d03dfbcf5ccd96b0acb6d044e14bfe7c8b7068b2f6143cee9d79ae36aca64736f6c634300060c0033",
  "linkReferences": {},
  "deployedLinkReferences": {}
}