{
  "_format": "hh-sol-artifact-1",
  "contractName": "VaultDistribution",
  "sourceName": "contracts/Vaults/VaultDistribution.sol",
  "abi": [
    {
      "inputs": [
        {
          "internalType": "address",
          "name": "_distributionToken",
          "type": "address"
        },
        {
          "internalType": "address",
          "name": "_beneficiaryToken",
          "type": "address"
        }
      ],
      "stateMutability": "nonpayable",
      "type": "constructor"
    },
    {
      "anonymous": false,
      "inputs": [
        {
          "indexed": false,
          "internalType": "address",
          "name": "depository",
          "type": "address"
        },
        {
          "indexed": false,
          "internalType": "uint256",
          "name": "amount",
          "type": "uint256"
        }
      ],
      "name": "Deposited",
      "type": "event"
    },
    {
      "anonymous": false,
      "inputs": [
        {
          "indexed": false,
          "internalType": "uint256",
          "name": "distributedAmount",
          "type": "uint256"
        },
        {
          "indexed": false,
          "internalType": "uint256",
          "name": "numberOfBeneficiaries",
          "type": "uint256"
        }
      ],
      "name": "Distributed",
      "type": "event"
    },
    {
      "anonymous": false,
      "inputs": [
        {
          "indexed": true,
          "internalType": "address",
          "name": "previousOwner",
          "type": "address"
        },
        {
          "indexed": true,
          "internalType": "address",
          "name": "newOwner",
          "type": "address"
        }
      ],
      "name": "OwnershipTransferred",
      "type": "event"
    },
    {
      "inputs": [
        {
          "internalType": "address",
          "name": "_beneficiary",
          "type": "address"
        }
      ],
      "name": "addBeneficiary",
      "outputs": [],
      "stateMutability": "nonpayable",
      "type": "function"
    },
    {
      "inputs": [
        {
          "internalType": "uint256",
          "name": "",
          "type": "uint256"
        }
      ],
      "name": "beneficiaries",
      "outputs": [
        {
          "internalType": "address",
          "name": "",
          "type": "address"
        }
      ],
      "stateMutability": "view",
      "type": "function"
    },
    {
      "inputs": [],
      "name": "beneficiaryToken",
      "outputs": [
        {
          "internalType": "contract IBEP20",
          "name": "",
          "type": "address"
        }
      ],
      "stateMutability": "view",
      "type": "function"
    },
    {
      "inputs": [
        {
          "internalType": "uint256",
          "name": "_amount",
          "type": "uint256"
        }
      ],
      "name": "deposit",
      "outputs": [],
      "stateMutability": "nonpayable",
      "type": "function"
    },
    {
      "inputs": [
        {
          "internalType": "address",
          "name": "",
          "type": "address"
        }
      ],
      "name": "depositories",
      "outputs": [
        {
          "internalType": "bool",
          "name": "",
          "type": "bool"
        }
      ],
      "stateMutability": "view",
      "type": "function"
    },
    {
      "inputs": [],
      "name": "distributionInterval",
      "outputs": [
        {
          "internalType": "uint256",
          "name": "",
          "type": "uint256"
        }
      ],
      "stateMutability": "view",
      "type": "function"
    },
    {
      "inputs": [],
      "name": "distributionPercentage",
      "outputs": [
        {
          "internalType": "uint256",
          "name": "",
          "type": "uint256"
        }
      ],
      "stateMutability": "view",
      "type": "function"
    },
    {
      "inputs": [],
      "name": "distributionToken",
      "outputs": [
        {
          "internalType": "contract IBEP20",
          "name": "",
          "type": "address"
        }
      ],
      "stateMutability": "view",
      "type": "function"
    },
    {
      "inputs": [],
      "name": "getBeneficiariesLength",
      "outputs": [
        {
          "internalType": "uint256",
          "name": "",
          "type": "uint256"
        }
      ],
      "stateMutability": "view",
      "type": "function"
    },
    {
      "inputs": [
        {
          "internalType": "address",
          "name": "_beneficiary",
          "type": "address"
        }
      ],
      "name": "isBeneficiary",
      "outputs": [
        {
          "internalType": "bool",
          "name": "",
          "type": "bool"
        }
      ],
      "stateMutability": "view",
      "type": "function"
    },
    {
      "inputs": [],
      "name": "lastDistributedEvent",
      "outputs": [
        {
          "internalType": "uint256",
          "name": "",
          "type": "uint256"
        }
      ],
      "stateMutability": "view",
      "type": "function"
    },
    {
      "inputs": [],
      "name": "minTokenAmountToDistribute",
      "outputs": [
        {
          "internalType": "uint256",
          "name": "",
          "type": "uint256"
        }
      ],
      "stateMutability": "view",
      "type": "function"
    },
    {
      "inputs": [],
      "name": "owner",
      "outputs": [
        {
          "internalType": "address",
          "name": "",
          "type": "address"
        }
      ],
      "stateMutability": "view",
      "type": "function"
    },
    {
      "inputs": [
        {
          "internalType": "address",
          "name": "_beneficiary",
          "type": "address"
        }
      ],
      "name": "removeBeneficiary",
      "outputs": [],
      "stateMutability": "nonpayable",
      "type": "function"
    },
    {
      "inputs": [],
      "name": "renounceOwnership",
      "outputs": [],
      "stateMutability": "nonpayable",
      "type": "function"
    },
    {
      "inputs": [
        {
          "internalType": "address",
          "name": "_depository",
          "type": "address"
        },
        {
          "internalType": "bool",
          "name": "_canDeposit",
          "type": "bool"
        }
      ],
      "name": "setDepositary",
      "outputs": [],
      "stateMutability": "nonpayable",
      "type": "function"
    },
    {
      "inputs": [
        {
          "internalType": "uint256",
          "name": "_distributionInterval",
          "type": "uint256"
        }
      ],
      "name": "setDistributionInterval",
      "outputs": [],
      "stateMutability": "nonpayable",
      "type": "function"
    },
    {
      "inputs": [
        {
          "internalType": "uint16",
          "name": "_newPercentage",
          "type": "uint16"
        }
      ],
      "name": "setDistributionPercentage",
      "outputs": [],
      "stateMutability": "nonpayable",
      "type": "function"
    },
    {
      "inputs": [
        {
          "internalType": "uint256",
          "name": "_newAmount",
          "type": "uint256"
        }
      ],
      "name": "setMinTokenAmountToDistribute",
      "outputs": [],
      "stateMutability": "nonpayable",
      "type": "function"
    },
    {
      "inputs": [
        {
          "internalType": "address",
          "name": "newOwner",
          "type": "address"
        }
      ],
      "name": "transferOwnership",
      "outputs": [],
      "stateMutability": "nonpayable",
      "type": "function"
    }
  ],
  "bytecode": "0x608060405234801561001057600080fd5b506040516116d73803806116d78339818101604052604081101561003357600080fd5b50805160209091015160006100466100de565b600080546001600160a01b0319166001600160a01b0383169081178255604051929350917f8be0079c531659141344cd1fd0a4f28419497f9722a3daafe3b4186f6b6457e0908290a350600280546001600160a01b039384166001600160a01b03199182161790915560038054929093169116179055670de0b6b3a764000060055561271060065562015180600755426008556100e2565b3390565b6115e6806100f16000396000f3fe608060405234801561001057600080fd5b506004361061016c5760003560e01c806390872cc0116100cd578063cdc0e2e711610081578063eae7dcad11610066578063eae7dcad14610333578063efeb5e581461033b578063f2fde38b146103585761016c565b8063cdc0e2e714610305578063d70f4c791461032b5761016c565b80639d139062116100b25780639d139062146102a65780639d19b226146102ae578063b6b55f25146102e85761016c565b806390872cc0146102705780639be0e577146102785761016c565b806371201a0e116101245780637a16a49e116101095780637a16a49e1461020e5780638da5cb5b1461022b578063902042ff1461024f5761016c565b806371201a0e146101fe578063715018a6146102065761016c565b806359633a1c1161015557806359633a1c146101b35780635e26184a146101d95780636d94ad2f146101e15761016c565b80635926651d14610171578063595ecd5814610199575b600080fd5b6101976004803603602081101561018757600080fd5b50356001600160a01b031661037e565b005b6101a16104e4565b60408051918252519081900360200190f35b610197600480360360208110156101c957600080fd5b50356001600160a01b03166104ea565b6101a1610645565b610197600480360360208110156101f757600080fd5b503561064b565b6101a16106ba565b6101976106c0565b6101976004803603602081101561022457600080fd5b5035610774565b6102336107e3565b604080516001600160a01b039092168252519081900360200190f35b6101976004803603602081101561026557600080fd5b503561ffff166107f2565b6101a16108ed565b6101976004803603604081101561028e57600080fd5b506001600160a01b03813516906020013515156108f3565b6102336109ae565b6102d4600480360360208110156102c457600080fd5b50356001600160a01b03166109bd565b604080519115158252519081900360200190f35b610197600480360360208110156102fe57600080fd5b5035610a1a565b6102d46004803603602081101561031b57600080fd5b50356001600160a01b0316610b50565b6101a1610b65565b610233610b6b565b6102336004803603602081101561035157600080fd5b5035610b7a565b6101976004803603602081101561036e57600080fd5b50356001600160a01b0316610ba1565b610386610c14565b6000546001600160a01b039081169116146103e8576040805162461bcd60e51b815260206004820181905260248201527f4f776e61626c653a2063616c6c6572206973206e6f7420746865206f776e6572604482015290519081900360640190fd5b60005b60045481101561043557816001600160a01b03166004828154811061040c57fe5b6000918252602090912001546001600160a01b0316141561042d57506104e1565b6001016103eb565b50806001600160a01b0316634e4c72df60006040518263ffffffff1660e01b815260040180828152602001915050600060405180830381600087803b15801561047d57600080fd5b505af1158015610491573d6000803e3d6000fd5b5050600480546001810182556000919091527f8a35acfbc15ff81a39ae7d344fd709f28e8600b4aa8c65c6b64bfe7fe36bd19b0180546001600160a01b0319166001600160a01b03851617905550505b50565b60085481565b6104f2610c14565b6000546001600160a01b03908116911614610554576040805162461bcd60e51b815260206004820181905260248201527f4f776e61626c653a2063616c6c6572206973206e6f7420746865206f776e6572604482015290519081900360640190fd5b60005b60045481101561064157816001600160a01b03166004828154811061057857fe5b6000918252602090912001546001600160a01b0316141561063957805b6004546000190181101561060a57600481600101815481106105b357fe5b600091825260209091200154600480546001600160a01b0390921691839081106105d957fe5b600091825260209091200180546001600160a01b0319166001600160a01b0392909216919091179055600101610595565b50600480548061061657fe5b600082815260209020810160001990810180546001600160a01b03191690550190555b600101610557565b5050565b60045490565b610653610c14565b6000546001600160a01b039081169116146106b5576040805162461bcd60e51b815260206004820181905260248201527f4f776e61626c653a2063616c6c6572206973206e6f7420746865206f776e6572604482015290519081900360640190fd5b600555565b60075481565b6106c8610c14565b6000546001600160a01b0390811691161461072a576040805162461bcd60e51b815260206004820181905260248201527f4f776e61626c653a2063616c6c6572206973206e6f7420746865206f776e6572604482015290519081900360640190fd5b600080546040516001600160a01b03909116907f8be0079c531659141344cd1fd0a4f28419497f9722a3daafe3b4186f6b6457e0908390a3600080546001600160a01b0319169055565b61077c610c14565b6000546001600160a01b039081169116146107de576040805162461bcd60e51b815260206004820181905260248201527f4f776e61626c653a2063616c6c6572206973206e6f7420746865206f776e6572604482015290519081900360640190fd5b600755565b6000546001600160a01b031690565b6107fa610c14565b6000546001600160a01b0390811691161461085c576040805162461bcd60e51b815260206004820181905260248201527f4f776e61626c653a2063616c6c6572206973206e6f7420746865206f776e6572604482015290519081900360640190fd5b6127108161ffff1611156108a15760405162461bcd60e51b81526004018080602001828103825260358152602001806114ff6035913960400191505060405180910390fd5b60008161ffff16116108e45760405162461bcd60e51b81526004018080602001828103825260338152602001806115556033913960400191505060405180910390fd5b61ffff16600655565b60065481565b6108fb610c14565b6000546001600160a01b0390811691161461095d576040805162461bcd60e51b815260206004820181905260248201527f4f776e61626c653a2063616c6c6572206973206e6f7420746865206f776e6572604482015290519081900360640190fd5b801561098c576001600160a01b0382166000908152600160205260409020805460ff1916821515179055610641565b506001600160a01b03166000908152600160205260409020805460ff19169055565b6002546001600160a01b031681565b6000805b600454811015610a0f57826001600160a01b0316600482815481106109e257fe5b6000918252602090912001546001600160a01b03161415610a07576001915050610a15565b6001016109c1565b50600090505b919050565b3360009081526001602081905260409091205460ff16151514610a6e5760405162461bcd60e51b81526004018080602001828103825260298152602001806115886029913960400191505060405180910390fd5b600254604080517f23b872dd0000000000000000000000000000000000000000000000000000000081523360048201523060248201526044810184905290516001600160a01b03909216916323b872dd916064808201926020929091908290030181600087803b158015610ae157600080fd5b505af1158015610af5573d6000803e3d6000fd5b505050506040513d6020811015610b0b57600080fd5b5050604080513381526020810183905281517f2da466a7b24304f47e87fa2e1e5a81b9831ce54fec19055ce277ca2f39ba42c4929181900390910190a16104e1610c18565b60016020526000908152604090205460ff1681565b60055481565b6003546001600160a01b031681565b60048181548110610b8757fe5b6000918252602090912001546001600160a01b0316905081565b610ba9610c14565b6000546001600160a01b03908116911614610c0b576040805162461bcd60e51b815260206004820181905260248201527f4f776e61626c653a2063616c6c6572206973206e6f7420746865206f776e6572604482015290519081900360640190fd5b6104e181610f70565b3390565b600254604080517f70a0823100000000000000000000000000000000000000000000000000000000815230600482015290516000926001600160a01b0316916370a08231916024808301926020929190829003018186803b158015610c7c57600080fd5b505afa158015610c90573d6000803e3d6000fd5b505050506040513d6020811015610ca657600080fd5b50516007546008549192504291610cbc91611010565b1115610cc85750610f6e565b600554811015610cd85750610f6e565b6000610cfb612710610cf56006548561107390919063ffffffff16565b906110cc565b90506000805b600454811015610da157610d9760048281548110610d1b57fe5b60009182526020918290200154604080516316d3df1560e31b815290516001600160a01b039092169263b69ef8a892600480840193829003018186803b158015610d6457600080fd5b505afa158015610d78573d6000803e3d6000fd5b505050506040513d6020811015610d8e57600080fd5b50518390611010565b9150600101610d01565b5060005b600454811015610f27576000610e4283610cf5606460048681548110610dc757fe5b60009182526020918290200154604080516316d3df1560e31b815290516001600160a01b039092169263b69ef8a892600480840193829003018186803b158015610e1057600080fd5b505afa158015610e24573d6000803e3d6000fd5b505050506040513d6020811015610e3a57600080fd5b505190611073565b90506000610e556064610cf58785611073565b90508015610f1d57610e8f60048481548110610e6d57fe5b6000918252602090912001546002546001600160a01b03908116911683611133565b60048381548110610e9c57fe5b6000918252602082200154604080517f4e4c72df0000000000000000000000000000000000000000000000000000000081526004810185905290516001600160a01b0390921692634e4c72df9260248084019382900301818387803b158015610f0457600080fd5b505af1158015610f18573d6000803e3d6000fd5b505050505b5050600101610da5565b504260085560045460408051848152602081019290925280517f97791d3ac1343e05805a2f905fa80b249c2ca58cf9fef455d4fa7ec13ce583219281900390910190a15050505b565b6001600160a01b038116610fb55760405162461bcd60e51b81526004018080602001828103825260268152602001806114b36026913960400191505060405180910390fd5b600080546040516001600160a01b03808516939216917f8be0079c531659141344cd1fd0a4f28419497f9722a3daafe3b4186f6b6457e091a3600080546001600160a01b0319166001600160a01b0392909216919091179055565b60008282018381101561106a576040805162461bcd60e51b815260206004820152601b60248201527f536166654d6174683a206164646974696f6e206f766572666c6f770000000000604482015290519081900360640190fd5b90505b92915050565b6000826110825750600061106d565b8282028284828161108f57fe5b041461106a5760405162461bcd60e51b81526004018080602001828103825260218152602001806115346021913960400191505060405180910390fd5b6000808211611122576040805162461bcd60e51b815260206004820152601a60248201527f536166654d6174683a206469766973696f6e206279207a65726f000000000000604482015290519081900360640190fd5b81838161112b57fe5b049392505050565b604080516001600160a01b038416602482015260448082018490528251808303909101815260649091019091526020810180517bffffffffffffffffffffffffffffffffffffffffffffffffffffffff167fa9059cbb000000000000000000000000000000000000000000000000000000001790526111b39084906111b8565b505050565b606061120d826040518060400160405280602081526020017f5361666542455032303a206c6f772d6c6576656c2063616c6c206661696c6564815250856001600160a01b03166112699092919063ffffffff16565b8051909150156111b35780806020019051602081101561122c57600080fd5b50516111b35760405162461bcd60e51b815260040180806020018281038252602a815260200180611489602a913960400191505060405180910390fd5b60606112788484600085611282565b90505b9392505050565b6060824710156112c35760405162461bcd60e51b81526004018080602001828103825260268152602001806114d96026913960400191505060405180910390fd5b6112cc856113de565b61131d576040805162461bcd60e51b815260206004820152601d60248201527f416464726573733a2063616c6c20746f206e6f6e2d636f6e7472616374000000604482015290519081900360640190fd5b60006060866001600160a01b031685876040518082805190602001908083835b6020831061135c5780518252601f19909201916020918201910161133d565b6001836020036101000a03801982511681845116808217855250505050505090500191505060006040518083038185875af1925050503d80600081146113be576040519150601f19603f3d011682016040523d82523d6000602084013e6113c3565b606091505b50915091506113d38282866113e4565b979650505050505050565b3b151590565b606083156113f357508161127b565b8251156114035782518084602001fd5b8160405162461bcd60e51b81526004018080602001828103825283818151815260200191508051906020019080838360005b8381101561144d578181015183820152602001611435565b50505050905090810190601f16801561147a5780820380516001836020036101000a031916815260200191505b509250505060405180910390fdfe5361666542455032303a204245503230206f7065726174696f6e20646964206e6f7420737563636565644f776e61626c653a206e6577206f776e657220697320746865207a65726f2061646472657373416464726573733a20696e73756666696369656e742062616c616e636520666f722063616c6c446973747269627574696f6e2070657263656e74616765206d757374206e6f742062652067726561746572207468616e2031303025536166654d6174683a206d756c7469706c69636174696f6e206f766572666c6f77446973747269627574696f6e2070657263656e74616765206d757374206e6f7420626520736d616c6c6572207468616e2030254f6e6c79206465706f7369746f726965732063616e20706572666f726d207468697320616374696f6ea26469706673582212209bbf81f05b93a5affc1d1efbc923a38d7a813e10ec67b9dae069750d39a24fec64736f6c634300060c0033",
  "linkReferences": {},
  "deployedLinkReferences": {}
}