{
  "_format": "hh-sol-artifact-1",
  "contractName": "PathFinder",
  "sourceName": "contracts/Helpers/PathFinder.sol",
  "abi": [
    {
      "inputs": [
        {
          "internalType": "address",
          "name": "_tokenAddresses",
          "type": "address"
        }
      ],
      "stateMutability": "nonpayable",
      "type": "constructor"
    },
    {
      "anonymous": false,
      "inputs": [
        {
          "indexed": true,
          "internalType": "address",
          "name": "previousOwner",
          "type": "address"
        },
        {
          "indexed": true,
          "internalType": "address",
          "name": "newOwner",
          "type": "address"
        }
      ],
      "name": "OwnershipTransferred",
      "type": "event"
    },
    {
      "inputs": [
        {
          "internalType": "address",
          "name": "_token",
          "type": "address"
        },
        {
          "internalType": "address",
          "name": "_tokenRoute",
          "type": "address"
        },
        {
          "internalType": "bool",
          "name": "_directBNB",
          "type": "bool"
        }
      ],
      "name": "addRouteInfo",
      "outputs": [],
      "stateMutability": "nonpayable",
      "type": "function"
    },
    {
      "inputs": [
        {
          "internalType": "address",
          "name": "_token",
          "type": "address"
        }
      ],
      "name": "addRouteInfoDirect",
      "outputs": [],
      "stateMutability": "nonpayable",
      "type": "function"
    },
    {
      "inputs": [
        {
          "internalType": "address",
          "name": "_token",
          "type": "address"
        },
        {
          "internalType": "address",
          "name": "_tokenRoute",
          "type": "address"
        }
      ],
      "name": "addRouteInfoRoute",
      "outputs": [],
      "stateMutability": "nonpayable",
      "type": "function"
    },
    {
      "inputs": [
        {
          "internalType": "address",
          "name": "_tokenFrom",
          "type": "address"
        },
        {
          "internalType": "address",
          "name": "_tokenTo",
          "type": "address"
        }
      ],
      "name": "findPath",
      "outputs": [
        {
          "internalType": "address[]",
          "name": "",
          "type": "address[]"
        }
      ],
      "stateMutability": "view",
      "type": "function"
    },
    {
      "inputs": [
        {
          "internalType": "address",
          "name": "_token",
          "type": "address"
        }
      ],
      "name": "getRouteInfoDirectBNB",
      "outputs": [
        {
          "internalType": "bool",
          "name": "",
          "type": "bool"
        }
      ],
      "stateMutability": "view",
      "type": "function"
    },
    {
      "inputs": [
        {
          "internalType": "address",
          "name": "_token",
          "type": "address"
        }
      ],
      "name": "getRouteInfoTokenRoute",
      "outputs": [
        {
          "internalType": "address",
          "name": "",
          "type": "address"
        }
      ],
      "stateMutability": "view",
      "type": "function"
    },
    {
      "inputs": [
        {
          "internalType": "address",
          "name": "_token",
          "type": "address"
        }
      ],
      "name": "isTokenConnected",
      "outputs": [
        {
          "internalType": "bool",
          "name": "",
          "type": "bool"
        }
      ],
      "stateMutability": "view",
      "type": "function"
    },
    {
      "inputs": [],
      "name": "owner",
      "outputs": [
        {
          "internalType": "address",
          "name": "",
          "type": "address"
        }
      ],
      "stateMutability": "view",
      "type": "function"
    },
    {
      "inputs": [
        {
          "internalType": "address",
          "name": "_token",
          "type": "address"
        }
      ],
      "name": "removeRouteInfo",
      "outputs": [],
      "stateMutability": "nonpayable",
      "type": "function"
    },
    {
      "inputs": [],
      "name": "renounceOwnership",
      "outputs": [],
      "stateMutability": "nonpayable",
      "type": "function"
    },
    {
      "inputs": [
        {
          "internalType": "address",
          "name": "",
          "type": "address"
        }
      ],
      "name": "routeInfos",
      "outputs": [
        {
          "internalType": "bool",
          "name": "directBNB",
          "type": "bool"
        },
        {
          "internalType": "address",
          "name": "tokenRoute",
          "type": "address"
        }
      ],
      "stateMutability": "view",
      "type": "function"
    },
    {
      "inputs": [],
      "name": "tokenAddresses",
      "outputs": [
        {
          "internalType": "contract TokenAddresses",
          "name": "",
          "type": "address"
        }
      ],
      "stateMutability": "view",
      "type": "function"
    },
    {
      "inputs": [
        {
          "internalType": "address",
          "name": "newOwner",
          "type": "address"
        }
      ],
      "name": "transferOwnership",
      "outputs": [],
      "stateMutability": "nonpayable",
      "type": "function"
    }
  ],
  "bytecode": "0x608060405234801561001057600080fd5b506040516113243803806113248339818101604052602081101561003357600080fd5b5051600061003f6100ae565b600080546001600160a01b0319166001600160a01b0383169081178255604051929350917f8be0079c531659141344cd1fd0a4f28419497f9722a3daafe3b4186f6b6457e0908290a350600180546001600160a01b0319166001600160a01b03929092169190911790556100b2565b3390565b611263806100c16000396000f3fe608060405234801561001057600080fd5b50600436106100df5760003560e01c806393ee23031161008c578063c734257511610066578063c73425751461027c578063cde83295146102aa578063dede4797146102d0578063f2fde38b14610319576100df565b806393ee2303146101be578063a1c421cd146101f6578063a9989b9314610274576100df565b806380cc9290116100bd57806380cc92901461014e5780638c0077d1146101905780638da5cb5b146101b6576100df565b80630f990d00146100e45780631fd885571461011e578063715018a614610146575b600080fd5b61010a600480360360208110156100fa57600080fd5b50356001600160a01b031661033f565b604080519115158252519081900360200190f35b6101446004803603602081101561013457600080fd5b50356001600160a01b031661038d565b005b61014461041b565b6101746004803603602081101561016457600080fd5b50356001600160a01b03166104dc565b604080516001600160a01b039092168252519081900360200190f35b61010a600480360360208110156101a657600080fd5b50356001600160a01b03166104ff565b61017461051d565b610144600480360360608110156101d457600080fd5b506001600160a01b03813581169160208101359091169060400135151561052c565b6102246004803603604081101561020c57600080fd5b506001600160a01b0381358116916020013516610635565b60408051602080825283518183015283519192839290830191858101910280838360005b83811015610260578181015183820152602001610248565b505050509050019250505060405180910390f35b610174610e61565b6101446004803603604081101561029257600080fd5b506001600160a01b0381358116916020013516610e70565b610144600480360360208110156102c057600080fd5b50356001600160a01b0316610f64565b6102f6600480360360208110156102e657600080fd5b50356001600160a01b031661100d565b6040805192151583526001600160a01b0390911660208301528051918290030190f35b6101446004803603602081101561032f57600080fd5b50356001600160a01b0316611032565b6001600160a01b0381811660009081526002602052604081205490916101009091041615158061038757506001600160a01b03821660009081526002602052604090205460ff165b92915050565b6103956110a8565b6000546001600160a01b039081169116146103f7576040805162461bcd60e51b815260206004820181905260248201527f4f776e61626c653a2063616c6c6572206973206e6f7420746865206f776e6572604482015290519081900360640190fd5b6001600160a01b03166000908152600260205260409020805460ff19166001179055565b6104236110a8565b6000546001600160a01b03908116911614610485576040805162461bcd60e51b815260206004820181905260248201527f4f776e61626c653a2063616c6c6572206973206e6f7420746865206f776e6572604482015290519081900360640190fd5b600080546040516001600160a01b03909116907f8be0079c531659141344cd1fd0a4f28419497f9722a3daafe3b4186f6b6457e0908390a36000805473ffffffffffffffffffffffffffffffffffffffff19169055565b6001600160a01b0390811660009081526002602052604090205461010090041690565b6001600160a01b031660009081526002602052604090205460ff1690565b6000546001600160a01b031690565b6105346110a8565b6000546001600160a01b03908116911614610596576040805162461bcd60e51b815260206004820181905260248201527f4f776e61626c653a2063616c6c6572206973206e6f7420746865206f776e6572604482015290519081900360640190fd5b6001600160a01b0382161515806105aa5750805b6105e55760405162461bcd60e51b815260040180806020018281038252604e8152602001806111ba604e913960600191505060405180910390fd5b6001600160a01b039283166000908152600260205260409020805491151560ff19949093166101000274ffffffffffffffffffffffffffffffffffffffff00199092169190911792909216179055565b606061063f6111a2565b610648846110ac565b90506106526111a2565b61065b846110ac565b600154604080517f58f7f6d200000000000000000000000000000000000000000000000000000000815290519293506000926001600160a01b0390921691634d9a31369183916358f7f6d2916004808201928892909190829003018186803b1580156106c657600080fd5b505afa1580156106da573d6000803e3d6000fd5b505050506040513d6000823e601f3d908101601f19168201604052602081101561070357600080fd5b810190808051604051939291908464010000000082111561072357600080fd5b90830190602082018581111561073857600080fd5b825164010000000081118282018810171561075257600080fd5b82525081516020918201929091019080838360005b8381101561077f578181015183820152602001610767565b50505050905090810190601f1680156107ac5780820380516001836020036101000a031916815260200191505b506040525050506040518263ffffffff1660e01b81526004018080602001828103825283818151815260200191508051906020019080838360005b838110156107ff5781810151838201526020016107e7565b50505050905090810190601f16801561082c5780820380516001836020036101000a031916815260200191505b509250505060206040518083038186803b15801561084957600080fd5b505afa15801561085d573d6000803e3d6000fd5b505050506040513d602081101561087357600080fd5b5051905060606001600160a01b03878116908316148015610892575082515b806108b75750816001600160a01b0316866001600160a01b03161480156108b7575083515b1561094f57600260005b506040519080825280602002602001820160405280156108eb578160200160208202803683370190505b50905086816000815181106108fc57fe5b60200260200101906001600160a01b031690816001600160a01b031681525050858160018151811061092a57fe5b60200260200101906001600160a01b031690816001600160a01b031681525050610e57565b60208401516001600160a01b03161580159061097c5750816001600160a01b0316866001600160a01b0316145b806109af575060208301516001600160a01b0316158015906109af5750816001600160a01b0316876001600160a01b0316145b15610a505760408051600380825260808201909252906020820160608036833701905050905086816000815181106109e357fe5b6001600160a01b0392831660209182029290920181019190915285015116610a0f578260200151610a15565b83602001515b81600181518110610a2257fe5b60200260200101906001600160a01b031690816001600160a01b031681525050858160028151811061092a57fe5b82602001516001600160a01b0316876001600160a01b03161480610a89575083602001516001600160a01b0316866001600160a01b0316145b15610a9757600260006108c1565b60208401516001600160a01b031615801590610acc575082602001516001600160a01b031684602001516001600160a01b0316145b15610b32576040805160038082526080820190925290602082016060803683370190505090508681600081518110610b0057fe5b60200260200101906001600160a01b031690816001600160a01b031681525050836020015181600181518110610a2257fe5b83518015610b3e575082515b15610ba0576040805160038082526080820190925290602082016060803683370190505090508681600081518110610b7257fe5b60200260200101906001600160a01b031690816001600160a01b0316815250508181600181518110610a2257fe5b60208401516001600160a01b031615801590610bba575082515b15610c7c5760408051600480825260a0820190925290602082016080803683370190505090508681600081518110610bee57fe5b60200260200101906001600160a01b031690816001600160a01b031681525050836020015181600181518110610c2057fe5b60200260200101906001600160a01b031690816001600160a01b0316815250508181600281518110610c4e57fe5b60200260200101906001600160a01b031690816001600160a01b031681525050858160038151811061092a57fe5b60208301516001600160a01b031615801590610c96575083515b15610d2a5760408051600480825260a0820190925290602082016080803683370190505090508681600081518110610cca57fe5b60200260200101906001600160a01b031690816001600160a01b0316815250508181600181518110610cf857fe5b60200260200101906001600160a01b031690816001600160a01b031681525050826020015181600281518110610c4e57fe5b60208401516001600160a01b031615801590610d52575060208301516001600160a01b031615155b15610e465760408051600580825260c08201909252906020820160a0803683370190505090508681600081518110610d8657fe5b60200260200101906001600160a01b031690816001600160a01b031681525050836020015181600181518110610db857fe5b60200260200101906001600160a01b031690816001600160a01b0316815250508181600281518110610de657fe5b60200260200101906001600160a01b031690816001600160a01b031681525050826020015181600381518110610e1857fe5b60200260200101906001600160a01b031690816001600160a01b031681525050858160048151811061092a57fe5b506040805160008152602081019091525b9695505050505050565b6001546001600160a01b031681565b610e786110a8565b6000546001600160a01b03908116911614610eda576040805162461bcd60e51b815260206004820181905260248201527f4f776e61626c653a2063616c6c6572206973206e6f7420746865206f776e6572604482015290519081900360640190fd5b6001600160a01b038116610f1f5760405162461bcd60e51b815260040180806020018281038252604e8152602001806111ba604e913960600191505060405180910390fd5b6001600160a01b0391821660009081526002602052604090208054929091166101000274ffffffffffffffffffffffffffffffffffffffff0019909216919091179055565b610f6c6110a8565b6000546001600160a01b03908116911614610fce576040805162461bcd60e51b815260206004820181905260248201527f4f776e61626c653a2063616c6c6572206973206e6f7420746865206f776e6572604482015290519081900360640190fd5b6001600160a01b0316600090815260026020526040902080547fffffffffffffffffffffff000000000000000000000000000000000000000000169055565b60026020526000908152604090205460ff81169061010090046001600160a01b031682565b61103a6110a8565b6000546001600160a01b0390811691161461109c576040805162461bcd60e51b815260206004820181905260248201527f4f776e61626c653a2063616c6c6572206973206e6f7420746865206f776e6572604482015290519081900360640190fd5b6110a5816110f5565b50565b3390565b6110b46111a2565b506001600160a01b0390811660009081526002602090815260409182902082518084019093525460ff81161515835261010090049092169181019190915290565b6001600160a01b03811661113a5760405162461bcd60e51b81526004018080602001828103825260268152602001806112086026913960400191505060405180910390fd5b600080546040516001600160a01b03808516939216917f8be0079c531659141344cd1fd0a4f28419497f9722a3daafe3b4186f6b6457e091a36000805473ffffffffffffffffffffffffffffffffffffffff19166001600160a01b0392909216919091179055565b60408051808201909152600080825260208201529056fe5061746846696e6465723a20796f75206d75737420646566696e6520656974686572206120646972656374207061746820746f20424e42206f72206120726f757465546f6b656e20746f20424e424f776e61626c653a206e6577206f776e657220697320746865207a65726f2061646472657373a2646970667358221220560dd6e6b3d583bc7df9d977f954e71c8c06e9ea599935a7edb83f22c6e9f83264736f6c634300060c0033",
  "linkReferences": {},
  "deployedLinkReferences": {}
}