{
  "_format": "hh-sol-artifact-1",
  "contractName": "MinterVested",
  "sourceName": "contracts/MinterVested.sol",
  "abi": [
    {
      "inputs": [
        {
          "internalType": "address",
          "name": "_minter",
          "type": "address"
        },
        {
          "internalType": "address",
          "name": "_global",
          "type": "address"
        }
      ],
      "stateMutability": "nonpayable",
      "type": "constructor"
    },
    {
      "anonymous": false,
      "inputs": [
        {
          "indexed": true,
          "internalType": "address",
          "name": "previousOwner",
          "type": "address"
        },
        {
          "indexed": true,
          "internalType": "address",
          "name": "newOwner",
          "type": "address"
        }
      ],
      "name": "OwnershipTransferred",
      "type": "event"
    },
    {
      "inputs": [
        {
          "internalType": "uint256",
          "name": "_quantityToMint",
          "type": "uint256"
        },
        {
          "internalType": "address",
          "name": "userFor",
          "type": "address"
        }
      ],
      "name": "callMintNativeTokens",
      "outputs": [],
      "stateMutability": "nonpayable",
      "type": "function"
    },
    {
      "inputs": [],
      "name": "global",
      "outputs": [
        {
          "internalType": "contract IBEP20",
          "name": "",
          "type": "address"
        }
      ],
      "stateMutability": "view",
      "type": "function"
    },
    {
      "inputs": [],
      "name": "minter",
      "outputs": [
        {
          "internalType": "contract IMinter",
          "name": "",
          "type": "address"
        }
      ],
      "stateMutability": "view",
      "type": "function"
    },
    {
      "inputs": [],
      "name": "owner",
      "outputs": [
        {
          "internalType": "address",
          "name": "",
          "type": "address"
        }
      ],
      "stateMutability": "view",
      "type": "function"
    },
    {
      "inputs": [],
      "name": "renounceOwnership",
      "outputs": [],
      "stateMutability": "nonpayable",
      "type": "function"
    },
    {
      "inputs": [
        {
          "internalType": "address",
          "name": "newOwner",
          "type": "address"
        }
      ],
      "name": "transferOwnership",
      "outputs": [],
      "stateMutability": "nonpayable",
      "type": "function"
    }
  ],
  "bytecode": "0x608060405234801561001057600080fd5b506040516106f43803806106f48339818101604052604081101561003357600080fd5b50805160209091015160006100466100c1565b600080546001600160a01b0319166001600160a01b0383169081178255604051929350917f8be0079c531659141344cd1fd0a4f28419497f9722a3daafe3b4186f6b6457e0908290a350600180546001600160a01b039384166001600160a01b031991821617909155600280549290931691161790556100c5565b3390565b610620806100d46000396000f3fe608060405234801561001057600080fd5b50600436106100725760003560e01c8063a05f990611610050578063a05f9906146100ad578063f0cf6a38146100b5578063f2fde38b146100e157610072565b80630754617214610077578063715018a61461009b5780638da5cb5b146100a5575b600080fd5b61007f610107565b604080516001600160a01b039092168252519081900360200190f35b6100a3610116565b005b61007f6101d7565b61007f6101e6565b6100a3600480360360408110156100cb57600080fd5b50803590602001356001600160a01b03166101f5565b6100a3600480360360208110156100f757600080fd5b50356001600160a01b03166103c7565b6001546001600160a01b031681565b61011e61043d565b6000546001600160a01b03908116911614610180576040805162461bcd60e51b815260206004820181905260248201527f4f776e61626c653a2063616c6c6572206973206e6f7420746865206f776e6572604482015290519081900360640190fd5b600080546040516001600160a01b03909116907f8be0079c531659141344cd1fd0a4f28419497f9722a3daafe3b4186f6b6457e0908390a36000805473ffffffffffffffffffffffffffffffffffffffff19169055565b6000546001600160a01b031690565b6002546001600160a01b031681565b6101fd61043d565b6000546001600160a01b0390811691161461025f576040805162461bcd60e51b815260206004820181905260248201527f4f776e61626c653a2063616c6c6572206973206e6f7420746865206f776e6572604482015290519081900360640190fd5b610267610441565b6102a25760405162461bcd60e51b81526004018080602001828103825260288152602001806105c36028913960400191505060405180910390fd5b600154604080517faf2cea5d000000000000000000000000000000000000000000000000000000008152600481018590526001600160a01b0384811660248301529151919092169163af2cea5d91604480830192600092919082900301818387803b15801561031057600080fd5b505af1158015610324573d6000803e3d6000fd5b5050600254604080517fa9059cbb0000000000000000000000000000000000000000000000000000000081526001600160a01b03868116600483015260248201889052915191909216935063a9059cbb925060448083019260209291908290030181600087803b15801561039757600080fd5b505af11580156103ab573d6000803e3d6000fd5b505050506040513d60208110156103c157600080fd5b50505050565b6103cf61043d565b6000546001600160a01b03908116911614610431576040805162461bcd60e51b815260206004820181905260248201527f4f776e61626c653a2063616c6c6572206973206e6f7420746865206f776e6572604482015290519081900360640190fd5b61043a816104ef565b50565b3390565b6001546000906001600160a01b0316158015906104ea5750600154604080517faa271e1a00000000000000000000000000000000000000000000000000000000815230600482015290516001600160a01b039092169163aa271e1a91602480820192602092909190829003018186803b1580156104bd57600080fd5b505afa1580156104d1573d6000803e3d6000fd5b505050506040513d60208110156104e757600080fd5b50515b905090565b6001600160a01b0381166105345760405162461bcd60e51b815260040180806020018281038252602681526020018061059d6026913960400191505060405180910390fd5b600080546040516001600160a01b03808516939216917f8be0079c531659141344cd1fd0a4f28419497f9722a3daafe3b4186f6b6457e091a36000805473ffffffffffffffffffffffffffffffffffffffff19166001600160a01b039290921691909117905556fe4f776e61626c653a206e6577206f776e657220697320746865207a65726f20616464726573735468697320636f6e7472616374206d75737420686176652061206d696e74657220646566696e6564a26469706673582212204340a3e96092012f510ad54bc109b209e4029a9260d09b639fbef0d97e6e8fa264736f6c634300060c0033",
  "linkReferences": {},
  "deployedLinkReferences": {}
}