{
  "_format": "hh-sol-artifact-1",
  "contractName": "Factory",
  "sourceName": "contracts/Factory.sol",
  "abi": [
    {
      "inputs": [
        {
          "internalType": "address",
          "name": "_feeSetter",
          "type": "address"
        }
      ],
      "stateMutability": "nonpayable",
      "type": "constructor"
    },
    {
      "anonymous": false,
      "inputs": [
        {
          "indexed": true,
          "internalType": "address",
          "name": "token0",
          "type": "address"
        },
        {
          "indexed": true,
          "internalType": "address",
          "name": "token1",
          "type": "address"
        },
        {
          "indexed": false,
          "internalType": "address",
          "name": "pair",
          "type": "address"
        },
        {
          "indexed": false,
          "internalType": "uint256",
          "name": "",
          "type": "uint256"
        }
      ],
      "name": "PairCreated",
      "type": "event"
    },
    {
      "inputs": [],
      "name": "INIT_CODE_PAIR_HASH",
      "outputs": [
        {
          "internalType": "bytes32",
          "name": "",
          "type": "bytes32"
        }
      ],
      "stateMutability": "view",
      "type": "function"
    },
    {
      "inputs": [
        {
          "internalType": "uint256",
          "name": "",
          "type": "uint256"
        }
      ],
      "name": "allPairs",
      "outputs": [
        {
          "internalType": "address",
          "name": "",
          "type": "address"
        }
      ],
      "stateMutability": "view",
      "type": "function"
    },
    {
      "inputs": [],
      "name": "allPairsLength",
      "outputs": [
        {
          "internalType": "uint256",
          "name": "",
          "type": "uint256"
        }
      ],
      "stateMutability": "view",
      "type": "function"
    },
    {
      "inputs": [
        {
          "internalType": "address",
          "name": "tokenA",
          "type": "address"
        },
        {
          "internalType": "address",
          "name": "tokenB",
          "type": "address"
        }
      ],
      "name": "createPair",
      "outputs": [
        {
          "internalType": "address",
          "name": "pair",
          "type": "address"
        }
      ],
      "stateMutability": "nonpayable",
      "type": "function"
    },
    {
      "inputs": [],
      "name": "feeSetter",
      "outputs": [
        {
          "internalType": "address",
          "name": "",
          "type": "address"
        }
      ],
      "stateMutability": "view",
      "type": "function"
    },
    {
      "inputs": [],
      "name": "feeTo",
      "outputs": [
        {
          "internalType": "address",
          "name": "",
          "type": "address"
        }
      ],
      "stateMutability": "view",
      "type": "function"
    },
    {
      "inputs": [
        {
          "internalType": "address",
          "name": "",
          "type": "address"
        },
        {
          "internalType": "address",
          "name": "",
          "type": "address"
        }
      ],
      "name": "getPair",
      "outputs": [
        {
          "internalType": "address",
          "name": "",
          "type": "address"
        }
      ],
      "stateMutability": "view",
      "type": "function"
    },
    {
      "inputs": [
        {
          "internalType": "address",
          "name": "_pair",
          "type": "address"
        },
        {
          "internalType": "uint8",
          "name": "_devFee",
          "type": "uint8"
        }
      ],
      "name": "setDevFee",
      "outputs": [],
      "stateMutability": "nonpayable",
      "type": "function"
    },
    {
      "inputs": [
        {
          "internalType": "address",
          "name": "_feeSetter",
          "type": "address"
        }
      ],
      "name": "setFeeSetter",
      "outputs": [],
      "stateMutability": "nonpayable",
      "type": "function"
    },
    {
      "inputs": [
        {
          "internalType": "address",
          "name": "_feeTo",
          "type": "address"
        }
      ],
      "name": "setFeeTo",
      "outputs": [],
      "stateMutability": "nonpayable",
      "type": "function"
    },
    {
      "inputs": [
        {
          "internalType": "address",
          "name": "_pair",
          "type": "address"
        },
        {
          "internalType": "uint32",
          "name": "_swapFee",
          "type": "uint32"
        }
      ],
      "name": "setSwapFee",
      "outputs": [],
      "stateMutability": "nonpayable",
      "type": "function"
    }
  ],
  "bytecode": "0x608060405234801561001057600080fd5b506040516131763803806131768339818101604052602081101561003357600080fd5b5051600180546001600160a01b0319166001600160a01b03909216919091179055613113806100636000396000f3fe608060405234801561001057600080fd5b50600436106100c95760003560e01c80639e68ceb811610081578063e6a439051161005b578063e6a43905146101c1578063ef0bc993146101ef578063f46901ed1461021e576100c9565b80639e68ceb814610139578063b19805af1461016d578063c9c6539614610193576100c9565b8063574f2ba3116100b2578063574f2ba31461010f5780635855a25a1461012957806387cf3ef414610131576100c9565b8063017e7e58146100ce5780631e3dd18b146100f2575b600080fd5b6100d6610244565b604080516001600160a01b039092168252519081900360200190f35b6100d66004803603602081101561010857600080fd5b5035610253565b61011761027a565b60408051918252519081900360200190f35b610117610280565b6100d6610318565b61016b6004803603604081101561014f57600080fd5b5080356001600160a01b0316906020013563ffffffff16610327565b005b61016b6004803603602081101561018357600080fd5b50356001600160a01b03166103ee565b6100d6600480360360408110156101a957600080fd5b506001600160a01b038135811691602001351661047c565b6100d6600480360360408110156101d757600080fd5b506001600160a01b03813581169160200135166107bb565b61016b6004803603604081101561020557600080fd5b5080356001600160a01b0316906020013560ff166107e1565b61016b6004803603602081101561023457600080fd5b50356001600160a01b03166108e1565b6000546001600160a01b031681565b6003818154811061026057fe5b6000918252602090912001546001600160a01b0316905081565b60035490565b6000604051806020016102929061096f565b6020820181038252601f19601f820116604052506040516020018082805190602001908083835b602083106102d85780518252601f1990920191602091820191016102b9565b6001836020036101000a03801982511681845116808217855250505050505090500191505060405160208183030381529060405280519060200120905090565b6001546001600160a01b031681565b6001546001600160a01b03163314610386576040805162461bcd60e51b815260206004820152601860248201527f476c6f62616c466163746f72793a20464f5242494444454e0000000000000000604482015290519081900360640190fd5b816001600160a01b031663d6d788c3826040518263ffffffff1660e01b8152600401808263ffffffff168152602001915050600060405180830381600087803b1580156103d257600080fd5b505af11580156103e6573d6000803e3d6000fd5b505050505050565b6001546001600160a01b0316331461044d576040805162461bcd60e51b815260206004820152601860248201527f476c6f62616c466163746f72793a20464f5242494444454e0000000000000000604482015290519081900360640190fd5b6001805473ffffffffffffffffffffffffffffffffffffffff19166001600160a01b0392909216919091179055565b6000816001600160a01b0316836001600160a01b031614156104e5576040805162461bcd60e51b815260206004820152601360248201527f4944454e544943414c5f41444452455353455300000000000000000000000000604482015290519081900360640190fd5b600080836001600160a01b0316856001600160a01b03161061050857838561050b565b84845b90925090506001600160a01b03821661056b576040805162461bcd60e51b815260206004820152600c60248201527f5a45524f5f414444524553530000000000000000000000000000000000000000604482015290519081900360640190fd5b6001600160a01b038281166000908152600260209081526040808320858516845290915290205416156105e5576040805162461bcd60e51b815260206004820152600b60248201527f504149525f455849535453000000000000000000000000000000000000000000604482015290519081900360640190fd5b6060604051806020016105f79061096f565b6020820181038252601f19601f8201166040525090506000838360405160200180836001600160a01b031660601b8152601401826001600160a01b031660601b815260140192505050604051602081830303815290604052805190602001209050808251602084016000f59450846001600160a01b031663485cc95585856040518363ffffffff1660e01b815260040180836001600160a01b03168152602001826001600160a01b0316815260200192505050600060405180830381600087803b1580156106c457600080fd5b505af11580156106d8573d6000803e3d6000fd5b505050506001600160a01b0384811660008181526002602081815260408084208987168086529083528185208054978d1673ffffffffffffffffffffffffffffffffffffffff1998891681179091559383528185208686528352818520805488168517905560038054600181018255958190527fc2575a0e9e593c00f959f8c92f12db2869c3395a3b0502d05e2516446f71f85b90950180549097168417909655925483519283529082015281517f0d3648bd0f6ba80134a33ba9275ac585d9d315f0ad8355cddefde31afa28d0e9929181900390910190a35050505092915050565b60026020908152600092835260408084209091529082529020546001600160a01b031681565b6001546001600160a01b03163314610840576040805162461bcd60e51b815260206004820152601860248201527f476c6f62616c466163746f72793a20464f5242494444454e0000000000000000604482015290519081900360640190fd5b60008160ff1611610898576040805162461bcd60e51b815260206004820152601c60248201527f476c6f62616c466163746f72793a20464f5242494444454e5f46454500000000604482015290519081900360640190fd5b816001600160a01b03166303c150b0826040518263ffffffff1660e01b8152600401808260ff168152602001915050600060405180830381600087803b1580156103d257600080fd5b6001546001600160a01b03163314610940576040805162461bcd60e51b815260206004820152601860248201527f476c6f62616c466163746f72793a20464f5242494444454e0000000000000000604482015290519081900360640190fd5b6000805473ffffffffffffffffffffffffffffffffffffffff19166001600160a01b0392909216919091179055565b6127618061097d8339019056fe6080604052600c805463ffffffff60201b1963ffffffff19909116605617166401000000001790556001600d5534801561003857600080fd5b50604080518082018252600a815269476c6f62616c204c507360b01b6020918201528151808301835260018152603160f81b9082015281517f8b73c3c69bb8fe3d512ecc4cf759cc79239f7b179b0ffacaa9a75d522b39400f818301527f9d8930d4ab7dc7e9cc9c7bf27d183a4f187e422ab31c6c1784e8056620491d36818401527fc89efdaa54c0f20c7adf612882df0950f5a951637e0307cdcb4c672f298b8bc660608201524660808201523060a0808301919091528351808303909101815260c09091019092528151910120600355600580546001600160a01b031916331790556126368061012b6000396000f3fe608060405234801561001057600080fd5b50600436106101e55760003560e01c80636827e7641161010f578063ba9a7a56116100a2578063d505accf11610071578063d505accf146105c4578063d6d788c314610615578063dd62ed3e14610638578063fff6cae914610666576101e5565b8063ba9a7a5614610586578063bc25cf771461058e578063c45a0155146105b4578063d21220a7146105bc576101e5565b80637ecebe00116100de5780637ecebe00146104ed57806389afcb441461051357806395d89b4114610552578063a9059cbb1461055a576101e5565b80636827e764146104915780636a6278421461049957806370a08231146104bf5780637464fc3d146104e5576101e5565b806323b872dd11610187578063485cc95511610156578063485cc9551461043257806354cf2aeb146104605780635909c0d5146104815780635a3d549314610489576101e5565b806323b872dd146103ce57806330adf81f14610404578063313ce5671461040c5780633644e5151461042a576101e5565b80630902f1ac116101c35780630902f1ac14610318578063095ea7b3146103505780630dfe16811461039057806318160ddd146103b4576101e5565b8063022c0d9f146101ea57806303c150b01461027857806306fdde031461029b575b600080fd5b6102766004803603608081101561020057600080fd5b8135916020810135916001600160a01b03604083013516919081019060808101606082013564010000000081111561023757600080fd5b82018360208201111561024957600080fd5b8035906020019184600183028401116401000000008311171561026b57600080fd5b50909250905061066e565b005b6102766004803603602081101561028e57600080fd5b503563ffffffff16610ba4565b6102a3610ce3565b6040805160208082528351818301528351919283929083019185019080838360005b838110156102dd5781810151838201526020016102c5565b50505050905090810190601f16801561030a5780820380516001836020036101000a031916815260200191505b509250505060405180910390f35b610320610d1c565b604080516001600160701b03948516815292909316602083015263ffffffff168183015290519081900360600190f35b61037c6004803603604081101561036657600080fd5b506001600160a01b038135169060200135610d46565b604080519115158252519081900360200190f35b610398610d5d565b604080516001600160a01b039092168252519081900360200190f35b6103bc610d6c565b60408051918252519081900360200190f35b61037c600480360360608110156103e457600080fd5b506001600160a01b03813581169160208101359091169060400135610d72565b6103bc610e06565b610414610e2a565b6040805160ff9092168252519081900360200190f35b6103bc610e2f565b6102766004803603604081101561044857600080fd5b506001600160a01b0381358116916020013516610e35565b610468610eda565b6040805163ffffffff9092168252519081900360200190f35b6103bc610ee6565b6103bc610eec565b610468610ef2565b6103bc600480360360208110156104af57600080fd5b50356001600160a01b0316610f06565b6103bc600480360360208110156104d557600080fd5b50356001600160a01b03166111e3565b6103bc6111f5565b6103bc6004803603602081101561050357600080fd5b50356001600160a01b03166111fb565b6105396004803603602081101561052957600080fd5b50356001600160a01b031661120d565b6040805192835260208301919091528051918290030190f35b6102a36115a2565b61037c6004803603604081101561057057600080fd5b506001600160a01b0381351690602001356115db565b6103bc6115e8565b610276600480360360208110156105a457600080fd5b50356001600160a01b03166115ee565b610398611761565b610398611770565b610276600480360360e08110156105da57600080fd5b506001600160a01b03813581169160208101359091169060408101359060608101359060ff6080820135169060a08101359060c0013561177f565b6102766004803603602081101561062b57600080fd5b503563ffffffff166119a7565b6103bc6004803603604081101561064e57600080fd5b506001600160a01b0381358116916020013516611adb565b610276611af8565b600d546001146106ba576040805162461bcd60e51b815260206004820152601260248201527111db1bd8985b14185a5c8e881313d0d2d15160721b604482015290519081900360640190fd5b6000600d55841515806106cd5750600084115b6107085760405162461bcd60e51b81526004018080602001828103825260268152602001806125216026913960400191505060405180910390fd5b600080610713610d1c565b5091509150816001600160701b0316871080156107385750806001600160701b031686105b6107735760405162461bcd60e51b81526004018080602001828103825260228152602001806125b66022913960400191505060405180910390fd5b60065460075460009182916001600160a01b039182169190811690891682148015906107b15750806001600160a01b0316896001600160a01b031614155b610802576040805162461bcd60e51b815260206004820152601660248201527f476c6f62616c506169723a20494e56414c49445f544f00000000000000000000604482015290519081900360640190fd5b8a1561081357610813828a8d611c5b565b891561082457610824818a8c611c5b565b86156108d657886001600160a01b0316631074dda1338d8d8c8c6040518663ffffffff1660e01b815260040180866001600160a01b03168152602001858152602001848152602001806020018281038252848482818152602001925080828437600081840152601f19601f8201169050808301925050509650505050505050600060405180830381600087803b1580156108bd57600080fd5b505af11580156108d1573d6000803e3d6000fd5b505050505b604080516370a0823160e01b815230600482015290516001600160a01b038416916370a08231916024808301926020929190829003018186803b15801561091c57600080fd5b505afa158015610930573d6000803e3d6000fd5b505050506040513d602081101561094657600080fd5b5051604080516370a0823160e01b815230600482015290519195506001600160a01b038316916370a0823191602480820192602092909190829003018186803b15801561099257600080fd5b505afa1580156109a6573d6000803e3d6000fd5b505050506040513d60208110156109bc57600080fd5b5051925060009150506001600160701b0385168a900383116109df5760006109ee565b89856001600160701b03160383035b9050600089856001600160701b0316038311610a0b576000610a1a565b89856001600160701b03160383035b90506000821180610a2b5750600081115b610a665760405162461bcd60e51b81526004018080602001828103825260258152602001806125686025913960400191505060405180910390fd5b600c5463ffffffff90811690600090610a9a90610a879086908590611e0e16565b610a9488620186a0611e0e565b90611e6e565b90506000610aab610a878585611e0e565b9050610ad26402540be400610acc6001600160701b038c8116908c16611e0e565b90611e0e565b610adc8383611e0e565b1015610b2f576040805162461bcd60e51b815260206004820152600d60248201527f476c6f62616c506169723a204b00000000000000000000000000000000000000604482015290519081900360640190fd5b505050610b3e84848888611ecb565b60408051838152602081018390528082018d9052606081018c905290516001600160a01b038b169133917fd78ad95fa46c994b6551d0da85fc275fe613ce37657fb8d5e3d130840159d8229181900360800190a350506001600d55505050505050505050565b60008163ffffffff1611610bff576040805162461bcd60e51b815260206004820152601860248201527f476c6f62616c506169723a206c6f776572207468656e20300000000000000000604482015290519081900360640190fd5b6005546001600160a01b03163314610c5e576040805162461bcd60e51b815260206004820152601560248201527f476c6f62616c506169723a20464f5242494444454e0000000000000000000000604482015290519081900360640190fd5b6101f48163ffffffff161115610cbb576040805162461bcd60e51b815260206004820152601960248201527f476c6f62616c506169723a20464f5242494444454e5f46454500000000000000604482015290519081900360640190fd5b600c805463ffffffff9092166401000000000267ffffffff0000000019909216919091179055565b6040518060400160405280600a81526020017f476c6f62616c204c50730000000000000000000000000000000000000000000081525081565b6008546001600160701b0380821692600160701b830490911691600160e01b900463ffffffff1690565b6000610d533384846120a2565b5060015b92915050565b6006546001600160a01b031681565b60005481565b6001600160a01b038316600090815260026020908152604080832033845290915281205460001914610df1576001600160a01b0384166000908152600260209081526040808320338452909152902054610dcc9083611e6e565b6001600160a01b03851660009081526002602090815260408083203384529091529020555b610dfc848484612104565b5060019392505050565b7f6e71edae12b1b97f4d1f60370fef10105fa2faae0126114a169c64845d6126c981565b601281565b60035481565b6005546001600160a01b03163314610e94576040805162461bcd60e51b815260206004820152601560248201527f476c6f62616c506169723a20464f5242494444454e0000000000000000000000604482015290519081900360640190fd5b600680546001600160a01b039384167fffffffffffffffffffffffff00000000000000000000000000000000000000009182161790915560078054929093169116179055565b600c5463ffffffff1681565b60095481565b600a5481565b600c54640100000000900463ffffffff1681565b6000600d54600114610f54576040805162461bcd60e51b815260206004820152601260248201527111db1bd8985b14185a5c8e881313d0d2d15160721b604482015290519081900360640190fd5b6000600d81905580610f64610d1c565b50600654604080516370a0823160e01b815230600482015290519395509193506000926001600160a01b03909116916370a08231916024808301926020929190829003018186803b158015610fb857600080fd5b505afa158015610fcc573d6000803e3d6000fd5b505050506040513d6020811015610fe257600080fd5b5051600754604080516370a0823160e01b815230600482015290519293506000926001600160a01b03909216916370a0823191602480820192602092909190829003018186803b15801561103557600080fd5b505afa158015611049573d6000803e3d6000fd5b505050506040513d602081101561105f57600080fd5b505190506000611078836001600160701b038716611e6e565b9050600061108f836001600160701b038716611e6e565b9050600061109d87876121b2565b600054909150806110d4576110c06103e8610a946110bb8787611e0e565b61230b565b98506110cf60006103e861235d565b611117565b6111146001600160701b0389166110eb8684611e0e565b816110f257fe5b046001600160701b0389166111078685611e0e565b8161110e57fe5b046123e7565b98505b600089116111565760405162461bcd60e51b815260040180806020018281038252602981526020018061258d6029913960400191505060405180910390fd5b6111608a8a61235d565b61116c86868a8a611ecb565b811561119657600854611192906001600160701b0380821691600160701b900416611e0e565b600b555b6040805185815260208101859052815133927f4c209b5fc8ad50758f13e2e1088ba56a560dff690a1c6fef26394f4c03821c4f928290030190a250506001600d5550949695505050505050565b60016020526000908152604090205481565b600b5481565b60046020526000908152604090205481565b600080600d5460011461125c576040805162461bcd60e51b815260206004820152601260248201527111db1bd8985b14185a5c8e881313d0d2d15160721b604482015290519081900360640190fd5b6000600d8190558061126c610d1c565b50600654600754604080516370a0823160e01b815230600482015290519496509294506001600160a01b039182169391169160009184916370a08231916024808301926020929190829003018186803b1580156112c857600080fd5b505afa1580156112dc573d6000803e3d6000fd5b505050506040513d60208110156112f257600080fd5b5051604080516370a0823160e01b815230600482015290519192506000916001600160a01b038516916370a08231916024808301926020929190829003018186803b15801561134057600080fd5b505afa158015611354573d6000803e3d6000fd5b505050506040513d602081101561136a57600080fd5b50513060009081526001602052604081205491925061138988886121b2565b6000549091508061139a8487611e0e565b816113a157fe5b049a50806113af8486611e0e565b816113b657fe5b04995060008b1180156113c9575060008a115b6114045760405162461bcd60e51b81526004018080602001828103825260298152602001806125d86029913960400191505060405180910390fd5b61140e30846123fd565b611419878d8d611c5b565b611424868d8c611c5b565b604080516370a0823160e01b815230600482015290516001600160a01b038916916370a08231916024808301926020929190829003018186803b15801561146a57600080fd5b505afa15801561147e573d6000803e3d6000fd5b505050506040513d602081101561149457600080fd5b5051604080516370a0823160e01b815230600482015290519196506001600160a01b038816916370a0823191602480820192602092909190829003018186803b1580156114e057600080fd5b505afa1580156114f4573d6000803e3d6000fd5b505050506040513d602081101561150a57600080fd5b5051935061151a85858b8b611ecb565b811561154457600854611540906001600160701b0380821691600160701b900416611e0e565b600b555b604080518c8152602081018c905281516001600160a01b038f169233927fdccd412f0b1252819cb1fd330b93224ca42612892bb3f4f789976e6d81936496929081900390910190a35050505050505050506001600d81905550915091565b6040518060400160405280600681526020017f474c422d4c50000000000000000000000000000000000000000000000000000081525081565b6000610d53338484612104565b6103e881565b600d5460011461163a576040805162461bcd60e51b815260206004820152601260248201527111db1bd8985b14185a5c8e881313d0d2d15160721b604482015290519081900360640190fd5b6000600d55600654600754600854604080516370a0823160e01b815230600482015290516001600160a01b0394851694909316926116e392859287926116de926001600160701b03169185916370a0823191602480820192602092909190829003018186803b1580156116ac57600080fd5b505afa1580156116c0573d6000803e3d6000fd5b505050506040513d60208110156116d657600080fd5b505190611e6e565b611c5b565b61175781846116de6008600e9054906101000a90046001600160701b03166001600160701b0316856001600160a01b03166370a08231306040518263ffffffff1660e01b815260040180826001600160a01b0316815260200191505060206040518083038186803b1580156116ac57600080fd5b50506001600d5550565b6005546001600160a01b031681565b6007546001600160a01b031681565b428410156117d4576040805162461bcd60e51b815260206004820152601060248201527f50616e63616b653a204558504952454400000000000000000000000000000000604482015290519081900360640190fd5b6003546001600160a01b0380891660008181526004602090815260408083208054600180820190925582517f6e71edae12b1b97f4d1f60370fef10105fa2faae0126114a169c64845d6126c98186015280840196909652958d166060860152608085018c905260a085019590955260c08085018b90528151808603909101815260e0850182528051908301207f19010000000000000000000000000000000000000000000000000000000000006101008601526101028501969096526101228085019690965280518085039096018652610142840180825286519683019690962095839052610162840180825286905260ff89166101828501526101a284018890526101c28401879052519193926101e280820193601f1981019281900390910190855afa15801561190a573d6000803e3d6000fd5b5050604051601f1901519150506001600160a01b038116158015906119405750886001600160a01b0316816001600160a01b0316145b611991576040805162461bcd60e51b815260206004820152601a60248201527f50616e63616b653a20494e56414c49445f5349474e4154555245000000000000604482015290519081900360640190fd5b61199c8989896120a2565b505050505050505050565b60008163ffffffff1611611a02576040805162461bcd60e51b815260206004820152601860248201527f476c6f62616c506169723a206c6f776572207468656e20300000000000000000604482015290519081900360640190fd5b6005546001600160a01b03163314611a61576040805162461bcd60e51b815260206004820152601560248201527f476c6f62616c506169723a20464f5242494444454e0000000000000000000000604482015290519081900360640190fd5b620186a08163ffffffff161115611abf576040805162461bcd60e51b815260206004820152601960248201527f476c6f62616c506169723a20464f5242494444454e5f46454500000000000000604482015290519081900360640190fd5b600c805463ffffffff191663ffffffff92909216919091179055565b600260209081526000928352604080842090915290825290205481565b600d54600114611b44576040805162461bcd60e51b815260206004820152601260248201527111db1bd8985b14185a5c8e881313d0d2d15160721b604482015290519081900360640190fd5b6000600d55600654604080516370a0823160e01b81523060048201529051611c54926001600160a01b0316916370a08231916024808301926020929190829003018186803b158015611b9557600080fd5b505afa158015611ba9573d6000803e3d6000fd5b505050506040513d6020811015611bbf57600080fd5b5051600754604080516370a0823160e01b815230600482015290516001600160a01b03909216916370a0823191602480820192602092909190829003018186803b158015611c0c57600080fd5b505afa158015611c20573d6000803e3d6000fd5b505050506040513d6020811015611c3657600080fd5b50516008546001600160701b0380821691600160701b900416611ecb565b6001600d55565b604080518082018252601981527f7472616e7366657228616464726573732c75696e74323536290000000000000060209182015281516001600160a01b0385811660248301526044808301869052845180840390910181526064909201845291810180516001600160e01b03167fa9059cbb000000000000000000000000000000000000000000000000000000001781529251815160009460609489169392918291908083835b60208310611d215780518252601f199092019160209182019101611d02565b6001836020036101000a0380198251168184511680821785525050505050509050019150506000604051808303816000865af19150503d8060008114611d83576040519150601f19603f3d011682016040523d82523d6000602084013e611d88565b606091505b5091509150818015611db6575080511580611db65750808060200190516020811015611db357600080fd5b50515b611e07576040805162461bcd60e51b815260206004820152601b60248201527f476c6f62616c506169723a205452414e534645525f4641494c45440000000000604482015290519081900360640190fd5b5050505050565b600082611e1d57506000610d57565b82820282848281611e2a57fe5b0414611e675760405162461bcd60e51b81526004018080602001828103825260218152602001806125476021913960400191505060405180910390fd5b9392505050565b600082821115611ec5576040805162461bcd60e51b815260206004820152601e60248201527f536166654d6174683a207375627472616374696f6e206f766572666c6f770000604482015290519081900360640190fd5b50900390565b6001600160701b038411801590611ee957506001600160701b038311155b611f3a576040805162461bcd60e51b815260206004820152601460248201527f476c6f62616c506169723a204f564552464c4f57000000000000000000000000604482015290519081900360640190fd5b60085463ffffffff42811691600160e01b90048116820390811615801590611f6a57506001600160701b03841615155b8015611f7e57506001600160701b03831615155b15611fe9578063ffffffff16611fa685611f978661248f565b6001600160e01b0316906124a1565b600980546001600160e01b03929092169290920201905563ffffffff8116611fd184611f978761248f565b600a80546001600160e01b0392909216929092020190555b600880546dffffffffffffffffffffffffffff19166001600160701b03888116919091177fffffffff0000000000000000000000000000ffffffffffffffffffffffffffff16600160701b8883168102919091176001600160e01b0316600160e01b63ffffffff871602179283905560408051848416815291909304909116602082015281517f1c411e9a96e071241c2f21f7726b17ae89e3cab4c78be50e062b03a9fffbbad1929181900390910190a1505050505050565b6001600160a01b03808416600081815260026020908152604080832094871680845294825291829020859055815185815291517f8c5be1e5ebec7d5bd14f71427d1e84f3dd0314c0f7b2291e5b200ac8c7c3b9259281900390910190a3505050565b6001600160a01b0383166000908152600160205260409020546121279082611e6e565b6001600160a01b03808516600090815260016020526040808220939093559084168152205461215690826124c6565b6001600160a01b0380841660008181526001602090815260409182902094909455805185815290519193928716927fddf252ad1be2c89b69c2b068fc378daa952ba7f163c4a11628f55a4df523b3ef92918290030190a3505050565b600080600560009054906101000a90046001600160a01b03166001600160a01b031663017e7e586040518163ffffffff1660e01b815260040160206040518083038186803b15801561220357600080fd5b505afa158015612217573d6000803e3d6000fd5b505050506040513d602081101561222d57600080fd5b5051600b546001600160a01b0382161580159450919250906122f75780156122f257600061226a6110bb6001600160701b03888116908816611e0e565b905060006122778361230b565b9050808211156122ef5760006122996122908484611e6e565b60005490611e0e565b600c549091506000906122cb9084906122c590879063ffffffff640100000000909104811690611e0e16565b906124c6565b905060008183816122d857fe5b04905080156122eb576122eb878261235d565b5050505b50505b612303565b8015612303576000600b555b505092915050565b6000600382111561234e575080600160028204015b818110156123485780915060028182858161233757fe5b04018161234057fe5b049050612320565b50612358565b8115612358575060015b919050565b60005461236a90826124c6565b60009081556001600160a01b03831681526001602052604090205461238f90826124c6565b6001600160a01b03831660008181526001602090815260408083209490945583518581529351929391927fddf252ad1be2c89b69c2b068fc378daa952ba7f163c4a11628f55a4df523b3ef9281900390910190a35050565b60008183106123f65781611e67565b5090919050565b6001600160a01b0382166000908152600160205260409020546124209082611e6e565b6001600160a01b038316600090815260016020526040812091909155546124479082611e6e565b60009081556040805183815290516001600160a01b038516917fddf252ad1be2c89b69c2b068fc378daa952ba7f163c4a11628f55a4df523b3ef919081900360200190a35050565b6001600160701b0316600160701b0290565b60006001600160701b0382166001600160e01b038416816124be57fe5b049392505050565b600082820183811015611e67576040805162461bcd60e51b815260206004820152601b60248201527f536166654d6174683a206164646974696f6e206f766572666c6f770000000000604482015290519081900360640190fdfe476c6f62616c506169723a20494e53554646494349454e545f4f55545055545f414d4f554e54536166654d6174683a206d756c7469706c69636174696f6e206f766572666c6f77476c6f62616c506169723a20494e53554646494349454e545f494e5055545f414d4f554e54476c6f62616c506169723a20494e53554646494349454e545f4c49515549444954595f4d494e544544476c6f62616c506169723a20494e53554646494349454e545f4c4951554944495459476c6f62616c506169723a20494e53554646494349454e545f4c49515549444954595f4255524e4544a264697066735822122099c2c6111cc5cce467fc91f179e4e81135fe1ac19123c0d140c447e7a94a463564736f6c634300060c0033a264697066735822122054ea0d8482a5cbbb21ecd79c5e5b7290f65eeba996632e765db176afbd79a6ce64736f6c634300060c0033",
  "linkReferences": {},
  "deployedLinkReferences": {}
}