{
  "_format": "hh-sol-artifact-1",
  "contractName": "GlobalMasterChefMock",
  "sourceName": "contracts/Mocks/GlobalMasterChefMock.sol",
  "abi": [
    {
      "inputs": [
        {
          "internalType": "address",
          "name": "_global",
          "type": "address"
        }
      ],
      "stateMutability": "nonpayable",
      "type": "constructor"
    },
    {
      "inputs": [
        {
          "internalType": "uint256",
          "name": "_pid",
          "type": "uint256"
        },
        {
          "internalType": "uint256",
          "name": "_amount",
          "type": "uint256"
        }
      ],
      "name": "deposit",
      "outputs": [],
      "stateMutability": "nonpayable",
      "type": "function"
    },
    {
      "inputs": [
        {
          "internalType": "uint256",
          "name": "_amount",
          "type": "uint256"
        }
      ],
      "name": "enterStaking",
      "outputs": [],
      "stateMutability": "nonpayable",
      "type": "function"
    },
    {
      "inputs": [
        {
          "internalType": "uint256",
          "name": "_amount",
          "type": "uint256"
        }
      ],
      "name": "leaveStaking",
      "outputs": [],
      "stateMutability": "nonpayable",
      "type": "function"
    },
    {
      "inputs": [
        {
          "internalType": "uint256",
          "name": "_pid",
          "type": "uint256"
        },
        {
          "internalType": "address",
          "name": "_account",
          "type": "address"
        }
      ],
      "name": "userInfo",
      "outputs": [
        {
          "internalType": "uint256",
          "name": "amount",
          "type": "uint256"
        },
        {
          "internalType": "uint256",
          "name": "rewardDebt",
          "type": "uint256"
        }
      ],
      "stateMutability": "view",
      "type": "function"
    },
    {
      "inputs": [
        {
          "internalType": "uint256",
          "name": "_pid",
          "type": "uint256"
        },
        {
          "internalType": "uint256",
          "name": "_amount",
          "type": "uint256"
        }
      ],
      "name": "withdraw",
      "outputs": [],
      "stateMutability": "nonpayable",
      "type": "function"
    }
  ],
  "bytecode": "0x6080604052600060025534801561001557600080fd5b5060405161080e38038061080e8339818101604052602081101561003857600080fd5b5051600080546001600160a01b039092166001600160a01b03199092169190911790556107a48061006a6000396000f3fe608060405234801561001057600080fd5b50600436106100675760003560e01c8063441a3e7011610050578063441a3e70146100a857806393f1a40b146100cb578063e2bbb1581461011057610067565b80631058d2811461006c57806341441d3b1461008b575b600080fd5b6100896004803603602081101561008257600080fd5b5035610133565b005b610089600480360360208110156100a157600080fd5b503561013f565b610089600480360360408110156100be57600080fd5b5080359060200135610148565b6100f7600480360360408110156100e157600080fd5b50803590602001356001600160a01b0316610155565b6040805192835260208301919091528051918290030190f35b6100896004803603604081101561012657600080fd5b508035906020013561017b565b61013c81610184565b50565b61013c8161022f565b61015181610184565b5050565b6001600160a01b0316600090815260016020819052604090912080549101549092909150565b6101518161022f565b33600090815260016020526040902080548211156101e9576040805162461bcd60e51b815260206004820152601260248201527f77697468647261773a206e6f7420676f6f640000000000000000000000000000604482015290519081900360640190fd5b6102173361020483600101548561027f90919063ffffffff16565b6000546001600160a01b031691906102e0565b60006001820155805461022a9083610365565b905550565b33600081815260016020526040812090549091610257916001600160a01b03169030856103c2565b8054610263908361027f565b815560025460018201546102769161027f565b60019091015550565b6000828201838110156102d9576040805162461bcd60e51b815260206004820152601b60248201527f536166654d6174683a206164646974696f6e206f766572666c6f770000000000604482015290519081900360640190fd5b9392505050565b604080516001600160a01b038416602482015260448082018490528251808303909101815260649091019091526020810180517bffffffffffffffffffffffffffffffffffffffffffffffffffffffff167fa9059cbb00000000000000000000000000000000000000000000000000000000179052610360908490610450565b505050565b6000828211156103bc576040805162461bcd60e51b815260206004820152601e60248201527f536166654d6174683a207375627472616374696f6e206f766572666c6f770000604482015290519081900360640190fd5b50900390565b604080516001600160a01b0380861660248301528416604482015260648082018490528251808303909101815260849091019091526020810180517bffffffffffffffffffffffffffffffffffffffffffffffffffffffff167f23b872dd0000000000000000000000000000000000000000000000000000000017905261044a908590610450565b50505050565b60606104a5826040518060400160405280602081526020017f5361666542455032303a206c6f772d6c6576656c2063616c6c206661696c6564815250856001600160a01b03166105019092919063ffffffff16565b805190915015610360578080602001905160208110156104c457600080fd5b50516103605760405162461bcd60e51b815260040180806020018281038252602a81526020018061071f602a913960400191505060405180910390fd5b60606105108484600085610518565b949350505050565b6060824710156105595760405162461bcd60e51b81526004018080602001828103825260268152602001806107496026913960400191505060405180910390fd5b61056285610674565b6105b3576040805162461bcd60e51b815260206004820152601d60248201527f416464726573733a2063616c6c20746f206e6f6e2d636f6e7472616374000000604482015290519081900360640190fd5b60006060866001600160a01b031685876040518082805190602001908083835b602083106105f25780518252601f1990920191602091820191016105d3565b6001836020036101000a03801982511681845116808217855250505050505090500191505060006040518083038185875af1925050503d8060008114610654576040519150601f19603f3d011682016040523d82523d6000602084013e610659565b606091505b509150915061066982828661067a565b979650505050505050565b3b151590565b606083156106895750816102d9565b8251156106995782518084602001fd5b8160405162461bcd60e51b81526004018080602001828103825283818151815260200191508051906020019080838360005b838110156106e35781810151838201526020016106cb565b50505050905090810190601f1680156107105780820380516001836020036101000a031916815260200191505b509250505060405180910390fdfe5361666542455032303a204245503230206f7065726174696f6e20646964206e6f742073756363656564416464726573733a20696e73756666696369656e742062616c616e636520666f722063616c6ca2646970667358221220d1995b7c974cccd33e14c8c915b30dcf144b058747551d48ae9083af42f6662564736f6c634300060c0033",
  "linkReferences": {},
  "deployedLinkReferences": {}
}