{
  "_format": "hh-sol-artifact-1",
  "contractName": "MasterChefInternal",
  "sourceName": "contracts/MasterChefInternal.sol",
  "abi": [
    {
      "inputs": [
        {
          "internalType": "address",
          "name": "_tokenAddresses",
          "type": "address"
        },
        {
          "internalType": "address",
          "name": "_pathFinder",
          "type": "address"
        }
      ],
      "stateMutability": "nonpayable",
      "type": "constructor"
    },
    {
      "anonymous": false,
      "inputs": [
        {
          "indexed": true,
          "internalType": "address",
          "name": "previousOwner",
          "type": "address"
        },
        {
          "indexed": true,
          "internalType": "address",
          "name": "newOwner",
          "type": "address"
        }
      ],
      "name": "OwnershipTransferred",
      "type": "event"
    },
    {
      "inputs": [
        {
          "internalType": "address",
          "name": "_token",
          "type": "address"
        },
        {
          "internalType": "address",
          "name": "_tokenRoute",
          "type": "address"
        },
        {
          "internalType": "bool",
          "name": "_directBNB",
          "type": "bool"
        }
      ],
      "name": "addRouteToPathFinder",
      "outputs": [],
      "stateMutability": "nonpayable",
      "type": "function"
    },
    {
      "inputs": [
        {
          "internalType": "contract IBEP20",
          "name": "_lpToken",
          "type": "address"
        }
      ],
      "name": "checkTokensRoutes",
      "outputs": [
        {
          "internalType": "bool",
          "name": "bothConnected",
          "type": "bool"
        }
      ],
      "stateMutability": "nonpayable",
      "type": "function"
    },
    {
      "inputs": [],
      "name": "owner",
      "outputs": [
        {
          "internalType": "address",
          "name": "",
          "type": "address"
        }
      ],
      "stateMutability": "view",
      "type": "function"
    },
    {
      "inputs": [],
      "name": "pathFinder",
      "outputs": [
        {
          "internalType": "contract IPathFinder",
          "name": "",
          "type": "address"
        }
      ],
      "stateMutability": "view",
      "type": "function"
    },
    {
      "inputs": [
        {
          "internalType": "address",
          "name": "_token",
          "type": "address"
        }
      ],
      "name": "removeRouteToPathFinder",
      "outputs": [],
      "stateMutability": "nonpayable",
      "type": "function"
    },
    {
      "inputs": [],
      "name": "renounceOwnership",
      "outputs": [],
      "stateMutability": "nonpayable",
      "type": "function"
    },
    {
      "inputs": [
        {
          "internalType": "address",
          "name": "_pathFinder",
          "type": "address"
        }
      ],
      "name": "setInternalPathFinder",
      "outputs": [],
      "stateMutability": "nonpayable",
      "type": "function"
    },
    {
      "inputs": [],
      "name": "tokenAddresses",
      "outputs": [
        {
          "internalType": "contract TokenAddresses",
          "name": "",
          "type": "address"
        }
      ],
      "stateMutability": "view",
      "type": "function"
    },
    {
      "inputs": [
        {
          "internalType": "address",
          "name": "newOwner",
          "type": "address"
        }
      ],
      "name": "transferOwnership",
      "outputs": [],
      "stateMutability": "nonpayable",
      "type": "function"
    }
  ],
  "bytecode": "0x608060405234801561001057600080fd5b506040516114373803806114378339818101604052604081101561003357600080fd5b50805160209091015160006100466100c1565b600080546001600160a01b0319166001600160a01b0383169081178255604051929350917f8be0079c531659141344cd1fd0a4f28419497f9722a3daafe3b4186f6b6457e0908290a350600180546001600160a01b039384166001600160a01b031991821617909155600280549290931691161790556100c5565b3390565b611363806100d46000396000f3fe608060405234801561001057600080fd5b50600436106100a35760003560e01c8063a9989b9311610076578063f2fde38b1161005b578063f2fde38b14610132578063fc5c464014610158578063fff9694d14610190576100a3565b8063a9989b9314610104578063ab4dfb491461010c576100a3565b80632769b724146100a85780636b74c67f146100d0578063715018a6146100f45780638da5cb5b146100fc575b600080fd5b6100ce600480360360208110156100be57600080fd5b50356001600160a01b03166101ca565b005b6100d86102b6565b604080516001600160a01b039092168252519081900360200190f35b6100ce6102c5565b6100d8610386565b6100d8610395565b6100ce6004803603602081101561012257600080fd5b50356001600160a01b03166103a4565b6100ce6004803603602081101561014857600080fd5b50356001600160a01b031661043d565b6100ce6004803603606081101561016e57600080fd5b506001600160a01b0381358116916020810135909116906040013515156104b3565b6101b6600480360360208110156101a657600080fd5b50356001600160a01b03166105b1565b604080519115158252519081900360200190f35b6101d2611256565b6000546001600160a01b03908116911614610234576040805162461bcd60e51b815260206004820181905260248201527f4f776e61626c653a2063616c6c6572206973206e6f7420746865206f776e6572604482015290519081900360640190fd5b600254604080517fcde832950000000000000000000000000000000000000000000000000000000081526001600160a01b0384811660048301529151919092169163cde8329591602480830192600092919082900301818387803b15801561029b57600080fd5b505af11580156102af573d6000803e3d6000fd5b5050505050565b6002546001600160a01b031681565b6102cd611256565b6000546001600160a01b0390811691161461032f576040805162461bcd60e51b815260206004820181905260248201527f4f776e61626c653a2063616c6c6572206973206e6f7420746865206f776e6572604482015290519081900360640190fd5b600080546040516001600160a01b03909116907f8be0079c531659141344cd1fd0a4f28419497f9722a3daafe3b4186f6b6457e0908390a36000805473ffffffffffffffffffffffffffffffffffffffff19169055565b6000546001600160a01b031690565b6001546001600160a01b031681565b6103ac611256565b6000546001600160a01b0390811691161461040e576040805162461bcd60e51b815260206004820181905260248201527f4f776e61626c653a2063616c6c6572206973206e6f7420746865206f776e6572604482015290519081900360640190fd5b6002805473ffffffffffffffffffffffffffffffffffffffff19166001600160a01b0392909216919091179055565b610445611256565b6000546001600160a01b039081169116146104a7576040805162461bcd60e51b815260206004820181905260248201527f4f776e61626c653a2063616c6c6572206973206e6f7420746865206f776e6572604482015290519081900360640190fd5b6104b08161125a565b50565b6104bb611256565b6000546001600160a01b0390811691161461051d576040805162461bcd60e51b815260206004820181905260248201527f4f776e61626c653a2063616c6c6572206973206e6f7420746865206f776e6572604482015290519081900360640190fd5b600254604080517f93ee23030000000000000000000000000000000000000000000000000000000081526001600160a01b03868116600483015285811660248301528415156044830152915191909216916393ee230391606480830192600092919082900301818387803b15801561059457600080fd5b505af11580156105a8573d6000803e3d6000fd5b50505050505050565b600154604080517f58f7f6d2000000000000000000000000000000000000000000000000000000008152905160009283926001600160a01b0390911691634d9a31369183916358f7f6d2916004808201928892909190829003018186803b15801561061b57600080fd5b505afa15801561062f573d6000803e3d6000fd5b505050506040513d6000823e601f3d908101601f19168201604052602081101561065857600080fd5b810190808051604051939291908464010000000082111561067857600080fd5b90830190602082018581111561068d57600080fd5b82516401000000008111828201881017156106a757600080fd5b82525081516020918201929091019080838360005b838110156106d45781810151838201526020016106bc565b50505050905090810190601f1680156107015780820380516001836020036101000a031916815260200191505b506040525050506040518263ffffffff1660e01b81526004018080602001828103825283818151815260200191508051906020019080838360005b8381101561075457818101518382015260200161073c565b50505050905090810190601f1680156107815780820380516001836020036101000a031916815260200191505b509250505060206040518083038186803b15801561079e57600080fd5b505afa1580156107b2573d6000803e3d6000fd5b505050506040513d60208110156107c857600080fd5b505160408051630dfe168160e01b815290516000945091925084916001600160a01b038085169290841691630dfe168191600480820192602092909190829003018186803b15801561081957600080fd5b505afa15801561082d573d6000803e3d6000fd5b505050506040513d602081101561084357600080fd5b50516001600160a01b0316141561094457600260009054906101000a90046001600160a01b03166001600160a01b0316631fd88557826001600160a01b031663d21220a76040518163ffffffff1660e01b815260040160206040518083038186803b1580156108b157600080fd5b505afa1580156108c5573d6000803e3d6000fd5b505050506040513d60208110156108db57600080fd5b5051604080516001600160e01b031960e085901b1681526001600160a01b03909216600483015251602480830192600092919082900301818387803b15801561092357600080fd5b505af1158015610937573d6000803e3d6000fd5b505050506001925061124f565b816001600160a01b0316816001600160a01b031663d21220a76040518163ffffffff1660e01b815260040160206040518083038186803b15801561098757600080fd5b505afa15801561099b573d6000803e3d6000fd5b505050506040513d60208110156109b157600080fd5b50516001600160a01b03161415610a1f57600260009054906101000a90046001600160a01b03166001600160a01b0316631fd88557826001600160a01b0316630dfe16816040518163ffffffff1660e01b815260040160206040518083038186803b1580156108b157600080fd5b600260009054906101000a90046001600160a01b03166001600160a01b0316630f990d00826001600160a01b0316630dfe16816040518163ffffffff1660e01b815260040160206040518083038186803b158015610a7c57600080fd5b505afa158015610a90573d6000803e3d6000fd5b505050506040513d6020811015610aa657600080fd5b5051604080516001600160e01b031960e085901b1681526001600160a01b039092166004830152516024808301926020929190829003018186803b158015610aed57600080fd5b505afa158015610b01573d6000803e3d6000fd5b505050506040513d6020811015610b1757600080fd5b5051158015610c1c5750600260009054906101000a90046001600160a01b03166001600160a01b0316638c0077d1826001600160a01b031663d21220a76040518163ffffffff1660e01b815260040160206040518083038186803b158015610b7e57600080fd5b505afa158015610b92573d6000803e3d6000fd5b505050506040513d6020811015610ba857600080fd5b5051604080516001600160e01b031960e085901b1681526001600160a01b039092166004830152516024808301926020929190829003018186803b158015610bef57600080fd5b505afa158015610c03573d6000803e3d6000fd5b505050506040513d6020811015610c1957600080fd5b50515b15610d7e57600260009054906101000a90046001600160a01b03166001600160a01b031663c7342575826001600160a01b0316630dfe16816040518163ffffffff1660e01b815260040160206040518083038186803b158015610c7e57600080fd5b505afa158015610c92573d6000803e3d6000fd5b505050506040513d6020811015610ca857600080fd5b5051604080517fd21220a700000000000000000000000000000000000000000000000000000000815290516001600160a01b0386169163d21220a7916004808301926020929190829003018186803b158015610d0357600080fd5b505afa158015610d17573d6000803e3d6000fd5b505050506040513d6020811015610d2d57600080fd5b5051604080516001600160e01b031960e086901b1681526001600160a01b03938416600482015292909116602483015251604480830192600092919082900301818387803b15801561092357600080fd5b600260009054906101000a90046001600160a01b03166001600160a01b0316630f990d00826001600160a01b031663d21220a76040518163ffffffff1660e01b815260040160206040518083038186803b158015610ddb57600080fd5b505afa158015610def573d6000803e3d6000fd5b505050506040513d6020811015610e0557600080fd5b5051604080516001600160e01b031960e085901b1681526001600160a01b039092166004830152516024808301926020929190829003018186803b158015610e4c57600080fd5b505afa158015610e60573d6000803e3d6000fd5b505050506040513d6020811015610e7657600080fd5b5051158015610f7b5750600260009054906101000a90046001600160a01b03166001600160a01b0316638c0077d1826001600160a01b0316630dfe16816040518163ffffffff1660e01b815260040160206040518083038186803b158015610edd57600080fd5b505afa158015610ef1573d6000803e3d6000fd5b505050506040513d6020811015610f0757600080fd5b5051604080516001600160e01b031960e085901b1681526001600160a01b039092166004830152516024808301926020929190829003018186803b158015610f4e57600080fd5b505afa158015610f62573d6000803e3d6000fd5b505050506040513d6020811015610f7857600080fd5b50515b1561104957600260009054906101000a90046001600160a01b03166001600160a01b031663c7342575826001600160a01b031663d21220a76040518163ffffffff1660e01b815260040160206040518083038186803b158015610fdd57600080fd5b505afa158015610ff1573d6000803e3d6000fd5b505050506040513d602081101561100757600080fd5b505160408051630dfe168160e01b815290516001600160a01b03861691630dfe1681916004808301926020929190829003018186803b158015610d0357600080fd5b600260009054906101000a90046001600160a01b03166001600160a01b0316630f990d00826001600160a01b0316630dfe16816040518163ffffffff1660e01b815260040160206040518083038186803b1580156110a657600080fd5b505afa1580156110ba573d6000803e3d6000fd5b505050506040513d60208110156110d057600080fd5b5051604080516001600160e01b031960e085901b1681526001600160a01b039092166004830152516024808301926020929190829003018186803b15801561111757600080fd5b505afa15801561112b573d6000803e3d6000fd5b505050506040513d602081101561114157600080fd5b505180156112455750600260009054906101000a90046001600160a01b03166001600160a01b0316630f990d00826001600160a01b031663d21220a76040518163ffffffff1660e01b815260040160206040518083038186803b1580156111a757600080fd5b505afa1580156111bb573d6000803e3d6000fd5b505050506040513d60208110156111d157600080fd5b5051604080516001600160e01b031960e085901b1681526001600160a01b039092166004830152516024808301926020929190829003018186803b15801561121857600080fd5b505afa15801561122c573d6000803e3d6000fd5b505050506040513d602081101561124257600080fd5b50515b1561124f57600192505b5050919050565b3390565b6001600160a01b03811661129f5760405162461bcd60e51b81526004018080602001828103825260268152602001806113086026913960400191505060405180910390fd5b600080546040516001600160a01b03808516939216917f8be0079c531659141344cd1fd0a4f28419497f9722a3daafe3b4186f6b6457e091a36000805473ffffffffffffffffffffffffffffffffffffffff19166001600160a01b039290921691909117905556fe4f776e61626c653a206e6577206f776e657220697320746865207a65726f2061646472657373a264697066735822122095eb027c800b30c2a7aae02891c8fa5cecfddd6508b2b851631dd8db4d7c4d0264736f6c634300060c0033",
  "linkReferences": {},
  "deployedLinkReferences": {}
}