{
  "_format": "hh-sol-artifact-1",
  "contractName": "MasterChef",
  "sourceName": "contracts/MasterChef.sol",
  "abi": [
    {
      "inputs": [
        {
          "internalType": "address",
          "name": "_masterChefInternal",
          "type": "address"
        },
        {
          "internalType": "contract NativeToken",
          "name": "_nativeToken",
          "type": "address"
        },
        {
          "internalType": "uint256",
          "name": "_nativeTokenPerBlock",
          "type": "uint256"
        },
        {
          "internalType": "uint256",
          "name": "_startBlock",
          "type": "uint256"
        },
        {
          "internalType": "address",
          "name": "_routerGlobal",
          "type": "address"
        },
        {
          "internalType": "address",
          "name": "_tokenAddresses",
          "type": "address"
        },
        {
          "internalType": "address",
          "name": "_pathFinder",
          "type": "address"
        }
      ],
      "stateMutability": "nonpayable",
      "type": "constructor"
    },
    {
      "anonymous": false,
      "inputs": [
        {
          "indexed": true,
          "internalType": "address",
          "name": "user",
          "type": "address"
        },
        {
          "indexed": true,
          "internalType": "uint256",
          "name": "pid",
          "type": "uint256"
        },
        {
          "indexed": false,
          "internalType": "uint256",
          "name": "amount",
          "type": "uint256"
        }
      ],
      "name": "Deposit",
      "type": "event"
    },
    {
      "anonymous": false,
      "inputs": [
        {
          "indexed": true,
          "internalType": "address",
          "name": "previousDevPower",
          "type": "address"
        },
        {
          "indexed": true,
          "internalType": "address",
          "name": "newDevPower",
          "type": "address"
        }
      ],
      "name": "DevPowerTransferred",
      "type": "event"
    },
    {
      "anonymous": false,
      "inputs": [
        {
          "indexed": true,
          "internalType": "address",
          "name": "user",
          "type": "address"
        },
        {
          "indexed": true,
          "internalType": "uint256",
          "name": "pid",
          "type": "uint256"
        },
        {
          "indexed": false,
          "internalType": "uint256",
          "name": "amount",
          "type": "uint256"
        },
        {
          "indexed": false,
          "internalType": "uint256",
          "name": "finalAmount",
          "type": "uint256"
        }
      ],
      "name": "EmergencyWithdraw",
      "type": "event"
    },
    {
      "anonymous": false,
      "inputs": [
        {
          "indexed": true,
          "internalType": "address",
          "name": "caller",
          "type": "address"
        },
        {
          "indexed": false,
          "internalType": "uint256",
          "name": "previousAmount",
          "type": "uint256"
        },
        {
          "indexed": false,
          "internalType": "uint256",
          "name": "newAmount",
          "type": "uint256"
        }
      ],
      "name": "EmissionRateUpdated",
      "type": "event"
    },
    {
      "anonymous": false,
      "inputs": [
        {
          "indexed": true,
          "internalType": "address",
          "name": "previousOwner",
          "type": "address"
        },
        {
          "indexed": true,
          "internalType": "address",
          "name": "newOwner",
          "type": "address"
        }
      ],
      "name": "OwnershipTransferred",
      "type": "event"
    },
    {
      "anonymous": false,
      "inputs": [
        {
          "indexed": true,
          "internalType": "address",
          "name": "user",
          "type": "address"
        },
        {
          "indexed": true,
          "internalType": "uint256",
          "name": "pid",
          "type": "uint256"
        },
        {
          "indexed": false,
          "internalType": "uint256",
          "name": "amountLockedUp",
          "type": "uint256"
        }
      ],
      "name": "RewardLockedUp",
      "type": "event"
    },
    {
      "anonymous": false,
      "inputs": [
        {
          "indexed": false,
          "internalType": "address",
          "name": "addr",
          "type": "address"
        }
      ],
      "name": "WhitelistedAddressAdded",
      "type": "event"
    },
    {
      "anonymous": false,
      "inputs": [
        {
          "indexed": false,
          "internalType": "address",
          "name": "addr",
          "type": "address"
        }
      ],
      "name": "WhitelistedAddressRemoved",
      "type": "event"
    },
    {
      "anonymous": false,
      "inputs": [
        {
          "indexed": true,
          "internalType": "address",
          "name": "user",
          "type": "address"
        },
        {
          "indexed": true,
          "internalType": "uint256",
          "name": "pid",
          "type": "uint256"
        },
        {
          "indexed": false,
          "internalType": "uint256",
          "name": "amount",
          "type": "uint256"
        }
      ],
      "name": "Withdraw",
      "type": "event"
    },
    {
      "inputs": [],
      "name": "BONUS_MULTIPLIER",
      "outputs": [
        {
          "internalType": "uint256",
          "name": "",
          "type": "uint256"
        }
      ],
      "stateMutability": "view",
      "type": "function"
    },
    {
      "inputs": [],
      "name": "BURN_ADDRESS",
      "outputs": [
        {
          "internalType": "address",
          "name": "",
          "type": "address"
        }
      ],
      "stateMutability": "view",
      "type": "function"
    },
    {
      "inputs": [],
      "name": "GetDevPowerAddress",
      "outputs": [
        {
          "internalType": "address",
          "name": "",
          "type": "address"
        }
      ],
      "stateMutability": "view",
      "type": "function"
    },
    {
      "inputs": [],
      "name": "MAX_FEE_LPS",
      "outputs": [
        {
          "internalType": "uint16",
          "name": "",
          "type": "uint16"
        }
      ],
      "stateMutability": "view",
      "type": "function"
    },
    {
      "inputs": [],
      "name": "MAX_FEE_PERFORMANCE",
      "outputs": [
        {
          "internalType": "uint16",
          "name": "",
          "type": "uint16"
        }
      ],
      "stateMutability": "view",
      "type": "function"
    },
    {
      "inputs": [],
      "name": "MAX_INTERVAL",
      "outputs": [
        {
          "internalType": "uint256",
          "name": "",
          "type": "uint256"
        }
      ],
      "stateMutability": "view",
      "type": "function"
    },
    {
      "inputs": [],
      "name": "_devPower",
      "outputs": [
        {
          "internalType": "address",
          "name": "",
          "type": "address"
        }
      ],
      "stateMutability": "view",
      "type": "function"
    },
    {
      "inputs": [
        {
          "internalType": "address",
          "name": "",
          "type": "address"
        }
      ],
      "name": "_minters",
      "outputs": [
        {
          "internalType": "bool",
          "name": "",
          "type": "bool"
        }
      ],
      "stateMutability": "view",
      "type": "function"
    },
    {
      "inputs": [
        {
          "internalType": "address",
          "name": "addr",
          "type": "address"
        }
      ],
      "name": "addAddressToWhitelist",
      "outputs": [
        {
          "internalType": "bool",
          "name": "success",
          "type": "bool"
        }
      ],
      "stateMutability": "nonpayable",
      "type": "function"
    },
    {
      "inputs": [
        {
          "internalType": "address[]",
          "name": "addrs",
          "type": "address[]"
        }
      ],
      "name": "addAddressesToWhitelist",
      "outputs": [
        {
          "internalType": "bool",
          "name": "success",
          "type": "bool"
        }
      ],
      "stateMutability": "nonpayable",
      "type": "function"
    },
    {
      "inputs": [
        {
          "internalType": "uint256",
          "name": "_allocPoint",
          "type": "uint256"
        },
        {
          "internalType": "contract IBEP20",
          "name": "_lpToken",
          "type": "address"
        },
        {
          "internalType": "uint256",
          "name": "_harvestInterval",
          "type": "uint256"
        },
        {
          "internalType": "uint256",
          "name": "_maxWithdrawalInterval",
          "type": "uint256"
        },
        {
          "internalType": "uint16",
          "name": "_withDrawalFeeOfLpsBurn",
          "type": "uint16"
        },
        {
          "internalType": "uint16",
          "name": "_withDrawalFeeOfLpsTeam",
          "type": "uint16"
        },
        {
          "internalType": "uint16",
          "name": "_performanceFeesOfNativeTokensBurn",
          "type": "uint16"
        },
        {
          "internalType": "uint16",
          "name": "_performanceFeesOfNativeTokensToLockedVault",
          "type": "uint16"
        }
      ],
      "name": "addPool",
      "outputs": [],
      "stateMutability": "nonpayable",
      "type": "function"
    },
    {
      "inputs": [
        {
          "internalType": "address",
          "name": "_token",
          "type": "address"
        },
        {
          "internalType": "address",
          "name": "_tokenRoute",
          "type": "address"
        },
        {
          "internalType": "bool",
          "name": "_directBNB",
          "type": "bool"
        }
      ],
      "name": "addRouteToPathFinder",
      "outputs": [],
      "stateMutability": "nonpayable",
      "type": "function"
    },
    {
      "inputs": [
        {
          "internalType": "uint256",
          "name": "_pid",
          "type": "uint256"
        },
        {
          "internalType": "address",
          "name": "_user",
          "type": "address"
        }
      ],
      "name": "canHarvest",
      "outputs": [
        {
          "internalType": "bool",
          "name": "",
          "type": "bool"
        }
      ],
      "stateMutability": "view",
      "type": "function"
    },
    {
      "inputs": [],
      "name": "counterForTransfers",
      "outputs": [
        {
          "internalType": "uint16",
          "name": "",
          "type": "uint16"
        }
      ],
      "stateMutability": "view",
      "type": "function"
    },
    {
      "inputs": [
        {
          "internalType": "uint256",
          "name": "_pid",
          "type": "uint256"
        },
        {
          "internalType": "uint256",
          "name": "_amount",
          "type": "uint256"
        }
      ],
      "name": "deposit",
      "outputs": [],
      "stateMutability": "nonpayable",
      "type": "function"
    },
    {
      "inputs": [
        {
          "internalType": "uint256",
          "name": "_pid",
          "type": "uint256"
        }
      ],
      "name": "emergencyWithdraw",
      "outputs": [],
      "stateMutability": "nonpayable",
      "type": "function"
    },
    {
      "inputs": [
        {
          "internalType": "uint256",
          "name": "_amount",
          "type": "uint256"
        }
      ],
      "name": "enterStaking",
      "outputs": [],
      "stateMutability": "nonpayable",
      "type": "function"
    },
    {
      "inputs": [],
      "name": "getLockedVaultAddress",
      "outputs": [
        {
          "internalType": "address",
          "name": "",
          "type": "address"
        }
      ],
      "stateMutability": "view",
      "type": "function"
    },
    {
      "inputs": [],
      "name": "getMintNotifierAddress",
      "outputs": [
        {
          "internalType": "address",
          "name": "",
          "type": "address"
        }
      ],
      "stateMutability": "view",
      "type": "function"
    },
    {
      "inputs": [
        {
          "internalType": "uint256",
          "name": "_from",
          "type": "uint256"
        },
        {
          "internalType": "uint256",
          "name": "_to",
          "type": "uint256"
        }
      ],
      "name": "getMultiplier",
      "outputs": [
        {
          "internalType": "uint256",
          "name": "",
          "type": "uint256"
        }
      ],
      "stateMutability": "view",
      "type": "function"
    },
    {
      "inputs": [
        {
          "internalType": "address",
          "name": "addr",
          "type": "address"
        }
      ],
      "name": "isAddressWhitelisted",
      "outputs": [
        {
          "internalType": "bool",
          "name": "success",
          "type": "bool"
        }
      ],
      "stateMutability": "view",
      "type": "function"
    },
    {
      "inputs": [
        {
          "internalType": "address",
          "name": "account",
          "type": "address"
        }
      ],
      "name": "isMinter",
      "outputs": [
        {
          "internalType": "bool",
          "name": "",
          "type": "bool"
        }
      ],
      "stateMutability": "view",
      "type": "function"
    },
    {
      "inputs": [],
      "name": "isSAFU",
      "outputs": [
        {
          "internalType": "bool",
          "name": "",
          "type": "bool"
        }
      ],
      "stateMutability": "view",
      "type": "function"
    },
    {
      "inputs": [
        {
          "internalType": "uint256",
          "name": "_pid",
          "type": "uint256"
        },
        {
          "internalType": "address",
          "name": "_user",
          "type": "address"
        }
      ],
      "name": "isWhitelistedUser",
      "outputs": [
        {
          "internalType": "bool",
          "name": "",
          "type": "bool"
        }
      ],
      "stateMutability": "view",
      "type": "function"
    },
    {
      "inputs": [
        {
          "internalType": "uint256",
          "name": "_amount",
          "type": "uint256"
        }
      ],
      "name": "leaveStaking",
      "outputs": [],
      "stateMutability": "nonpayable",
      "type": "function"
    },
    {
      "inputs": [],
      "name": "massUpdatePools",
      "outputs": [],
      "stateMutability": "nonpayable",
      "type": "function"
    },
    {
      "inputs": [],
      "name": "masterChefInternal",
      "outputs": [
        {
          "internalType": "contract MasterChefInternal",
          "name": "",
          "type": "address"
        }
      ],
      "stateMutability": "view",
      "type": "function"
    },
    {
      "inputs": [
        {
          "internalType": "uint256",
          "name": "_quantityToMint",
          "type": "uint256"
        },
        {
          "internalType": "address",
          "name": "userFor",
          "type": "address"
        }
      ],
      "name": "mintNativeTokens",
      "outputs": [],
      "stateMutability": "nonpayable",
      "type": "function"
    },
    {
      "inputs": [],
      "name": "mintNotifier",
      "outputs": [
        {
          "internalType": "contract IMintNotifier",
          "name": "",
          "type": "address"
        }
      ],
      "stateMutability": "view",
      "type": "function"
    },
    {
      "inputs": [],
      "name": "nativeToken",
      "outputs": [
        {
          "internalType": "contract NativeToken",
          "name": "",
          "type": "address"
        }
      ],
      "stateMutability": "view",
      "type": "function"
    },
    {
      "inputs": [
        {
          "internalType": "address",
          "name": "account",
          "type": "address"
        }
      ],
      "name": "nativeTokenAddBlacklisted",
      "outputs": [],
      "stateMutability": "nonpayable",
      "type": "function"
    },
    {
      "inputs": [],
      "name": "nativeTokenLockedVaultAddr",
      "outputs": [
        {
          "internalType": "address",
          "name": "",
          "type": "address"
        }
      ],
      "stateMutability": "view",
      "type": "function"
    },
    {
      "inputs": [],
      "name": "nativeTokenPerBlock",
      "outputs": [
        {
          "internalType": "uint256",
          "name": "",
          "type": "uint256"
        }
      ],
      "stateMutability": "view",
      "type": "function"
    },
    {
      "inputs": [
        {
          "internalType": "address",
          "name": "account",
          "type": "address"
        }
      ],
      "name": "nativeTokenRemoveBlacklisted",
      "outputs": [],
      "stateMutability": "nonpayable",
      "type": "function"
    },
    {
      "inputs": [],
      "name": "owner",
      "outputs": [
        {
          "internalType": "address",
          "name": "",
          "type": "address"
        }
      ],
      "stateMutability": "view",
      "type": "function"
    },
    {
      "inputs": [],
      "name": "pathFinder",
      "outputs": [
        {
          "internalType": "contract IPathFinder",
          "name": "",
          "type": "address"
        }
      ],
      "stateMutability": "view",
      "type": "function"
    },
    {
      "inputs": [
        {
          "internalType": "uint256",
          "name": "_pid",
          "type": "uint256"
        },
        {
          "internalType": "address",
          "name": "_user",
          "type": "address"
        }
      ],
      "name": "pendingNativeToken",
      "outputs": [
        {
          "internalType": "uint256",
          "name": "",
          "type": "uint256"
        }
      ],
      "stateMutability": "view",
      "type": "function"
    },
    {
      "inputs": [
        {
          "internalType": "contract IBEP20",
          "name": "",
          "type": "address"
        }
      ],
      "name": "poolExistence",
      "outputs": [
        {
          "internalType": "bool",
          "name": "",
          "type": "bool"
        }
      ],
      "stateMutability": "view",
      "type": "function"
    },
    {
      "inputs": [
        {
          "internalType": "uint256",
          "name": "",
          "type": "uint256"
        }
      ],
      "name": "poolInfo",
      "outputs": [
        {
          "internalType": "contract IBEP20",
          "name": "lpToken",
          "type": "address"
        },
        {
          "internalType": "uint256",
          "name": "allocPoint",
          "type": "uint256"
        },
        {
          "internalType": "uint256",
          "name": "lastRewardBlock",
          "type": "uint256"
        },
        {
          "internalType": "uint256",
          "name": "accNativeTokenPerShare",
          "type": "uint256"
        },
        {
          "internalType": "uint256",
          "name": "harvestInterval",
          "type": "uint256"
        },
        {
          "internalType": "uint256",
          "name": "maxWithdrawalInterval",
          "type": "uint256"
        },
        {
          "internalType": "uint16",
          "name": "withDrawalFeeOfLpsBurn",
          "type": "uint16"
        },
        {
          "internalType": "uint16",
          "name": "withDrawalFeeOfLpsTeam",
          "type": "uint16"
        },
        {
          "internalType": "uint16",
          "name": "performanceFeesOfNativeTokensBurn",
          "type": "uint16"
        },
        {
          "internalType": "uint16",
          "name": "performanceFeesOfNativeTokensToLockedVault",
          "type": "uint16"
        }
      ],
      "stateMutability": "view",
      "type": "function"
    },
    {
      "inputs": [],
      "name": "poolLength",
      "outputs": [
        {
          "internalType": "uint256",
          "name": "",
          "type": "uint256"
        }
      ],
      "stateMutability": "view",
      "type": "function"
    },
    {
      "inputs": [
        {
          "internalType": "address",
          "name": "addr",
          "type": "address"
        }
      ],
      "name": "removeAddressFromWhitelist",
      "outputs": [
        {
          "internalType": "bool",
          "name": "success",
          "type": "bool"
        }
      ],
      "stateMutability": "nonpayable",
      "type": "function"
    },
    {
      "inputs": [
        {
          "internalType": "address[]",
          "name": "addrs",
          "type": "address[]"
        }
      ],
      "name": "removeAddressesFromWhitelist",
      "outputs": [
        {
          "internalType": "bool",
          "name": "success",
          "type": "bool"
        }
      ],
      "stateMutability": "nonpayable",
      "type": "function"
    },
    {
      "inputs": [
        {
          "internalType": "address",
          "name": "_token",
          "type": "address"
        }
      ],
      "name": "removeRouteToPathFinder",
      "outputs": [],
      "stateMutability": "nonpayable",
      "type": "function"
    },
    {
      "inputs": [],
      "name": "renounceDevPower",
      "outputs": [],
      "stateMutability": "nonpayable",
      "type": "function"
    },
    {
      "inputs": [],
      "name": "renounceOwnership",
      "outputs": [],
      "stateMutability": "nonpayable",
      "type": "function"
    },
    {
      "inputs": [],
      "name": "routerGlobal",
      "outputs": [
        {
          "internalType": "contract IRouterV2",
          "name": "",
          "type": "address"
        }
      ],
      "stateMutability": "view",
      "type": "function"
    },
    {
      "inputs": [],
      "name": "safu",
      "outputs": [
        {
          "internalType": "bool",
          "name": "",
          "type": "bool"
        }
      ],
      "stateMutability": "view",
      "type": "function"
    },
    {
      "inputs": [
        {
          "internalType": "address",
          "name": "_newLockedVault",
          "type": "address"
        }
      ],
      "name": "setLockedVaultAddress",
      "outputs": [],
      "stateMutability": "nonpayable",
      "type": "function"
    },
    {
      "inputs": [
        {
          "internalType": "address",
          "name": "_mintNotifier",
          "type": "address"
        }
      ],
      "name": "setMintNotifier",
      "outputs": [],
      "stateMutability": "nonpayable",
      "type": "function"
    },
    {
      "inputs": [
        {
          "internalType": "address",
          "name": "minter",
          "type": "address"
        },
        {
          "internalType": "bool",
          "name": "canMint",
          "type": "bool"
        }
      ],
      "name": "setMinter",
      "outputs": [],
      "stateMutability": "nonpayable",
      "type": "function"
    },
    {
      "inputs": [
        {
          "internalType": "address",
          "name": "_pathFinder",
          "type": "address"
        }
      ],
      "name": "setPathFinder",
      "outputs": [],
      "stateMutability": "nonpayable",
      "type": "function"
    },
    {
      "inputs": [
        {
          "internalType": "uint256",
          "name": "_pid",
          "type": "uint256"
        },
        {
          "internalType": "uint256",
          "name": "_allocPoint",
          "type": "uint256"
        },
        {
          "internalType": "uint256",
          "name": "_harvestInterval",
          "type": "uint256"
        },
        {
          "internalType": "uint256",
          "name": "_maxWithdrawalInterval",
          "type": "uint256"
        },
        {
          "internalType": "uint16",
          "name": "_withDrawalFeeOfLpsBurn",
          "type": "uint16"
        },
        {
          "internalType": "uint16",
          "name": "_withDrawalFeeOfLpsTeam",
          "type": "uint16"
        },
        {
          "internalType": "uint16",
          "name": "_performanceFeesOfNativeTokensBurn",
          "type": "uint16"
        },
        {
          "internalType": "uint16",
          "name": "_performanceFeesOfNativeTokensToLockedVault",
          "type": "uint16"
        }
      ],
      "name": "setPool",
      "outputs": [],
      "stateMutability": "nonpayable",
      "type": "function"
    },
    {
      "inputs": [
        {
          "internalType": "address",
          "name": "_router",
          "type": "address"
        }
      ],
      "name": "setRouter",
      "outputs": [],
      "stateMutability": "nonpayable",
      "type": "function"
    },
    {
      "inputs": [
        {
          "internalType": "bool",
          "name": "_safu",
          "type": "bool"
        }
      ],
      "name": "setSAFU",
      "outputs": [],
      "stateMutability": "nonpayable",
      "type": "function"
    },
    {
      "inputs": [
        {
          "internalType": "address",
          "name": "_treasury",
          "type": "address"
        }
      ],
      "name": "setTreasury",
      "outputs": [],
      "stateMutability": "nonpayable",
      "type": "function"
    },
    {
      "inputs": [
        {
          "internalType": "address",
          "name": "_treasuryLP",
          "type": "address"
        }
      ],
      "name": "setTreasuryLP",
      "outputs": [],
      "stateMutability": "nonpayable",
      "type": "function"
    },
    {
      "inputs": [
        {
          "internalType": "uint256",
          "name": "_pid",
          "type": "uint256"
        },
        {
          "internalType": "address",
          "name": "_user",
          "type": "address"
        },
        {
          "internalType": "bool",
          "name": "isWhitelisted",
          "type": "bool"
        }
      ],
      "name": "setWhitelistedUser",
      "outputs": [],
      "stateMutability": "nonpayable",
      "type": "function"
    },
    {
      "inputs": [],
      "name": "startBlock",
      "outputs": [
        {
          "internalType": "uint256",
          "name": "",
          "type": "uint256"
        }
      ],
      "stateMutability": "view",
      "type": "function"
    },
    {
      "inputs": [],
      "name": "tokenAddresses",
      "outputs": [
        {
          "internalType": "contract TokenAddresses",
          "name": "",
          "type": "address"
        }
      ],
      "stateMutability": "view",
      "type": "function"
    },
    {
      "inputs": [],
      "name": "totalAllocPoint",
      "outputs": [
        {
          "internalType": "uint256",
          "name": "",
          "type": "uint256"
        }
      ],
      "stateMutability": "view",
      "type": "function"
    },
    {
      "inputs": [],
      "name": "totalFeesToBoostLocked",
      "outputs": [
        {
          "internalType": "uint256",
          "name": "",
          "type": "uint256"
        }
      ],
      "stateMutability": "view",
      "type": "function"
    },
    {
      "inputs": [],
      "name": "totalFeesToBurn",
      "outputs": [
        {
          "internalType": "uint256",
          "name": "",
          "type": "uint256"
        }
      ],
      "stateMutability": "view",
      "type": "function"
    },
    {
      "inputs": [],
      "name": "totalLockedUpRewards",
      "outputs": [
        {
          "internalType": "uint256",
          "name": "",
          "type": "uint256"
        }
      ],
      "stateMutability": "view",
      "type": "function"
    },
    {
      "inputs": [
        {
          "internalType": "address",
          "name": "newDevPower",
          "type": "address"
        }
      ],
      "name": "transferDevPower",
      "outputs": [],
      "stateMutability": "nonpayable",
      "type": "function"
    },
    {
      "inputs": [
        {
          "internalType": "address",
          "name": "newOwner",
          "type": "address"
        }
      ],
      "name": "transferOwnership",
      "outputs": [],
      "stateMutability": "nonpayable",
      "type": "function"
    },
    {
      "inputs": [],
      "name": "treasury",
      "outputs": [
        {
          "internalType": "address",
          "name": "",
          "type": "address"
        }
      ],
      "stateMutability": "view",
      "type": "function"
    },
    {
      "inputs": [],
      "name": "treasuryLP",
      "outputs": [
        {
          "internalType": "address",
          "name": "",
          "type": "address"
        }
      ],
      "stateMutability": "view",
      "type": "function"
    },
    {
      "inputs": [
        {
          "internalType": "uint256",
          "name": "_nativeTokenPerBlock",
          "type": "uint256"
        }
      ],
      "name": "updateEmissionRate",
      "outputs": [],
      "stateMutability": "nonpayable",
      "type": "function"
    },
    {
      "inputs": [
        {
          "internalType": "uint256",
          "name": "multiplierNumber",
          "type": "uint256"
        }
      ],
      "name": "updateMultiplier",
      "outputs": [],
      "stateMutability": "nonpayable",
      "type": "function"
    },
    {
      "inputs": [
        {
          "internalType": "uint256",
          "name": "_pid",
          "type": "uint256"
        }
      ],
      "name": "updatePool",
      "outputs": [],
      "stateMutability": "nonpayable",
      "type": "function"
    },
    {
      "inputs": [
        {
          "internalType": "uint256",
          "name": "",
          "type": "uint256"
        },
        {
          "internalType": "address",
          "name": "",
          "type": "address"
        }
      ],
      "name": "userInfo",
      "outputs": [
        {
          "internalType": "uint256",
          "name": "amount",
          "type": "uint256"
        },
        {
          "internalType": "uint256",
          "name": "rewardDebt",
          "type": "uint256"
        },
        {
          "internalType": "uint256",
          "name": "rewardLockedUp",
          "type": "uint256"
        },
        {
          "internalType": "uint256",
          "name": "nextHarvestUntil",
          "type": "uint256"
        },
        {
          "internalType": "uint256",
          "name": "withdrawalOrPerformanceFees",
          "type": "uint256"
        },
        {
          "internalType": "bool",
          "name": "whitelisted",
          "type": "bool"
        }
      ],
      "stateMutability": "view",
      "type": "function"
    },
    {
      "inputs": [
        {
          "internalType": "address",
          "name": "",
          "type": "address"
        }
      ],
      "name": "whitelist",
      "outputs": [
        {
          "internalType": "bool",
          "name": "",
          "type": "bool"
        }
      ],
      "stateMutability": "view",
      "type": "function"
    },
    {
      "inputs": [
        {
          "internalType": "uint256",
          "name": "_pid",
          "type": "uint256"
        },
        {
          "internalType": "uint256",
          "name": "_amount",
          "type": "uint256"
        }
      ],
      "name": "withdraw",
      "outputs": [],
      "stateMutability": "nonpayable",
      "type": "function"
    },
    {
      "inputs": [
        {
          "internalType": "uint256",
          "name": "_pid",
          "type": "uint256"
        },
        {
          "internalType": "address",
          "name": "_user",
          "type": "address"
        }
      ],
      "name": "withdrawalOrPerformanceFee",
      "outputs": [
        {
          "internalType": "bool",
          "name": "",
          "type": "bool"
        }
      ],
      "stateMutability": "view",
      "type": "function"
    }
  ],
  "bytecode": "0x60806040526006805460ff60a01b1916600160a01b1790556001600b556000600d819055600e819055600f805461ffff191690556011553480156200004357600080fd5b5060405162004dd338038062004dd3833981810160405260e08110156200006957600080fd5b508051602082015160408301516060840151608085015160a086015160c09096015194959394929391929091906000620000a2620003a6565b600080546001600160a01b0319166001600160a01b0383169081178255604051929350917f8be0079c531659141344cd1fd0a4f28419497f9722a3daafe3b4186f6b6457e0908290a3506000620000f8620003a6565b600180546001600160a01b0319166001600160a01b038316908117909155604051919250906000907f7a6fa3fe09154b47b93710b30e5c7871c09ba0dd8d1cc6aea92508170157971f908290a35060016002819055601780546001600160a01b03199081166001600160a01b039a8b1617909155600580548216988a169889179055600a96909655601285905560088054339088168117909155600980548816909117905560048054871694891694909417909355600680548616928816929092179091556015805485169187169190911790556040805161014081018252948552600060208601818152918601938452606086018181526080870182815260a0880183815260c0890184815260e08a018581526101008b018681526101208c01878152600c80549a8b0181559097529a517fdf6966c971051c3d54ec59162606531493a51404a002842f56009d7e5cf4a8c760079099029889018054909b169c169b909b1790985593517fdf6966c971051c3d54ec59162606531493a51404a002842f56009d7e5cf4a8c886015594517fdf6966c971051c3d54ec59162606531493a51404a002842f56009d7e5cf4a8c9850155517fdf6966c971051c3d54ec59162606531493a51404a002842f56009d7e5cf4a8ca84015592517fdf6966c971051c3d54ec59162606531493a51404a002842f56009d7e5cf4a8cb830155517fdf6966c971051c3d54ec59162606531493a51404a002842f56009d7e5cf4a8cc82015591517fdf6966c971051c3d54ec59162606531493a51404a002842f56009d7e5cf4a8cd909201805494519351915161ffff1990951661ffff9384161763ffff0000191662010000948416949094029390931761ffff60201b1916640100000000918316919091021761ffff60301b191666010000000000009190931602919091179055620003aa565b3390565b614a1980620003ba6000396000f3fe608060405234801561001057600080fd5b50600436106104de5760003560e01c806377e046e811610286578063af2cea5d1161016b578063e02cc52b116100e3578063f2fde38b11610097578063fc5c46401161007c578063fc5c464014610dc0578063fccc281314610df8578063fede611414610e00576104de565b8063f2fde38b14610d3f578063f84ee42f14610d65576104de565b8063e2bbb158116100c8578063e2bbb15814610c86578063e2ec6ec314610ca9578063f0f4426014610d19576104de565b8063e02cc52b14610c52578063e1758bd814610c7e576104de565b8063c0d786551161013a578063cf456ae71161011f578063cf456ae714610bf6578063d4194a2114610c24578063dc643e5914610c2c576104de565b8063c0d7865514610baa578063cbd258b514610bd0576104de565b8063af2cea5d14610b66578063b481092d14610b92578063b732981014610b9a578063bbe9738a14610ba2576104de565b80638ec23bb9116101fe5780639df0da5d116101cd578063a9989b93116101b2578063a9989b9314610b30578063aa271e1a14610b38578063aa629dac14610b5e576104de565b80639df0da5d14610b02578063a2bad89514610b0a576104de565b80638ec23bb914610a4d5780639311069714610a7357806393f1a40b14610a7b5780639b19251a14610adc576104de565b80638785b98e116102555780638aa285501161023a5780638aa2855014610a1a5780638da5cb5b14610a225780638dbb1e3a14610a2a576104de565b80638785b98e146109de5780638a1f33a6146109e6576104de565b806377e046e8146109565780637b9417c81461095e5780637f4887391461098457806386e07fd01461098c576104de565b80633a932c25116103c7578063621744a21161033f5780636d5548ed116102f3578063715018a6116102d8578063715018a614610927578063757a232d1461092f57806377b37d561461094e576104de565b80636d5548ed146108f95780636f488e9714610901576104de565b8063630b5ba111610324578063630b5ba1146108e157806367b26af7146108e95780636b74c67f146108f1576104de565b8063621744a2146108d157806362c10d54146108d9576104de565b806348cd4cb1116103965780635312ea8e1161037b5780635312ea8e1461088f5780635ffe6146146108ac57806361d027b3146108c9576104de565b806348cd4cb11461086a57806351eb05a614610872576104de565b80633a932c25146107f657806341441d3b14610822578063441a3e701461083f578063474fa63014610862576104de565b806324953eaa1161045a5780632a60656e116104295780632cce9ae61161040e5780632cce9ae6146107785780632e6c998d146107a45780633575597d146107d0576104de565b80632a60656e1461074c5780632b8a262114610770576104de565b806324953eaa1461066a5780632769b724146106da5780632793fe4114610700578063286dd3f514610726576104de565b806313f44d10116104b157806317caf6f11161049657806317caf6f11461061d5780631d0560351461062557806320a5dab41461064b576104de565b806313f44d101461055f5780631526fe2714610599576104de565b8063081e3eda146104e35780630ba84cd2146104fd5780631058d2811461051c57806311eaa92014610539575b600080fd5b6104eb610e08565b60408051918252519081900360200190f35b61051a6004803603602081101561051357600080fd5b5035610e0e565b005b61051a6004803603602081101561053257600080fd5b5035610eb1565b61051a6004803603602081101561054f57600080fd5b50356001600160a01b03166110e6565b6105856004803603602081101561057557600080fd5b50356001600160a01b03166111c0565b604080519115158252519081900360200190f35b6105b6600480360360208110156105af57600080fd5b5035611239565b604080516001600160a01b03909b168b5260208b0199909952898901979097526060890195909552608088019390935260a087019190915261ffff90811660c087015290811660e08601529081166101008501521661012083015251908190036101400190f35b6104eb6112b5565b61051a6004803603602081101561063b57600080fd5b50356001600160a01b03166112bb565b610653611335565b6040805161ffff9092168252519081900360200190f35b6105856004803603602081101561068057600080fd5b81019060208101813564010000000081111561069b57600080fd5b8201836020820111156106ad57600080fd5b803590602001918460208302840111640100000000831117156106cf57600080fd5b50909250905061133b565b61051a600480360360208110156106f057600080fd5b50356001600160a01b03166113dd565b61051a6004803603602081101561071657600080fd5b50356001600160a01b031661149c565b6105856004803603602081101561073c57600080fd5b50356001600160a01b03166114fc565b6107546115d5565b604080516001600160a01b039092168252519081900360200190f35b6104eb6115e4565b6105856004803603604081101561078e57600080fd5b50803590602001356001600160a01b03166115ea565b610585600480360360408110156107ba57600080fd5b50803590602001356001600160a01b031661161a565b610585600480360360208110156107e657600080fd5b50356001600160a01b031661165b565b6105856004803603604081101561080c57600080fd5b50803590602001356001600160a01b0316611670565b61051a6004803603602081101561083857600080fd5b503561169e565b61051a6004803603604081101561085557600080fd5b5080359060200135611878565b6104eb611abc565b6104eb611ac2565b61051a6004803603602081101561088857600080fd5b5035611ac8565b61051a600480360360208110156108a557600080fd5b5035611cf8565b61051a600480360360208110156108c257600080fd5b5035611e69565b610754611ec6565b61051a611ed5565b610754611f73565b61051a611f82565b610585611fa5565b610754611fb5565b610754611fc4565b61051a6004803603602081101561091757600080fd5b50356001600160a01b0316611fd3565b61051a612092565b61051a6004803603602081101561094557600080fd5b50351515612134565b6107546121c1565b6107546121d0565b6105856004803603602081101561097457600080fd5b50356001600160a01b03166121df565b6107546122b9565b61051a60048036036101008110156109a357600080fd5b5080359060208101359060408101359060608101359061ffff608082013581169160a081013582169160c082013581169160e00135166122c8565b6105856125e7565b61051a600480360360608110156109fc57600080fd5b508035906001600160a01b03602082013516906040013515156125f7565b6104eb612687565b61075461268d565b6104eb60048036036040811015610a4057600080fd5b508035906020013561269c565b61051a60048036036020811015610a6357600080fd5b50356001600160a01b03166126b7565b6104eb612776565b610aa760048036036040811015610a9157600080fd5b50803590602001356001600160a01b031661277c565b6040805196875260208701959095528585019390935260608501919091526080840152151560a0830152519081900360c00190f35b61058560048036036020811015610af257600080fd5b50356001600160a01b03166127bf565b6106536127d4565b61051a60048036036020811015610b2057600080fd5b50356001600160a01b03166127de565b6107546128b2565b61058560048036036020811015610b4e57600080fd5b50356001600160a01b03166128c1565b61075461297c565b61051a60048036036040811015610b7c57600080fd5b50803590602001356001600160a01b031661298b565b610754612b6e565b6104eb612b7d565b610653612b83565b61051a60048036036020811015610bc057600080fd5b50356001600160a01b0316612b88565b61058560048036036020811015610be657600080fd5b50356001600160a01b0316612c02565b61051a60048036036040811015610c0c57600080fd5b506001600160a01b0381351690602001351515612c17565b610754612cc0565b61051a60048036036020811015610c4257600080fd5b50356001600160a01b0316612ccf565b6104eb60048036036040811015610c6857600080fd5b50803590602001356001600160a01b0316612d8e565b610754612f84565b61051a60048036036040811015610c9c57600080fd5b5080359060200135612f93565b61058560048036036020811015610cbf57600080fd5b810190602081018135640100000000811115610cda57600080fd5b820183602082011115610cec57600080fd5b80359060200191846020830284011164010000000083111715610d0e57600080fd5b509092509050613183565b61051a60048036036020811015610d2f57600080fd5b50356001600160a01b031661321e565b61051a60048036036020811015610d5557600080fd5b50356001600160a01b03166132dd565b61051a6004803603610100811015610d7c57600080fd5b508035906001600160a01b036020820135169060408101359060608101359061ffff608082013581169160a081013582169160c082013581169160e001351661333e565b61051a60048036036060811015610dd657600080fd5b506001600160a01b038135811691602081013590911690604001351515613841565b61075461392d565b6104eb613933565b600c5490565b610e1661393a565b6000546001600160a01b03908116911614610e66576040805162461bcd60e51b8152602060048201819052602482015260008051602061483b833981519152604482015290519081900360640190fd5b610e6e611f82565b600a546040805191825260208201839052805133927feedc6338c9c1ad8f3cd6c90dd09dbe98dbd57e610d3e59a17996d07acb0d951192908290030190a2600a55565b3360009081526003602052604090205460ff16610eff5760405162461bcd60e51b81526004018080602001828103825260318152602001806147a16031913960400191505060405180910390fd5b600280541415610f56576040805162461bcd60e51b815260206004820152601f60248201527f5265656e7472616e637947756172643a207265656e7472616e742063616c6c00604482015290519081900360640190fd5b600280819055506000600c600081548110610f6d57fe5b600091825260208083203384527f6e0956cda88cad152e89927e53611735b61a5c762d1428573c6931b0a5efcb019091526040909220805460079092029092019250831115611003576040805162461bcd60e51b815260206004820152601260248201527f77697468647261773a206e6f7420676f6f640000000000000000000000000000604482015290519081900360640190fd5b61100d6000611ac8565b6000611047826001015461104164e8d4a5100061103b8760030154876000015461393e90919063ffffffff16565b90613997565b906139fe565b90508015611059576110593382613a5b565b831561108357815461106b90856139fe565b82558254611083906001600160a01b03163386613be9565b6003830154825461109e9164e8d4a510009161103b9161393e565b600183015560408051858152905160009133917ff279e6a1f5e320cca91135676d9cb6e44ca8a08c0b88342bcdb1144f6511b5689181900360200190a3505060016002555050565b6110ee61393a565b6000546001600160a01b0390811691161461113e576040805162461bcd60e51b8152602060048201819052602482015260008051602061483b833981519152604482015290519081900360640190fd5b600554604080517fc6a276c20000000000000000000000000000000000000000000000000000000081526001600160a01b0384811660048301529151919092169163c6a276c291602480830192600092919082900301818387803b1580156111a557600080fd5b505af11580156111b9573d6000803e3d6000fd5b5050505050565b60006111ca61393a565b6000546001600160a01b0390811691161461121a576040805162461bcd60e51b8152602060048201819052602482015260008051602061483b833981519152604482015290519081900360640190fd5b506001600160a01b031660009081526003602052604090205460ff1690565b600c818154811061124657fe5b600091825260209091206007909102018054600182015460028301546003840154600485015460058601546006909601546001600160a01b039095169650929491939092919061ffff80821691620100008104821691640100000000820481169166010000000000009004168a565b60115481565b6112c361393a565b6000546001600160a01b03908116911614611313576040805162461bcd60e51b8152602060048201819052602482015260008051602061483b833981519152604482015290519081900360640190fd5b601680546001600160a01b0319166001600160a01b0392909216919091179055565b6101f481565b600061134561393a565b6000546001600160a01b03908116911614611395576040805162461bcd60e51b8152602060048201819052602482015260008051602061483b833981519152604482015290519081900360640190fd5b60005b828110156113d6576113c48484838181106113af57fe5b905060200201356001600160a01b03166114fc565b156113ce57600191505b600101611398565b5092915050565b6113e561393a565b6000546001600160a01b03908116911614611435576040805162461bcd60e51b8152602060048201819052602482015260008051602061483b833981519152604482015290519081900360640190fd5b601754604080517f2769b7240000000000000000000000000000000000000000000000000000000081526001600160a01b03848116600483015291519190921691632769b72491602480830192600092919082900301818387803b1580156111a557600080fd5b6114a461393a565b6001546001600160a01b039081169116146114f05760405162461bcd60e51b815260040180806020018281038252602b8152602001806146ac602b913960400191505060405180910390fd5b6114f981613c50565b50565b600061150661393a565b6000546001600160a01b03908116911614611556576040805162461bcd60e51b8152602060048201819052602482015260008051602061483b833981519152604482015290519081900360640190fd5b6001600160a01b03821660009081526003602052604090205460ff16156115d0576001600160a01b038216600081815260036020908152604091829020805460ff19169055815192835290517ff1abf01a1043b7c244d128e8595cf0c1d10743b022b03a02dffd8ca3bf729f5a9281900390910190a15060015b919050565b6007546001600160a01b031681565b600e5481565b60008281526010602090815260408083206001600160a01b038516845290915290206005015460ff165b92915050565b60008281526010602090815260408083206001600160a01b038516845290915281206003810154421015806116535750600581015460ff165b949350505050565b60146020526000908152604090205460ff1681565b60009182526010602090815260408084206001600160a01b0393909316845291905290206004015442101590565b3360009081526003602052604090205460ff166116ec5760405162461bcd60e51b81526004018080602001828103825260318152602001806147a16031913960400191505060405180910390fd5b600280541415611743576040805162461bcd60e51b815260206004820152601f60248201527f5265656e7472616e637947756172643a207265656e7472616e742063616c6c00604482015290519081900360640190fd5b600280819055506000600c60008154811061175a57fe5b600091825260208083203384527f6e0956cda88cad152e89927e53611735b61a5c762d1428573c6931b0a5efcb01909152604083206007909202019250906117a190611ac8565b8054156117ea5760006117d6826001015461104164e8d4a5100061103b8760030154876000015461393e90919063ffffffff16565b905080156117e8576117e83382613a5b565b505b8215611816578154611807906001600160a01b0316333086613cf1565b80546118139084613d7f565b81555b600382015481546118319164e8d4a510009161103b9161393e565b600182015560408051848152905160009133917f90890809c654f11d6e72a28fa60149770a0d11ec6c92319d6ceb2bb0a4ea1a159181900360200190a35050600160025550565b6002805414156118cf576040805162461bcd60e51b815260206004820152601f60248201527f5265656e7472616e637947756172643a207265656e7472616e742063616c6c00604482015290519081900360640190fd5b6002805581611925576040805162461bcd60e51b815260206004820152601c60248201527f776974686472617720474c4f42414c20627920756e7374616b696e6700000000604482015290519081900360640190fd5b600c54821061197b576040805162461bcd60e51b815260206004820152601c60248201527f5468697320706f6f6c20646f6573206e6f742065786973742079657400000000604482015290519081900360640190fd5b6000600c838154811061198a57fe5b6000918252602080832086845260108252604080852033865290925292208054600790920290920192508311156119f25760405162461bcd60e51b815260040180806020018281038252605a815260200180614652605a913960600191505060405180910390fd5b826119fc85611ac8565b6000611a0786613dd9565b90508415611a585780158015611a225750600583015460ff16155b15611a3457611a318686614138565b91505b8254611a4090866139fe565b83558354611a58906001600160a01b03163384613be9565b60038401548354611a739164e8d4a510009161103b9161393e565b6001840155604080518681529051879133917ff279e6a1f5e320cca91135676d9cb6e44ca8a08c0b88342bcdb1144f6511b5689181900360200190a35050600160025550505050565b60135481565b60125481565b80611ad2576114f9565b6000600c8281548110611ae157fe5b9060005260206000209060070201905080600201544311611b0257506114f9565b8054604080516370a0823160e01b815230600482015290516000926001600160a01b0316916370a08231916024808301926020929190829003018186803b158015611b4c57600080fd5b505afa158015611b60573d6000803e3d6000fd5b505050506040513d6020811015611b7657600080fd5b5051905080611b8c5750436002909101556114f9565b6000611b9c83600201544361269c565b90506000611bc960115461103b8660010154611bc3600a548761393e90919063ffffffff16565b9061393e565b6005546008549192506001600160a01b0390811691630bedd3a79116611bf084600a613997565b6040518363ffffffff1660e01b815260040180836001600160a01b0316815260200182815260200192505050600060405180830381600087803b158015611c3657600080fd5b505af1158015611c4a573d6000803e3d6000fd5b505060055460408051630bedd3a760e01b81523060048201526024810186905290516001600160a01b039092169350630bedd3a7925060448082019260009290919082900301818387803b158015611ca157600080fd5b505af1158015611cb5573d6000803e3d6000fd5b50505050611ce3611cd88461103b64e8d4a510008561393e90919063ffffffff16565b600386015490613d7f565b60038501555050436002909201919091555050565b600280541415611d4f576040805162461bcd60e51b815260206004820152601f60248201527f5265656e7472616e637947756172643a207265656e7472616e742063616c6c00604482015290519081900360640190fd5b60028055600081815260106020908152604080832033845290915290208054611d785750611e61565b8054600c80546000919085908110611d8c57fe5b90600052602060002090600702019050600660149054906101000a900460ff168015611dbf5750611dbd8433611670565b155b8015611dd05750600583015460ff16155b15611de657611de3848460000154614138565b91505b8254600080855560018501819055600285018190556003850181905560048501558154611e1d906001600160a01b03163385613be9565b60408051828152602081018590528151879233927f2369db1bafee945aee5630782f4a170682e3f8188d8dc247a4c73eb8c9e692d2929081900390910190a3505050505b506001600255565b611e7161393a565b6000546001600160a01b03908116911614611ec1576040805162461bcd60e51b8152602060048201819052602482015260008051602061483b833981519152604482015290519081900360640190fd5b600b55565b6008546001600160a01b031681565b611edd61393a565b6001546001600160a01b03908116911614611f295760405162461bcd60e51b815260040180806020018281038252602b8152602001806146ac602b913960400191505060405180910390fd5b6001546040516000916001600160a01b0316907f7a6fa3fe09154b47b93710b30e5c7871c09ba0dd8d1cc6aea92508170157971f908390a3600180546001600160a01b0319169055565b6009546001600160a01b031681565b600c5460005b81811015611fa157611f9981611ac8565b600101611f88565b5050565b600654600160a01b900460ff1681565b6015546001600160a01b031681565b6017546001600160a01b031681565b611fdb61393a565b6000546001600160a01b0390811691161461202b576040805162461bcd60e51b8152602060048201819052602482015260008051602061483b833981519152604482015290519081900360640190fd5b6001600160a01b0381166120705760405162461bcd60e51b81526004018080602001828103825260298152602001806145c56029913960400191505060405180910390fd5b600980546001600160a01b0319166001600160a01b0392909216919091179055565b61209a61393a565b6000546001600160a01b039081169116146120ea576040805162461bcd60e51b8152602060048201819052602482015260008051602061483b833981519152604482015290519081900360640190fd5b600080546040516001600160a01b03909116907f8be0079c531659141344cd1fd0a4f28419497f9722a3daafe3b4186f6b6457e0908390a3600080546001600160a01b0319169055565b61213c61393a565b6001546001600160a01b039081169116146121885760405162461bcd60e51b815260040180806020018281038252602b8152602001806146ac602b913960400191505060405180910390fd5b60068054911515600160a01b027fffffffffffffffffffffff00ffffffffffffffffffffffffffffffffffffffff909216919091179055565b6004546001600160a01b031681565b6001546001600160a01b031690565b60006121e961393a565b6000546001600160a01b03908116911614612239576040805162461bcd60e51b8152602060048201819052602482015260008051602061483b833981519152604482015290519081900360640190fd5b6001600160a01b03821660009081526003602052604090205460ff166115d0576001600160a01b038216600081815260036020908152604091829020805460ff19166001179055815192835290517fd1bba68c128cc3f427e5831b3c6f99f480b6efa6b9e80c757768f6124158cc3f9281900390910190a1506001919050565b6016546001600160a01b031690565b6122d061393a565b6000546001600160a01b03908116911614612320576040805162461bcd60e51b8152602060048201819052602482015260008051602061483b833981519152604482015290519081900360640190fd5b62278d008611156123625760405162461bcd60e51b81526004018080602001828103825260218152602001806147296021913960400191505060405180910390fd5b62278d008511156123a45760405162461bcd60e51b81526004018080602001828103825260528152602001806146d76052913960600191505060405180910390fd5b60966123b761ffff858116908716613d7f565b11156123f45760405162461bcd60e51b815260040180806020018281038252606381526020018061485b6063913960800191505060405180910390fd5b6101f461240861ffff848116908416613d7f565b11156124455760405162461bcd60e51b81526004018080602001828103825260648152602001806149806064913960800191505060405180910390fd5b61244d611f82565b61248a87612484600c8b8154811061246157fe5b9060005260206000209060070201600101546011546139fe90919063ffffffff16565b90613d7f565b60118190555086600c898154811061249e57fe5b90600052602060002090600702016001018190555085600c89815481106124c157fe5b90600052602060002090600702016004018190555084600c89815481106124e457fe5b90600052602060002090600702016005018190555083600c898154811061250757fe5b906000526020600020906007020160060160006101000a81548161ffff021916908361ffff16021790555082600c898154811061254057fe5b906000526020600020906007020160060160026101000a81548161ffff021916908361ffff16021790555081600c898154811061257957fe5b906000526020600020906007020160060160046101000a81548161ffff021916908361ffff16021790555080600c89815481106125b257fe5b906000526020600020906007020160060160066101000a81548161ffff021916908361ffff1602179055505050505050505050565b600654600160a01b900460ff1690565b6125ff61393a565b6000546001600160a01b0390811691161461264f576040805162461bcd60e51b8152602060048201819052602482015260008051602061483b833981519152604482015290519081900360640190fd5b60009283526010602090815260408085206001600160a01b039490941685529290529120600501805460ff1916911515919091179055565b600b5481565b6000546001600160a01b031690565b600b546000906126b090611bc384866139fe565b9392505050565b6126bf61393a565b6000546001600160a01b0390811691161461270f576040805162461bcd60e51b8152602060048201819052602482015260008051602061483b833981519152604482015290519081900360640190fd5b600554604080517f188efc160000000000000000000000000000000000000000000000000000000081526001600160a01b0384811660048301529151919092169163188efc1691602480830192600092919082900301818387803b1580156111a557600080fd5b600d5481565b6010602090815260009283526040808420909152908252902080546001820154600283015460038401546004850154600590950154939492939192909160ff1686565b60036020526000908152604090205460ff1681565b600f5461ffff1681565b6127e661393a565b6000546001600160a01b03908116911614612836576040805162461bcd60e51b8152602060048201819052602482015260008051602061483b833981519152604482015290519081900360640190fd5b601580546001600160a01b0319166001600160a01b03838116918217909255601754604080517fab4dfb4900000000000000000000000000000000000000000000000000000000815260048101939093525192169163ab4dfb499160248082019260009290919082900301818387803b1580156111a557600080fd5b6006546001600160a01b031681565b6000306001600160a01b0316600560009054906101000a90046001600160a01b03166001600160a01b031663893d20e86040518163ffffffff1660e01b815260040160206040518083038186803b15801561291b57600080fd5b505afa15801561292f573d6000803e3d6000fd5b505050506040513d602081101561294557600080fd5b50516001600160a01b03161461295d575060006115d0565b506001600160a01b031660009081526014602052604090205460ff1690565b6007546001600160a01b031690565b3360009081526014602052604090205460ff1615156001146129de5760405162461bcd60e51b81526004018080602001828103825260298152602001806149576029913960400191505060405180910390fd5b6005546008546001600160a01b0391821691630bedd3a79116612a0285600a613997565b6040518363ffffffff1660e01b815260040180836001600160a01b0316815260200182815260200192505050600060405180830381600087803b158015612a4857600080fd5b505af1158015612a5c573d6000803e3d6000fd5b505060055460408051630bedd3a760e01b81523360048201526024810187905290516001600160a01b039092169350630bedd3a7925060448082019260009290919082900301818387803b158015612ab357600080fd5b505af1158015612ac7573d6000803e3d6000fd5b50506016546001600160a01b0316159150611fa1905057601654604080517fe718851d0000000000000000000000000000000000000000000000000000000081523360048201526001600160a01b038481166024830152604482018690529151919092169163e718851d91606480830192600092919082900301818387803b158015612b5257600080fd5b505af1158015612b66573d6000803e3d6000fd5b505050505050565b6001546001600160a01b031681565b600a5481565b609681565b612b9061393a565b6000546001600160a01b03908116911614612be0576040805162461bcd60e51b8152602060048201819052602482015260008051602061483b833981519152604482015290519081900360640190fd5b600480546001600160a01b0319166001600160a01b0392909216919091179055565b60186020526000908152604090205460ff1681565b612c1f61393a565b6000546001600160a01b03908116911614612c6f576040805162461bcd60e51b8152602060048201819052602482015260008051602061483b833981519152604482015290519081900360640190fd5b8015612c9e576001600160a01b0382166000908152601460205260409020805460ff1916821515179055611fa1565b506001600160a01b03166000908152601460205260409020805460ff19169055565b6016546001600160a01b031681565b612cd761393a565b6000546001600160a01b03908116911614612d27576040805162461bcd60e51b8152602060048201819052602482015260008051602061483b833981519152604482015290519081900360640190fd5b6001600160a01b038116612d6c5760405162461bcd60e51b81526004018080602001828103825260478152602001806148be6047913960600191505060405180910390fd5b600780546001600160a01b0319166001600160a01b0392909216919091179055565b600082612d9d57506000611614565b6000600c8481548110612dac57fe5b600091825260208083208784526010825260408085206001600160a01b0389811687529084528186206007959095029092016003810154815483516370a0823160e01b815230600482015293519298509596909590949316926370a082319260248082019391829003018186803b158015612e2657600080fd5b505afa158015612e3a573d6000803e3d6000fd5b505050506040513d6020811015612e5057600080fd5b505190506000612e608888611670565b9050846002015443118015612e7457508115155b15612ed4576000612e8986600201544361269c565b90506000612eb060115461103b8960010154611bc3600a548761393e90919063ffffffff16565b9050612ecf612ec88561103b8464e8d4a5100061393e565b8690613d7f565b945050505b6000612efe856001015461104164e8d4a5100061103b888a6000015461393e90919063ffffffff16565b9050612f17856002015482613d7f90919063ffffffff16565b9050818015612f2b5750600585015460ff16155b15612f78576006860154612f7590612f6e906127109061103b90612f679061ffff64010000000082048116916601000000000000900416613d7f565b859061393e565b82906139fe565b90505b98975050505050505050565b6005546001600160a01b031681565b600280541415612fea576040805162461bcd60e51b815260206004820152601f60248201527f5265656e7472616e637947756172643a207265656e7472616e742063616c6c00604482015290519081900360640190fd5b6002805581613040576040805162461bcd60e51b815260206004820152601960248201527f6465706f73697420474c4f42414c206279207374616b696e6700000000000000604482015290519081900360640190fd5b600c548210613096576040805162461bcd60e51b815260206004820152601c60248201527f5468697320706f6f6c20646f6573206e6f742065786973742079657400000000604482015290519081900360640190fd5b6000600c83815481106130a557fe5b600091825260208083208684526010825260408085203386529092529220600790910290910191506130d684611ac8565b6130df84613dd9565b5082156131215781546130fd906001600160a01b0316333086613cf1565b80546131099084613d7f565b8155600582015461311b904290613d7f565b60048201555b6003820154815461313c9164e8d4a510009161103b9161393e565b6001820155604080518481529051859133917f90890809c654f11d6e72a28fa60149770a0d11ec6c92319d6ceb2bb0a4ea1a159181900360200190a3505060016002555050565b600061318d61393a565b6000546001600160a01b039081169116146131dd576040805162461bcd60e51b8152602060048201819052602482015260008051602061483b833981519152604482015290519081900360640190fd5b60005b828110156113d65761320c8484838181106131f757fe5b905060200201356001600160a01b03166121df565b1561321657600191505b6001016131e0565b61322661393a565b6000546001600160a01b03908116911614613276576040805162461bcd60e51b8152602060048201819052602482015260008051602061483b833981519152604482015290519081900360640190fd5b6001600160a01b0381166132bb5760405162461bcd60e51b81526004018080602001828103825260278152602001806147d26027913960400191505060405180910390fd5b600880546001600160a01b0319166001600160a01b0392909216919091179055565b6132e561393a565b6000546001600160a01b03908116911614613335576040805162461bcd60e51b8152602060048201819052602482015260008051602061483b833981519152604482015290519081900360640190fd5b6114f9816141f0565b61334661393a565b6000546001600160a01b03908116911614613396576040805162461bcd60e51b8152602060048201819052602482015260008051602061483b833981519152604482015290519081900360640190fd5b6001600160a01b038716600090815260186020526040902054879060ff1615613406576040805162461bcd60e51b815260206004820152601960248201527f6e6f6e4475706c6963617465643a206475706c69636174656400000000000000604482015290519081900360640190fd5b62278d008711156134485760405162461bcd60e51b815260040180806020018281038252602181526020018061481a6021913960400191505060405180910390fd5b62278d0086111561348a5760405162461bcd60e51b81526004018080602001828103825260528152602001806149056052913960600191505060405180910390fd5b609661349d61ffff868116908816613d7f565b11156134da5760405162461bcd60e51b81526004018080602001828103825260638152602001806145126063913960800191505060405180910390fd5b6101f46134ee61ffff858116908516613d7f565b111561352b5760405162461bcd60e51b81526004018080602001828103825260648152602001806145ee6064913960800191505060405180910390fd5b601754604080517ffff9694d0000000000000000000000000000000000000000000000000000000081526001600160a01b038b811660048301529151919092169163fff9694d9160248083019260209291908290030181600087803b15801561359357600080fd5b505af11580156135a7573d6000803e3d6000fd5b505050506040513d60208110156135bd57600080fd5b50516135fa5760405162461bcd60e51b815260040180806020018281038252602681526020018061477b6026913960400191505060405180910390fd5b613602611f82565b6000601254431161361557601254613617565b435b601154909150613627908b613d7f565b6011556001600160a01b039889166000818152601860209081526040808320805460ff191660019081179091558151610140810183529485529184019d8e52830193845260608301828152608084019b8c5260a084019a8b5261ffff998a1660c08501908152988a1660e08501908152978a166101008501908152968a166101208501908152600c80549384018155909352925160079091027fdf6966c971051c3d54ec59162606531493a51404a002842f56009d7e5cf4a8c78101805492909d166001600160a01b031990921691909117909b559a517fdf6966c971051c3d54ec59162606531493a51404a002842f56009d7e5cf4a8c88b015590517fdf6966c971051c3d54ec59162606531493a51404a002842f56009d7e5cf4a8c98a0155517fdf6966c971051c3d54ec59162606531493a51404a002842f56009d7e5cf4a8ca8901555094517fdf6966c971051c3d54ec59162606531493a51404a002842f56009d7e5cf4a8cb87015592517fdf6966c971051c3d54ec59162606531493a51404a002842f56009d7e5cf4a8cc860155517fdf6966c971051c3d54ec59162606531493a51404a002842f56009d7e5cf4a8cd9094018054925193519551821666010000000000000267ffff000000000000199683166401000000000265ffff0000000019958416620100000263ffff0000199790941661ffff19909516949094179590951691909117929092161792909216179055565b61384961393a565b6000546001600160a01b03908116911614613899576040805162461bcd60e51b8152602060048201819052602482015260008051602061483b833981519152604482015290519081900360640190fd5b601754604080517ffc5c46400000000000000000000000000000000000000000000000000000000081526001600160a01b038681166004830152858116602483015284151560448301529151919092169163fc5c464091606480830192600092919082900301818387803b15801561391057600080fd5b505af1158015613924573d6000803e3d6000fd5b50505050505050565b61dead81565b62278d0081565b3390565b60008261394d57506000611614565b8282028284828161395a57fe5b04146126b05760405162461bcd60e51b81526004018080602001828103825260218152602001806147f96021913960400191505060405180910390fd5b60008082116139ed576040805162461bcd60e51b815260206004820152601a60248201527f536166654d6174683a206469766973696f6e206279207a65726f000000000000604482015290519081900360640190fd5b8183816139f657fe5b049392505050565b600082821115613a55576040805162461bcd60e51b815260206004820152601e60248201527f536166654d6174683a207375627472616374696f6e206f766572666c6f770000604482015290519081900360640190fd5b50900390565b600554604080516370a0823160e01b815230600482015290516000926001600160a01b0316916370a08231916024808301926020929190829003018186803b158015613aa657600080fd5b505afa158015613aba573d6000803e3d6000fd5b505050506040513d6020811015613ad057600080fd5b5051905080821115613b64576005546040805163a9059cbb60e01b81526001600160a01b038681166004830152602482018590529151919092169163a9059cbb9160448083019260209291908290030181600087803b158015613b3257600080fd5b505af1158015613b46573d6000803e3d6000fd5b505050506040513d6020811015613b5c57600080fd5b50613be49050565b6005546040805163a9059cbb60e01b81526001600160a01b038681166004830152602482018690529151919092169163a9059cbb9160448083019260209291908290030181600087803b158015613bba57600080fd5b505af1158015613bce573d6000803e3d6000fd5b505050506040513d60208110156111b957600080fd5b505050565b604080516001600160a01b038416602482015260448082018490528251808303909101815260649091019091526020810180517bffffffffffffffffffffffffffffffffffffffffffffffffffffffff1663a9059cbb60e01b179052613be4908490614290565b6001600160a01b038116613c955760405162461bcd60e51b815260040180806020018281038252603181526020018061474a6031913960400191505060405180910390fd5b6001546040516001600160a01b038084169216907f7a6fa3fe09154b47b93710b30e5c7871c09ba0dd8d1cc6aea92508170157971f90600090a3600180546001600160a01b0319166001600160a01b0392909216919091179055565b604080516001600160a01b0380861660248301528416604482015260648082018490528251808303909101815260849091019091526020810180517bffffffffffffffffffffffffffffffffffffffffffffffffffffffff167f23b872dd00000000000000000000000000000000000000000000000000000000179052613d79908590614290565b50505050565b6000828201838110156126b0576040805162461bcd60e51b815260206004820152601b60248201527f536166654d6174683a206164646974696f6e206f766572666c6f770000000000604482015290519081900360640190fd5b600080600c8381548110613de957fe5b6000918252602080832086845260108252604080852033808752935284206007909302019350909190613e1d908690611670565b9050816003015460001415613e42576004830154613e3c904290613d7f565b60038301555b6000613e70836001015461104164e8d4a5100061103b8860030154886000015461393e90919063ffffffff16565b9050613e7c863361161a565b156140cd576000811180613e94575060008360020154115b156140c8576000613eb2846002015483613d7f90919063ffffffff16565b9050613ecd84600201546013546139fe90919063ffffffff16565b601355600060028501556004850154613ee7904290613d7f565b6003850155600584015460ff166140bc57600f805461ffff8082166001011661ffff199091161790558215613fbe576006850154613f4790613f3e906127109061103b908590640100000000900461ffff1661393e565b600d5490613d7f565b600d556006850154613f7d90613f74906127109061103b9085906601000000000000900461ffff1661393e565b600e5490613d7f565b600e556006850154613fb790612f6e906127109061103b90612f679061ffff64010000000082048116916601000000000000900416613d7f565b905061406c565b6006850154613fed90613f3e906127109061103b90600290611bc3908790640100000000900461ffff1661393e565b600d55600685015461402190613f74906127109061103b90600290611bc39087906601000000000000900461ffff1661393e565b600e55600685015461406990612f6e906127109061103b90600290611bc3906140629061ffff64010000000082048116916601000000000000900416613d7f565b879061393e565b90505b600f54601961ffff90911611156140bc57600f805461ffff19169055600d546140989061dead90613a5b565b6000600d55600754600e546140b6916001600160a01b031690613a5b565b6000600e555b6140c63382613a5b565b505b61412f565b801561412f5760028301546140e29082613d7f565b60028401556013546140f49082613d7f565b601355604080518281529051879133917fee470483107f579a55c754fa00613c45a9a3b617a418b39cb0be97e5381ba7c19181900360200190a35b50949350505050565b600080600c848154811061414857fe5b6000918252602082206006600790920201908101549092506141959061418e906127109061103b906141879061ffff8082169162010000900416613d7f565b889061393e565b85906139fe565b9050838114611653576009546006830154611653916001600160a01b0316906141de906127109061103b906141d79061ffff8082169162010000900416613d7f565b899061393e565b84546001600160a01b03169190613be9565b6001600160a01b0381166142355760405162461bcd60e51b815260040180806020018281038252602681526020018061459f6026913960400191505060405180910390fd5b600080546040516001600160a01b03808516939216917f8be0079c531659141344cd1fd0a4f28419497f9722a3daafe3b4186f6b6457e091a3600080546001600160a01b0319166001600160a01b0392909216919091179055565b60606142e5826040518060400160405280602081526020017f5361666542455032303a206c6f772d6c6576656c2063616c6c206661696c6564815250856001600160a01b03166143419092919063ffffffff16565b805190915015613be45780806020019051602081101561430457600080fd5b5051613be45760405162461bcd60e51b815260040180806020018281038252602a815260200180614575602a913960400191505060405180910390fd5b606061165384846000858561435585614467565b6143a6576040805162461bcd60e51b815260206004820152601d60248201527f416464726573733a2063616c6c20746f206e6f6e2d636f6e7472616374000000604482015290519081900360640190fd5b60006060866001600160a01b031685876040518082805190602001908083835b602083106143e55780518252601f1990920191602091820191016143c6565b6001836020036101000a03801982511681845116808217855250505050505090500191505060006040518083038185875af1925050503d8060008114614447576040519150601f19603f3d011682016040523d82523d6000602084013e61444c565b606091505b509150915061445c82828661446d565b979650505050505050565b3b151590565b6060831561447c5750816126b0565b82511561448c5782518084602001fd5b8160405162461bcd60e51b81526004018080602001828103825283818151815260200191508051906020019080838360005b838110156144d65781810151838201526020016144be565b50505050905090810190601f1680156145035780820380516001836020036101000a031916815260200191505b509250505060405180910390fdfe5b665d204164643a20696e76616c6964207769746864726177616c20666565732e204f776e65722c20796f752061726520747279696e6720746f206368617267652077617920746f6f206d7563682120436865636b20796f7572206e756d626572732e5361666542455032303a204245503230206f7065726174696f6e20646964206e6f7420737563636565644f776e61626c653a206e6577206f776e657220697320746865207a65726f20616464726573735b665d204465763a205f74726561737572794c502063616e277420626520616464726573732830292e5b665d204164643a20696e76616c696420706572666f726d616e636520666565732e204f776e65722c20796f752061726520747279696e6720746f206368617267652077617920746f6f206d7563682120436865636b20796f7572206e756d626572732e5b665d2057697468647261773a20796f752061726520747279696e6720746f207769746864726177206d6f726520746f6b656e73207468616e20796f7520686176652e20436865656b7920626f792e2054727920616761696e2e446576506f7765723a2063616c6c6572206973206e6f742074686520646576207769746820706f776572735b665d205365743a20696e76616c6964207769746864726177616c20696e74657276616c2e204f776e65722c2074686572652069732061206c696d69742120436865636b20796f7572206e756d626572732e5b665d205365743a20696e76616c6964206861727665737420696e74657276616c446576506f7765723a206e657720646576207769746820706f7765727320697320746865207a65726f20616464726573735b665d204164643a20746f6b656e2f73206e6f7420636f6e6e656374656420746f2057424e42596f7520617265206e6f7420747275737465643a20796f7520617265206e6f7420696e207468652077686974656c6973745b665d204465763a205f74726561737572792063616e277420626520616464726573732830292e536166654d6174683a206d756c7469706c69636174696f6e206f766572666c6f775b665d204164643a20696e76616c6964206861727665737420696e74657276616c4f776e61626c653a2063616c6c6572206973206e6f7420746865206f776e65725b665d205365743a20696e76616c6964207769746864726177616c20666565732e204f776e65722c20796f752061726520747279696e6720746f206368617267652077617920746f6f206d7563682120436865636b20796f7572206e756d626572732e286629205365744c6f636b65645661756c74416464726573733a20796f752063616e27742073657420746865206c6f636b6564207661756c74206164647265737320746f20302e5b665d204164643a20696e76616c6964207769746864726177616c20696e74657276616c2e204f776e65722c2074686572652069732061206c696d69742120436865636b20796f7572206e756d626572732e5b665d204f6e6c794d696e7465723a2063616c6c6572206973206e6f7420746865206d696e7465722e5b665d205365743a20696e76616c696420706572666f726d616e636520666565732e204f776e65722c20796f752061726520747279696e6720746f206368617267652077617920746f6f206d7563682120436865636b20796f7572206e756d626572732ea2646970667358221220bb0d4f6771e9955936fe9d92a272c58c26f63fe1e4088b6a658e2dfe7e01c0b764736f6c634300060c0033",
  "linkReferences": {},
  "deployedLinkReferences": {}
}