{
  "_format": "hh-sol-artifact-1",
  "contractName": "BEP20",
  "sourceName": "contracts/Tokens/BEP20.sol",
  "abi": [
    {
      "inputs": [
        {
          "internalType": "string",
          "name": "name",
          "type": "string"
        },
        {
          "internalType": "string",
          "name": "symbol",
          "type": "string"
        }
      ],
      "stateMutability": "nonpayable",
      "type": "constructor"
    },
    {
      "anonymous": false,
      "inputs": [
        {
          "indexed": true,
          "internalType": "address",
          "name": "owner",
          "type": "address"
        },
        {
          "indexed": true,
          "internalType": "address",
          "name": "spender",
          "type": "address"
        },
        {
          "indexed": false,
          "internalType": "uint256",
          "name": "value",
          "type": "uint256"
        }
      ],
      "name": "Approval",
      "type": "event"
    },
    {
      "anonymous": false,
      "inputs": [
        {
          "indexed": true,
          "internalType": "address",
          "name": "previousDevPower",
          "type": "address"
        },
        {
          "indexed": true,
          "internalType": "address",
          "name": "newDevPower",
          "type": "address"
        }
      ],
      "name": "DevPowerTransferred",
      "type": "event"
    },
    {
      "anonymous": false,
      "inputs": [
        {
          "indexed": true,
          "internalType": "address",
          "name": "previousOwner",
          "type": "address"
        },
        {
          "indexed": true,
          "internalType": "address",
          "name": "newOwner",
          "type": "address"
        }
      ],
      "name": "OwnershipTransferred",
      "type": "event"
    },
    {
      "anonymous": false,
      "inputs": [
        {
          "indexed": true,
          "internalType": "address",
          "name": "from",
          "type": "address"
        },
        {
          "indexed": true,
          "internalType": "address",
          "name": "to",
          "type": "address"
        },
        {
          "indexed": false,
          "internalType": "uint256",
          "name": "value",
          "type": "uint256"
        }
      ],
      "name": "Transfer",
      "type": "event"
    },
    {
      "inputs": [],
      "name": "GetDevPowerAddress",
      "outputs": [
        {
          "internalType": "address",
          "name": "",
          "type": "address"
        }
      ],
      "stateMutability": "view",
      "type": "function"
    },
    {
      "inputs": [],
      "name": "_devPower",
      "outputs": [
        {
          "internalType": "address",
          "name": "",
          "type": "address"
        }
      ],
      "stateMutability": "view",
      "type": "function"
    },
    {
      "inputs": [
        {
          "internalType": "address",
          "name": "owner",
          "type": "address"
        },
        {
          "internalType": "address",
          "name": "spender",
          "type": "address"
        }
      ],
      "name": "allowance",
      "outputs": [
        {
          "internalType": "uint256",
          "name": "",
          "type": "uint256"
        }
      ],
      "stateMutability": "view",
      "type": "function"
    },
    {
      "inputs": [
        {
          "internalType": "address",
          "name": "spender",
          "type": "address"
        },
        {
          "internalType": "uint256",
          "name": "amount",
          "type": "uint256"
        }
      ],
      "name": "approve",
      "outputs": [
        {
          "internalType": "bool",
          "name": "",
          "type": "bool"
        }
      ],
      "stateMutability": "nonpayable",
      "type": "function"
    },
    {
      "inputs": [
        {
          "internalType": "address",
          "name": "account",
          "type": "address"
        }
      ],
      "name": "balanceOf",
      "outputs": [
        {
          "internalType": "uint256",
          "name": "",
          "type": "uint256"
        }
      ],
      "stateMutability": "view",
      "type": "function"
    },
    {
      "inputs": [],
      "name": "decimals",
      "outputs": [
        {
          "internalType": "uint8",
          "name": "",
          "type": "uint8"
        }
      ],
      "stateMutability": "view",
      "type": "function"
    },
    {
      "inputs": [
        {
          "internalType": "address",
          "name": "spender",
          "type": "address"
        },
        {
          "internalType": "uint256",
          "name": "subtractedValue",
          "type": "uint256"
        }
      ],
      "name": "decreaseAllowance",
      "outputs": [
        {
          "internalType": "bool",
          "name": "",
          "type": "bool"
        }
      ],
      "stateMutability": "nonpayable",
      "type": "function"
    },
    {
      "inputs": [],
      "name": "getOwner",
      "outputs": [
        {
          "internalType": "address",
          "name": "",
          "type": "address"
        }
      ],
      "stateMutability": "view",
      "type": "function"
    },
    {
      "inputs": [
        {
          "internalType": "address",
          "name": "spender",
          "type": "address"
        },
        {
          "internalType": "uint256",
          "name": "addedValue",
          "type": "uint256"
        }
      ],
      "name": "increaseAllowance",
      "outputs": [
        {
          "internalType": "bool",
          "name": "",
          "type": "bool"
        }
      ],
      "stateMutability": "nonpayable",
      "type": "function"
    },
    {
      "inputs": [
        {
          "internalType": "uint256",
          "name": "amount",
          "type": "uint256"
        }
      ],
      "name": "mint",
      "outputs": [
        {
          "internalType": "bool",
          "name": "",
          "type": "bool"
        }
      ],
      "stateMutability": "nonpayable",
      "type": "function"
    },
    {
      "inputs": [],
      "name": "name",
      "outputs": [
        {
          "internalType": "string",
          "name": "",
          "type": "string"
        }
      ],
      "stateMutability": "view",
      "type": "function"
    },
    {
      "inputs": [],
      "name": "owner",
      "outputs": [
        {
          "internalType": "address",
          "name": "",
          "type": "address"
        }
      ],
      "stateMutability": "view",
      "type": "function"
    },
    {
      "inputs": [],
      "name": "renounceDevPower",
      "outputs": [],
      "stateMutability": "nonpayable",
      "type": "function"
    },
    {
      "inputs": [],
      "name": "renounceOwnership",
      "outputs": [],
      "stateMutability": "nonpayable",
      "type": "function"
    },
    {
      "inputs": [],
      "name": "symbol",
      "outputs": [
        {
          "internalType": "string",
          "name": "",
          "type": "string"
        }
      ],
      "stateMutability": "view",
      "type": "function"
    },
    {
      "inputs": [],
      "name": "totalSupply",
      "outputs": [
        {
          "internalType": "uint256",
          "name": "",
          "type": "uint256"
        }
      ],
      "stateMutability": "view",
      "type": "function"
    },
    {
      "inputs": [
        {
          "internalType": "address",
          "name": "recipient",
          "type": "address"
        },
        {
          "internalType": "uint256",
          "name": "amount",
          "type": "uint256"
        }
      ],
      "name": "transfer",
      "outputs": [
        {
          "internalType": "bool",
          "name": "",
          "type": "bool"
        }
      ],
      "stateMutability": "nonpayable",
      "type": "function"
    },
    {
      "inputs": [
        {
          "internalType": "address",
          "name": "newDevPower",
          "type": "address"
        }
      ],
      "name": "transferDevPower",
      "outputs": [],
      "stateMutability": "nonpayable",
      "type": "function"
    },
    {
      "inputs": [
        {
          "internalType": "address",
          "name": "sender",
          "type": "address"
        },
        {
          "internalType": "address",
          "name": "recipient",
          "type": "address"
        },
        {
          "internalType": "uint256",
          "name": "amount",
          "type": "uint256"
        }
      ],
      "name": "transferFrom",
      "outputs": [
        {
          "internalType": "bool",
          "name": "",
          "type": "bool"
        }
      ],
      "stateMutability": "nonpayable",
      "type": "function"
    },
    {
      "inputs": [
        {
          "internalType": "address",
          "name": "newOwner",
          "type": "address"
        }
      ],
      "name": "transferOwnership",
      "outputs": [],
      "stateMutability": "nonpayable",
      "type": "function"
    }
  ],
  "bytecode": "0x60806040523480156200001157600080fd5b506040516200146738038062001467833981810160405260408110156200003757600080fd5b81019080805160405193929190846401000000008211156200005857600080fd5b9083019060208201858111156200006e57600080fd5b82516401000000008111828201881017156200008957600080fd5b82525081516020918201929091019080838360005b83811015620000b85781810151838201526020016200009e565b50505050905090810190601f168015620000e65780820380516001836020036101000a031916815260200191505b50604052602001805160405193929190846401000000008211156200010a57600080fd5b9083019060208201858111156200012057600080fd5b82516401000000008111828201881017156200013b57600080fd5b82525081516020918201929091019080838360005b838110156200016a57818101518382015260200162000150565b50505050905090810190601f168015620001985780820380516001836020036101000a031916815260200191505b506040525050506000620001b16200029660201b60201c565b600080546001600160a01b0319166001600160a01b0383169081178255604051929350917f8be0079c531659141344cd1fd0a4f28419497f9722a3daafe3b4186f6b6457e0908290a35060006200020762000296565b600180546001600160a01b0319166001600160a01b038316908117909155604051919250906000907f7a6fa3fe09154b47b93710b30e5c7871c09ba0dd8d1cc6aea92508170157971f908290a35081516200026a9060059060208501906200029a565b508051620002809060069060208401906200029a565b50506007805460ff191660121790555062000336565b3390565b828054600181600116156101000203166002900490600052602060002090601f016020900481019282601f10620002dd57805160ff19168380011785556200030d565b828001600101855582156200030d579182015b828111156200030d578251825591602001919060010190620002f0565b506200031b9291506200031f565b5090565b5b808211156200031b576000815560010162000320565b61112180620003466000396000f3fe608060405234801561001057600080fd5b506004361061016c5760003560e01c806377e046e8116100cd578063a457c2d711610081578063b481092d11610066578063b481092d146103d7578063dd62ed3e146103df578063f2fde38b1461040d5761016c565b8063a457c2d71461037f578063a9059cbb146103ab5761016c565b80638da5cb5b116100b25780638da5cb5b1461035257806395d89b411461035a578063a0712d68146103625761016c565b806377e046e814610326578063893d20e81461034a5761016c565b8063313ce56711610124578063621744a211610109578063621744a2146102f057806370a08231146102f8578063715018a61461031e5761016c565b8063313ce567146102a657806339509351146102c45761016c565b806318160ddd1161015557806318160ddd1461022e57806323b872dd146102485780632793fe411461027e5761016c565b806306fdde0314610171578063095ea7b3146101ee575b600080fd5b610179610433565b6040805160208082528351818301528351919283929083019185019080838360005b838110156101b357818101518382015260200161019b565b50505050905090810190601f1680156101e05780820380516001836020036101000a031916815260200191505b509250505060405180910390f35b61021a6004803603604081101561020457600080fd5b506001600160a01b0381351690602001356104c9565b604080519115158252519081900360200190f35b6102366104e6565b60408051918252519081900360200190f35b61021a6004803603606081101561025e57600080fd5b506001600160a01b038135811691602081013590911690604001356104ec565b6102a46004803603602081101561029457600080fd5b50356001600160a01b0316610573565b005b6102ae6105d3565b6040805160ff9092168252519081900360200190f35b61021a600480360360408110156102da57600080fd5b506001600160a01b0381351690602001356105dc565b6102a461062a565b6102366004803603602081101561030e57600080fd5b50356001600160a01b03166106d5565b6102a46106f0565b61032e6107b1565b604080516001600160a01b039092168252519081900360200190f35b61032e6107c0565b61032e6107cf565b6101796107de565b61021a6004803603602081101561037857600080fd5b503561083f565b61021a6004803603604081101561039557600080fd5b506001600160a01b0381351690602001356108c4565b61021a600480360360408110156103c157600080fd5b506001600160a01b03813516906020013561092c565b61032e610940565b610236600480360360408110156103f557600080fd5b506001600160a01b038135811691602001351661094f565b6102a46004803603602081101561042357600080fd5b50356001600160a01b031661097a565b60058054604080516020601f60026000196101006001881615020190951694909404938401819004810282018101909252828152606093909290918301828280156104bf5780601f10610494576101008083540402835291602001916104bf565b820191906000526020600020905b8154815290600101906020018083116104a257829003601f168201915b5050505050905090565b60006104dd6104d66109ed565b84846109f1565b50600192915050565b60045490565b60006104f9848484610add565b610569846105056109ed565b61056485604051806060016040528060288152602001610fd8602891396001600160a01b038a166000908152600360205260408120906105436109ed565b6001600160a01b031681526020810191909152604001600020549190610c2f565b6109f1565b5060019392505050565b61057b6109ed565b6001546001600160a01b039081169116146105c75760405162461bcd60e51b815260040180806020018281038252602b815260200180611000602b913960400191505060405180910390fd5b6105d081610cc6565b50565b60075460ff1690565b60006104dd6105e96109ed565b8461056485600360006105fa6109ed565b6001600160a01b03908116825260208083019390935260409182016000908120918c168152925290205490610d74565b6106326109ed565b6001546001600160a01b0390811691161461067e5760405162461bcd60e51b815260040180806020018281038252602b815260200180611000602b913960400191505060405180910390fd5b6001546040516000916001600160a01b0316907f7a6fa3fe09154b47b93710b30e5c7871c09ba0dd8d1cc6aea92508170157971f908390a36001805473ffffffffffffffffffffffffffffffffffffffff19169055565b6001600160a01b031660009081526002602052604090205490565b6106f86109ed565b6000546001600160a01b0390811691161461075a576040805162461bcd60e51b815260206004820181905260248201527f4f776e61626c653a2063616c6c6572206973206e6f7420746865206f776e6572604482015290519081900360640190fd5b600080546040516001600160a01b03909116907f8be0079c531659141344cd1fd0a4f28419497f9722a3daafe3b4186f6b6457e0908390a36000805473ffffffffffffffffffffffffffffffffffffffff19169055565b6001546001600160a01b031690565b60006107ca6107cf565b905090565b6000546001600160a01b031690565b60068054604080516020601f60026000196101006001881615020190951694909404938401819004810282018101909252828152606093909290918301828280156104bf5780601f10610494576101008083540402835291602001916104bf565b60006108496109ed565b6000546001600160a01b039081169116146108ab576040805162461bcd60e51b815260206004820181905260248201527f4f776e61626c653a2063616c6c6572206973206e6f7420746865206f776e6572604482015290519081900360640190fd5b6108bc6108b66109ed565b83610dd5565b506001919050565b60006104dd6108d16109ed565b84610564856040518060600160405280602581526020016110a560259139600360006108fb6109ed565b6001600160a01b03908116825260208083019390935260409182016000908120918d16815292529020549190610c2f565b60006104dd6109396109ed565b8484610add565b6001546001600160a01b031681565b6001600160a01b03918216600090815260036020908152604080832093909416825291909152205490565b6109826109ed565b6000546001600160a01b039081169116146109e4576040805162461bcd60e51b815260206004820181905260248201527f4f776e61626c653a2063616c6c6572206973206e6f7420746865206f776e6572604482015290519081900360640190fd5b6105d081610ebb565b3390565b6001600160a01b038316610a365760405162461bcd60e51b8152600401808060200182810382526024815260200180610f8e6024913960400191505060405180910390fd5b6001600160a01b038216610a7b5760405162461bcd60e51b81526004018080602001828103825260228152602001806110ca6022913960400191505060405180910390fd5b6001600160a01b03808416600081815260036020908152604080832094871680845294825291829020859055815185815291517f8c5be1e5ebec7d5bd14f71427d1e84f3dd0314c0f7b2291e5b200ac8c7c3b9259281900390910190a3505050565b6001600160a01b038316610b225760405162461bcd60e51b8152600401808060200182810382526025815260200180610f696025913960400191505060405180910390fd5b6001600160a01b038216610b675760405162461bcd60e51b81526004018080602001828103825260238152602001806110826023913960400191505060405180910390fd5b610ba48160405180606001604052806026815260200161105c602691396001600160a01b0386166000908152600260205260409020549190610c2f565b6001600160a01b038085166000908152600260205260408082209390935590841681522054610bd39082610d74565b6001600160a01b0380841660008181526002602090815260409182902094909455805185815290519193928716927fddf252ad1be2c89b69c2b068fc378daa952ba7f163c4a11628f55a4df523b3ef92918290030190a3505050565b60008184841115610cbe5760405162461bcd60e51b81526004018080602001828103825283818151815260200191508051906020019080838360005b83811015610c83578181015183820152602001610c6b565b50505050905090810190601f168015610cb05780820380516001836020036101000a031916815260200191505b509250505060405180910390fd5b505050900390565b6001600160a01b038116610d0b5760405162461bcd60e51b815260040180806020018281038252603181526020018061102b6031913960400191505060405180910390fd5b6001546040516001600160a01b038084169216907f7a6fa3fe09154b47b93710b30e5c7871c09ba0dd8d1cc6aea92508170157971f90600090a36001805473ffffffffffffffffffffffffffffffffffffffff19166001600160a01b0392909216919091179055565b600082820183811015610dce576040805162461bcd60e51b815260206004820152601b60248201527f536166654d6174683a206164646974696f6e206f766572666c6f770000000000604482015290519081900360640190fd5b9392505050565b6001600160a01b038216610e30576040805162461bcd60e51b815260206004820152601f60248201527f42455032303a206d696e7420746f20746865207a65726f206164647265737300604482015290519081900360640190fd5b600454610e3d9082610d74565b6004556001600160a01b038216600090815260026020526040902054610e639082610d74565b6001600160a01b03831660008181526002602090815260408083209490945583518581529351929391927fddf252ad1be2c89b69c2b068fc378daa952ba7f163c4a11628f55a4df523b3ef9281900390910190a35050565b6001600160a01b038116610f005760405162461bcd60e51b8152600401808060200182810382526026815260200180610fb26026913960400191505060405180910390fd5b600080546040516001600160a01b03808516939216917f8be0079c531659141344cd1fd0a4f28419497f9722a3daafe3b4186f6b6457e091a36000805473ffffffffffffffffffffffffffffffffffffffff19166001600160a01b039290921691909117905556fe42455032303a207472616e736665722066726f6d20746865207a65726f206164647265737342455032303a20617070726f76652066726f6d20746865207a65726f20616464726573734f776e61626c653a206e6577206f776e657220697320746865207a65726f206164647265737342455032303a207472616e7366657220616d6f756e74206578636565647320616c6c6f77616e6365446576506f7765723a2063616c6c6572206973206e6f742074686520646576207769746820706f77657273446576506f7765723a206e657720646576207769746820706f7765727320697320746865207a65726f206164647265737342455032303a207472616e7366657220616d6f756e7420657863656564732062616c616e636542455032303a207472616e7366657220746f20746865207a65726f206164647265737342455032303a2064656372656173656420616c6c6f77616e63652062656c6f77207a65726f42455032303a20617070726f766520746f20746865207a65726f2061646472657373a2646970667358221220689640dd4143029a8755c90f357247b184a1c335c96a86d22d740969b9d759b564736f6c634300060c0033",
  "linkReferences": {},
  "deployedLinkReferences": {}
}