{
  "_format": "hh-sol-artifact-1",
  "contractName": "CakeMasterChefMock",
  "sourceName": "contracts/Mocks/CakeMasterChefMock.sol",
  "abi": [
    {
      "inputs": [
        {
          "internalType": "address",
          "name": "_cake",
          "type": "address"
        }
      ],
      "stateMutability": "nonpayable",
      "type": "constructor"
    },
    {
      "inputs": [
        {
          "internalType": "uint256",
          "name": "_pid",
          "type": "uint256"
        },
        {
          "internalType": "uint256",
          "name": "_amount",
          "type": "uint256"
        }
      ],
      "name": "deposit",
      "outputs": [],
      "stateMutability": "nonpayable",
      "type": "function"
    },
    {
      "inputs": [
        {
          "internalType": "uint256",
          "name": "_amount",
          "type": "uint256"
        }
      ],
      "name": "enterStaking",
      "outputs": [],
      "stateMutability": "nonpayable",
      "type": "function"
    },
    {
      "inputs": [
        {
          "internalType": "uint256",
          "name": "_amount",
          "type": "uint256"
        }
      ],
      "name": "leaveStaking",
      "outputs": [],
      "stateMutability": "nonpayable",
      "type": "function"
    },
    {
      "inputs": [
        {
          "internalType": "uint256",
          "name": "_pid",
          "type": "uint256"
        },
        {
          "internalType": "address",
          "name": "_user",
          "type": "address"
        }
      ],
      "name": "userInfo",
      "outputs": [
        {
          "internalType": "uint256",
          "name": "amount",
          "type": "uint256"
        },
        {
          "internalType": "uint256",
          "name": "rewardDebt",
          "type": "uint256"
        }
      ],
      "stateMutability": "view",
      "type": "function"
    },
    {
      "inputs": [
        {
          "internalType": "uint256",
          "name": "_pid",
          "type": "uint256"
        },
        {
          "internalType": "uint256",
          "name": "_amount",
          "type": "uint256"
        }
      ],
      "name": "withdraw",
      "outputs": [],
      "stateMutability": "nonpayable",
      "type": "function"
    }
  ],
  "bytecode": "0x6080604052670de0b6b3a764000060025534801561001c57600080fd5b506040516108993803806108998339818101604052602081101561003f57600080fd5b5051600080546001600160a01b039092166001600160a01b0319909216919091179055610828806100716000396000f3fe608060405234801561001057600080fd5b50600436106100675760003560e01c8063441a3e7011610050578063441a3e70146100a857806393f1a40b146100cb578063e2bbb1581461011057610067565b80631058d2811461006c57806341441d3b1461008b575b600080fd5b6100896004803603602081101561008257600080fd5b5035610133565b005b610089600480360360208110156100a157600080fd5b503561013f565b610089600480360360408110156100be57600080fd5b5080359060200135610148565b6100f7600480360360408110156100e157600080fd5b50803590602001356001600160a01b0316610155565b6040805192835260208301919091528051918290030190f35b6100896004803603604081101561012657600080fd5b508035906020013561017b565b61013c81610184565b50565b61013c816102b3565b61015181610184565b5050565b6001600160a01b0316600090815260016020819052604090912080549101549092909150565b610151816102b3565b33600090815260016020526040902080548211156101e9576040805162461bcd60e51b815260206004820152601260248201527f77697468647261773a206e6f7420676f6f640000000000000000000000000000604482015290519081900360640190fd5b60008054906101000a90046001600160a01b03166001600160a01b031663a0712d6882600101546040518263ffffffff1660e01b815260040180828152602001915050602060405180830381600087803b15801561024657600080fd5b505af115801561025a573d6000803e3d6000fd5b505050506040513d602081101561027057600080fd5b5050600181015461029b903390610288908590610303565b6000546001600160a01b03169190610364565b6000600182015580546102ae90836103e9565b905550565b336000818152600160205260408120905490916102db916001600160a01b0316903085610446565b80546102e79083610303565b815560025460018201546102fa91610303565b60019091015550565b60008282018381101561035d576040805162461bcd60e51b815260206004820152601b60248201527f536166654d6174683a206164646974696f6e206f766572666c6f770000000000604482015290519081900360640190fd5b9392505050565b604080516001600160a01b038416602482015260448082018490528251808303909101815260649091019091526020810180517bffffffffffffffffffffffffffffffffffffffffffffffffffffffff167fa9059cbb000000000000000000000000000000000000000000000000000000001790526103e49084906104d4565b505050565b600082821115610440576040805162461bcd60e51b815260206004820152601e60248201527f536166654d6174683a207375627472616374696f6e206f766572666c6f770000604482015290519081900360640190fd5b50900390565b604080516001600160a01b0380861660248301528416604482015260648082018490528251808303909101815260849091019091526020810180517bffffffffffffffffffffffffffffffffffffffffffffffffffffffff167f23b872dd000000000000000000000000000000000000000000000000000000001790526104ce9085906104d4565b50505050565b6060610529826040518060400160405280602081526020017f5361666542455032303a206c6f772d6c6576656c2063616c6c206661696c6564815250856001600160a01b03166105859092919063ffffffff16565b8051909150156103e45780806020019051602081101561054857600080fd5b50516103e45760405162461bcd60e51b815260040180806020018281038252602a8152602001806107a3602a913960400191505060405180910390fd5b6060610594848460008561059c565b949350505050565b6060824710156105dd5760405162461bcd60e51b81526004018080602001828103825260268152602001806107cd6026913960400191505060405180910390fd5b6105e6856106f8565b610637576040805162461bcd60e51b815260206004820152601d60248201527f416464726573733a2063616c6c20746f206e6f6e2d636f6e7472616374000000604482015290519081900360640190fd5b60006060866001600160a01b031685876040518082805190602001908083835b602083106106765780518252601f199092019160209182019101610657565b6001836020036101000a03801982511681845116808217855250505050505090500191505060006040518083038185875af1925050503d80600081146106d8576040519150601f19603f3d011682016040523d82523d6000602084013e6106dd565b606091505b50915091506106ed8282866106fe565b979650505050505050565b3b151590565b6060831561070d57508161035d565b82511561071d5782518084602001fd5b8160405162461bcd60e51b81526004018080602001828103825283818151815260200191508051906020019080838360005b8381101561076757818101518382015260200161074f565b50505050905090810190601f1680156107945780820380516001836020036101000a031916815260200191505b509250505060405180910390fdfe5361666542455032303a204245503230206f7065726174696f6e20646964206e6f742073756363656564416464726573733a20696e73756666696369656e742062616c616e636520666f722063616c6ca2646970667358221220410e83f1b79b3f20a6c50783eb6a2413abf6e52e95c02c95a8c8351e5c88272864736f6c634300060c0033",
  "linkReferences": {},
  "deployedLinkReferences": {}
}