{
  "_format": "hh-sol-artifact-1",
  "contractName": "VaultLockedLPs",
  "sourceName": "contracts/Vaults/VaultLockedLPs.sol",
  "abi": [
    {
      "inputs": [
        {
          "internalType": "address",
          "name": "_global",
          "type": "address"
        },
        {
          "internalType": "address",
          "name": "_globalMasterChef",
          "type": "address"
        }
      ],
      "stateMutability": "nonpayable",
      "type": "constructor"
    },
    {
      "anonymous": false,
      "inputs": [
        {
          "indexed": true,
          "internalType": "address",
          "name": "_user",
          "type": "address"
        },
        {
          "indexed": false,
          "internalType": "uint256",
          "name": "_amount",
          "type": "uint256"
        }
      ],
      "name": "Deposited",
      "type": "event"
    },
    {
      "anonymous": false,
      "inputs": [
        {
          "indexed": true,
          "internalType": "address",
          "name": "previousOwner",
          "type": "address"
        },
        {
          "indexed": true,
          "internalType": "address",
          "name": "newOwner",
          "type": "address"
        }
      ],
      "name": "OwnershipTransferred",
      "type": "event"
    },
    {
      "anonymous": false,
      "inputs": [
        {
          "indexed": false,
          "internalType": "address",
          "name": "addr",
          "type": "address"
        }
      ],
      "name": "WhitelistedAddressAdded",
      "type": "event"
    },
    {
      "anonymous": false,
      "inputs": [
        {
          "indexed": false,
          "internalType": "address",
          "name": "addr",
          "type": "address"
        }
      ],
      "name": "WhitelistedAddressRemoved",
      "type": "event"
    },
    {
      "anonymous": false,
      "inputs": [
        {
          "indexed": true,
          "internalType": "address",
          "name": "_user",
          "type": "address"
        },
        {
          "indexed": false,
          "internalType": "uint256",
          "name": "_amount",
          "type": "uint256"
        }
      ],
      "name": "Withdrawn",
      "type": "event"
    },
    {
      "inputs": [],
      "name": "MAX_WITHDRAW_FEE",
      "outputs": [
        {
          "internalType": "uint256",
          "name": "",
          "type": "uint256"
        }
      ],
      "stateMutability": "view",
      "type": "function"
    },
    {
      "inputs": [
        {
          "internalType": "address",
          "name": "addr",
          "type": "address"
        }
      ],
      "name": "addAddressToWhitelist",
      "outputs": [
        {
          "internalType": "bool",
          "name": "success",
          "type": "bool"
        }
      ],
      "stateMutability": "nonpayable",
      "type": "function"
    },
    {
      "inputs": [
        {
          "internalType": "address[]",
          "name": "addrs",
          "type": "address[]"
        }
      ],
      "name": "addAddressesToWhitelist",
      "outputs": [
        {
          "internalType": "bool",
          "name": "success",
          "type": "bool"
        }
      ],
      "stateMutability": "nonpayable",
      "type": "function"
    },
    {
      "inputs": [
        {
          "internalType": "address",
          "name": "_user",
          "type": "address"
        },
        {
          "internalType": "uint256",
          "name": "_pid",
          "type": "uint256"
        }
      ],
      "name": "amountOfUser",
      "outputs": [
        {
          "internalType": "uint256",
          "name": "totalAmount",
          "type": "uint256"
        }
      ],
      "stateMutability": "view",
      "type": "function"
    },
    {
      "inputs": [
        {
          "internalType": "uint256",
          "name": "_time",
          "type": "uint256"
        },
        {
          "internalType": "address",
          "name": "_user",
          "type": "address"
        },
        {
          "internalType": "uint256",
          "name": "_pid",
          "type": "uint256"
        }
      ],
      "name": "availableForWithdraw",
      "outputs": [
        {
          "internalType": "uint256",
          "name": "totalAmount",
          "type": "uint256"
        }
      ],
      "stateMutability": "view",
      "type": "function"
    },
    {
      "inputs": [
        {
          "internalType": "uint256",
          "name": "_pid",
          "type": "uint256"
        }
      ],
      "name": "balance",
      "outputs": [
        {
          "internalType": "uint256",
          "name": "amount",
          "type": "uint256"
        }
      ],
      "stateMutability": "view",
      "type": "function"
    },
    {
      "inputs": [
        {
          "internalType": "address",
          "name": "_user",
          "type": "address"
        },
        {
          "internalType": "uint256",
          "name": "_pid",
          "type": "uint256"
        }
      ],
      "name": "calculateAverageWeight",
      "outputs": [
        {
          "internalType": "uint256",
          "name": "",
          "type": "uint256"
        }
      ],
      "stateMutability": "view",
      "type": "function"
    },
    {
      "inputs": [
        {
          "internalType": "uint256",
          "name": "_pid",
          "type": "uint256"
        },
        {
          "internalType": "uint256",
          "name": "_amount",
          "type": "uint256"
        },
        {
          "internalType": "uint256",
          "name": "_lockupPeriod",
          "type": "uint256"
        }
      ],
      "name": "deposit",
      "outputs": [],
      "stateMutability": "nonpayable",
      "type": "function"
    },
    {
      "inputs": [
        {
          "internalType": "address",
          "name": "",
          "type": "address"
        },
        {
          "internalType": "uint256",
          "name": "",
          "type": "uint256"
        },
        {
          "internalType": "uint256",
          "name": "",
          "type": "uint256"
        }
      ],
      "name": "depositInfo",
      "outputs": [
        {
          "internalType": "uint256",
          "name": "pid",
          "type": "uint256"
        },
        {
          "internalType": "uint256",
          "name": "amount",
          "type": "uint256"
        },
        {
          "internalType": "uint256",
          "name": "lockupPeriod",
          "type": "uint256"
        },
        {
          "internalType": "uint256",
          "name": "nextWithdraw",
          "type": "uint256"
        }
      ],
      "stateMutability": "view",
      "type": "function"
    },
    {
      "inputs": [
        {
          "internalType": "uint256",
          "name": "",
          "type": "uint256"
        }
      ],
      "name": "extraRewardsPercents",
      "outputs": [
        {
          "internalType": "uint256",
          "name": "",
          "type": "uint256"
        }
      ],
      "stateMutability": "view",
      "type": "function"
    },
    {
      "inputs": [],
      "name": "global",
      "outputs": [
        {
          "internalType": "contract IBEP20",
          "name": "",
          "type": "address"
        }
      ],
      "stateMutability": "view",
      "type": "function"
    },
    {
      "inputs": [],
      "name": "globalMasterChef",
      "outputs": [
        {
          "internalType": "contract IGlobalMasterChef",
          "name": "",
          "type": "address"
        }
      ],
      "stateMutability": "view",
      "type": "function"
    },
    {
      "inputs": [
        {
          "internalType": "address",
          "name": "addr",
          "type": "address"
        }
      ],
      "name": "isAddressWhitelisted",
      "outputs": [
        {
          "internalType": "bool",
          "name": "success",
          "type": "bool"
        }
      ],
      "stateMutability": "view",
      "type": "function"
    },
    {
      "inputs": [
        {
          "internalType": "uint256",
          "name": "_pid",
          "type": "uint256"
        },
        {
          "internalType": "address",
          "name": "_user",
          "type": "address"
        }
      ],
      "name": "isUsersWithDeposit",
      "outputs": [
        {
          "internalType": "bool",
          "name": "",
          "type": "bool"
        }
      ],
      "stateMutability": "view",
      "type": "function"
    },
    {
      "inputs": [],
      "name": "lockupX",
      "outputs": [
        {
          "internalType": "uint256",
          "name": "",
          "type": "uint256"
        }
      ],
      "stateMutability": "view",
      "type": "function"
    },
    {
      "inputs": [],
      "name": "lockupY",
      "outputs": [
        {
          "internalType": "uint256",
          "name": "",
          "type": "uint256"
        }
      ],
      "stateMutability": "view",
      "type": "function"
    },
    {
      "inputs": [],
      "name": "lockupZ",
      "outputs": [
        {
          "internalType": "uint256",
          "name": "",
          "type": "uint256"
        }
      ],
      "stateMutability": "view",
      "type": "function"
    },
    {
      "inputs": [],
      "name": "noFees",
      "outputs": [
        {
          "internalType": "bool",
          "name": "",
          "type": "bool"
        }
      ],
      "stateMutability": "view",
      "type": "function"
    },
    {
      "inputs": [],
      "name": "owner",
      "outputs": [
        {
          "internalType": "address",
          "name": "",
          "type": "address"
        }
      ],
      "stateMutability": "view",
      "type": "function"
    },
    {
      "inputs": [],
      "name": "rateOfWithdrawFee",
      "outputs": [
        {
          "internalType": "uint256",
          "name": "",
          "type": "uint256"
        }
      ],
      "stateMutability": "view",
      "type": "function"
    },
    {
      "inputs": [
        {
          "internalType": "address",
          "name": "addr",
          "type": "address"
        }
      ],
      "name": "removeAddressFromWhitelist",
      "outputs": [
        {
          "internalType": "bool",
          "name": "success",
          "type": "bool"
        }
      ],
      "stateMutability": "nonpayable",
      "type": "function"
    },
    {
      "inputs": [
        {
          "internalType": "address[]",
          "name": "addrs",
          "type": "address[]"
        }
      ],
      "name": "removeAddressesFromWhitelist",
      "outputs": [
        {
          "internalType": "bool",
          "name": "success",
          "type": "bool"
        }
      ],
      "stateMutability": "nonpayable",
      "type": "function"
    },
    {
      "inputs": [],
      "name": "renounceOwnership",
      "outputs": [],
      "stateMutability": "nonpayable",
      "type": "function"
    },
    {
      "inputs": [
        {
          "internalType": "uint256[]",
          "name": "values",
          "type": "uint256[]"
        }
      ],
      "name": "setExtraRewardsPercent",
      "outputs": [],
      "stateMutability": "nonpayable",
      "type": "function"
    },
    {
      "inputs": [
        {
          "internalType": "uint256",
          "name": "_lockupX",
          "type": "uint256"
        }
      ],
      "name": "setLockupX",
      "outputs": [],
      "stateMutability": "nonpayable",
      "type": "function"
    },
    {
      "inputs": [
        {
          "internalType": "uint256",
          "name": "_lockupY",
          "type": "uint256"
        }
      ],
      "name": "setLockupY",
      "outputs": [],
      "stateMutability": "nonpayable",
      "type": "function"
    },
    {
      "inputs": [
        {
          "internalType": "uint256",
          "name": "_lockupZ",
          "type": "uint256"
        }
      ],
      "name": "setLockupZ",
      "outputs": [],
      "stateMutability": "nonpayable",
      "type": "function"
    },
    {
      "inputs": [
        {
          "internalType": "bool",
          "name": "_noFees",
          "type": "bool"
        }
      ],
      "name": "setNoFees",
      "outputs": [],
      "stateMutability": "nonpayable",
      "type": "function"
    },
    {
      "inputs": [
        {
          "internalType": "uint256",
          "name": "_rateFee",
          "type": "uint256"
        }
      ],
      "name": "setRateOfWithdrawFee",
      "outputs": [],
      "stateMutability": "nonpayable",
      "type": "function"
    },
    {
      "inputs": [
        {
          "internalType": "address",
          "name": "_treasuryLP",
          "type": "address"
        }
      ],
      "name": "setTreasuryLP",
      "outputs": [],
      "stateMutability": "nonpayable",
      "type": "function"
    },
    {
      "inputs": [
        {
          "internalType": "uint256",
          "name": "",
          "type": "uint256"
        }
      ],
      "name": "totalSupply",
      "outputs": [
        {
          "internalType": "uint256",
          "name": "",
          "type": "uint256"
        }
      ],
      "stateMutability": "view",
      "type": "function"
    },
    {
      "inputs": [
        {
          "internalType": "address",
          "name": "newOwner",
          "type": "address"
        }
      ],
      "name": "transferOwnership",
      "outputs": [],
      "stateMutability": "nonpayable",
      "type": "function"
    },
    {
      "inputs": [],
      "name": "treasuryLP",
      "outputs": [
        {
          "internalType": "address",
          "name": "",
          "type": "address"
        }
      ],
      "stateMutability": "view",
      "type": "function"
    },
    {
      "inputs": [
        {
          "internalType": "uint256",
          "name": "",
          "type": "uint256"
        },
        {
          "internalType": "address",
          "name": "",
          "type": "address"
        }
      ],
      "name": "userInfo",
      "outputs": [
        {
          "internalType": "uint256",
          "name": "",
          "type": "uint256"
        }
      ],
      "stateMutability": "view",
      "type": "function"
    },
    {
      "inputs": [
        {
          "internalType": "uint256",
          "name": "",
          "type": "uint256"
        },
        {
          "internalType": "uint256",
          "name": "",
          "type": "uint256"
        }
      ],
      "name": "usersWithDeposit",
      "outputs": [
        {
          "internalType": "address",
          "name": "",
          "type": "address"
        }
      ],
      "stateMutability": "view",
      "type": "function"
    },
    {
      "inputs": [
        {
          "internalType": "address",
          "name": "",
          "type": "address"
        }
      ],
      "name": "whitelist",
      "outputs": [
        {
          "internalType": "bool",
          "name": "",
          "type": "bool"
        }
      ],
      "stateMutability": "view",
      "type": "function"
    },
    {
      "inputs": [
        {
          "internalType": "uint256",
          "name": "_pid",
          "type": "uint256"
        },
        {
          "internalType": "uint256",
          "name": "_amount",
          "type": "uint256"
        }
      ],
      "name": "withdraw",
      "outputs": [],
      "stateMutability": "nonpayable",
      "type": "function"
    }
  ],
  "bytecode": "0x60806040526009805460ff60a01b191690556262e080600a5562c5c100600b55630128a180600c55610bb8600e553480156200003a57600080fd5b506040516200341238038062003412833981810160405260408110156200006057600080fd5b5080516020909101516000620000756200014c565b600080546001600160a01b0319166001600160a01b0383169081178255604051929350917f8be0079c531659141344cd1fd0a4f28419497f9722a3daafe3b4186f6b6457e0908290a3506001808055600780546001600160a01b039485166001600160a01b031991821617909155600880549390941692169190911790915560068054808301825560008290526107087ff652222313e28459528d920b65115c16c04f3efc82aaedc97be59f3f377c0d3f9182015581548084018355610dac908201558154928301909155611a2c91015562000150565b3390565b6132b280620001606000396000f3fe608060405234801561001057600080fd5b50600436106102765760003560e01c8063868ee9fc11610160578063d000c8f8116100d8578063e2ec6ec31161008c578063f1b8dcad11610071578063f1b8dcad1461078b578063f2fde38b146107e3578063fa0ab5181461080957610276565b8063e2ec6ec314610713578063f018e7931461078357610276565b8063d5f98d85116100bd578063d5f98d85146106cb578063e0714885146106ee578063e0d79006146106f657610276565b8063d000c8f814610620578063d4b0de2f146106c357610276565b8063a05f99061161012f578063c7d0302111610114578063c7d03021146105b2578063caa89345146105cf578063cbcd614d146105ee57610276565b8063a05f99061461058d578063bd85b0391461059557610276565b8063868ee9fc146105075780638da5cb5b1461053357806393f1a40b1461053b5780639b19251a1461056757610276565b806347bb89f0116101f35780636f488e97116101c25780637441c54c116101a75780637441c54c146104985780637b9417c8146104b557806383586be1146104db57610276565b80636f488e971461046a578063715018a61461049057610276565b806347bb89f0146103f55780635ac0f8c114610412578063618402861461041a57806362c10d541461044657610276565b806324953eaa1161024a5780632948b7681161022f5780632948b768146103985780633a908238146103b5578063441a3e70146103d257610276565b806324953eaa14610302578063286dd3f51461037257610276565b8062aeef8a1461027b57806313f44d10146102a65780631866f53e146102e057806320670714146102fa575b600080fd5b6102a46004803603606081101561029157600080fd5b5080359060208101359060400135610811565b005b6102cc600480360360208110156102bc57600080fd5b50356001600160a01b0316610db0565b604080519115158252519081900360200190f35b6102e8610e29565b60408051918252519081900360200190f35b6102e8610e2f565b6102cc6004803603602081101561031857600080fd5b81019060208101813564010000000081111561033357600080fd5b82018360208201111561034557600080fd5b8035906020019184602083028401116401000000008311171561036757600080fd5b509092509050610e35565b6102cc6004803603602081101561038857600080fd5b50356001600160a01b0316610ed7565b6102a4600480360360208110156103ae57600080fd5b5035610fb0565b6102a4600480360360208110156103cb57600080fd5b503561100d565b6102a4600480360360408110156103e857600080fd5b508035906020013561106a565b6102e86004803603602081101561040b57600080fd5b5035611482565b6102e861151b565b6102e86004803603604081101561043057600080fd5b506001600160a01b038135169060200135611521565b61044e611782565b604080516001600160a01b039092168252519081900360200190f35b6102a46004803603602081101561048057600080fd5b50356001600160a01b0316611791565b6102a4611850565b6102a4600480360360208110156104ae57600080fd5b50356118f2565b6102cc600480360360208110156104cb57600080fd5b50356001600160a01b031661194f565b6102e8600480360360408110156104f157600080fd5b506001600160a01b038135169060200135611a29565b6102cc6004803603604081101561051d57600080fd5b50803590602001356001600160a01b0316611b4a565b61044e611bc1565b6102e86004803603604081101561055157600080fd5b50803590602001356001600160a01b0316611bd0565b6102cc6004803603602081101561057d57600080fd5b50356001600160a01b0316611bed565b61044e611c02565b6102e8600480360360208110156105ab57600080fd5b5035611c11565b6102a4600480360360208110156105c857600080fd5b5035611c23565b6102a4600480360360208110156105e557600080fd5b50351515611cd7565b6102e86004803603606081101561060457600080fd5b508035906001600160a01b036020820135169060400135611d68565b6102a46004803603602081101561063657600080fd5b81019060208101813564010000000081111561065157600080fd5b82018360208201111561066357600080fd5b8035906020019184602083028401116401000000008311171561068557600080fd5b919080806020026020016040519081016040528093929190818152602001838360200280828437600092019190915250929550611eaa945050505050565b6102e8611fec565b61044e600480360360408110156106e157600080fd5b5080359060200135611ff2565b61044e612027565b6102e86004803603602081101561070c57600080fd5b5035612036565b6102cc6004803603602081101561072957600080fd5b81019060208101813564010000000081111561074457600080fd5b82018360208201111561075657600080fd5b8035906020019184602083028401116401000000008311171561077857600080fd5b509092509050612054565b6102cc6120ef565b6107bd600480360360608110156107a157600080fd5b506001600160a01b0381351690602081013590604001356120ff565b604080519485526020850193909352838301919091526060830152519081900360800190f35b6102a4600480360360208110156107f957600080fd5b50356001600160a01b0316612151565b6102e86121b5565b60026001541415610869576040805162461bcd60e51b815260206004820152601f60248201527f5265656e7472616e637947756172643a207265656e7472616e742063616c6c00604482015290519081900360640190fd5b600260015533321480156108835750610881336121bb565b155b6108be5760405162461bcd60e51b81526004018080602001828103825260268152602001806131f06026913960400191505060405180910390fd5b600a548114806108cf5750600b5481145b806108db5750600c5481145b61092c576040805162461bcd60e51b815260206004820152601760248201527f4c6f636b557020706572696f64202069732077726f6e67000000000000000000604482015290519081900360640190fd5b60085460408051631526fe2760e01b8152600481018690529051600092839283926001600160a01b0390921691631526fe279160248082019261014092909190829003018186803b15801561098057600080fd5b505afa158015610994573d6000803e3d6000fd5b505050506040513d6101408110156109ab57600080fd5b505190508415610b2357336000908152600360209081526040808320898452825291829020825160a081018452898152918201889052918101869052606081016109f542886121c1565b81526020016006805480602002602001604051908101604052809291908181526020018280548015610a4657602002820191906000526020600020905b815481526020019060010190808311610a32575b50505091909252505081546001818101845560009384526020938490208351600590930201918255838301519082015560408201516002820155606082015160038201556080820151805192939192610aa5926004850192019061308c565b505050610ab28633611b4a565b610ae55760008681526005602090815260408220805460018101825590835291200180546001600160a01b031916331790555b610afa6001600160a01b038216333088612222565b6000868152600d6020526040902054610b1390866121c1565b6000878152600d60205260409020555b600754604080516370a0823160e01b815230600482015290516001600160a01b03909216916370a0823191602480820192602092909190829003018186803b158015610b6e57600080fd5b505afa158015610b82573d6000803e3d6000fd5b505050506040513d6020811015610b9857600080fd5b5051600854604080517fe2bbb158000000000000000000000000000000000000000000000000000000008152600481018a90526024810189905290519295506001600160a01b039091169163e2bbb1589160448082019260009290919082900301818387803b158015610c0a57600080fd5b505af1158015610c1e573d6000803e3d6000fd5b5050600754604080516370a0823160e01b8152306004820152905160009450610ca5935087926001600160a01b0316916370a08231916024808301926020929190829003018186803b158015610c7357600080fd5b505afa158015610c87573d6000803e3d6000fd5b505050506040513d6020811015610c9d57600080fd5b5051906122b0565b6000888152600d6020526040902054909150610cd590610ccf610cc8338b611a29565b849061230d565b90612366565b9250610ce28733856123cd565b610ceb876124ea565b600754604080516370a0823160e01b81523060048201529051610d6d928a926001600160a01b03909116916370a0823191602480820192602092909190829003018186803b158015610d3c57600080fd5b505afa158015610d50573d6000803e3d6000fd5b505050506040513d6020811015610d6657600080fd5b505161252d565b60408051878152905133917f2da466a7b24304f47e87fa2e1e5a81b9831ce54fec19055ce277ca2f39ba42c4919081900360200190a25050600180555050505050565b6000610dba6125e4565b6000546001600160a01b03908116911614610e0a576040805162461bcd60e51b8152602060048201819052602482015260008051602061325d833981519152604482015290519081900360640190fd5b506001600160a01b031660009081526002602052604090205460ff1690565b600c5481565b600a5481565b6000610e3f6125e4565b6000546001600160a01b03908116911614610e8f576040805162461bcd60e51b8152602060048201819052602482015260008051602061325d833981519152604482015290519081900360640190fd5b60005b82811015610ed057610ebe848483818110610ea957fe5b905060200201356001600160a01b0316610ed7565b15610ec857600191505b600101610e92565b5092915050565b6000610ee16125e4565b6000546001600160a01b03908116911614610f31576040805162461bcd60e51b8152602060048201819052602482015260008051602061325d833981519152604482015290519081900360640190fd5b6001600160a01b03821660009081526002602052604090205460ff1615610fab576001600160a01b038216600081815260026020908152604091829020805460ff19169055815192835290517ff1abf01a1043b7c244d128e8595cf0c1d10743b022b03a02dffd8ca3bf729f5a9281900390910190a15060015b919050565b610fb86125e4565b6000546001600160a01b03908116911614611008576040805162461bcd60e51b8152602060048201819052602482015260008051602061325d833981519152604482015290519081900360640190fd5b600b55565b6110156125e4565b6000546001600160a01b03908116911614611065576040805162461bcd60e51b8152602060048201819052602482015260008051602061325d833981519152604482015290519081900360640190fd5b600c55565b600260015414156110c2576040805162461bcd60e51b815260206004820152601f60248201527f5265656e7472616e637947756172643a207265656e7472616e742063616c6c00604482015290519081900360640190fd5b600260015533321480156110dc57506110da336121bb565b155b6111175760405162461bcd60e51b81526004018080602001828103825260268152602001806131f06026913960400191505060405180910390fd5b60085460408051631526fe2760e01b81526004810185905290516000926001600160a01b031691631526fe2791602480830192610140929190829003018186803b15801561116457600080fd5b505afa158015611178573d6000803e3d6000fd5b505050506040513d61014081101561118f57600080fd5b50519050600080806111a2423388611d68565b90506000818611156111ef57600954600160a01b900460ff166111e9576111e4612710610ccf600e546111de868b6122b090919063ffffffff16565b9061230d565b6111ec565b60005b90505b6111f93388611a29565b8611156112375760405162461bcd60e51b81526004018080602001828103825260308152602001806131c06030913960400191505060405180910390fd5b600754604080516370a0823160e01b815230600482015290516001600160a01b03909216916370a0823191602480820192602092909190829003018186803b15801561128257600080fd5b505afa158015611296573d6000803e3d6000fd5b505050506040513d60208110156112ac57600080fd5b5051600854604080517f441a3e70000000000000000000000000000000000000000000000000000000008152600481018b9052602481018a905290519296506001600160a01b039091169163441a3e709160448082019260009290919082900301818387803b15801561131e57600080fd5b505af1158015611332573d6000803e3d6000fd5b5050600754604080516370a0823160e01b8152306004820152905160009450611387935088926001600160a01b0316916370a08231916024808301926020929190829003018186803b158015610c7357600080fd5b6000898152600d60205260409020549091506113aa90610ccf610cc8338c611a29565b93506113b78833866123cd565b6113c0886124ea565b6113df336113ce89856122b0565b6001600160a01b03891691906125e8565b81156113ff576009546113ff906001600160a01b038881169116846125e8565b61140a338989612654565b611414338961281e565b6000888152600d602052604090205461142d90886122b0565b6000898152600d6020908152604091829020929092558051898152905133927f7084f5476618d8e60b11ef0d7d3f06914655adb8793e28ff7f018d4c76d505d5928290030190a2505060018055505050505050565b600854604080517f93f1a40b0000000000000000000000000000000000000000000000000000000081526004810184905230602482015281516000936001600160a01b0316926393f1a40b9260448082019391829003018186803b1580156114e957600080fd5b505afa1580156114fd573d6000803e3d6000fd5b505050506040513d604081101561151357600080fd5b505192915050565b600b5481565b6001600160a01b038216600090815260036020908152604080832084845282528083208054825181850281018501909352808352606093859084015b8282101561160f57838290600052602060002090600502016040518060a001604052908160008201548152602001600182015481526020016002820154815260200160038201548152602001600482018054806020026020016040519081016040528092919081815260200182805480156115f757602002820191906000526020600020905b8154815260200190600101908083116115e3575b5050505050815250508152602001906001019061155d565b50505050905080516000141561162957600091505061177c565b60008080805b845181101561176a57600a5485828151811061164757fe5b602002602001015160400151141561168c5784818151811061166557fe5b60200260200101516080015160008151811061167d57fe5b60200260200101519150611700565b600b5485828151811061169b57fe5b60200260200101516040015114156116d1578481815181106116b957fe5b60200260200101516080015160018151811061167d57fe5b8481815181106116dd57fe5b6020026020010151608001516002815181106116f557fe5b602002602001015191505b61172a85828151811061170f57fe5b602002602001015160200151846121c190919063ffffffff16565b925061176061175986838151811061173e57fe5b6020026020010151602001518461230d90919063ffffffff16565b85906121c1565b935060010161162f565b506117758383612366565b9450505050505b92915050565b6009546001600160a01b031681565b6117996125e4565b6000546001600160a01b039081169116146117e9576040805162461bcd60e51b8152602060048201819052602482015260008051602061325d833981519152604482015290519081900360640190fd5b6001600160a01b03811661182e5760405162461bcd60e51b81526004018080602001828103825260298152602001806131976029913960400191505060405180910390fd5b600980546001600160a01b0319166001600160a01b0392909216919091179055565b6118586125e4565b6000546001600160a01b039081169116146118a8576040805162461bcd60e51b8152602060048201819052602482015260008051602061325d833981519152604482015290519081900360640190fd5b600080546040516001600160a01b03909116907f8be0079c531659141344cd1fd0a4f28419497f9722a3daafe3b4186f6b6457e0908390a3600080546001600160a01b0319169055565b6118fa6125e4565b6000546001600160a01b0390811691161461194a576040805162461bcd60e51b8152602060048201819052602482015260008051602061325d833981519152604482015290519081900360640190fd5b600a55565b60006119596125e4565b6000546001600160a01b039081169116146119a9576040805162461bcd60e51b8152602060048201819052602482015260008051602061325d833981519152604482015290519081900360640190fd5b6001600160a01b03821660009081526002602052604090205460ff16610fab576001600160a01b038216600081815260026020908152604091829020805460ff19166001179055815192835290517fd1bba68c128cc3f427e5831b3c6f99f480b6efa6b9e80c757768f6124158cc3f9281900390910190a1506001919050565b6001600160a01b038216600090815260036020908152604080832084845282528083208054825181850281018501909352808352606093859084015b82821015611b1757838290600052602060002090600502016040518060a00160405290816000820154815260200160018201548152602001600282015481526020016003820154815260200160048201805480602002602001604051908101604052809291908181526020018280548015611aff57602002820191906000526020600020905b815481526020019060010190808311611aeb575b50505050508152505081526020019060010190611a65565b50505050905060005b8151811015611b4257611b3882828151811061170f57fe5b9250600101611b20565b505092915050565b6000805b600084815260056020526040902054811015611bb757600084815260056020526040902080546001600160a01b038516919083908110611b8a57fe5b6000918252602090912001546001600160a01b03161415611baf57600191505061177c565b600101611b4e565b5060009392505050565b6000546001600160a01b031690565b600460209081526000928352604080842090915290825290205481565b60026020526000908152604090205460ff1681565b6007546001600160a01b031681565b600d6020526000908152604090205481565b611c2b6125e4565b6000546001600160a01b03908116911614611c7b576040805162461bcd60e51b8152602060048201819052602482015260008051602061325d833981519152604482015290519081900360640190fd5b610fa0811115611cd2576040805162461bcd60e51b815260206004820152601d60248201527f5769746864726177204665653a2046656520697320746f6f2068696768000000604482015290519081900360640190fd5b600e55565b611cdf6125e4565b6000546001600160a01b03908116911614611d2f576040805162461bcd60e51b8152602060048201819052602482015260008051602061325d833981519152604482015290519081900360640190fd5b60098054911515600160a01b027fffffffffffffffffffffff00ffffffffffffffffffffffffffffffffffffffff909216919091179055565b6001600160a01b038216600090815260036020908152604080832084845282528083208054825181850281018501909352808352606093859084015b82821015611e5657838290600052602060002090600502016040518060a00160405290816000820154815260200160018201548152602001600282015481526020016003820154815260200160048201805480602002602001604051908101604052809291908181526020018280548015611e3e57602002820191906000526020600020905b815481526020019060010190808311611e2a575b50505050508152505081526020019060010190611da4565b50505050905060005b8151811015611ea15785828281518110611e7557fe5b6020026020010151606001511015611e9957611e9682828151811061170f57fe5b92505b600101611e5f565b50509392505050565b611eb26125e4565b6000546001600160a01b03908116911614611f02576040805162461bcd60e51b8152602060048201819052602482015260008051602061325d833981519152604482015290519081900360640190fd5b8051600314611f58576040805162461bcd60e51b815260206004820152601060248201527f76616c756573206172652077726f6e6700000000000000000000000000000000604482015290519081900360640190fd5b80600081518110611f6557fe5b60200260200101516006600081548110611f7b57fe5b906000526020600020018190555080600181518110611f9657fe5b60200260200101516006600181548110611fac57fe5b906000526020600020018190555080600281518110611fc757fe5b60200260200101516006600281548110611fdd57fe5b60009182526020909120015550565b610fa081565b6005602052816000526040600020818154811061200b57fe5b6000918252602090912001546001600160a01b03169150829050565b6008546001600160a01b031681565b6006818154811061204357fe5b600091825260209091200154905081565b600061205e6125e4565b6000546001600160a01b039081169116146120ae576040805162461bcd60e51b8152602060048201819052602482015260008051602061325d833981519152604482015290519081900360640190fd5b60005b82811015610ed0576120dd8484838181106120c857fe5b905060200201356001600160a01b031661194f565b156120e757600191505b6001016120b1565b600954600160a01b900460ff1681565b6003602052826000526040600020602052816000526040600020818154811061212457fe5b60009182526020909120600590910201805460018201546002830154600390930154919550935090915084565b6121596125e4565b6000546001600160a01b039081169116146121a9576040805162461bcd60e51b8152602060048201819052602482015260008051602061325d833981519152604482015290519081900360640190fd5b6121b281612b9b565b50565b600e5481565b3b151590565b60008282018381101561221b576040805162461bcd60e51b815260206004820152601b60248201527f536166654d6174683a206164646974696f6e206f766572666c6f770000000000604482015290519081900360640190fd5b9392505050565b604080516001600160a01b0380861660248301528416604482015260648082018490528251808303909101815260849091019091526020810180517bffffffffffffffffffffffffffffffffffffffffffffffffffffffff167f23b872dd000000000000000000000000000000000000000000000000000000001790526122aa908590612c3b565b50505050565b600082821115612307576040805162461bcd60e51b815260206004820152601e60248201527f536166654d6174683a207375627472616374696f6e206f766572666c6f770000604482015290519081900360640190fd5b50900390565b60008261231c5750600061177c565b8282028284828161232957fe5b041461221b5760405162461bcd60e51b815260040180806020018281038252602181526020018061323c6021913960400191505060405180910390fd5b60008082116123bc576040805162461bcd60e51b815260206004820152601a60248201527f536166654d6174683a206469766973696f6e206279207a65726f000000000000604482015290519081900360640190fd5b8183816123c557fe5b049392505050565b60006123d98385611521565b905060006123ed612710610ccf858561230d565b905080156124e357600854604080517faf2cea5d0000000000000000000000000000000000000000000000000000000081526004810184905230602482015290516001600160a01b039092169163af2cea5d9160448082019260009290919082900301818387803b15801561246157600080fd5b505af1158015612475573d6000803e3d6000fd5b50505050600061248e82856121c190919063ffffffff16565b60008781526004602090815260408083206001600160a01b038a1684529091529020549091506124be90826121c1565b60008781526004602090815260408083206001600160a01b038a168452909152902055505b5050505050565b600081815260046020908152604080832033808552925290912054906125109082612cec565b506000908152600460209081526040808320338452909152812055565b6000805b6000848152600560205260409020548110156122aa576000848152600d60209081526040808320546005909252909120805461259d9291610ccf9161259691908690811061257b57fe5b6000918252602090912001546001600160a01b031688611a29565b869061230d565b91506125dc846005600087815260200190815260200160002083815481106125c157fe5b6000918252602090912001546001600160a01b0316846123cd565b600101612531565b3390565b604080516001600160a01b038416602482015260448082018490528251808303909101815260649091019091526020810180517bffffffffffffffffffffffffffffffffffffffffffffffffffffffff1663a9059cbb60e01b17905261264f908490612c3b565b505050565b6001600160a01b0383166000908152600360209081526040808320858452909152812054905b818110156124e3576001600160a01b038516600090815260036020908152604080832087845290915290208054849190839081106126b457fe5b9060005260206000209060050201600101541161276e576001600160a01b0385166000908152600360209081526040808320878452909152902080546127209190839081106126ff57fe5b906000526020600020906005020160010154846122b090919063ffffffff16565b6001600160a01b03861660009081526003602090815260408083208884529091528120805492955090918390811061275457fe5b90600052602060002090600502016001018190555061280c565b6001600160a01b0385166000908152600360209081526040808320878452909152902080546127c3918591849081106127a357fe5b9060005260206000209060050201600101546122b090919063ffffffff16565b6001600160a01b038616600090815260036020908152604080832088845290915290208054839081106127f257fe5b906000526020600020906005020160010181905550600092505b82612816576124e3565b60010161267a565b60005b6001600160a01b0383166000908152600360209081526040808320858452909152902054811015612a34575b6001600160a01b0383166000908152600360209081526040808320858452909152902054158015906128bf57506001600160a01b038316600090815260036020908152604080832085845290915290208054829081106128a957fe5b9060005260206000209060050201600101546000145b15612a2c57805b6001600160a01b0384166000908152600360209081526040808320868452909152902054600019018110156129bb576001600160a01b0384166000908152600360209081526040808320868452909152902080546001830190811061292757fe5b600091825260208083206001600160a01b038816845260038252604080852088865290925292208054600590920290920191908390811061296457fe5b90600052602060002090600502016000820154816000015560018201548160010155600282015481600201556003820154816003015560048201816004019080546129b09291906130d7565b5050506001016128c6565b506001600160a01b038316600090815260036020908152604080832085845290915290208054806129e857fe5b60008281526020812060056000199093019283020181815560018101829055600281018290556003810182905590612a236004830182613117565b5050905561284d565b600101612821565b506001600160a01b0382166000908152600360209081526040808320848452909152902054612b975760005b60008281526005602052604090205481101561264f57600082815260056020526040902080546001600160a01b038516919083908110612a9c57fe5b6000918252602090912001546001600160a01b03161415612b8f57805b60008381526005602052604090205460001901811015612b54576000838152600560205260409020805460018301908110612af057fe5b60009182526020808320909101548583526005909152604090912080546001600160a01b039092169183908110612b2357fe5b600091825260209091200180546001600160a01b0319166001600160a01b0392909216919091179055600101612ab9565b506000828152600560205260409020805480612b6c57fe5b600082815260209020810160001990810180546001600160a01b03191690550190555b600101612a60565b5050565b6001600160a01b038116612be05760405162461bcd60e51b81526004018080602001828103825260268152602001806131716026913960400191505060405180910390fd5b600080546040516001600160a01b03808516939216917f8be0079c531659141344cd1fd0a4f28419497f9722a3daafe3b4186f6b6457e091a3600080546001600160a01b0319166001600160a01b0392909216919091179055565b6060612c90826040518060400160405280602081526020017f5361666542455032303a206c6f772d6c6576656c2063616c6c206661696c6564815250856001600160a01b0316612e759092919063ffffffff16565b80519091501561264f57808060200190516020811015612caf57600080fd5b505161264f5760405162461bcd60e51b815260040180806020018281038252602a815260200180613147602a913960400191505060405180910390fd5b600754604080516370a0823160e01b815230600482015290516000926001600160a01b0316916370a08231916024808301926020929190829003018186803b158015612d3757600080fd5b505afa158015612d4b573d6000803e3d6000fd5b505050506040513d6020811015612d6157600080fd5b5051905080821115612df5576007546040805163a9059cbb60e01b81526001600160a01b038681166004830152602482018590529151919092169163a9059cbb9160448083019260209291908290030181600087803b158015612dc357600080fd5b505af1158015612dd7573d6000803e3d6000fd5b505050506040513d6020811015612ded57600080fd5b5061264f9050565b6007546040805163a9059cbb60e01b81526001600160a01b038681166004830152602482018690529151919092169163a9059cbb9160448083019260209291908290030181600087803b158015612e4b57600080fd5b505af1158015612e5f573d6000803e3d6000fd5b505050506040513d60208110156124e357600080fd5b6060612e848484600085612e8c565b949350505050565b606082471015612ecd5760405162461bcd60e51b81526004018080602001828103825260268152602001806132166026913960400191505060405180910390fd5b612ed6856121bb565b612f27576040805162461bcd60e51b815260206004820152601d60248201527f416464726573733a2063616c6c20746f206e6f6e2d636f6e7472616374000000604482015290519081900360640190fd5b60006060866001600160a01b031685876040518082805190602001908083835b60208310612f665780518252601f199092019160209182019101612f47565b6001836020036101000a03801982511681845116808217855250505050505090500191505060006040518083038185875af1925050503d8060008114612fc8576040519150601f19603f3d011682016040523d82523d6000602084013e612fcd565b606091505b5091509150612fdd828286612fe8565b979650505050505050565b60608315612ff757508161221b565b8251156130075782518084602001fd5b8160405162461bcd60e51b81526004018080602001828103825283818151815260200191508051906020019080838360005b83811015613051578181015183820152602001613039565b50505050905090810190601f16801561307e5780820380516001836020036101000a031916815260200191505b509250505060405180910390fd5b8280548282559060005260206000209081019282156130c7579160200282015b828111156130c75782518255916020019190600101906130ac565b506130d3929150613131565b5090565b8280548282559060005260206000209081019282156130c75760005260206000209182015b828111156130c75782548255916001019190600101906130fc565b50805460008255906000526020600020908101906121b291905b5b808211156130d3576000815560010161313256fe5361666542455032303a204245503230206f7065726174696f6e20646964206e6f7420737563636565644f776e61626c653a206e6577206f776e657220697320746865207a65726f20616464726573735b665d204465763a205f74726561737572794c502063616e277420626520616464726573732830292e57697468647261773a20796f752068617665206e6f7420656e6f75676820746f6b656e20746f20776974686472617721596f7520617265206e6f7420747275737465643a20796f7520617265206e6f742068756d616e416464726573733a20696e73756666696369656e742062616c616e636520666f722063616c6c536166654d6174683a206d756c7469706c69636174696f6e206f766572666c6f774f776e61626c653a2063616c6c6572206973206e6f7420746865206f776e6572a264697066735822122025be1050a4d423b0cf049a707db7777d3c86a999221122df3daf56b9d083a11d64736f6c634300060c0033",
  "linkReferences": {},
  "deployedLinkReferences": {}
}