{
  "_format": "hh-sol-artifact-1",
  "contractName": "DepositoryRestriction",
  "sourceName": "contracts/Modifiers/DepositoryRestriction.sol",
  "abi": [
    {
      "anonymous": false,
      "inputs": [
        {
          "indexed": true,
          "internalType": "address",
          "name": "previousOwner",
          "type": "address"
        },
        {
          "indexed": true,
          "internalType": "address",
          "name": "newOwner",
          "type": "address"
        }
      ],
      "name": "OwnershipTransferred",
      "type": "event"
    },
    {
      "inputs": [
        {
          "internalType": "address",
          "name": "",
          "type": "address"
        }
      ],
      "name": "depositories",
      "outputs": [
        {
          "internalType": "bool",
          "name": "",
          "type": "bool"
        }
      ],
      "stateMutability": "view",
      "type": "function"
    },
    {
      "inputs": [],
      "name": "owner",
      "outputs": [
        {
          "internalType": "address",
          "name": "",
          "type": "address"
        }
      ],
      "stateMutability": "view",
      "type": "function"
    },
    {
      "inputs": [],
      "name": "renounceOwnership",
      "outputs": [],
      "stateMutability": "nonpayable",
      "type": "function"
    },
    {
      "inputs": [
        {
          "internalType": "address",
          "name": "_depository",
          "type": "address"
        },
        {
          "internalType": "bool",
          "name": "_canDeposit",
          "type": "bool"
        }
      ],
      "name": "setDepositary",
      "outputs": [],
      "stateMutability": "nonpayable",
      "type": "function"
    },
    {
      "inputs": [
        {
          "internalType": "address",
          "name": "newOwner",
          "type": "address"
        }
      ],
      "name": "transferOwnership",
      "outputs": [],
      "stateMutability": "nonpayable",
      "type": "function"
    }
  ],
  "bytecode": "0x608060405234801561001057600080fd5b50600061001b61006a565b600080546001600160a01b0319166001600160a01b0383169081178255604051929350917f8be0079c531659141344cd1fd0a4f28419497f9722a3daafe3b4186f6b6457e0908290a35061006e565b3390565b61044e8061007d6000396000f3fe608060405234801561001057600080fd5b50600436106100675760003560e01c80639be0e577116100505780639be0e5771461009a578063cdc0e2e7146100c8578063f2fde38b1461010257610067565b8063715018a61461006c5780638da5cb5b14610076575b600080fd5b610074610128565b005b61007e6101e9565b604080516001600160a01b039092168252519081900360200190f35b610074600480360360408110156100b057600080fd5b506001600160a01b03813516906020013515156101f8565b6100ee600480360360208110156100de57600080fd5b50356001600160a01b03166102b6565b604080519115158252519081900360200190f35b6100746004803603602081101561011857600080fd5b50356001600160a01b03166102cb565b610130610341565b6000546001600160a01b03908116911614610192576040805162461bcd60e51b815260206004820181905260248201527f4f776e61626c653a2063616c6c6572206973206e6f7420746865206f776e6572604482015290519081900360640190fd5b600080546040516001600160a01b03909116907f8be0079c531659141344cd1fd0a4f28419497f9722a3daafe3b4186f6b6457e0908390a36000805473ffffffffffffffffffffffffffffffffffffffff19169055565b6000546001600160a01b031690565b610200610341565b6000546001600160a01b03908116911614610262576040805162461bcd60e51b815260206004820181905260248201527f4f776e61626c653a2063616c6c6572206973206e6f7420746865206f776e6572604482015290519081900360640190fd5b8015610291576001600160a01b0382166000908152600160205260409020805460ff19168215151790556102b2565b6001600160a01b0382166000908152600160205260409020805460ff191690555b5050565b60016020526000908152604090205460ff1681565b6102d3610341565b6000546001600160a01b03908116911614610335576040805162461bcd60e51b815260206004820181905260248201527f4f776e61626c653a2063616c6c6572206973206e6f7420746865206f776e6572604482015290519081900360640190fd5b61033e81610345565b50565b3390565b6001600160a01b03811661038a5760405162461bcd60e51b81526004018080602001828103825260268152602001806103f36026913960400191505060405180910390fd5b600080546040516001600160a01b03808516939216917f8be0079c531659141344cd1fd0a4f28419497f9722a3daafe3b4186f6b6457e091a36000805473ffffffffffffffffffffffffffffffffffffffff19166001600160a01b039290921691909117905556fe4f776e61626c653a206e6577206f776e657220697320746865207a65726f2061646472657373a2646970667358221220b4a9f5be17b00e1b20fb82e4a028fef0dde9cf17607528a7c12544eabf431ae364736f6c634300060c0033",
  "linkReferences": {},
  "deployedLinkReferences": {}
}