{
  "_format": "hh-sol-artifact-1",
  "contractName": "BunnyPoolMock",
  "sourceName": "contracts/Mocks/BunnyPoolMock.sol",
  "abi": [
    {
      "inputs": [
        {
          "internalType": "address",
          "name": "_bunny",
          "type": "address"
        }
      ],
      "stateMutability": "nonpayable",
      "type": "constructor"
    },
    {
      "inputs": [
        {
          "internalType": "address",
          "name": "_user",
          "type": "address"
        }
      ],
      "name": "balanceOf",
      "outputs": [
        {
          "internalType": "uint256",
          "name": "amount",
          "type": "uint256"
        }
      ],
      "stateMutability": "view",
      "type": "function"
    },
    {
      "inputs": [
        {
          "internalType": "uint256",
          "name": "_amount",
          "type": "uint256"
        }
      ],
      "name": "deposit",
      "outputs": [],
      "stateMutability": "nonpayable",
      "type": "function"
    },
    {
      "inputs": [],
      "name": "getReward",
      "outputs": [],
      "stateMutability": "nonpayable",
      "type": "function"
    },
    {
      "inputs": [
        {
          "internalType": "uint256",
          "name": "_amount",
          "type": "uint256"
        }
      ],
      "name": "withdraw",
      "outputs": [],
      "stateMutability": "nonpayable",
      "type": "function"
    }
  ],
  "bytecode": "0x6080604052670de0b6b3a764000060025534801561001c57600080fd5b506040516107ff3803806107ff8339818101604052602081101561003f57600080fd5b5051600080546001600160a01b039092166001600160a01b031990921691909117905561078e806100716000396000f3fe608060405234801561001057600080fd5b506004361061004c5760003560e01c80632e1a7d4d146100515780633d18b9121461007057806370a0823114610078578063b6b55f25146100b0575b600080fd5b61006e6004803603602081101561006757600080fd5b50356100cd565b005b61006e6101fc565b61009e6004803603602081101561008e57600080fd5b50356001600160a01b03166101fe565b60408051918252519081900360200190f35b61006e600480360360208110156100c657600080fd5b5035610219565b3360009081526001602052604090208054821115610132576040805162461bcd60e51b815260206004820152601260248201527f77697468647261773a206e6f7420676f6f640000000000000000000000000000604482015290519081900360640190fd5b60008054906101000a90046001600160a01b03166001600160a01b031663a0712d6882600101546040518263ffffffff1660e01b815260040180828152602001915050602060405180830381600087803b15801561018f57600080fd5b505af11580156101a3573d6000803e3d6000fd5b505050506040513d60208110156101b957600080fd5b505060018101546101e49033906101d1908590610269565b6000546001600160a01b031691906102ca565b6000600182015580546101f7908361034f565b905550565b565b6001600160a01b031660009081526001602052604090205490565b33600081815260016020526040812090549091610241916001600160a01b03169030856103ac565b805461024d9083610269565b8155600254600182015461026091610269565b60019091015550565b6000828201838110156102c3576040805162461bcd60e51b815260206004820152601b60248201527f536166654d6174683a206164646974696f6e206f766572666c6f770000000000604482015290519081900360640190fd5b9392505050565b604080516001600160a01b038416602482015260448082018490528251808303909101815260649091019091526020810180517bffffffffffffffffffffffffffffffffffffffffffffffffffffffff167fa9059cbb0000000000000000000000000000000000000000000000000000000017905261034a90849061043a565b505050565b6000828211156103a6576040805162461bcd60e51b815260206004820152601e60248201527f536166654d6174683a207375627472616374696f6e206f766572666c6f770000604482015290519081900360640190fd5b50900390565b604080516001600160a01b0380861660248301528416604482015260648082018490528251808303909101815260849091019091526020810180517bffffffffffffffffffffffffffffffffffffffffffffffffffffffff167f23b872dd0000000000000000000000000000000000000000000000000000000017905261043490859061043a565b50505050565b606061048f826040518060400160405280602081526020017f5361666542455032303a206c6f772d6c6576656c2063616c6c206661696c6564815250856001600160a01b03166104eb9092919063ffffffff16565b80519091501561034a578080602001905160208110156104ae57600080fd5b505161034a5760405162461bcd60e51b815260040180806020018281038252602a815260200180610709602a913960400191505060405180910390fd5b60606104fa8484600085610502565b949350505050565b6060824710156105435760405162461bcd60e51b81526004018080602001828103825260268152602001806107336026913960400191505060405180910390fd5b61054c8561065e565b61059d576040805162461bcd60e51b815260206004820152601d60248201527f416464726573733a2063616c6c20746f206e6f6e2d636f6e7472616374000000604482015290519081900360640190fd5b60006060866001600160a01b031685876040518082805190602001908083835b602083106105dc5780518252601f1990920191602091820191016105bd565b6001836020036101000a03801982511681845116808217855250505050505090500191505060006040518083038185875af1925050503d806000811461063e576040519150601f19603f3d011682016040523d82523d6000602084013e610643565b606091505b5091509150610653828286610664565b979650505050505050565b3b151590565b606083156106735750816102c3565b8251156106835782518084602001fd5b8160405162461bcd60e51b81526004018080602001828103825283818151815260200191508051906020019080838360005b838110156106cd5781810151838201526020016106b5565b50505050905090810190601f1680156106fa5780820380516001836020036101000a031916815260200191505b509250505060405180910390fdfe5361666542455032303a204245503230206f7065726174696f6e20646964206e6f742073756363656564416464726573733a20696e73756666696369656e742062616c616e636520666f722063616c6ca2646970667358221220ac5ac9996fb1eb486441553c4c561338e20d2f63ac8b9caca85d60976ef24b5164736f6c634300060c0033",
  "linkReferences": {},
  "deployedLinkReferences": {}
}