{
  "_format": "hh-sol-artifact-1",
  "contractName": "NativeToken",
  "sourceName": "contracts/Tokens/NativeToken.sol",
  "abi": [
    {
      "inputs": [],
      "stateMutability": "nonpayable",
      "type": "constructor"
    },
    {
      "anonymous": false,
      "inputs": [
        {
          "indexed": true,
          "internalType": "address",
          "name": "owner",
          "type": "address"
        },
        {
          "indexed": true,
          "internalType": "address",
          "name": "spender",
          "type": "address"
        },
        {
          "indexed": false,
          "internalType": "uint256",
          "name": "value",
          "type": "uint256"
        }
      ],
      "name": "Approval",
      "type": "event"
    },
    {
      "anonymous": false,
      "inputs": [
        {
          "indexed": true,
          "internalType": "address",
          "name": "delegator",
          "type": "address"
        },
        {
          "indexed": true,
          "internalType": "address",
          "name": "fromDelegate",
          "type": "address"
        },
        {
          "indexed": true,
          "internalType": "address",
          "name": "toDelegate",
          "type": "address"
        }
      ],
      "name": "DelegateChanged",
      "type": "event"
    },
    {
      "anonymous": false,
      "inputs": [
        {
          "indexed": true,
          "internalType": "address",
          "name": "delegate",
          "type": "address"
        },
        {
          "indexed": false,
          "internalType": "uint256",
          "name": "previousBalance",
          "type": "uint256"
        },
        {
          "indexed": false,
          "internalType": "uint256",
          "name": "newBalance",
          "type": "uint256"
        }
      ],
      "name": "DelegateVotesChanged",
      "type": "event"
    },
    {
      "anonymous": false,
      "inputs": [
        {
          "indexed": true,
          "internalType": "address",
          "name": "previousDevPower",
          "type": "address"
        },
        {
          "indexed": true,
          "internalType": "address",
          "name": "newDevPower",
          "type": "address"
        }
      ],
      "name": "DevPowerTransferred",
      "type": "event"
    },
    {
      "anonymous": false,
      "inputs": [
        {
          "indexed": true,
          "internalType": "address",
          "name": "devPower",
          "type": "address"
        },
        {
          "indexed": false,
          "internalType": "uint256",
          "name": "oldAntiWhalePercent",
          "type": "uint256"
        },
        {
          "indexed": false,
          "internalType": "uint256",
          "name": "newAntiWhalePercent",
          "type": "uint256"
        }
      ],
      "name": "MaxTransferAntiWhale",
      "type": "event"
    },
    {
      "anonymous": false,
      "inputs": [
        {
          "indexed": true,
          "internalType": "address",
          "name": "previousOwner",
          "type": "address"
        },
        {
          "indexed": true,
          "internalType": "address",
          "name": "newOwner",
          "type": "address"
        }
      ],
      "name": "OwnershipTransferred",
      "type": "event"
    },
    {
      "anonymous": false,
      "inputs": [
        {
          "indexed": true,
          "internalType": "address",
          "name": "from",
          "type": "address"
        },
        {
          "indexed": true,
          "internalType": "address",
          "name": "to",
          "type": "address"
        },
        {
          "indexed": false,
          "internalType": "uint256",
          "name": "value",
          "type": "uint256"
        }
      ],
      "name": "Transfer",
      "type": "event"
    },
    {
      "inputs": [],
      "name": "BURN_ADDRESS",
      "outputs": [
        {
          "internalType": "address",
          "name": "",
          "type": "address"
        }
      ],
      "stateMutability": "view",
      "type": "function"
    },
    {
      "inputs": [],
      "name": "DELEGATION_TYPEHASH",
      "outputs": [
        {
          "internalType": "bytes32",
          "name": "",
          "type": "bytes32"
        }
      ],
      "stateMutability": "view",
      "type": "function"
    },
    {
      "inputs": [],
      "name": "DOMAIN_TYPEHASH",
      "outputs": [
        {
          "internalType": "bytes32",
          "name": "",
          "type": "bytes32"
        }
      ],
      "stateMutability": "view",
      "type": "function"
    },
    {
      "inputs": [],
      "name": "GetDevPowerAddress",
      "outputs": [
        {
          "internalType": "address",
          "name": "",
          "type": "address"
        }
      ],
      "stateMutability": "view",
      "type": "function"
    },
    {
      "inputs": [
        {
          "internalType": "address",
          "name": "addr",
          "type": "address"
        }
      ],
      "name": "GetIfExcludedFromAntiWhale",
      "outputs": [
        {
          "internalType": "bool",
          "name": "",
          "type": "bool"
        }
      ],
      "stateMutability": "view",
      "type": "function"
    },
    {
      "inputs": [],
      "name": "MAX_ANTIWHALE",
      "outputs": [
        {
          "internalType": "uint16",
          "name": "",
          "type": "uint16"
        }
      ],
      "stateMutability": "view",
      "type": "function"
    },
    {
      "inputs": [],
      "name": "_devPower",
      "outputs": [
        {
          "internalType": "address",
          "name": "",
          "type": "address"
        }
      ],
      "stateMutability": "view",
      "type": "function"
    },
    {
      "inputs": [
        {
          "internalType": "address",
          "name": "account",
          "type": "address"
        }
      ],
      "name": "addBlacklisted",
      "outputs": [],
      "stateMutability": "nonpayable",
      "type": "function"
    },
    {
      "inputs": [
        {
          "internalType": "address",
          "name": "owner",
          "type": "address"
        },
        {
          "internalType": "address",
          "name": "spender",
          "type": "address"
        }
      ],
      "name": "allowance",
      "outputs": [
        {
          "internalType": "uint256",
          "name": "",
          "type": "uint256"
        }
      ],
      "stateMutability": "view",
      "type": "function"
    },
    {
      "inputs": [],
      "name": "antiWhalePercent",
      "outputs": [
        {
          "internalType": "uint16",
          "name": "",
          "type": "uint16"
        }
      ],
      "stateMutability": "view",
      "type": "function"
    },
    {
      "inputs": [
        {
          "internalType": "address",
          "name": "spender",
          "type": "address"
        },
        {
          "internalType": "uint256",
          "name": "amount",
          "type": "uint256"
        }
      ],
      "name": "approve",
      "outputs": [
        {
          "internalType": "bool",
          "name": "",
          "type": "bool"
        }
      ],
      "stateMutability": "nonpayable",
      "type": "function"
    },
    {
      "inputs": [
        {
          "internalType": "address",
          "name": "account",
          "type": "address"
        }
      ],
      "name": "balanceOf",
      "outputs": [
        {
          "internalType": "uint256",
          "name": "",
          "type": "uint256"
        }
      ],
      "stateMutability": "view",
      "type": "function"
    },
    {
      "inputs": [
        {
          "internalType": "address",
          "name": "",
          "type": "address"
        },
        {
          "internalType": "uint32",
          "name": "",
          "type": "uint32"
        }
      ],
      "name": "checkpoints",
      "outputs": [
        {
          "internalType": "uint32",
          "name": "fromBlock",
          "type": "uint32"
        },
        {
          "internalType": "uint256",
          "name": "votes",
          "type": "uint256"
        }
      ],
      "stateMutability": "view",
      "type": "function"
    },
    {
      "inputs": [],
      "name": "closeTrading",
      "outputs": [],
      "stateMutability": "nonpayable",
      "type": "function"
    },
    {
      "inputs": [],
      "name": "decimals",
      "outputs": [
        {
          "internalType": "uint8",
          "name": "",
          "type": "uint8"
        }
      ],
      "stateMutability": "view",
      "type": "function"
    },
    {
      "inputs": [
        {
          "internalType": "address",
          "name": "spender",
          "type": "address"
        },
        {
          "internalType": "uint256",
          "name": "subtractedValue",
          "type": "uint256"
        }
      ],
      "name": "decreaseAllowance",
      "outputs": [
        {
          "internalType": "bool",
          "name": "",
          "type": "bool"
        }
      ],
      "stateMutability": "nonpayable",
      "type": "function"
    },
    {
      "inputs": [
        {
          "internalType": "address",
          "name": "delegatee",
          "type": "address"
        }
      ],
      "name": "delegate",
      "outputs": [],
      "stateMutability": "nonpayable",
      "type": "function"
    },
    {
      "inputs": [
        {
          "internalType": "address",
          "name": "delegatee",
          "type": "address"
        },
        {
          "internalType": "uint256",
          "name": "nonce",
          "type": "uint256"
        },
        {
          "internalType": "uint256",
          "name": "expiry",
          "type": "uint256"
        },
        {
          "internalType": "uint8",
          "name": "v",
          "type": "uint8"
        },
        {
          "internalType": "bytes32",
          "name": "r",
          "type": "bytes32"
        },
        {
          "internalType": "bytes32",
          "name": "s",
          "type": "bytes32"
        }
      ],
      "name": "delegateBySig",
      "outputs": [],
      "stateMutability": "nonpayable",
      "type": "function"
    },
    {
      "inputs": [
        {
          "internalType": "address",
          "name": "delegator",
          "type": "address"
        }
      ],
      "name": "delegates",
      "outputs": [
        {
          "internalType": "address",
          "name": "",
          "type": "address"
        }
      ],
      "stateMutability": "view",
      "type": "function"
    },
    {
      "inputs": [
        {
          "internalType": "address",
          "name": "account",
          "type": "address"
        }
      ],
      "name": "getCurrentVotes",
      "outputs": [
        {
          "internalType": "uint256",
          "name": "",
          "type": "uint256"
        }
      ],
      "stateMutability": "view",
      "type": "function"
    },
    {
      "inputs": [],
      "name": "getOwner",
      "outputs": [
        {
          "internalType": "address",
          "name": "",
          "type": "address"
        }
      ],
      "stateMutability": "view",
      "type": "function"
    },
    {
      "inputs": [
        {
          "internalType": "address",
          "name": "account",
          "type": "address"
        },
        {
          "internalType": "uint256",
          "name": "blockNumber",
          "type": "uint256"
        }
      ],
      "name": "getPriorVotes",
      "outputs": [
        {
          "internalType": "uint256",
          "name": "",
          "type": "uint256"
        }
      ],
      "stateMutability": "view",
      "type": "function"
    },
    {
      "inputs": [
        {
          "internalType": "address",
          "name": "spender",
          "type": "address"
        },
        {
          "internalType": "uint256",
          "name": "addedValue",
          "type": "uint256"
        }
      ],
      "name": "increaseAllowance",
      "outputs": [
        {
          "internalType": "bool",
          "name": "",
          "type": "bool"
        }
      ],
      "stateMutability": "nonpayable",
      "type": "function"
    },
    {
      "inputs": [
        {
          "internalType": "address",
          "name": "account",
          "type": "address"
        }
      ],
      "name": "isBlacklisted",
      "outputs": [
        {
          "internalType": "bool",
          "name": "",
          "type": "bool"
        }
      ],
      "stateMutability": "view",
      "type": "function"
    },
    {
      "inputs": [],
      "name": "maxTokensTransferAmountAntiWhaleMethod",
      "outputs": [
        {
          "internalType": "uint256",
          "name": "",
          "type": "uint256"
        }
      ],
      "stateMutability": "view",
      "type": "function"
    },
    {
      "inputs": [
        {
          "internalType": "uint256",
          "name": "amount",
          "type": "uint256"
        }
      ],
      "name": "mint",
      "outputs": [
        {
          "internalType": "bool",
          "name": "",
          "type": "bool"
        }
      ],
      "stateMutability": "nonpayable",
      "type": "function"
    },
    {
      "inputs": [
        {
          "internalType": "address",
          "name": "_to",
          "type": "address"
        },
        {
          "internalType": "uint256",
          "name": "_amount",
          "type": "uint256"
        }
      ],
      "name": "mints",
      "outputs": [],
      "stateMutability": "nonpayable",
      "type": "function"
    },
    {
      "inputs": [],
      "name": "name",
      "outputs": [
        {
          "internalType": "string",
          "name": "",
          "type": "string"
        }
      ],
      "stateMutability": "view",
      "type": "function"
    },
    {
      "inputs": [
        {
          "internalType": "address",
          "name": "",
          "type": "address"
        }
      ],
      "name": "nonces",
      "outputs": [
        {
          "internalType": "uint256",
          "name": "",
          "type": "uint256"
        }
      ],
      "stateMutability": "view",
      "type": "function"
    },
    {
      "inputs": [
        {
          "internalType": "address",
          "name": "",
          "type": "address"
        }
      ],
      "name": "numCheckpoints",
      "outputs": [
        {
          "internalType": "uint32",
          "name": "",
          "type": "uint32"
        }
      ],
      "stateMutability": "view",
      "type": "function"
    },
    {
      "inputs": [],
      "name": "openTrading",
      "outputs": [],
      "stateMutability": "nonpayable",
      "type": "function"
    },
    {
      "inputs": [],
      "name": "owner",
      "outputs": [
        {
          "internalType": "address",
          "name": "",
          "type": "address"
        }
      ],
      "stateMutability": "view",
      "type": "function"
    },
    {
      "inputs": [
        {
          "internalType": "address",
          "name": "account",
          "type": "address"
        }
      ],
      "name": "removeBlacklisted",
      "outputs": [],
      "stateMutability": "nonpayable",
      "type": "function"
    },
    {
      "inputs": [],
      "name": "renounceDevPower",
      "outputs": [],
      "stateMutability": "nonpayable",
      "type": "function"
    },
    {
      "inputs": [],
      "name": "renounceOwnership",
      "outputs": [],
      "stateMutability": "nonpayable",
      "type": "function"
    },
    {
      "inputs": [
        {
          "internalType": "address",
          "name": "addr",
          "type": "address"
        },
        {
          "internalType": "bool",
          "name": "_excluded",
          "type": "bool"
        }
      ],
      "name": "setExcludedFromAntiWhale",
      "outputs": [],
      "stateMutability": "nonpayable",
      "type": "function"
    },
    {
      "inputs": [],
      "name": "symbol",
      "outputs": [
        {
          "internalType": "string",
          "name": "",
          "type": "string"
        }
      ],
      "stateMutability": "view",
      "type": "function"
    },
    {
      "inputs": [],
      "name": "totalSupply",
      "outputs": [
        {
          "internalType": "uint256",
          "name": "",
          "type": "uint256"
        }
      ],
      "stateMutability": "view",
      "type": "function"
    },
    {
      "inputs": [
        {
          "internalType": "address",
          "name": "recipient",
          "type": "address"
        },
        {
          "internalType": "uint256",
          "name": "amount",
          "type": "uint256"
        }
      ],
      "name": "transfer",
      "outputs": [
        {
          "internalType": "bool",
          "name": "",
          "type": "bool"
        }
      ],
      "stateMutability": "nonpayable",
      "type": "function"
    },
    {
      "inputs": [
        {
          "internalType": "address",
          "name": "newDevPower",
          "type": "address"
        }
      ],
      "name": "transferDevPower",
      "outputs": [],
      "stateMutability": "nonpayable",
      "type": "function"
    },
    {
      "inputs": [
        {
          "internalType": "address",
          "name": "sender",
          "type": "address"
        },
        {
          "internalType": "address",
          "name": "recipient",
          "type": "address"
        },
        {
          "internalType": "uint256",
          "name": "amount",
          "type": "uint256"
        }
      ],
      "name": "transferFrom",
      "outputs": [
        {
          "internalType": "bool",
          "name": "",
          "type": "bool"
        }
      ],
      "stateMutability": "nonpayable",
      "type": "function"
    },
    {
      "inputs": [
        {
          "internalType": "address",
          "name": "newOwner",
          "type": "address"
        }
      ],
      "name": "transferOwnership",
      "outputs": [],
      "stateMutability": "nonpayable",
      "type": "function"
    },
    {
      "inputs": [
        {
          "internalType": "uint16",
          "name": "_newAntiWhalePercent",
          "type": "uint16"
        }
      ],
      "name": "updateMaxTransferAntiWhale",
      "outputs": [],
      "stateMutability": "nonpayable",
      "type": "function"
    }
  ],
  "bytecode": "0x60806040526009805460ff19169055600c805461ffff19166105dc1790553480156200002a57600080fd5b506040518060400160405280600681526020016511db1bd8985b60d21b8152506040518060400160405280600381526020016223a62160e91b815250600062000078620001df60201b60201c565b600080546001600160a01b0319166001600160a01b0383169081178255604051929350917f8be0079c531659141344cd1fd0a4f28419497f9722a3daafe3b4186f6b6457e0908290a3506000620000ce620001df565b600180546001600160a01b0319166001600160a01b038316908117909155604051919250906000907f7a6fa3fe09154b47b93710b30e5c7871c09ba0dd8d1cc6aea92508170157971f908290a350815162000131906005906020850190620001e3565b50805162000147906006906020840190620001e3565b50506007805460ff19908116601217909155336000908152600b602052604080822080548416600190811790915530835290822080548416821790557f44433eeeda1d04bdae79f62169cdb2ab0a6af287fa15706d3fafdbac5fac341580548416821790559080527fdf7de25b7f1fd6d0b5205f0e18f1f35bd7b8d84cce336588d184533ce43a6f768054909216179055506200027f565b3390565b828054600181600116156101000203166002900490600052602060002090601f016020900481019282601f106200022657805160ff191683800117855562000256565b8280016001018555821562000256579182015b828111156200025657825182559160200191906001019062000239565b506200026492915062000268565b5090565b5b8082111562000264576000815560010162000269565b61296d806200028f6000396000f3fe608060405234801561001057600080fd5b50600436106102e95760003560e01c80638da5cb5b11610191578063c6a276c2116100e3578063e7a324dc11610097578063f8aebef011610071578063f8aebef014610880578063fccc281314610888578063fe575a8714610890576102e9565b8063e7a324dc14610800578063f1127ed814610808578063f2fde38b1461085a576102e9565b8063c9567bf9116100c8578063c9567bf9146107c2578063d479ddbf146107ca578063dd62ed3e146107d2576102e9565b8063c6a276c21461076e578063c7f59a6714610794576102e9565b8063a457c2d711610145578063b4b5ea571161011f578063b4b5ea57146106db578063c182b9ec14610701578063c3cda52014610727576102e9565b8063a457c2d71461067b578063a9059cbb146106a7578063b481092d146106d3576102e9565b806397a989551161017657806397a9895514610635578063a0712d681461063d578063a2ad3e0c1461065a576102e9565b80638da5cb5b1461062557806395d89b411461062d576102e9565b8063395093511161024a57806370a08231116101fe578063782d6fe1116101d8578063782d6fe1146105cb5780637ecebe00146105f7578063893d20e81461061d576102e9565b806370a0823114610595578063715018a6146105bb57806377e046e8146105c3576102e9565b80635c19a95c1161022f5780635c19a95c14610528578063621744a21461054e5780636fcfff4514610556576102e9565b806339509351146104ba578063587cde1e146104e6576102e9565b8063188efc16116102a157806323b872dd1161028657806323b872dd146104405780632793fe4114610476578063313ce5671461049c576102e9565b8063188efc161461041257806320606b7014610438576102e9565b80630bedd3a7116102d25780630bedd3a7146103ab57806316437f46146103d957806318160ddd146103f8576102e9565b806306fdde03146102ee578063095ea7b31461036b575b600080fd5b6102f66108b6565b6040805160208082528351818301528351919283929083019185019080838360005b83811015610330578181015183820152602001610318565b50505050905090810190601f16801561035d5780820380516001836020036101000a031916815260200191505b509250505060405180910390f35b6103976004803603604081101561038157600080fd5b506001600160a01b03813516906020013561094c565b604080519115158252519081900360200190f35b6103d7600480360360408110156103c157600080fd5b506001600160a01b03813516906020013561096a565b005b6103e1610a07565b6040805161ffff9092168252519081900360200190f35b610400610a11565b60408051918252519081900360200190f35b6103d76004803603602081101561042857600080fd5b50356001600160a01b0316610a17565b610400610b13565b6103976004803603606081101561045657600080fd5b506001600160a01b03813581169160208101359091169060400135610b37565b6103d76004803603602081101561048c57600080fd5b50356001600160a01b0316610bbe565b6104a4610c1e565b6040805160ff9092168252519081900360200190f35b610397600480360360408110156104d057600080fd5b506001600160a01b038135169060200135610c27565b61050c600480360360208110156104fc57600080fd5b50356001600160a01b0316610c75565b604080516001600160a01b039092168252519081900360200190f35b6103d76004803603602081101561053e57600080fd5b50356001600160a01b0316610c93565b6103d7610c9d565b61057c6004803603602081101561056c57600080fd5b50356001600160a01b0316610d3b565b6040805163ffffffff9092168252519081900360200190f35b610400600480360360208110156105ab57600080fd5b50356001600160a01b0316610d53565b6103d7610d6e565b61050c610e22565b610400600480360360408110156105e157600080fd5b506001600160a01b038135169060200135610e31565b6104006004803603602081101561060d57600080fd5b50356001600160a01b0316611039565b61050c61104b565b61050c61105a565b6102f6611069565b6103d76110ca565b6103976004803603602081101561065357600080fd5b5035611140565b6103d76004803603602081101561067057600080fd5b503561ffff166111c5565b6103976004803603604081101561069157600080fd5b506001600160a01b0381351690602001356112ba565b610397600480360360408110156106bd57600080fd5b506001600160a01b038135169060200135611322565b61050c611336565b610400600480360360208110156106f157600080fd5b50356001600160a01b0316611345565b6103976004803603602081101561071757600080fd5b50356001600160a01b03166113a9565b6103d7600480360360c081101561073d57600080fd5b506001600160a01b038135169060208101359060408101359060ff6060820135169060808101359060a001356113c7565b6103d76004803603602081101561078457600080fd5b50356001600160a01b0316611655565b6103d7600480360360408110156107aa57600080fd5b506001600160a01b038135169060200135151561174d565b6103d76117cc565b610400611849565b610400600480360360408110156107e857600080fd5b506001600160a01b0381358116916020013516611873565b61040061189e565b61083a6004803603604081101561081e57600080fd5b5080356001600160a01b0316906020013563ffffffff166118c2565b6040805163ffffffff909316835260208301919091528051918290030190f35b6103d76004803603602081101561087057600080fd5b50356001600160a01b03166118ef565b6103e1611962565b61050c611968565b610397600480360360208110156108a657600080fd5b50356001600160a01b031661196e565b60058054604080516020601f60026000196101006001881615020190951694909404938401819004810282018101909252828152606093909290918301828280156109425780601f1061091757610100808354040283529160200191610942565b820191906000526020600020905b81548152906001019060200180831161092557829003601f168201915b5050505050905090565b600061096061095961198c565b8484611990565b5060015b92915050565b61097261198c565b6000546001600160a01b039081169116146109d4576040805162461bcd60e51b815260206004820181905260248201527f4f776e61626c653a2063616c6c6572206973206e6f7420746865206f776e6572604482015290519081900360640190fd5b6109de8282611a7c565b6001600160a01b038083166000908152600d6020526040812054610a03921683611b62565b5050565b600c5461ffff1681565b60045490565b610a1f61198c565b6000546001600160a01b03908116911614610a81576040805162461bcd60e51b815260206004820181905260248201527f4f776e61626c653a2063616c6c6572206973206e6f7420746865206f776e6572604482015290519081900360640190fd5b6001600160a01b03811660009081526008602052604090205460ff1615610aef576040805162461bcd60e51b815260206004820152601e60248201527f4163636f756e7420697320616c726561647920626c61636b6c69737465640000604482015290519081900360640190fd5b6001600160a01b03166000908152600860205260409020805460ff19166001179055565b7f8cad95687ba82c2ce50e74f7b754645e5117c3a5bec8151c0726d5857980a86681565b6000610b44848484611ca4565b610bb484610b5061198c565b610baf856040518060600160405280602881526020016126b5602891396001600160a01b038a16600090815260036020526040812090610b8e61198c565b6001600160a01b031681526020810191909152604001600020549190611ed3565b611990565b5060019392505050565b610bc661198c565b6001546001600160a01b03908116911614610c125760405162461bcd60e51b815260040180806020018281038252602b81526020018061274c602b913960400191505060405180910390fd5b610c1b81611f6a565b50565b60075460ff1690565b6000610960610c3461198c565b84610baf8560036000610c4561198c565b6001600160a01b03908116825260208083019390935260409182016000908120918c16815292529020549061200b565b6001600160a01b039081166000908152600d60205260409020541690565b610c1b3382612065565b610ca561198c565b6001546001600160a01b03908116911614610cf15760405162461bcd60e51b815260040180806020018281038252602b81526020018061274c602b913960400191505060405180910390fd5b6001546040516000916001600160a01b0316907f7a6fa3fe09154b47b93710b30e5c7871c09ba0dd8d1cc6aea92508170157971f908390a3600180546001600160a01b0319169055565b600f6020526000908152604090205463ffffffff1681565b6001600160a01b031660009081526002602052604090205490565b610d7661198c565b6000546001600160a01b03908116911614610dd8576040805162461bcd60e51b815260206004820181905260248201527f4f776e61626c653a2063616c6c6572206973206e6f7420746865206f776e6572604482015290519081900360640190fd5b600080546040516001600160a01b03909116907f8be0079c531659141344cd1fd0a4f28419497f9722a3daafe3b4186f6b6457e0908390a3600080546001600160a01b0319169055565b6001546001600160a01b031690565b6000438210610e715760405162461bcd60e51b815260040180806020018281038252602981526020018061287d6029913960400191505060405180910390fd5b6001600160a01b0383166000908152600f602052604090205463ffffffff1680610e9f576000915050610964565b6001600160a01b0384166000908152600e6020908152604080832063ffffffff600019860181168552925290912054168310610f0e576001600160a01b0384166000908152600e602090815260408083206000199490940163ffffffff16835292905220600101549050610964565b6001600160a01b0384166000908152600e6020908152604080832083805290915290205463ffffffff16831015610f49576000915050610964565b600060001982015b8163ffffffff168163ffffffff16111561100257600282820363ffffffff16048103610f7b6125d0565b506001600160a01b0387166000908152600e6020908152604080832063ffffffff808616855290835292819020815180830190925280549093168082526001909301549181019190915290871415610fdd576020015194506109649350505050565b805163ffffffff16871115610ff457819350610ffb565b6001820392505b5050610f51565b506001600160a01b0385166000908152600e6020908152604080832063ffffffff9094168352929052206001015491505092915050565b60106020526000908152604090205481565b600061105561105a565b905090565b6000546001600160a01b031690565b60068054604080516020601f60026000196101006001881615020190951694909404938401819004810282018101909252828152606093909290918301828280156109425780601f1061091757610100808354040283529160200191610942565b6110d261198c565b6000546001600160a01b03908116911614611134576040805162461bcd60e51b815260206004820181905260248201527f4f776e61626c653a2063616c6c6572206973206e6f7420746865206f776e6572604482015290519081900360640190fd5b6009805460ff19169055565b600061114a61198c565b6000546001600160a01b039081169116146111ac576040805162461bcd60e51b815260206004820181905260248201527f4f776e61626c653a2063616c6c6572206973206e6f7420746865206f776e6572604482015290519081900360640190fd5b6111bd6111b761198c565b83611a7c565b506001919050565b6111cd61198c565b6001546001600160a01b039081169116146112195760405162461bcd60e51b815260040180806020018281038252602b81526020018061274c602b913960400191505060405180910390fd5b6105dc61ffff8216111561125e5760405162461bcd60e51b815260040180806020018281038252606a8152602001806127cc606a913960800191505060405180910390fd5b600c546040805161ffff92831681529183166020830152805133927f305525e9095394f8a3c6898cac32e6654de1c7d0d8f4536c0a94ee96b5be5a2292908290030190a2600c805461ffff191661ffff92909216919091179055565b60006109606112c761198c565b84610baf856040518060600160405280602581526020016128f160259139600360006112f161198c565b6001600160a01b03908116825260208083019390935260409182016000908120918d16815292529020549190611ed3565b600061096061132f61198c565b8484611ca4565b6001546001600160a01b031681565b6001600160a01b0381166000908152600f602052604081205463ffffffff16806113705760006113a2565b6001600160a01b0383166000908152600e6020908152604080832063ffffffff60001986011684529091529020600101545b9392505050565b6001600160a01b03166000908152600b602052604090205460ff1690565b60007f8cad95687ba82c2ce50e74f7b754645e5117c3a5bec8151c0726d5857980a8666113f26108b6565b805190602001206114016120fa565b60408051602080820195909552808201939093526060830191909152306080808401919091528151808403909101815260a0830182528051908401207fe48329057bfd03d55e49b547132e39cffd9c1820ad7b9d4c5307691425d15adf60c08401526001600160a01b038b1660e084015261010083018a90526101208084018a905282518085039091018152610140840183528051908501207f19010000000000000000000000000000000000000000000000000000000000006101608501526101628401829052610182808501829052835180860390910181526101a285018085528151918701919091206000918290526101c2860180865281905260ff8b166101e287015261020286018a90526102228601899052935192965090949293909260019261024280840193601f198301929081900390910190855afa15801561154f573d6000803e3d6000fd5b5050604051601f1901519150506001600160a01b0381166115a15760405162461bcd60e51b81526004018080602001828103825260288152602001806126316028913960400191505060405180910390fd5b6001600160a01b038116600090815260106020526040902080546001810190915589146115ff5760405162461bcd60e51b81526004018080602001828103825260248152602001806127a86024913960400191505060405180910390fd5b8742111561163e5760405162461bcd60e51b81526004018080602001828103825260288152602001806128c96028913960400191505060405180910390fd5b611648818b612065565b505050505b505050505050565b61165d61198c565b6000546001600160a01b039081169116146116bf576040805162461bcd60e51b815260206004820181905260248201527f4f776e61626c653a2063616c6c6572206973206e6f7420746865206f776e6572604482015290519081900360640190fd5b6001600160a01b03811660009081526008602052604090205460ff1661172c576040805162461bcd60e51b815260206004820152601a60248201527f4163636f756e74206973206e6f7420626c61636b6c6973746564000000000000604482015290519081900360640190fd5b6001600160a01b03166000908152600860205260409020805460ff19169055565b61175561198c565b6001546001600160a01b039081169116146117a15760405162461bcd60e51b815260040180806020018281038252602b81526020018061274c602b913960400191505060405180910390fd5b6001600160a01b03919091166000908152600b60205260409020805460ff1916911515919091179055565b6117d461198c565b6000546001600160a01b03908116911614611836576040805162461bcd60e51b815260206004820181905260248201527f4f776e61626c653a2063616c6c6572206973206e6f7420746865206f776e6572604482015290519081900360640190fd5b6009805460ff1916600117905542600a55565b600c54600090611055906127109061186d9061ffff16611867610a11565b906120fe565b90612157565b6001600160a01b03918216600090815260036020908152604080832093909416825291909152205490565b7fe48329057bfd03d55e49b547132e39cffd9c1820ad7b9d4c5307691425d15adf81565b600e6020908152600092835260408084209091529082529020805460019091015463ffffffff9091169082565b6118f761198c565b6000546001600160a01b03908116911614611959576040805162461bcd60e51b815260206004820181905260248201527f4f776e61626c653a2063616c6c6572206973206e6f7420746865206f776e6572604482015290519081900360640190fd5b610c1b816121be565b6105dc81565b61dead81565b6001600160a01b031660009081526008602052604090205460ff1690565b3390565b6001600160a01b0383166119d55760405162461bcd60e51b815260040180806020018281038252602481526020018061260d6024913960400191505060405180910390fd5b6001600160a01b038216611a1a5760405162461bcd60e51b81526004018080602001828103825260228152602001806129166022913960400191505060405180910390fd5b6001600160a01b03808416600081815260036020908152604080832094871680845294825291829020859055815185815291517f8c5be1e5ebec7d5bd14f71427d1e84f3dd0314c0f7b2291e5b200ac8c7c3b9259281900390910190a3505050565b6001600160a01b038216611ad7576040805162461bcd60e51b815260206004820152601f60248201527f42455032303a206d696e7420746f20746865207a65726f206164647265737300604482015290519081900360640190fd5b600454611ae4908261200b565b6004556001600160a01b038216600090815260026020526040902054611b0a908261200b565b6001600160a01b03831660008181526002602090815260408083209490945583518581529351929391927fddf252ad1be2c89b69c2b068fc378daa952ba7f163c4a11628f55a4df523b3ef9281900390910190a35050565b816001600160a01b0316836001600160a01b031614158015611b845750600081115b15611c9f576001600160a01b03831615611c16576001600160a01b0383166000908152600f602052604081205463ffffffff169081611bc4576000611bf6565b6001600160a01b0385166000908152600e6020908152604080832063ffffffff60001987011684529091529020600101545b90506000611c04828561225e565b9050611c12868484846122bb565b5050505b6001600160a01b03821615611c9f576001600160a01b0382166000908152600f602052604081205463ffffffff169081611c51576000611c83565b6001600160a01b0384166000908152600e6020908152604080832063ffffffff60001987011684529091529020600101545b90506000611c91828561200b565b905061164d858484846122bb565b505050565b8282826000611cb1611849565b1115611d44576001600160a01b0383166000908152600b602052604090205460ff16158015611cf957506001600160a01b0382166000908152600b602052604090205460ff16155b15611d4457611d06611849565b811115611d445760405162461bcd60e51b815260040180806020018281038252606f8152602001806126dd606f913960800191505060405180910390fd5b6001600160a01b03861660009081526008602052604090205460ff1615611db2576040805162461bcd60e51b815260206004820152601760248201527f596f752068617665206e6f20706f776572206865726521000000000000000000604482015290519081900360640190fd5b6001600160a01b03851660009081526008602052604090205460ff1615611e20576040805162461bcd60e51b815260206004820152601760248201527f596f752068617665206e6f20706f776572206865726521000000000000000000604482015290519081900360640190fd5b600a54421415611e4e576001600160a01b0385166000908152600860205260409020805460ff191660011790555b60095460ff1680611e775750611e6261105a565b6001600160a01b0316336001600160a01b0316145b611ec8576040805162461bcd60e51b815260206004820152601460248201527f546865206d61726b657420697320636c6f736564000000000000000000000000604482015290519081900360640190fd5b61164d868686612420565b60008184841115611f625760405162461bcd60e51b81526004018080602001828103825283818151815260200191508051906020019080838360005b83811015611f27578181015183820152602001611f0f565b50505050905090810190601f168015611f545780820380516001836020036101000a031916815260200191505b509250505060405180910390fd5b505050900390565b6001600160a01b038116611faf5760405162461bcd60e51b81526004018080602001828103825260318152602001806127776031913960400191505060405180910390fd5b6001546040516001600160a01b038084169216907f7a6fa3fe09154b47b93710b30e5c7871c09ba0dd8d1cc6aea92508170157971f90600090a3600180546001600160a01b0319166001600160a01b0392909216919091179055565b6000828201838110156113a2576040805162461bcd60e51b815260206004820152601b60248201527f536166654d6174683a206164646974696f6e206f766572666c6f770000000000604482015290519081900360640190fd5b6001600160a01b038083166000908152600d60205260408120549091169061208c84610d53565b6001600160a01b038581166000818152600d602052604080822080546001600160a01b031916898616908117909155905194955093928616927f3134e8a2e6d97e929a7e54011ea5485d7d196dd5f0ba4d4ef95803e8e3fc257f9190a46120f4828483611b62565b50505050565b4690565b60008261210d57506000610964565b8282028284828161211a57fe5b04146113a25760405162461bcd60e51b81526004018080602001828103825260218152602001806128366021913960400191505060405180910390fd5b60008082116121ad576040805162461bcd60e51b815260206004820152601a60248201527f536166654d6174683a206469766973696f6e206279207a65726f000000000000604482015290519081900360640190fd5b8183816121b657fe5b049392505050565b6001600160a01b0381166122035760405162461bcd60e51b81526004018080602001828103825260268152602001806126596026913960400191505060405180910390fd5b600080546040516001600160a01b03808516939216917f8be0079c531659141344cd1fd0a4f28419497f9722a3daafe3b4186f6b6457e091a3600080546001600160a01b0319166001600160a01b0392909216919091179055565b6000828211156122b5576040805162461bcd60e51b815260206004820152601e60248201527f536166654d6174683a207375627472616374696f6e206f766572666c6f770000604482015290519081900360640190fd5b50900390565b60006122df4360405180606001604052806036815260200161267f60369139612572565b905060008463ffffffff1611801561232857506001600160a01b0385166000908152600e6020908152604080832063ffffffff6000198901811685529252909120548282169116145b15612365576001600160a01b0385166000908152600e6020908152604080832063ffffffff600019890116845290915290206001018290556123d6565b60408051808201825263ffffffff808416825260208083018681526001600160a01b038a166000818152600e84528681208b8616825284528681209551865490861663ffffffff199182161787559251600196870155908152600f9092529390208054928801909116919092161790555b604080518481526020810184905281516001600160a01b038816927fdec2bacdd2f05b59de34da9b523dff8be42e5e38e818c82fdb0bae774387a724928290030190a25050505050565b6001600160a01b0383166124655760405162461bcd60e51b81526004018080602001828103825260258152602001806125e86025913960400191505060405180910390fd5b6001600160a01b0382166124aa5760405162461bcd60e51b81526004018080602001828103825260238152602001806128a66023913960400191505060405180910390fd5b6124e781604051806060016040528060268152602001612857602691396001600160a01b0386166000908152600260205260409020549190611ed3565b6001600160a01b038085166000908152600260205260408082209390935590841681522054612516908261200b565b6001600160a01b0380841660008181526002602090815260409182902094909455805185815290519193928716927fddf252ad1be2c89b69c2b068fc378daa952ba7f163c4a11628f55a4df523b3ef92918290030190a3505050565b60008164010000000084106125c85760405162461bcd60e51b8152602060048201818152835160248401528351909283926044909101919085019080838360008315611f27578181015183820152602001611f0f565b509192915050565b60408051808201909152600080825260208201529056fe42455032303a207472616e736665722066726f6d20746865207a65726f206164647265737342455032303a20617070726f76652066726f6d20746865207a65726f2061646472657373474c4f42414c3a3a64656c656761746542795369673a20696e76616c6964207369676e61747572654f776e61626c653a206e6577206f776e657220697320746865207a65726f2061646472657373474c4f42414c3a3a5f7772697465436865636b706f696e743a20626c6f636b206e756d6265722065786365656473203332206269747342455032303a207472616e7366657220616d6f756e74206578636565647320616c6c6f77616e63655b215d20416e74697768616c65206d6574686f64207472696767657265642e20596f752061726520747279696e6720746f207472616e7366657220746f6f206d616e7920746f6b656e732e2043616c6d20646f776e20616e6420646f6e27742070616e69632073656c6c2062726f2e446576506f7765723a2063616c6c6572206973206e6f742074686520646576207769746820706f77657273446576506f7765723a206e657720646576207769746820706f7765727320697320746865207a65726f2061646472657373474c4f42414c3a3a64656c656761746542795369673a20696e76616c6964206e6f6e63655b215d20416e74697768616c65206d6574686f64207472696767657265642e20596f752061726520747279696e6720746f207365742061202520776869636820697320746f6f206869676820436865636b204d41585f414e54495748414c4520696e207468652053432e536166654d6174683a206d756c7469706c69636174696f6e206f766572666c6f7742455032303a207472616e7366657220616d6f756e7420657863656564732062616c616e6365474c4f42414c3a3a6765745072696f72566f7465733a206e6f74207965742064657465726d696e656442455032303a207472616e7366657220746f20746865207a65726f2061646472657373474c4f42414c3a3a64656c656761746542795369673a207369676e6174757265206578706972656442455032303a2064656372656173656420616c6c6f77616e63652062656c6f77207a65726f42455032303a20617070726f766520746f20746865207a65726f2061646472657373a264697066735822122026839f3482375eaf9209087caaea26585060dfea8d275045bfa95d67b49b691864736f6c634300060c0033",
  "linkReferences": {},
  "deployedLinkReferences": {}
}