{
  "_format": "hh-sol-artifact-1",
  "contractName": "RouterMock",
  "sourceName": "contracts/Mocks/RouterMock.sol",
  "abi": [
    {
      "inputs": [
        {
          "internalType": "address",
          "name": "tokenA",
          "type": "address"
        },
        {
          "internalType": "address",
          "name": "tokenB",
          "type": "address"
        },
        {
          "internalType": "uint256",
          "name": "amountADesired",
          "type": "uint256"
        },
        {
          "internalType": "uint256",
          "name": "amountBDesired",
          "type": "uint256"
        },
        {
          "internalType": "uint256",
          "name": "amountAMin",
          "type": "uint256"
        },
        {
          "internalType": "uint256",
          "name": "amountBMin",
          "type": "uint256"
        },
        {
          "internalType": "address",
          "name": "to",
          "type": "address"
        },
        {
          "internalType": "uint256",
          "name": "deadline",
          "type": "uint256"
        }
      ],
      "name": "addLiquidity",
      "outputs": [
        {
          "internalType": "uint256",
          "name": "amountA",
          "type": "uint256"
        },
        {
          "internalType": "uint256",
          "name": "amountB",
          "type": "uint256"
        },
        {
          "internalType": "uint256",
          "name": "liquidity",
          "type": "uint256"
        }
      ],
      "stateMutability": "nonpayable",
      "type": "function"
    },
    {
      "inputs": [
        {
          "internalType": "uint256",
          "name": "amountIn",
          "type": "uint256"
        },
        {
          "internalType": "address[]",
          "name": "path",
          "type": "address[]"
        }
      ],
      "name": "getAmountsOut",
      "outputs": [
        {
          "internalType": "uint256[]",
          "name": "amounts",
          "type": "uint256[]"
        }
      ],
      "stateMutability": "view",
      "type": "function"
    },
    {
      "inputs": [
        {
          "internalType": "address",
          "name": "tokenA",
          "type": "address"
        },
        {
          "internalType": "address",
          "name": "tokenB",
          "type": "address"
        },
        {
          "internalType": "uint256",
          "name": "liquidity",
          "type": "uint256"
        },
        {
          "internalType": "uint256",
          "name": "amountAMin",
          "type": "uint256"
        },
        {
          "internalType": "uint256",
          "name": "amountBMin",
          "type": "uint256"
        },
        {
          "internalType": "address",
          "name": "to",
          "type": "address"
        },
        {
          "internalType": "uint256",
          "name": "deadline",
          "type": "uint256"
        }
      ],
      "name": "removeLiquidity",
      "outputs": [
        {
          "internalType": "uint256",
          "name": "amountA",
          "type": "uint256"
        },
        {
          "internalType": "uint256",
          "name": "amountB",
          "type": "uint256"
        }
      ],
      "stateMutability": "nonpayable",
      "type": "function"
    },
    {
      "inputs": [
        {
          "internalType": "uint256",
          "name": "amountOutMin",
          "type": "uint256"
        },
        {
          "internalType": "address[]",
          "name": "path",
          "type": "address[]"
        },
        {
          "internalType": "address",
          "name": "to",
          "type": "address"
        },
        {
          "internalType": "uint256",
          "name": "deadline",
          "type": "uint256"
        }
      ],
      "name": "swapExactETHForTokens",
      "outputs": [
        {
          "internalType": "uint256[]",
          "name": "amounts",
          "type": "uint256[]"
        }
      ],
      "stateMutability": "payable",
      "type": "function"
    },
    {
      "inputs": [
        {
          "internalType": "uint256",
          "name": "amountIn",
          "type": "uint256"
        },
        {
          "internalType": "uint256",
          "name": "amountOutMin",
          "type": "uint256"
        },
        {
          "internalType": "address[]",
          "name": "path",
          "type": "address[]"
        },
        {
          "internalType": "address",
          "name": "to",
          "type": "address"
        },
        {
          "internalType": "uint256",
          "name": "deadline",
          "type": "uint256"
        }
      ],
      "name": "swapExactTokensForTokens",
      "outputs": [
        {
          "internalType": "uint256[]",
          "name": "amounts",
          "type": "uint256[]"
        }
      ],
      "stateMutability": "nonpayable",
      "type": "function"
    }
  ],
  "bytecode": "0x608060405234801561001057600080fd5b506109f2806100206000396000f3fe60806040526004361061005a5760003560e01c8063baa2abde11610043578063baa2abde146101cd578063d06ca61f14610243578063e8e33700146102fa5761005a565b806338ed17391461005f5780637ff36ab514610147575b600080fd5b34801561006b57600080fd5b506100f7600480360360a081101561008257600080fd5b8135916020810135918101906060810160408201356401000000008111156100a957600080fd5b8201836020820111156100bb57600080fd5b803590602001918460208302840111640100000000831117156100dd57600080fd5b91935091506001600160a01b03813516906020013561037a565b60408051602080825283518183015283519192839290830191858101910280838360005b8381101561013357818101518382015260200161011b565b505050509050019250505060405180910390f35b6100f76004803603608081101561015d57600080fd5b8135919081019060408101602082013564010000000081111561017f57600080fd5b82018360208201111561019157600080fd5b803590602001918460208302840111640100000000831117156101b357600080fd5b91935091506001600160a01b038135169060200135610400565b3480156101d957600080fd5b5061022a600480360360e08110156101f057600080fd5b506001600160a01b038135811691602081013582169160408201359160608101359160808201359160a08101359091169060c00135610485565b6040805192835260208301919091528051918290030190f35b34801561024f57600080fd5b506100f76004803603604081101561026657600080fd5b8135919081019060408101602082013564010000000081111561028857600080fd5b82018360208201111561029a57600080fd5b803590602001918460208302840111640100000000831117156102bc57600080fd5b919080806020026020016040519081016040528093929190818152602001838360200280828437600092019190915250929550610595945050505050565b34801561030657600080fd5b5061035c600480360361010081101561031e57600080fd5b506001600160a01b038135811691602081013582169160408201359160608101359160808201359160a08101359160c0820135169060e00135610616565b60408051938452602084019290925282820152519081900360600190f35b606060008585600181811061038b57fe5b905060200201356001600160a01b031690506103bb8489836001600160a01b03166106309092919063ffffffff16565b604080516001808252818301909252906020808301908036833701905050915087826000815181106103e957fe5b602002602001018181525050509695505050505050565b606060008585600181811061041157fe5b905060200201356001600160a01b031690506104418488836001600160a01b03166106309092919063ffffffff16565b6040805160018082528183019092529060208083019080368337019050509150868260008151811061046f57fe5b6020026020010181815250505095945050505050565b6040805163a9059cbb60e01b8152336004820152670de0b6b3a764000060248201819052915182916001600160a01b038b169163a9059cbb916044808201926020929091908290030181600087803b1580156104e057600080fd5b505af11580156104f4573d6000803e3d6000fd5b505050506040513d602081101561050a57600080fd5b50506040805163a9059cbb60e01b81523360048201526024810183905290516001600160a01b038a169163a9059cbb9160448083019260209291908290030181600087803b15801561055b57600080fd5b505af115801561056f573d6000803e3d6000fd5b505050506040513d602081101561058557600080fd5b5091999098509650505050505050565b6060815167ffffffffffffffff811180156105af57600080fd5b506040519080825280602002602001820160405280156105d9578160200160208202803683370190505b50905082816000815181106105ea57fe5b602002602001018181525050828160018151811061060457fe5b60200260200101818152505092915050565b50670de0b6b3a76400009788975060009650945050505050565b604080516001600160a01b038416602482015260448082018490528251808303909101815260649091019091526020810180517bffffffffffffffffffffffffffffffffffffffffffffffffffffffff1663a9059cbb60e01b17905261069790849061069c565b505050565b60606106f1826040518060400160405280602081526020017f5361666542455032303a206c6f772d6c6576656c2063616c6c206661696c6564815250856001600160a01b031661074d9092919063ffffffff16565b8051909150156106975780806020019051602081101561071057600080fd5b50516106975760405162461bcd60e51b815260040180806020018281038252602a81526020018061096d602a913960400191505060405180910390fd5b606061075c8484600085610766565b90505b9392505050565b6060824710156107a75760405162461bcd60e51b81526004018080602001828103825260268152602001806109976026913960400191505060405180910390fd5b6107b0856108c2565b610801576040805162461bcd60e51b815260206004820152601d60248201527f416464726573733a2063616c6c20746f206e6f6e2d636f6e7472616374000000604482015290519081900360640190fd5b60006060866001600160a01b031685876040518082805190602001908083835b602083106108405780518252601f199092019160209182019101610821565b6001836020036101000a03801982511681845116808217855250505050505090500191505060006040518083038185875af1925050503d80600081146108a2576040519150601f19603f3d011682016040523d82523d6000602084013e6108a7565b606091505b50915091506108b78282866108c8565b979650505050505050565b3b151590565b606083156108d757508161075f565b8251156108e75782518084602001fd5b8160405162461bcd60e51b81526004018080602001828103825283818151815260200191508051906020019080838360005b83811015610931578181015183820152602001610919565b50505050905090810190601f16801561095e5780820380516001836020036101000a031916815260200191505b509250505060405180910390fdfe5361666542455032303a204245503230206f7065726174696f6e20646964206e6f742073756363656564416464726573733a20696e73756666696369656e742062616c616e636520666f722063616c6ca26469706673582212207347cb90eefa59c97798bdd80f41d6450a57efef1a52957b3f581980d8b53ca464736f6c634300060c0033",
  "linkReferences": {},
  "deployedLinkReferences": {}
}