{
  "_format": "hh-sol-artifact-1",
  "contractName": "TokenAddresses",
  "sourceName": "contracts/Helpers/TokenAddresses.sol",
  "abi": [
    {
      "anonymous": false,
      "inputs": [
        {
          "indexed": true,
          "internalType": "address",
          "name": "previousOwner",
          "type": "address"
        },
        {
          "indexed": true,
          "internalType": "address",
          "name": "newOwner",
          "type": "address"
        }
      ],
      "name": "OwnershipTransferred",
      "type": "event"
    },
    {
      "inputs": [],
      "name": "BNB",
      "outputs": [
        {
          "internalType": "string",
          "name": "",
          "type": "string"
        }
      ],
      "stateMutability": "view",
      "type": "function"
    },
    {
      "inputs": [],
      "name": "BUNNY",
      "outputs": [
        {
          "internalType": "string",
          "name": "",
          "type": "string"
        }
      ],
      "stateMutability": "view",
      "type": "function"
    },
    {
      "inputs": [],
      "name": "BUSD",
      "outputs": [
        {
          "internalType": "string",
          "name": "",
          "type": "string"
        }
      ],
      "stateMutability": "view",
      "type": "function"
    },
    {
      "inputs": [],
      "name": "CAKE",
      "outputs": [
        {
          "internalType": "string",
          "name": "",
          "type": "string"
        }
      ],
      "stateMutability": "view",
      "type": "function"
    },
    {
      "inputs": [],
      "name": "CAKE_WBNB_LP",
      "outputs": [
        {
          "internalType": "string",
          "name": "",
          "type": "string"
        }
      ],
      "stateMutability": "view",
      "type": "function"
    },
    {
      "inputs": [],
      "name": "GLOBAL",
      "outputs": [
        {
          "internalType": "string",
          "name": "",
          "type": "string"
        }
      ],
      "stateMutability": "view",
      "type": "function"
    },
    {
      "inputs": [],
      "name": "WBNB",
      "outputs": [
        {
          "internalType": "string",
          "name": "",
          "type": "string"
        }
      ],
      "stateMutability": "view",
      "type": "function"
    },
    {
      "inputs": [
        {
          "internalType": "string",
          "name": "_tokenName",
          "type": "string"
        },
        {
          "internalType": "address",
          "name": "_tokenAddress",
          "type": "address"
        }
      ],
      "name": "addToken",
      "outputs": [],
      "stateMutability": "nonpayable",
      "type": "function"
    },
    {
      "inputs": [
        {
          "internalType": "string",
          "name": "_tokenName",
          "type": "string"
        }
      ],
      "name": "findByName",
      "outputs": [
        {
          "internalType": "address",
          "name": "",
          "type": "address"
        }
      ],
      "stateMutability": "view",
      "type": "function"
    },
    {
      "inputs": [],
      "name": "owner",
      "outputs": [
        {
          "internalType": "address",
          "name": "",
          "type": "address"
        }
      ],
      "stateMutability": "view",
      "type": "function"
    },
    {
      "inputs": [],
      "name": "renounceOwnership",
      "outputs": [],
      "stateMutability": "nonpayable",
      "type": "function"
    },
    {
      "inputs": [
        {
          "internalType": "address",
          "name": "newOwner",
          "type": "address"
        }
      ],
      "name": "transferOwnership",
      "outputs": [],
      "stateMutability": "nonpayable",
      "type": "function"
    }
  ],
  "bytecode": "0x608060405234801561001057600080fd5b50600061001b61006a565b600080546001600160a01b0319166001600160a01b0383169081178255604051929350917f8be0079c531659141344cd1fd0a4f28419497f9722a3daafe3b4186f6b6457e0908290a35061006e565b3390565b610a148061007d6000396000f3fe608060405234801561001057600080fd5b50600436106100d45760003560e01c80638da5cb5b11610081578063eeb3bdae1161005b578063eeb3bdae146102fb578063f2fde38b14610303578063f6b70e9214610329576100d4565b80638da5cb5b1461023a5780638dd9500214610242578063b0b22c2c1461024a576100d4565b80634d9a3136116100b25780634d9a31361461016657806358f7f6d214610228578063715018a614610230576100d4565b806320cc1fb1146100d9578063484f4ea9146101565780634ca6ef281461015e575b600080fd5b6100e1610331565b6040805160208082528351818301528351919283929083019185019080838360005b8381101561011b578181015183820152602001610103565b50505050905090810190601f1680156101485780820380516001836020036101000a031916815260200191505b509250505060405180910390f35b6100e161036a565b6100e16103a3565b61020c6004803603602081101561017c57600080fd5b81019060208101813564010000000081111561019757600080fd5b8201836020820111156101a957600080fd5b803590602001918460018302840111640100000000831117156101cb57600080fd5b91908080601f0160208091040260200160405190810160405280939291908181526020018383808284376000920191909152509295506103dc945050505050565b604080516001600160a01b039092168252519081900360200190f35b6100e1610518565b610238610551565b005b61020c610612565b6100e1610621565b6102386004803603604081101561026057600080fd5b81019060208101813564010000000081111561027b57600080fd5b82018360208201111561028d57600080fd5b803590602001918460018302840111640100000000831117156102af57600080fd5b91908080601f016020809104026020016040519081016040528093929190818152602001838380828437600092019190915250929550505090356001600160a01b0316915061065a9050565b6100e161081f565b6102386004803603602081101561031957600080fd5b50356001600160a01b0316610858565b6100e16108ce565b6040518060400160405280600681526020017f474c4f42414c000000000000000000000000000000000000000000000000000081525081565b6040518060400160405280600481526020017f425553440000000000000000000000000000000000000000000000000000000081525081565b6040518060400160405280600481526020017f43414b450000000000000000000000000000000000000000000000000000000081525081565b6000806001600160a01b03166001836040518082805190602001908083835b6020831061041a5780518252601f1990920191602091820191016103fb565b51815160209384036101000a60001901801990921691161790529201948552506040519384900301909220546001600160a01b0316929092141591506104a99050576040805162461bcd60e51b815260206004820152601660248201527f546f6b656e20646f6573206e6f74206578697374732e00000000000000000000604482015290519081900360640190fd5b6001826040518082805190602001908083835b602083106104db5780518252601f1990920191602091820191016104bc565b51815160209384036101000a60001901801990921691161790529201948552506040519384900301909220546001600160a01b0316949350505050565b6040518060400160405280600381526020017f424e42000000000000000000000000000000000000000000000000000000000081525081565b610559610907565b6000546001600160a01b039081169116146105bb576040805162461bcd60e51b815260206004820181905260248201527f4f776e61626c653a2063616c6c6572206973206e6f7420746865206f776e6572604482015290519081900360640190fd5b600080546040516001600160a01b03909116907f8be0079c531659141344cd1fd0a4f28419497f9722a3daafe3b4186f6b6457e0908390a36000805473ffffffffffffffffffffffffffffffffffffffff19169055565b6000546001600160a01b031690565b6040518060400160405280600481526020017f57424e420000000000000000000000000000000000000000000000000000000081525081565b610662610907565b6000546001600160a01b039081169116146106c4576040805162461bcd60e51b815260206004820181905260248201527f4f776e61626c653a2063616c6c6572206973206e6f7420746865206f776e6572604482015290519081900360640190fd5b60006001600160a01b03166001836040518082805190602001908083835b602083106107015780518252601f1990920191602091820191016106e2565b51815160209384036101000a60001901801990921691161790529201948552506040519384900301909220546001600160a01b031692909214915061078f9050576040805162461bcd60e51b815260206004820152601560248201527f546f6b656e20616c7265616479206578697374732e0000000000000000000000604482015290519081900360640190fd5b806001836040518082805190602001908083835b602083106107c25780518252601f1990920191602091820191016107a3565b51815160209384036101000a60001901801990921691161790529201948552506040519384900301909220805473ffffffffffffffffffffffffffffffffffffffff19166001600160a01b03949094169390931790925550505050565b6040518060400160405280600581526020017f42554e4e5900000000000000000000000000000000000000000000000000000081525081565b610860610907565b6000546001600160a01b039081169116146108c2576040805162461bcd60e51b815260206004820181905260248201527f4f776e61626c653a2063616c6c6572206973206e6f7420746865206f776e6572604482015290519081900360640190fd5b6108cb8161090b565b50565b6040518060400160405280600c81526020017f43414b452d57424e422d4c50000000000000000000000000000000000000000081525081565b3390565b6001600160a01b0381166109505760405162461bcd60e51b81526004018080602001828103825260268152602001806109b96026913960400191505060405180910390fd5b600080546040516001600160a01b03808516939216917f8be0079c531659141344cd1fd0a4f28419497f9722a3daafe3b4186f6b6457e091a36000805473ffffffffffffffffffffffffffffffffffffffff19166001600160a01b039290921691909117905556fe4f776e61626c653a206e6577206f776e657220697320746865207a65726f2061646472657373a26469706673582212207962a2123d523ecac9b8f54ef88b293628e65a2fc7ff122e511fcb91b5b9129864736f6c634300060c0033",
  "linkReferences": {},
  "deployedLinkReferences": {}
}