{
  "_format": "hh-sol-artifact-1",
  "contractName": "VaultLockedManual",
  "sourceName": "contracts/Vaults/VaultLockedManual.sol",
  "abi": [
    {
      "inputs": [
        {
          "internalType": "address",
          "name": "_global",
          "type": "address"
        },
        {
          "internalType": "address",
          "name": "_bnb",
          "type": "address"
        },
        {
          "internalType": "address",
          "name": "_globalMasterChef",
          "type": "address"
        },
        {
          "internalType": "uint256",
          "name": "_rewardInterval",
          "type": "uint256"
        }
      ],
      "stateMutability": "nonpayable",
      "type": "constructor"
    },
    {
      "anonymous": false,
      "inputs": [
        {
          "indexed": true,
          "internalType": "address",
          "name": "_user",
          "type": "address"
        },
        {
          "indexed": false,
          "internalType": "uint256",
          "name": "_amount",
          "type": "uint256"
        }
      ],
      "name": "Deposited",
      "type": "event"
    },
    {
      "anonymous": false,
      "inputs": [
        {
          "indexed": false,
          "internalType": "uint256",
          "name": "_distributedAmount",
          "type": "uint256"
        }
      ],
      "name": "Distributed",
      "type": "event"
    },
    {
      "anonymous": false,
      "inputs": [
        {
          "indexed": false,
          "internalType": "uint256",
          "name": "GLOBALAmount",
          "type": "uint256"
        }
      ],
      "name": "DistributedGLOBAL",
      "type": "event"
    },
    {
      "anonymous": false,
      "inputs": [
        {
          "indexed": true,
          "internalType": "address",
          "name": "previousOwner",
          "type": "address"
        },
        {
          "indexed": true,
          "internalType": "address",
          "name": "newOwner",
          "type": "address"
        }
      ],
      "name": "OwnershipTransferred",
      "type": "event"
    },
    {
      "anonymous": false,
      "inputs": [
        {
          "indexed": true,
          "internalType": "address",
          "name": "_user",
          "type": "address"
        },
        {
          "indexed": false,
          "internalType": "uint256",
          "name": "_amount",
          "type": "uint256"
        },
        {
          "indexed": false,
          "internalType": "uint256",
          "name": "_amount2",
          "type": "uint256"
        }
      ],
      "name": "RewardPaid",
      "type": "event"
    },
    {
      "anonymous": false,
      "inputs": [
        {
          "indexed": true,
          "internalType": "address",
          "name": "_account",
          "type": "address"
        },
        {
          "indexed": false,
          "internalType": "uint256",
          "name": "_amount",
          "type": "uint256"
        }
      ],
      "name": "RewardsDeposited",
      "type": "event"
    },
    {
      "anonymous": false,
      "inputs": [
        {
          "indexed": true,
          "internalType": "address",
          "name": "_user",
          "type": "address"
        },
        {
          "indexed": false,
          "internalType": "uint256",
          "name": "_amount",
          "type": "uint256"
        }
      ],
      "name": "Withdrawn",
      "type": "event"
    },
    {
      "inputs": [],
      "name": "DUST",
      "outputs": [
        {
          "internalType": "uint256",
          "name": "",
          "type": "uint256"
        }
      ],
      "stateMutability": "view",
      "type": "function"
    },
    {
      "inputs": [],
      "name": "LOCKUP",
      "outputs": [
        {
          "internalType": "uint256",
          "name": "",
          "type": "uint256"
        }
      ],
      "stateMutability": "view",
      "type": "function"
    },
    {
      "inputs": [
        {
          "internalType": "address",
          "name": "_user",
          "type": "address"
        }
      ],
      "name": "amountOfUser",
      "outputs": [
        {
          "internalType": "uint256",
          "name": "totalAmount",
          "type": "uint256"
        }
      ],
      "stateMutability": "view",
      "type": "function"
    },
    {
      "inputs": [
        {
          "internalType": "uint256",
          "name": "_time",
          "type": "uint256"
        },
        {
          "internalType": "address",
          "name": "_user",
          "type": "address"
        }
      ],
      "name": "availableForWithdraw",
      "outputs": [
        {
          "internalType": "uint256",
          "name": "totalAmount",
          "type": "uint256"
        }
      ],
      "stateMutability": "view",
      "type": "function"
    },
    {
      "inputs": [
        {
          "internalType": "address",
          "name": "_user",
          "type": "address"
        }
      ],
      "name": "availableForWithdrawAfterLockup",
      "outputs": [
        {
          "internalType": "uint256",
          "name": "totalAmount",
          "type": "uint256"
        }
      ],
      "stateMutability": "view",
      "type": "function"
    },
    {
      "inputs": [],
      "name": "balance",
      "outputs": [
        {
          "internalType": "uint256",
          "name": "amount",
          "type": "uint256"
        }
      ],
      "stateMutability": "view",
      "type": "function"
    },
    {
      "inputs": [
        {
          "internalType": "address",
          "name": "_account",
          "type": "address"
        }
      ],
      "name": "balanceOf",
      "outputs": [
        {
          "internalType": "uint256",
          "name": "",
          "type": "uint256"
        }
      ],
      "stateMutability": "view",
      "type": "function"
    },
    {
      "inputs": [],
      "name": "bnb",
      "outputs": [
        {
          "internalType": "contract IBEP20",
          "name": "",
          "type": "address"
        }
      ],
      "stateMutability": "view",
      "type": "function"
    },
    {
      "inputs": [],
      "name": "bnbBalance",
      "outputs": [
        {
          "internalType": "uint256",
          "name": "",
          "type": "uint256"
        }
      ],
      "stateMutability": "view",
      "type": "function"
    },
    {
      "inputs": [
        {
          "internalType": "address",
          "name": "",
          "type": "address"
        }
      ],
      "name": "bnbEarned",
      "outputs": [
        {
          "internalType": "uint256",
          "name": "",
          "type": "uint256"
        }
      ],
      "stateMutability": "view",
      "type": "function"
    },
    {
      "inputs": [
        {
          "internalType": "address",
          "name": "_account",
          "type": "address"
        }
      ],
      "name": "bnbToEarn",
      "outputs": [
        {
          "internalType": "uint256",
          "name": "",
          "type": "uint256"
        }
      ],
      "stateMutability": "view",
      "type": "function"
    },
    {
      "inputs": [
        {
          "internalType": "uint256",
          "name": "_amount",
          "type": "uint256"
        }
      ],
      "name": "deposit",
      "outputs": [],
      "stateMutability": "nonpayable",
      "type": "function"
    },
    {
      "inputs": [
        {
          "internalType": "address",
          "name": "",
          "type": "address"
        },
        {
          "internalType": "uint256",
          "name": "",
          "type": "uint256"
        }
      ],
      "name": "depositInfo",
      "outputs": [
        {
          "internalType": "uint256",
          "name": "amount",
          "type": "uint256"
        },
        {
          "internalType": "uint256",
          "name": "nextWithdraw",
          "type": "uint256"
        }
      ],
      "stateMutability": "view",
      "type": "function"
    },
    {
      "inputs": [
        {
          "internalType": "uint256",
          "name": "_amount",
          "type": "uint256"
        }
      ],
      "name": "depositRewards",
      "outputs": [],
      "stateMutability": "nonpayable",
      "type": "function"
    },
    {
      "inputs": [
        {
          "internalType": "address",
          "name": "",
          "type": "address"
        }
      ],
      "name": "depositories",
      "outputs": [
        {
          "internalType": "bool",
          "name": "",
          "type": "bool"
        }
      ],
      "stateMutability": "view",
      "type": "function"
    },
    {
      "inputs": [
        {
          "internalType": "address",
          "name": "addr",
          "type": "address"
        }
      ],
      "name": "getDepositInfoLengthForAddress",
      "outputs": [
        {
          "internalType": "uint256",
          "name": "",
          "type": "uint256"
        }
      ],
      "stateMutability": "view",
      "type": "function"
    },
    {
      "inputs": [],
      "name": "getLastDistributedBNBAmount",
      "outputs": [
        {
          "internalType": "uint256",
          "name": "",
          "type": "uint256"
        }
      ],
      "stateMutability": "view",
      "type": "function"
    },
    {
      "inputs": [],
      "name": "getLastDistributedGLOBALAmount",
      "outputs": [
        {
          "internalType": "uint256",
          "name": "",
          "type": "uint256"
        }
      ],
      "stateMutability": "view",
      "type": "function"
    },
    {
      "inputs": [],
      "name": "getReward",
      "outputs": [],
      "stateMutability": "nonpayable",
      "type": "function"
    },
    {
      "inputs": [],
      "name": "global",
      "outputs": [
        {
          "internalType": "contract IBEP20",
          "name": "",
          "type": "address"
        }
      ],
      "stateMutability": "view",
      "type": "function"
    },
    {
      "inputs": [],
      "name": "globalBalance",
      "outputs": [
        {
          "internalType": "uint256",
          "name": "",
          "type": "uint256"
        }
      ],
      "stateMutability": "view",
      "type": "function"
    },
    {
      "inputs": [
        {
          "internalType": "address",
          "name": "",
          "type": "address"
        }
      ],
      "name": "globalEarned",
      "outputs": [
        {
          "internalType": "uint256",
          "name": "",
          "type": "uint256"
        }
      ],
      "stateMutability": "view",
      "type": "function"
    },
    {
      "inputs": [],
      "name": "globalMasterChef",
      "outputs": [
        {
          "internalType": "contract IGlobalMasterChef",
          "name": "",
          "type": "address"
        }
      ],
      "stateMutability": "view",
      "type": "function"
    },
    {
      "inputs": [
        {
          "internalType": "address",
          "name": "_account",
          "type": "address"
        }
      ],
      "name": "globalToEarn",
      "outputs": [
        {
          "internalType": "uint256",
          "name": "",
          "type": "uint256"
        }
      ],
      "stateMutability": "view",
      "type": "function"
    },
    {
      "inputs": [],
      "name": "lastDistributedBNBAmount",
      "outputs": [
        {
          "internalType": "uint256",
          "name": "",
          "type": "uint256"
        }
      ],
      "stateMutability": "view",
      "type": "function"
    },
    {
      "inputs": [],
      "name": "lastDistributedGLOBALAmount",
      "outputs": [
        {
          "internalType": "uint256",
          "name": "",
          "type": "uint256"
        }
      ],
      "stateMutability": "view",
      "type": "function"
    },
    {
      "inputs": [],
      "name": "lastRewardEvent",
      "outputs": [
        {
          "internalType": "uint256",
          "name": "",
          "type": "uint256"
        }
      ],
      "stateMutability": "view",
      "type": "function"
    },
    {
      "inputs": [],
      "name": "lockupStarted",
      "outputs": [
        {
          "internalType": "uint256",
          "name": "",
          "type": "uint256"
        }
      ],
      "stateMutability": "view",
      "type": "function"
    },
    {
      "inputs": [],
      "name": "minGlobalAmountToDistribute",
      "outputs": [
        {
          "internalType": "uint256",
          "name": "",
          "type": "uint256"
        }
      ],
      "stateMutability": "view",
      "type": "function"
    },
    {
      "inputs": [],
      "name": "minTokenAmountToDistribute",
      "outputs": [
        {
          "internalType": "uint256",
          "name": "",
          "type": "uint256"
        }
      ],
      "stateMutability": "view",
      "type": "function"
    },
    {
      "inputs": [],
      "name": "owner",
      "outputs": [
        {
          "internalType": "address",
          "name": "",
          "type": "address"
        }
      ],
      "stateMutability": "view",
      "type": "function"
    },
    {
      "inputs": [],
      "name": "pid",
      "outputs": [
        {
          "internalType": "uint256",
          "name": "",
          "type": "uint256"
        }
      ],
      "stateMutability": "view",
      "type": "function"
    },
    {
      "inputs": [],
      "name": "renounceOwnership",
      "outputs": [],
      "stateMutability": "nonpayable",
      "type": "function"
    },
    {
      "inputs": [],
      "name": "rewardInterval",
      "outputs": [
        {
          "internalType": "uint256",
          "name": "",
          "type": "uint256"
        }
      ],
      "stateMutability": "view",
      "type": "function"
    },
    {
      "inputs": [],
      "name": "rewardsToken",
      "outputs": [
        {
          "internalType": "address",
          "name": "",
          "type": "address"
        }
      ],
      "stateMutability": "view",
      "type": "function"
    },
    {
      "inputs": [
        {
          "internalType": "address",
          "name": "_depository",
          "type": "address"
        },
        {
          "internalType": "bool",
          "name": "_canDeposit",
          "type": "bool"
        }
      ],
      "name": "setDepositary",
      "outputs": [],
      "stateMutability": "nonpayable",
      "type": "function"
    },
    {
      "inputs": [
        {
          "internalType": "uint256",
          "name": "_minGlobalAmountToDistribute",
          "type": "uint256"
        }
      ],
      "name": "setMinGlobalAmountToDistribute",
      "outputs": [],
      "stateMutability": "nonpayable",
      "type": "function"
    },
    {
      "inputs": [
        {
          "internalType": "uint256",
          "name": "_newAmount",
          "type": "uint256"
        }
      ],
      "name": "setMinTokenAmountToDistribute",
      "outputs": [],
      "stateMutability": "nonpayable",
      "type": "function"
    },
    {
      "inputs": [
        {
          "internalType": "uint256",
          "name": "_rewardInterval",
          "type": "uint256"
        }
      ],
      "name": "setRewardInterval",
      "outputs": [],
      "stateMutability": "nonpayable",
      "type": "function"
    },
    {
      "inputs": [
        {
          "internalType": "address",
          "name": "_rewarder",
          "type": "address"
        },
        {
          "internalType": "bool",
          "name": "_canReward",
          "type": "bool"
        }
      ],
      "name": "setRewarder",
      "outputs": [],
      "stateMutability": "nonpayable",
      "type": "function"
    },
    {
      "inputs": [],
      "name": "stakingToken",
      "outputs": [
        {
          "internalType": "address",
          "name": "",
          "type": "address"
        }
      ],
      "stateMutability": "view",
      "type": "function"
    },
    {
      "inputs": [],
      "name": "totalSupply",
      "outputs": [
        {
          "internalType": "uint256",
          "name": "",
          "type": "uint256"
        }
      ],
      "stateMutability": "view",
      "type": "function"
    },
    {
      "inputs": [
        {
          "internalType": "address",
          "name": "newOwner",
          "type": "address"
        }
      ],
      "name": "transferOwnership",
      "outputs": [],
      "stateMutability": "nonpayable",
      "type": "function"
    },
    {
      "inputs": [
        {
          "internalType": "uint256",
          "name": "_amount",
          "type": "uint256"
        }
      ],
      "name": "triggerDistribute",
      "outputs": [],
      "stateMutability": "nonpayable",
      "type": "function"
    },
    {
      "inputs": [
        {
          "internalType": "uint256",
          "name": "",
          "type": "uint256"
        }
      ],
      "name": "users",
      "outputs": [
        {
          "internalType": "address",
          "name": "",
          "type": "address"
        }
      ],
      "stateMutability": "view",
      "type": "function"
    },
    {
      "inputs": [],
      "name": "withdraw",
      "outputs": [],
      "stateMutability": "nonpayable",
      "type": "function"
    }
  ],
  "bytecode": "0x608060405234801561001057600080fd5b506040516125053803806125058339818101604052608081101561003357600080fd5b50805160208201516040830151606090930151919290916000610054610128565b600080546001600160a01b0319166001600160a01b0383169081178255604051929350917f8be0079c531659141344cd1fd0a4f28419497f9722a3daafe3b4186f6b6457e0908290a3506001805560006009819055600680546001600160a01b039687166001600160a01b031991821617909155600780549587169582169590951790945560088054939095169290931691909117909255670de0b6b3a7640000600a5568056bc75e2d63100000600b5560118190556012819055601381905560145560105542600f81905560155561012c565b3390565b6123ca8061013b6000396000f3fe608060405234801561001057600080fd5b506004361061030a5760003560e01c80638bdf67f21161019c578063d013cbe2116100ee578063dbfb7a1311610097578063ed09fa2a11610071578063ed09fa2a146106f9578063f106845414610701578063f2fde38b146107095761030a565b8063dbfb7a13146106ae578063e0714885146106d4578063e3e84213146106dc5761030a565b8063d70f4c79116100c8578063d70f4c7914610681578063d8b07bbc14610689578063db8ede0e146106a65761030a565b8063d013cbe21461064b578063d1af0c7d14610653578063d428ca8c1461065b5761030a565b8063a750212e11610150578063b9d774df1161012a578063b9d774df146105c4578063bec4de3f14610609578063cdc0e2e7146106115761030a565b8063a750212e14610571578063b69ef8a81461059f578063b6b55f25146105a75761030a565b80639657f274116101815780639657f274146105155780639be0e5771461053b578063a05f9906146105695761030a565b80638bdf67f2146104f05780638da5cb5b1461050d5761030a565b80634c5ee1201161026057806370a082311161020957806374f93e78116101e357806374f93e78146104d85780637dd15614146104e0578063845aef4b146104e85761030a565b806370a08231146104a2578063715018a6146104c857806372f702f3146104d05761030a565b806355b9502b1161023a57806355b9502b1461047557806365a359e71461047d5780636d94ad2f146104855761030a565b80634c5ee1201461042a5780634e0cd799146104505780634e4c72df146104585761030a565b80632c561893116102c25780633ccfd60b1161029c5780633ccfd60b146104105780633d18b9121461041a57806349a876e4146104225761030a565b80632c561893146103a9578063344ee024146103cf578063365b98b2146103d75761030a565b80631cc893c3116102f35780631cc893c31461033157806320d4e92d1461035757806321b11a2e1461037d5761030a565b806306bd857e1461030f57806318160ddd14610329575b600080fd5b61031761072f565b60408051918252519081900360200190f35b610317610735565b6103176004803603602081101561034757600080fd5b50356001600160a01b031661073b565b6103176004803603602081101561036d57600080fd5b50356001600160a01b031661075a565b6103176004803603604081101561039357600080fd5b50803590602001356001600160a01b0316610821565b610317600480360360208110156103bf57600080fd5b50356001600160a01b03166108ee565b610317610900565b6103f4600480360360208110156103ed57600080fd5b5035610906565b604080516001600160a01b039092168252519081900360200190f35b61041861092d565b005b610418610b36565b6103f4610bdc565b6103176004803603602081101561044057600080fd5b50356001600160a01b0316610beb565b610317610c24565b6104186004803603602081101561046e57600080fd5b5035610c2a565b610317610cf9565b610317610cff565b6104186004803603602081101561049b57600080fd5b5035610d05565b610317600480360360208110156104b857600080fd5b50356001600160a01b0316610d74565b610418610d98565b6103f4610e4c565b610317610e5b565b610317610e61565b610317610e67565b6104186004803603602081101561050657600080fd5b5035610e6e565b6103f4610f2a565b6103176004803603602081101561052b57600080fd5b50356001600160a01b0316610f39565b6104186004803603604081101561055157600080fd5b506001600160a01b0381351690602001351515610f6a565b6103f4611028565b6104186004803603604081101561058757600080fd5b506001600160a01b0381351690602001351515611037565b6103176110f2565b610418600480360360208110156105bd57600080fd5b503561118f565b6105f0600480360360408110156105da57600080fd5b506001600160a01b03813516906020013561149b565b6040805192835260208301919091528051918290030190f35b6103176114d4565b6106376004803603602081101561062757600080fd5b50356001600160a01b03166114da565b604080519115158252519081900360200190f35b6103176114ef565b6103f46114f5565b6103176004803603602081101561067157600080fd5b50356001600160a01b0316611504565b610317611516565b6104186004803603602081101561069f57600080fd5b503561151c565b61031761158b565b610317600480360360208110156106c457600080fd5b50356001600160a01b0316611591565b6103f4611636565b610418600480360360208110156106f257600080fd5b5035611645565b6103176116b4565b6103176116ba565b6104186004803603602081101561071f57600080fd5b50356001600160a01b03166116c0565b60135481565b600e5481565b6001600160a01b0381166000908152600460205260409020545b919050565b6001600160a01b03811660009081526004602090815260408083208054825181850281018501909352808352606093859084015b828210156107d45783829060005260206000209060020201604051806040016040529081600082015481526020016001820154815250508152602001906001019061078e565b50505050905060005b815181101561081a576108108282815181106107f557fe5b6020026020010151600001518461173690919063ffffffff16565b92506001016107dd565b5050919050565b6001600160a01b03811660009081526004602090815260408083208054825181850281018501909352808352606093859084015b8282101561089b57838290600052602060002090600202016040518060400160405290816000820154815260200160018201548152505081526020019060010190610855565b50505050905060005b81518110156108e657848282815181106108ba57fe5b60200260200101516020015110156108de576108db8282815181106107f557fe5b92505b6001016108a4565b505092915050565b600c6020526000908152604090205481565b60145481565b6005818154811061091357fe5b6000918252602090912001546001600160a01b0316905081565b60026001541415610985576040805162461bcd60e51b815260206004820152601f60248201527f5265656e7472616e637947756172643a207265656e7472616e742063616c6c00604482015290519081900360640190fd5b600260015560155460009061099d90621a5e00611736565b4211156109b4576109ad33611591565b90506109c1565b6109be4233610821565b90505b60008111610a005760405162461bcd60e51b815260040180806020018281038252602c815260200180612340602c913960400191505060405180910390fd5b6000610a0b33610beb565b90506000610a1833610f39565b9050610a2333611797565b600854604080517f1058d2810000000000000000000000000000000000000000000000000000000081526004810186905290516001600160a01b0390921691631058d2819160248082019260009290919082900301818387803b158015610a8957600080fd5b505af1158015610a9d573d6000803e3d6000fd5b5050600654610ab992506001600160a01b0316905033856118ed565b610ac38282611972565b600e54610ad09084611a05565b600e55610adc33611a62565b336000818152600c60209081526040808320839055600d825280832092909255815186815291517f7084f5476618d8e60b11ef0d7d3f06914655adb8793e28ff7f018d4c76d505d59281900390910190a250506001805550565b60026001541415610b8e576040805162461bcd60e51b815260206004820152601f60248201527f5265656e7472616e637947756172643a207265656e7472616e742063616c6c00604482015290519081900360640190fd5b60026001556000610b9e33610beb565b90506000610bab33610f39565b9050610bb78282611972565b5050336000908152600c60209081526040808320839055600d90915281205560018055565b6007546001600160a01b031681565b600080610bf78361075a565b1115610c1c57506001600160a01b0381166000908152600c6020526040902054610755565b506000610755565b6103e881565b60026001541415610c82576040805162461bcd60e51b815260206004820152601f60248201527f5265656e7472616e637947756172643a207265656e7472616e742063616c6c00604482015290519081900360640190fd5b600260019081553360009081526003602052604090205460ff16151514610cda5760405162461bcd60e51b81526004018080602001828103825260268152602001806122d36026913960400191505060405180910390fd5b601154610ce79082611736565b601155610cf2611b4f565b5060018055565b600b5481565b600f5481565b610d0d611ca5565b6000546001600160a01b03908116911614610d6f576040805162461bcd60e51b815260206004820181905260248201527f4f776e61626c653a2063616c6c6572206973206e6f7420746865206f776e6572604482015290519081900360640190fd5b600a55565b6000600e5460001415610d8957506000610755565b610d928261075a565b92915050565b610da0611ca5565b6000546001600160a01b03908116911614610e02576040805162461bcd60e51b815260206004820181905260248201527f4f776e61626c653a2063616c6c6572206973206e6f7420746865206f776e6572604482015290519081900360640190fd5b600080546040516001600160a01b03909116907f8be0079c531659141344cd1fd0a4f28419497f9722a3daafe3b4186f6b6457e0908390a3600080546001600160a01b0319169055565b6006546001600160a01b031690565b60155481565b60135490565b621a5e0081565b3360009081526002602052604090205460ff161515600114610ec15760405162461bcd60e51b815260040180806020018281038252602981526020018061236c6029913960400191505060405180910390fd5b600654610ed9906001600160a01b0316333084611ca9565b601254610ee69082611736565b601255610ef1611d37565b60408051828152905133917fb8b27d0db504fa5d914f1fd330347096e88d5ff94b6c612d32797e7c12a8f66f919081900360200190a250565b6000546001600160a01b031690565b600080610f458361075a565b1115610c1c57506001600160a01b0381166000908152600d6020526040902054610755565b610f72611ca5565b6000546001600160a01b03908116911614610fd4576040805162461bcd60e51b815260206004820181905260248201527f4f776e61626c653a2063616c6c6572206973206e6f7420746865206f776e6572604482015290519081900360640190fd5b8015611003576001600160a01b0382166000908152600260205260409020805460ff1916821515179055611024565b6001600160a01b0382166000908152600260205260409020805460ff191690555b5050565b6006546001600160a01b031681565b61103f611ca5565b6000546001600160a01b039081169116146110a1576040805162461bcd60e51b815260206004820181905260248201527f4f776e61626c653a2063616c6c6572206973206e6f7420746865206f776e6572604482015290519081900360640190fd5b80156110d0576001600160a01b0382166000908152600360205260409020805460ff1916821515179055611024565b506001600160a01b03166000908152600360205260409020805460ff19169055565b600854600954604080517f93f1a40b000000000000000000000000000000000000000000000000000000008152600481019290925230602483015280516000936001600160a01b0316926393f1a40b926044808301939192829003018186803b15801561115e57600080fd5b505afa158015611172573d6000803e3d6000fd5b505050506040513d604081101561118857600080fd5b5051919050565b600260015414156111e7576040805162461bcd60e51b815260206004820152601f60248201527f5265656e7472616e637947756172643a207265656e7472616e742063616c6c00604482015290519081900360640190fd5b6002600155600654600090611207906001600160a01b0316333085611ca9565b3360009081526004602090815260409182902082518084019093528483529190810161123642621a5e00611736565b905281546001818101845560009384526020808520845160029094020192835592830151910155600654600854604080517f095ea7b30000000000000000000000000000000000000000000000000000000081526001600160a01b039283166004820152602481018890529051919092169363095ea7b393604480850194919392918390030190829087803b1580156112ce57600080fd5b505af11580156112e2573d6000803e3d6000fd5b505050506040513d60208110156112f857600080fd5b5050600854604080517f41441d3b0000000000000000000000000000000000000000000000000000000081526004810185905290516001600160a01b03909216916341441d3b9160248082019260009290919082900301818387803b15801561136057600080fd5b505af1158015611374573d6000803e3d6000fd5b5050505060005b6005548110156113c857336001600160a01b03166005828154811061139c57fe5b6000918252602090912001546001600160a01b031614156113c057600191506113c8565b60010161137b565b508061141157600580546001810182556000919091527f036b6384b5eca791c62761152d0c79bb0604c104a5fb6f4eb0703f3154bb3db00180546001600160a01b031916331790555b600e5461141e9083611736565b600e5561142a33610beb565b61143f57336000908152600c60205260408120555b61144833610f39565b61145d57336000908152600d60205260408120555b60408051838152905133917f2da466a7b24304f47e87fa2e1e5a81b9831ce54fec19055ce277ca2f39ba42c4919081900360200190a2505060018055565b600460205281600052604060002081815481106114b457fe5b600091825260209091206002909102018054600190910154909250905082565b60105481565b60026020526000908152604090205460ff1681565b60115481565b6007546001600160a01b031690565b600d6020526000908152604090205481565b600a5481565b611524611ca5565b6000546001600160a01b03908116911614611586576040805162461bcd60e51b815260206004820181905260248201527f4f776e61626c653a2063616c6c6572206973206e6f7420746865206f776e6572604482015290519081900360640190fd5b600b55565b60125481565b6001600160a01b03811660009081526004602090815260408083208054825181850281018501909352808352606093859084015b8282101561160b578382906000526020600020906002020160405180604001604052908160008201548152602001600182015481525050815260200190600101906115c5565b50505050905060005b815181101561081a5761162c8282815181106107f557fe5b9250600101611614565b6008546001600160a01b031681565b61164d611ca5565b6000546001600160a01b039081169116146116af576040805162461bcd60e51b815260206004820181905260248201527f4f776e61626c653a2063616c6c6572206973206e6f7420746865206f776e6572604482015290519081900360640190fd5b601055565b60145490565b60095481565b6116c8611ca5565b6000546001600160a01b0390811691161461172a576040805162461bcd60e51b815260206004820181905260248201527f4f776e61626c653a2063616c6c6572206973206e6f7420746865206f776e6572604482015290519081900360640190fd5b61173381611e54565b50565b600082820183811015611790576040805162461bcd60e51b815260206004820152601b60248201527f536166654d6174683a206164646974696f6e206f766572666c6f770000000000604482015290519081900360640190fd5b9392505050565b425b6001600160a01b038216600090815260046020526040902054158015906117f257506001600160a01b038216600090815260046020526040812080548392906117de57fe5b906000526020600020906002020160010154105b156110245760005b6001600160a01b038316600090815260046020526040902054600019018110156118a8576001600160a01b038316600090815260046020526040902080546001830190811061184557fe5b906000526020600020906002020160046000856001600160a01b03166001600160a01b03168152602001908152602001600020828154811061188357fe5b60009182526020909120825460029092020190815560019182015490820155016117fa565b506001600160a01b03821660009081526004602052604090208054806118ca57fe5b600082815260208120600260001990930192830201818155600101559055611799565b604080516001600160a01b038416602482015260448082018490528251808303909101815260649091019091526020810180517bffffffffffffffffffffffffffffffffffffffffffffffffffffffff167fa9059cbb0000000000000000000000000000000000000000000000000000000017905261196d908490611ef4565b505050565b6103e882111561199857600754611993906001600160a01b031633846118ed565b61199d565b600091505b6103e88111156119c3576006546119be906001600160a01b031633836118ed565b6119c7565b5060005b6040805183815260208101839052815133927fd6f2c8500df5b44f11e9e48b91ff9f1b9d81bc496d55570c2b1b75bf65243f51928290030190a25050565b600082821115611a5c576040805162461bcd60e51b815260206004820152601e60248201527f536166654d6174683a207375627472616374696f6e206f766572666c6f770000604482015290519081900360640190fd5b50900390565b60005b60055481101561102457816001600160a01b031660058281548110611a8657fe5b6000918252602090912001546001600160a01b03161415611b4757805b60055460001901811015611b185760058160010181548110611ac157fe5b600091825260209091200154600580546001600160a01b039092169183908110611ae757fe5b600091825260209091200180546001600160a01b0319166001600160a01b0392909216919091179055600101611aa3565b506005805480611b2457fe5b600082815260209020810160001990810180546001600160a01b03191690550190555b600101611a65565b601154600a54811015611b625750611ca3565b60005b600554811015611c5b576000611bb2600e54611bac6064611ba660058781548110611b8c57fe5b6000918252602090912001546001600160a01b031661075a565b90611fa5565b90611ffe565b90506000611bc56064611bac8685611fa5565b601154909150611bd59082611a05565b601181905550611c1b81600c600060058781548110611bf057fe5b60009182526020808320909101546001600160a01b0316835282019290925260400190205490611736565b600c600060058681548110611c2c57fe5b60009182526020808320909101546001600160a01b031683528201929092526040019020555050600101611b65565b50601154611c6a908290611a05565b601481905560408051918252517fddc9c30275a04c48091f24199f9c405765de34d979d6847f5b9798a57232d2e59181900360200190a1505b565b3390565b604080516001600160a01b0380861660248301528416604482015260648082018490528251808303909101815260849091019091526020810180517bffffffffffffffffffffffffffffffffffffffffffffffffffffffff167f23b872dd00000000000000000000000000000000000000000000000000000000179052611d31908590611ef4565b50505050565b601254601054600f5482914291611d4d91611736565b11158015611d5d5750600b548210155b156110245742600f5560005b600554811015611e09576000611d90600e54611bac6064611ba660058781548110611b8c57fe5b90506000611da66014611bac6064818987611fa5565b9050611db28482611a05565b9350611dc981600d600060058781548110611bf057fe5b600d600060058681548110611dda57fe5b60009182526020808320909101546001600160a01b031683528201929092526040019020555050600101611d69565b50611e148282611a05565b6013819055601282905560408051918252517f4c3226776baeb9608ae77325302acb17ab16fa66473f93629aac12f2d46918059181900360200190a15050565b6001600160a01b038116611e995760405162461bcd60e51b81526004018080602001828103825260268152602001806122ad6026913960400191505060405180910390fd5b600080546040516001600160a01b03808516939216917f8be0079c531659141344cd1fd0a4f28419497f9722a3daafe3b4186f6b6457e091a3600080546001600160a01b0319166001600160a01b0392909216919091179055565b6060611f49826040518060400160405280602081526020017f5361666542455032303a206c6f772d6c6576656c2063616c6c206661696c6564815250856001600160a01b03166120659092919063ffffffff16565b80519091501561196d57808060200190516020811015611f6857600080fd5b505161196d5760405162461bcd60e51b815260040180806020018281038252602a815260200180612283602a913960400191505060405180910390fd5b600082611fb457506000610d92565b82820282848281611fc157fe5b04146117905760405162461bcd60e51b815260040180806020018281038252602181526020018061231f6021913960400191505060405180910390fd5b6000808211612054576040805162461bcd60e51b815260206004820152601a60248201527f536166654d6174683a206469766973696f6e206279207a65726f000000000000604482015290519081900360640190fd5b81838161205d57fe5b049392505050565b6060612074848460008561207c565b949350505050565b6060824710156120bd5760405162461bcd60e51b81526004018080602001828103825260268152602001806122f96026913960400191505060405180910390fd5b6120c6856121d8565b612117576040805162461bcd60e51b815260206004820152601d60248201527f416464726573733a2063616c6c20746f206e6f6e2d636f6e7472616374000000604482015290519081900360640190fd5b60006060866001600160a01b031685876040518082805190602001908083835b602083106121565780518252601f199092019160209182019101612137565b6001836020036101000a03801982511681845116808217855250505050505090500191505060006040518083038185875af1925050503d80600081146121b8576040519150601f19603f3d011682016040523d82523d6000602084013e6121bd565b606091505b50915091506121cd8282866121de565b979650505050505050565b3b151590565b606083156121ed575081611790565b8251156121fd5782518084602001fd5b8160405162461bcd60e51b81526004018080602001828103825283818151815260200191508051906020019080838360005b8381101561224757818101518382015260200161222f565b50505050905090810190601f1680156122745780820380516001836020036101000a031916815260200191505b509250505060405180910390fdfe5361666542455032303a204245503230206f7065726174696f6e20646964206e6f7420737563636565644f776e61626c653a206e6577206f776e657220697320746865207a65726f20616464726573734f6e6c79207265776172646572732063616e20706572666f726d207468697320616374696f6e416464726573733a20696e73756666696369656e742062616c616e636520666f722063616c6c536166654d6174683a206d756c7469706c69636174696f6e206f766572666c6f775661756c744c6f636b65643a20796f752068617665206e6f20746f6b656e7320746f207769746864726177214f6e6c79206465706f7369746f726965732063616e20706572666f726d207468697320616374696f6ea264697066735822122009f575d16d1b4c33a571ec1538836b4b000e70a15e293cf465a9086c6fc0265c64736f6c634300060c0033",
  "linkReferences": {},
  "deployedLinkReferences": {}
}