{
  "_format": "hh-sol-artifact-1",
  "contractName": "WhitelistUpgradeable",
  "sourceName": "contracts/Modifiers/WhitelistUpgradeable.sol",
  "abi": [
    {
      "anonymous": false,
      "inputs": [],
      "name": "DisableWhitelist",
      "type": "event"
    },
    {
      "anonymous": false,
      "inputs": [],
      "name": "EnableWhitelist",
      "type": "event"
    },
    {
      "anonymous": false,
      "inputs": [
        {
          "indexed": true,
          "internalType": "address",
          "name": "previousOwner",
          "type": "address"
        },
        {
          "indexed": true,
          "internalType": "address",
          "name": "newOwner",
          "type": "address"
        }
      ],
      "name": "OwnershipTransferred",
      "type": "event"
    },
    {
      "anonymous": false,
      "inputs": [
        {
          "indexed": true,
          "internalType": "address",
          "name": "_address",
          "type": "address"
        },
        {
          "indexed": false,
          "internalType": "bool",
          "name": "whitelist",
          "type": "bool"
        }
      ],
      "name": "Whitelisted",
      "type": "event"
    },
    {
      "inputs": [
        {
          "internalType": "bool",
          "name": "disable",
          "type": "bool"
        }
      ],
      "name": "disableWhitelist",
      "outputs": [],
      "stateMutability": "nonpayable",
      "type": "function"
    },
    {
      "inputs": [
        {
          "internalType": "address",
          "name": "_address",
          "type": "address"
        }
      ],
      "name": "isWhitelist",
      "outputs": [
        {
          "internalType": "bool",
          "name": "",
          "type": "bool"
        }
      ],
      "stateMutability": "view",
      "type": "function"
    },
    {
      "inputs": [],
      "name": "owner",
      "outputs": [
        {
          "internalType": "address",
          "name": "",
          "type": "address"
        }
      ],
      "stateMutability": "view",
      "type": "function"
    },
    {
      "inputs": [],
      "name": "renounceOwnership",
      "outputs": [],
      "stateMutability": "nonpayable",
      "type": "function"
    },
    {
      "inputs": [
        {
          "internalType": "address",
          "name": "_address",
          "type": "address"
        },
        {
          "internalType": "bool",
          "name": "_on",
          "type": "bool"
        }
      ],
      "name": "setWhitelist",
      "outputs": [],
      "stateMutability": "nonpayable",
      "type": "function"
    },
    {
      "inputs": [
        {
          "internalType": "address",
          "name": "newOwner",
          "type": "address"
        }
      ],
      "name": "transferOwnership",
      "outputs": [],
      "stateMutability": "nonpayable",
      "type": "function"
    }
  ],
  "bytecode": "0x608060405234801561001057600080fd5b5061055e806100206000396000f3fe608060405234801561001057600080fd5b50600436106100725760003560e01c80638da5cb5b116100505780638da5cb5b146100ce578063c683630d146100f2578063f2fde38b1461012c57610072565b806349ba1b491461007757806353d6fd5914610098578063715018a6146100c6575b600080fd5b6100966004803603602081101561008d57600080fd5b50351515610152565b005b610096600480360360408110156100ae57600080fd5b506001600160a01b038135169060200135151561022e565b6100966102f8565b6100d66103b9565b604080516001600160a01b039092168252519081900360200190f35b6101186004803603602081101561010857600080fd5b50356001600160a01b03166103c8565b604080519115158252519081900360200190f35b6100966004803603602081101561014257600080fd5b50356001600160a01b03166103e6565b61015a6104fe565b6033546001600160a01b039081169116146101bc576040805162461bcd60e51b815260206004820181905260248201527f4f776e61626c653a2063616c6c6572206973206e6f7420746865206f776e6572604482015290519081900360640190fd5b6066805460ff19168215801591909117909155610201576040517f508560e15717a4e9058b9a19d806cb679004a1bd953376f71fda71c141e5dc5390600090a161022b565b6040517fa2927d972f7cfc5ff8b7ad79f9adf0bdb885d0e569f40d0037df2e1299616ae090600090a15b50565b6102366104fe565b6033546001600160a01b03908116911614610298576040805162461bcd60e51b815260206004820181905260248201527f4f776e61626c653a2063616c6c6572206973206e6f7420746865206f776e6572604482015290519081900360640190fd5b6001600160a01b038216600081815260656020908152604091829020805460ff1916851515908117909155825190815291517fa54714518c5d275fdcd3d2a461e4858e4e8cb04fb93cd0bca9d6d34115f264409281900390910190a25050565b6103006104fe565b6033546001600160a01b03908116911614610362576040805162461bcd60e51b815260206004820181905260248201527f4f776e61626c653a2063616c6c6572206973206e6f7420746865206f776e6572604482015290519081900360640190fd5b6033546040516000916001600160a01b0316907f8be0079c531659141344cd1fd0a4f28419497f9722a3daafe3b4186f6b6457e0908390a36033805473ffffffffffffffffffffffffffffffffffffffff19169055565b6033546001600160a01b031690565b6001600160a01b031660009081526065602052604090205460ff1690565b6103ee6104fe565b6033546001600160a01b03908116911614610450576040805162461bcd60e51b815260206004820181905260248201527f4f776e61626c653a2063616c6c6572206973206e6f7420746865206f776e6572604482015290519081900360640190fd5b6001600160a01b0381166104955760405162461bcd60e51b81526004018080602001828103825260268152602001806105036026913960400191505060405180910390fd5b6033546040516001600160a01b038084169216907f8be0079c531659141344cd1fd0a4f28419497f9722a3daafe3b4186f6b6457e090600090a36033805473ffffffffffffffffffffffffffffffffffffffff19166001600160a01b0392909216919091179055565b339056fe4f776e61626c653a206e6577206f776e657220697320746865207a65726f2061646472657373a26469706673582212206467366e1de2c46615ce63062a844084e617f27d07486c4e812b06601614624464736f6c634300060c0033",
  "linkReferences": {},
  "deployedLinkReferences": {}
}