{
  "_format": "hh-sol-artifact-1",
  "contractName": "VaultStaked",
  "sourceName": "contracts/Vaults/VaultStaked.sol",
  "abi": [
    {
      "inputs": [
        {
          "internalType": "address",
          "name": "_global",
          "type": "address"
        },
        {
          "internalType": "address",
          "name": "_bnb",
          "type": "address"
        },
        {
          "internalType": "address",
          "name": "_globalMasterChef",
          "type": "address"
        }
      ],
      "stateMutability": "nonpayable",
      "type": "constructor"
    },
    {
      "anonymous": false,
      "inputs": [
        {
          "indexed": true,
          "internalType": "address",
          "name": "_user",
          "type": "address"
        },
        {
          "indexed": false,
          "internalType": "uint256",
          "name": "_amount",
          "type": "uint256"
        }
      ],
      "name": "Deposited",
      "type": "event"
    },
    {
      "anonymous": false,
      "inputs": [
        {
          "indexed": false,
          "internalType": "uint256",
          "name": "_distributedAmount",
          "type": "uint256"
        }
      ],
      "name": "Distributed",
      "type": "event"
    },
    {
      "anonymous": false,
      "inputs": [
        {
          "indexed": true,
          "internalType": "address",
          "name": "previousOwner",
          "type": "address"
        },
        {
          "indexed": true,
          "internalType": "address",
          "name": "newOwner",
          "type": "address"
        }
      ],
      "name": "OwnershipTransferred",
      "type": "event"
    },
    {
      "anonymous": false,
      "inputs": [
        {
          "indexed": true,
          "internalType": "address",
          "name": "_user",
          "type": "address"
        },
        {
          "indexed": false,
          "internalType": "uint256",
          "name": "_amount",
          "type": "uint256"
        }
      ],
      "name": "RewardPaid",
      "type": "event"
    },
    {
      "anonymous": false,
      "inputs": [
        {
          "indexed": true,
          "internalType": "address",
          "name": "_user",
          "type": "address"
        },
        {
          "indexed": false,
          "internalType": "uint256",
          "name": "_amount",
          "type": "uint256"
        }
      ],
      "name": "Withdrawn",
      "type": "event"
    },
    {
      "inputs": [],
      "name": "DUST",
      "outputs": [
        {
          "internalType": "uint256",
          "name": "",
          "type": "uint256"
        }
      ],
      "stateMutability": "view",
      "type": "function"
    },
    {
      "inputs": [],
      "name": "balance",
      "outputs": [
        {
          "internalType": "uint256",
          "name": "amount",
          "type": "uint256"
        }
      ],
      "stateMutability": "view",
      "type": "function"
    },
    {
      "inputs": [
        {
          "internalType": "address",
          "name": "_account",
          "type": "address"
        }
      ],
      "name": "balanceOf",
      "outputs": [
        {
          "internalType": "uint256",
          "name": "",
          "type": "uint256"
        }
      ],
      "stateMutability": "view",
      "type": "function"
    },
    {
      "inputs": [],
      "name": "bnb",
      "outputs": [
        {
          "internalType": "contract IBEP20",
          "name": "",
          "type": "address"
        }
      ],
      "stateMutability": "view",
      "type": "function"
    },
    {
      "inputs": [],
      "name": "bnbBalance",
      "outputs": [
        {
          "internalType": "uint256",
          "name": "",
          "type": "uint256"
        }
      ],
      "stateMutability": "view",
      "type": "function"
    },
    {
      "inputs": [
        {
          "internalType": "address",
          "name": "",
          "type": "address"
        }
      ],
      "name": "bnbEarned",
      "outputs": [
        {
          "internalType": "uint256",
          "name": "",
          "type": "uint256"
        }
      ],
      "stateMutability": "view",
      "type": "function"
    },
    {
      "inputs": [
        {
          "internalType": "uint256",
          "name": "_amount",
          "type": "uint256"
        }
      ],
      "name": "deposit",
      "outputs": [],
      "stateMutability": "nonpayable",
      "type": "function"
    },
    {
      "inputs": [
        {
          "internalType": "address",
          "name": "_account",
          "type": "address"
        }
      ],
      "name": "earned",
      "outputs": [
        {
          "internalType": "uint256",
          "name": "",
          "type": "uint256"
        }
      ],
      "stateMutability": "view",
      "type": "function"
    },
    {
      "inputs": [],
      "name": "getReward",
      "outputs": [],
      "stateMutability": "nonpayable",
      "type": "function"
    },
    {
      "inputs": [],
      "name": "getUsersLength",
      "outputs": [
        {
          "internalType": "uint256",
          "name": "",
          "type": "uint256"
        }
      ],
      "stateMutability": "view",
      "type": "function"
    },
    {
      "inputs": [],
      "name": "global",
      "outputs": [
        {
          "internalType": "contract IBEP20",
          "name": "",
          "type": "address"
        }
      ],
      "stateMutability": "view",
      "type": "function"
    },
    {
      "inputs": [],
      "name": "globalMasterChef",
      "outputs": [
        {
          "internalType": "contract IGlobalMasterChef",
          "name": "",
          "type": "address"
        }
      ],
      "stateMutability": "view",
      "type": "function"
    },
    {
      "inputs": [],
      "name": "minTokenAmountToDistribute",
      "outputs": [
        {
          "internalType": "uint256",
          "name": "",
          "type": "uint256"
        }
      ],
      "stateMutability": "view",
      "type": "function"
    },
    {
      "inputs": [],
      "name": "owner",
      "outputs": [
        {
          "internalType": "address",
          "name": "",
          "type": "address"
        }
      ],
      "stateMutability": "view",
      "type": "function"
    },
    {
      "inputs": [],
      "name": "pid",
      "outputs": [
        {
          "internalType": "uint256",
          "name": "",
          "type": "uint256"
        }
      ],
      "stateMutability": "view",
      "type": "function"
    },
    {
      "inputs": [
        {
          "internalType": "address",
          "name": "",
          "type": "address"
        }
      ],
      "name": "principal",
      "outputs": [
        {
          "internalType": "uint256",
          "name": "",
          "type": "uint256"
        }
      ],
      "stateMutability": "view",
      "type": "function"
    },
    {
      "inputs": [
        {
          "internalType": "address",
          "name": "_account",
          "type": "address"
        }
      ],
      "name": "principalOf",
      "outputs": [
        {
          "internalType": "uint256",
          "name": "",
          "type": "uint256"
        }
      ],
      "stateMutability": "view",
      "type": "function"
    },
    {
      "inputs": [],
      "name": "renounceOwnership",
      "outputs": [],
      "stateMutability": "nonpayable",
      "type": "function"
    },
    {
      "inputs": [],
      "name": "rewardsToken",
      "outputs": [
        {
          "internalType": "address",
          "name": "",
          "type": "address"
        }
      ],
      "stateMutability": "view",
      "type": "function"
    },
    {
      "inputs": [
        {
          "internalType": "address",
          "name": "_rewarder",
          "type": "address"
        },
        {
          "internalType": "bool",
          "name": "_canReward",
          "type": "bool"
        }
      ],
      "name": "setRewarder",
      "outputs": [],
      "stateMutability": "nonpayable",
      "type": "function"
    },
    {
      "inputs": [],
      "name": "stakingToken",
      "outputs": [
        {
          "internalType": "address",
          "name": "",
          "type": "address"
        }
      ],
      "stateMutability": "view",
      "type": "function"
    },
    {
      "inputs": [],
      "name": "totalSupply",
      "outputs": [
        {
          "internalType": "uint256",
          "name": "",
          "type": "uint256"
        }
      ],
      "stateMutability": "view",
      "type": "function"
    },
    {
      "inputs": [
        {
          "internalType": "address",
          "name": "newOwner",
          "type": "address"
        }
      ],
      "name": "transferOwnership",
      "outputs": [],
      "stateMutability": "nonpayable",
      "type": "function"
    },
    {
      "inputs": [
        {
          "internalType": "uint256",
          "name": "_amount",
          "type": "uint256"
        }
      ],
      "name": "triggerDistribute",
      "outputs": [],
      "stateMutability": "nonpayable",
      "type": "function"
    },
    {
      "inputs": [
        {
          "internalType": "uint256",
          "name": "",
          "type": "uint256"
        }
      ],
      "name": "users",
      "outputs": [
        {
          "internalType": "address",
          "name": "",
          "type": "address"
        }
      ],
      "stateMutability": "view",
      "type": "function"
    },
    {
      "inputs": [],
      "name": "withdraw",
      "outputs": [],
      "stateMutability": "nonpayable",
      "type": "function"
    }
  ],
  "bytecode": "0x608060405234801561001057600080fd5b506040516117ee3803806117ee8339818101604052606081101561003357600080fd5b5080516020820151604090920151600160009081559192916100536100f9565b600180546001600160a01b0319166001600160a01b038316908117909155604051919250906000907f8be0079c531659141344cd1fd0a4f28419497f9722a3daafe3b4186f6b6457e0908290a35060006006819055600380546001600160a01b039586166001600160a01b0319918216179091556004805494861694821694909417909355600c5560058054919093169116179055670de0b6b3a76400006007556100fd565b3390565b6116e28061010c6000396000f3fe608060405234801561001057600080fd5b50600436106101ad5760003560e01c8063715018a6116100ee578063b6b55f2511610097578063d70f4c7911610071578063d70f4c791461038d578063e071488514610395578063f10684541461039d578063f2fde38b146103a5576101ad565b8063b6b55f2514610360578063d013cbe21461037d578063d1af0c7d14610385576101ad565b8063a05f9906116100c8578063a05f990614610322578063a750212e1461032a578063b69ef8a814610358576101ad565b8063715018a61461030a57806372f702f3146103125780638da5cb5b1461031a576101ad565b80633d18b9121161015b5780634e4c72df116101355780634e4c72df14610299578063595b1a3e146102b657806361e20a1c146102be57806370a08231146102e4576101ad565b80633d18b9121461028157806349a876e4146102895780634e0cd79914610291576101ad565b80632ce0f9d61161018c5780632ce0f9d614610218578063365b98b21461023e5780633ccfd60b14610277576101ad565b80628cc262146101b257806318160ddd146101ea5780632c561893146101f2575b600080fd5b6101d8600480360360208110156101c857600080fd5b50356001600160a01b03166103cb565b60408051918252519081900360200190f35b6101d8610405565b6101d86004803603602081101561020857600080fd5b50356001600160a01b031661040b565b6101d86004803603602081101561022e57600080fd5b50356001600160a01b031661041d565b61025b6004803603602081101561025457600080fd5b503561042f565b604080516001600160a01b039092168252519081900360200190f35b61027f610456565b005b61027f6105e0565b61025b61066c565b6101d861067b565b61027f600480360360208110156102af57600080fd5b5035610681565b6101d8610751565b6101d8600480360360208110156102d457600080fd5b50356001600160a01b0316610757565b6101d8600480360360208110156102fa57600080fd5b50356001600160a01b0316610772565b61027f610796565b61025b61084a565b61025b610859565b61025b610868565b61027f6004803603604081101561034057600080fd5b506001600160a01b0381351690602001351515610877565b6101d8610935565b61027f6004803603602081101561037657600080fd5b50356109d2565b6101d8610c98565b61025b610c9e565b6101d8610cad565b61025b610cb3565b6101d8610cc2565b61027f600480360360208110156103bb57600080fd5b50356001600160a01b0316610cc8565b6000806103d783610757565b11156103fc57506001600160a01b0381166000908152600a6020526040902054610400565b5060005b919050565b600b5481565b600a6020526000908152604090205481565b60096020526000908152604090205481565b6008818154811061043c57fe5b6000918252602090912001546001600160a01b0316905081565b600260005414156104ae576040805162461bcd60e51b815260206004820152601f60248201527f5265656e7472616e637947756172643a207265656e7472616e742063616c6c00604482015290519081900360640190fd5b600260009081556104be33610772565b905060006104cb336103cb565b600554604080517f1058d2810000000000000000000000000000000000000000000000000000000081526004810186905290519293506001600160a01b0390911691631058d2819160248082019260009290919082900301818387803b15801561053457600080fd5b505af1158015610548573d6000803e3d6000fd5b505060035461056492506001600160a01b031690503384610d3e565b61056d81610dc3565b600b5461057a9083610e22565b600b5561058633610e7f565b336000818152600960209081526040808320839055600a825280832092909255815185815291517f7084f5476618d8e60b11ef0d7d3f06914655adb8793e28ff7f018d4c76d505d59281900390910190a250506001600055565b60026000541415610638576040805162461bcd60e51b815260206004820152601f60248201527f5265656e7472616e637947756172643a207265656e7472616e742063616c6c00604482015290519081900360640190fd5b60026000908155610648336103cb565b905061065381610dc3565b50336000908152600a6020526040812081905560019055565b6004546001600160a01b031681565b6103e881565b600260005414156106d9576040805162461bcd60e51b815260206004820152601f60248201527f5265656e7472616e637947756172643a207265656e7472616e742063616c6c00604482015290519081900360640190fd5b60026000818155338152602091909152604090205460ff1615156001146107315760405162461bcd60e51b81526004018080602001828103825260268152602001806116406026913960400191505060405180910390fd5b600c5461073e9082610f75565b600c55610749610fd6565b506001600055565b60085490565b6001600160a01b031660009081526009602052604090205490565b6000600b546000141561078757506000610400565b61079082610757565b92915050565b61079e61112e565b6001546001600160a01b03908116911614610800576040805162461bcd60e51b815260206004820181905260248201527f4f776e61626c653a2063616c6c6572206973206e6f7420746865206f776e6572604482015290519081900360640190fd5b6001546040516000916001600160a01b0316907f8be0079c531659141344cd1fd0a4f28419497f9722a3daafe3b4186f6b6457e0908390a3600180546001600160a01b0319169055565b6003546001600160a01b031690565b6001546001600160a01b031690565b6003546001600160a01b031681565b61087f61112e565b6001546001600160a01b039081169116146108e1576040805162461bcd60e51b815260206004820181905260248201527f4f776e61626c653a2063616c6c6572206973206e6f7420746865206f776e6572604482015290519081900360640190fd5b8015610910576001600160a01b0382166000908152600260205260409020805460ff1916821515179055610931565b6001600160a01b0382166000908152600260205260409020805460ff191690555b5050565b600554600654604080517f93f1a40b000000000000000000000000000000000000000000000000000000008152600481019290925230602483015280516000936001600160a01b0316926393f1a40b926044808301939192829003018186803b1580156109a157600080fd5b505afa1580156109b5573d6000803e3d6000fd5b505050506040513d60408110156109cb57600080fd5b5051919050565b60026000541415610a2a576040805162461bcd60e51b815260206004820152601f60248201527f5265656e7472616e637947756172643a207265656e7472616e742063616c6c00604482015290519081900360640190fd5b60026000908155600354610a49906001600160a01b0316333085611132565b600354600554604080517f095ea7b30000000000000000000000000000000000000000000000000000000081526001600160a01b039283166004820152602481018690529051919092169163095ea7b39160448083019260209291908290030181600087803b158015610abb57600080fd5b505af1158015610acf573d6000803e3d6000fd5b505050506040513d6020811015610ae557600080fd5b5050600554604080517f41441d3b0000000000000000000000000000000000000000000000000000000081526004810185905290516001600160a01b03909216916341441d3b9160248082019260009290919082900301818387803b158015610b4d57600080fd5b505af1158015610b61573d6000803e3d6000fd5b5050505060005b600854811015610bb557336001600160a01b031660088281548110610b8957fe5b6000918252602090912001546001600160a01b03161415610bad5760019150610bb5565b600101610b68565b5080610bfe57600880546001810182556000919091527ff3f7a9fe364faab93b216da50a3214154f22a0a2b415b23a84c8169e8b636ee30180546001600160a01b031916331790555b600b54610c0b9083610f75565b600b5533600090815260096020526040902054610c289083610f75565b33600081815260096020526040902091909155610c44906103cb565b610c5957336000908152600a60205260408120555b60408051838152905133917f2da466a7b24304f47e87fa2e1e5a81b9831ce54fec19055ce277ca2f39ba42c4919081900360200190a250506001600055565b600c5481565b6004546001600160a01b031690565b60075481565b6005546001600160a01b031681565b60065481565b610cd061112e565b6001546001600160a01b03908116911614610d32576040805162461bcd60e51b815260206004820181905260248201527f4f776e61626c653a2063616c6c6572206973206e6f7420746865206f776e6572604482015290519081900360640190fd5b610d3b816111c0565b50565b604080516001600160a01b038416602482015260448082018490528251808303909101815260649091019091526020810180517bffffffffffffffffffffffffffffffffffffffffffffffffffffffff167fa9059cbb00000000000000000000000000000000000000000000000000000000179052610dbe908490611261565b505050565b6103e8811015610dd257610d3b565b600454610de9906001600160a01b03163383610d3e565b60408051828152905133917fe2403640ba68fed3a2f88b7557551d1993f84b99bb10ff833f0cf8db0c5e0486919081900360200190a250565b600082821115610e79576040805162461bcd60e51b815260206004820152601e60248201527f536166654d6174683a207375627472616374696f6e206f766572666c6f770000604482015290519081900360640190fd5b50900390565b60005b60085460ff8216101561093157816001600160a01b031660088260ff1681548110610ea957fe5b6000918252602090912001546001600160a01b03161415610f6d5760ff81165b60085460001901811015610f3e5760088160010181548110610ee757fe5b600091825260209091200154600880546001600160a01b039092169183908110610f0d57fe5b600091825260209091200180546001600160a01b0319166001600160a01b0392909216919091179055600101610ec9565b506008805480610f4a57fe5b600082815260209020810160001990810180546001600160a01b03191690550190555b600101610e82565b600082820183811015610fcf576040805162461bcd60e51b815260206004820152601b60248201527f536166654d6174683a206164646974696f6e206f766572666c6f770000000000604482015290519081900360640190fd5b9392505050565b600c54600754811015610fe9575061112c565b60005b6008548110156110e2576000611039600b54611033606461102d6008878154811061101357fe5b6000918252602090912001546001600160a01b0316610757565b90611312565b9061136b565b9050600061104c60646110338685611312565b600c5490915061105c9082610e22565b600c819055506110a281600a60006008878154811061107757fe5b60009182526020808320909101546001600160a01b0316835282019290925260400190205490610f75565b600a6000600886815481106110b357fe5b60009182526020808320909101546001600160a01b031683528201929092526040019020555050600101610fec565b507fddc9c30275a04c48091f24199f9c405765de34d979d6847f5b9798a57232d2e5611119600c5483610e2290919063ffffffff16565b60408051918252519081900360200190a1505b565b3390565b604080516001600160a01b0380861660248301528416604482015260648082018490528251808303909101815260849091019091526020810180517bffffffffffffffffffffffffffffffffffffffffffffffffffffffff167f23b872dd000000000000000000000000000000000000000000000000000000001790526111ba908590611261565b50505050565b6001600160a01b0381166112055760405162461bcd60e51b815260040180806020018281038252602681526020018061161a6026913960400191505060405180910390fd5b6001546040516001600160a01b038084169216907f8be0079c531659141344cd1fd0a4f28419497f9722a3daafe3b4186f6b6457e090600090a3600180546001600160a01b0319166001600160a01b0392909216919091179055565b60606112b6826040518060400160405280602081526020017f5361666542455032303a206c6f772d6c6576656c2063616c6c206661696c6564815250856001600160a01b03166113d29092919063ffffffff16565b805190915015610dbe578080602001905160208110156112d557600080fd5b5051610dbe5760405162461bcd60e51b815260040180806020018281038252602a8152602001806115f0602a913960400191505060405180910390fd5b60008261132157506000610790565b8282028284828161132e57fe5b0414610fcf5760405162461bcd60e51b815260040180806020018281038252602181526020018061168c6021913960400191505060405180910390fd5b60008082116113c1576040805162461bcd60e51b815260206004820152601a60248201527f536166654d6174683a206469766973696f6e206279207a65726f000000000000604482015290519081900360640190fd5b8183816113ca57fe5b049392505050565b60606113e184846000856113e9565b949350505050565b60608247101561142a5760405162461bcd60e51b81526004018080602001828103825260268152602001806116666026913960400191505060405180910390fd5b61143385611545565b611484576040805162461bcd60e51b815260206004820152601d60248201527f416464726573733a2063616c6c20746f206e6f6e2d636f6e7472616374000000604482015290519081900360640190fd5b60006060866001600160a01b031685876040518082805190602001908083835b602083106114c35780518252601f1990920191602091820191016114a4565b6001836020036101000a03801982511681845116808217855250505050505090500191505060006040518083038185875af1925050503d8060008114611525576040519150601f19603f3d011682016040523d82523d6000602084013e61152a565b606091505b509150915061153a82828661154b565b979650505050505050565b3b151590565b6060831561155a575081610fcf565b82511561156a5782518084602001fd5b8160405162461bcd60e51b81526004018080602001828103825283818151815260200191508051906020019080838360005b838110156115b457818101518382015260200161159c565b50505050905090810190601f1680156115e15780820380516001836020036101000a031916815260200191505b509250505060405180910390fdfe5361666542455032303a204245503230206f7065726174696f6e20646964206e6f7420737563636565644f776e61626c653a206e6577206f776e657220697320746865207a65726f20616464726573734f6e6c79207265776172646572732063616e20706572666f726d207468697320616374696f6e416464726573733a20696e73756666696369656e742062616c616e636520666f722063616c6c536166654d6174683a206d756c7469706c69636174696f6e206f766572666c6f77a26469706673582212206aec28c350005c201ed57906f25b04b6fa61867aab63bb1623d047f75d2704d164736f6c634300060c0033",
  "linkReferences": {},
  "deployedLinkReferences": {}
}