{
  "_format": "hh-sol-artifact-1",
  "contractName": "BeneficiaryMock",
  "sourceName": "contracts/Mocks/BeneficiaryMock.sol",
  "abi": [
    {
      "anonymous": false,
      "inputs": [
        {
          "indexed": false,
          "internalType": "uint256",
          "name": "_distributedAmount",
          "type": "uint256"
        }
      ],
      "name": "Distributed",
      "type": "event"
    },
    {
      "inputs": [],
      "name": "balance",
      "outputs": [
        {
          "internalType": "uint256",
          "name": "amount",
          "type": "uint256"
        }
      ],
      "stateMutability": "view",
      "type": "function"
    },
    {
      "inputs": [
        {
          "internalType": "uint256",
          "name": "_amount",
          "type": "uint256"
        }
      ],
      "name": "triggerDistribute",
      "outputs": [],
      "stateMutability": "nonpayable",
      "type": "function"
    }
  ],
  "bytecode": "0x608060405234801561001057600080fd5b5060e48061001f6000396000f3fe6080604052348015600f57600080fd5b506004361060325760003560e01c80634e4c72df146037578063b69ef8a8146053575b600080fd5b605160048036036020811015604b57600080fd5b5035606b565b005b605960a9565b60408051918252519081900360200190f35b60408051670de0b6b3a7640000815290517fddc9c30275a04c48091f24199f9c405765de34d979d6847f5b9798a57232d2e59181900360200190a150565b60019056fea264697066735822122005228be1e8f615d4889b6b2974f10316bbdfaeb1ef1af14cceaba86c9c04cdf864736f6c634300060c0033",
  "linkReferences": {},
  "deployedLinkReferences": {}
}