{
  "_format": "hh-sol-artifact-1",
  "contractName": "Trusted",
  "sourceName": "contracts/Modifiers/Trusted.sol",
  "abi": [
    {
      "anonymous": false,
      "inputs": [
        {
          "indexed": true,
          "internalType": "address",
          "name": "previousOwner",
          "type": "address"
        },
        {
          "indexed": true,
          "internalType": "address",
          "name": "newOwner",
          "type": "address"
        }
      ],
      "name": "OwnershipTransferred",
      "type": "event"
    },
    {
      "anonymous": false,
      "inputs": [
        {
          "indexed": false,
          "internalType": "address",
          "name": "addr",
          "type": "address"
        }
      ],
      "name": "WhitelistedAddressAdded",
      "type": "event"
    },
    {
      "anonymous": false,
      "inputs": [
        {
          "indexed": false,
          "internalType": "address",
          "name": "addr",
          "type": "address"
        }
      ],
      "name": "WhitelistedAddressRemoved",
      "type": "event"
    },
    {
      "inputs": [
        {
          "internalType": "address",
          "name": "addr",
          "type": "address"
        }
      ],
      "name": "addAddressToWhitelist",
      "outputs": [
        {
          "internalType": "bool",
          "name": "success",
          "type": "bool"
        }
      ],
      "stateMutability": "nonpayable",
      "type": "function"
    },
    {
      "inputs": [
        {
          "internalType": "address[]",
          "name": "addrs",
          "type": "address[]"
        }
      ],
      "name": "addAddressesToWhitelist",
      "outputs": [
        {
          "internalType": "bool",
          "name": "success",
          "type": "bool"
        }
      ],
      "stateMutability": "nonpayable",
      "type": "function"
    },
    {
      "inputs": [
        {
          "internalType": "address",
          "name": "addr",
          "type": "address"
        }
      ],
      "name": "isAddressWhitelisted",
      "outputs": [
        {
          "internalType": "bool",
          "name": "success",
          "type": "bool"
        }
      ],
      "stateMutability": "view",
      "type": "function"
    },
    {
      "inputs": [],
      "name": "owner",
      "outputs": [
        {
          "internalType": "address",
          "name": "",
          "type": "address"
        }
      ],
      "stateMutability": "view",
      "type": "function"
    },
    {
      "inputs": [
        {
          "internalType": "address",
          "name": "addr",
          "type": "address"
        }
      ],
      "name": "removeAddressFromWhitelist",
      "outputs": [
        {
          "internalType": "bool",
          "name": "success",
          "type": "bool"
        }
      ],
      "stateMutability": "nonpayable",
      "type": "function"
    },
    {
      "inputs": [
        {
          "internalType": "address[]",
          "name": "addrs",
          "type": "address[]"
        }
      ],
      "name": "removeAddressesFromWhitelist",
      "outputs": [
        {
          "internalType": "bool",
          "name": "success",
          "type": "bool"
        }
      ],
      "stateMutability": "nonpayable",
      "type": "function"
    },
    {
      "inputs": [],
      "name": "renounceOwnership",
      "outputs": [],
      "stateMutability": "nonpayable",
      "type": "function"
    },
    {
      "inputs": [
        {
          "internalType": "address",
          "name": "newOwner",
          "type": "address"
        }
      ],
      "name": "transferOwnership",
      "outputs": [],
      "stateMutability": "nonpayable",
      "type": "function"
    },
    {
      "inputs": [
        {
          "internalType": "address",
          "name": "",
          "type": "address"
        }
      ],
      "name": "whitelist",
      "outputs": [
        {
          "internalType": "bool",
          "name": "",
          "type": "bool"
        }
      ],
      "stateMutability": "view",
      "type": "function"
    }
  ],
  "bytecode": "0x608060405234801561001057600080fd5b50600061001b61006a565b600080546001600160a01b0319166001600160a01b0383169081178255604051929350917f8be0079c531659141344cd1fd0a4f28419497f9722a3daafe3b4186f6b6457e0908290a35061006e565b3390565b6108b48061007d6000396000f3fe608060405234801561001057600080fd5b50600436106100a35760003560e01c80637b9417c8116100765780639b19251a1161005b5780639b19251a146101cc578063e2ec6ec3146101f2578063f2fde38b14610262576100a3565b80637b9417c8146101825780638da5cb5b146101a8576100a3565b806313f44d10146100a857806324953eaa146100e2578063286dd3f514610152578063715018a614610178575b600080fd5b6100ce600480360360208110156100be57600080fd5b50356001600160a01b0316610288565b604080519115158252519081900360200190f35b6100ce600480360360208110156100f857600080fd5b81019060208101813564010000000081111561011357600080fd5b82018360208201111561012557600080fd5b8035906020019184602083028401116401000000008311171561014757600080fd5b509092509050610313565b6100ce6004803603602081101561016857600080fd5b50356001600160a01b03166103c7565b6101806104b2565b005b6100ce6004803603602081101561019857600080fd5b50356001600160a01b0316610573565b6101b0610660565b604080516001600160a01b039092168252519081900360200190f35b6100ce600480360360208110156101e257600080fd5b50356001600160a01b031661066f565b6100ce6004803603602081101561020857600080fd5b81019060208101813564010000000081111561022357600080fd5b82018360208201111561023557600080fd5b8035906020019184602083028401116401000000008311171561025757600080fd5b509092509050610684565b6101806004803603602081101561027857600080fd5b50356001600160a01b0316610731565b60006102926107a7565b6000546001600160a01b039081169116146102f4576040805162461bcd60e51b815260206004820181905260248201527f4f776e61626c653a2063616c6c6572206973206e6f7420746865206f776e6572604482015290519081900360640190fd5b506001600160a01b031660009081526001602052604090205460ff1690565b600061031d6107a7565b6000546001600160a01b0390811691161461037f576040805162461bcd60e51b815260206004820181905260248201527f4f776e61626c653a2063616c6c6572206973206e6f7420746865206f776e6572604482015290519081900360640190fd5b60005b828110156103c0576103ae84848381811061039957fe5b905060200201356001600160a01b03166103c7565b156103b857600191505b600101610382565b5092915050565b60006103d16107a7565b6000546001600160a01b03908116911614610433576040805162461bcd60e51b815260206004820181905260248201527f4f776e61626c653a2063616c6c6572206973206e6f7420746865206f776e6572604482015290519081900360640190fd5b6001600160a01b03821660009081526001602052604090205460ff16156104ad576001600160a01b038216600081815260016020908152604091829020805460ff19169055815192835290517ff1abf01a1043b7c244d128e8595cf0c1d10743b022b03a02dffd8ca3bf729f5a9281900390910190a15060015b919050565b6104ba6107a7565b6000546001600160a01b0390811691161461051c576040805162461bcd60e51b815260206004820181905260248201527f4f776e61626c653a2063616c6c6572206973206e6f7420746865206f776e6572604482015290519081900360640190fd5b600080546040516001600160a01b03909116907f8be0079c531659141344cd1fd0a4f28419497f9722a3daafe3b4186f6b6457e0908390a36000805473ffffffffffffffffffffffffffffffffffffffff19169055565b600061057d6107a7565b6000546001600160a01b039081169116146105df576040805162461bcd60e51b815260206004820181905260248201527f4f776e61626c653a2063616c6c6572206973206e6f7420746865206f776e6572604482015290519081900360640190fd5b6001600160a01b03821660009081526001602052604090205460ff166104ad576001600160a01b038216600081815260016020818152604092839020805460ff1916909217909155815192835290517fd1bba68c128cc3f427e5831b3c6f99f480b6efa6b9e80c757768f6124158cc3f9281900390910190a1506001919050565b6000546001600160a01b031690565b60016020526000908152604090205460ff1681565b600061068e6107a7565b6000546001600160a01b039081169116146106f0576040805162461bcd60e51b815260206004820181905260248201527f4f776e61626c653a2063616c6c6572206973206e6f7420746865206f776e6572604482015290519081900360640190fd5b60005b828110156103c05761071f84848381811061070a57fe5b905060200201356001600160a01b0316610573565b1561072957600191505b6001016106f3565b6107396107a7565b6000546001600160a01b0390811691161461079b576040805162461bcd60e51b815260206004820181905260248201527f4f776e61626c653a2063616c6c6572206973206e6f7420746865206f776e6572604482015290519081900360640190fd5b6107a4816107ab565b50565b3390565b6001600160a01b0381166107f05760405162461bcd60e51b81526004018080602001828103825260268152602001806108596026913960400191505060405180910390fd5b600080546040516001600160a01b03808516939216917f8be0079c531659141344cd1fd0a4f28419497f9722a3daafe3b4186f6b6457e091a36000805473ffffffffffffffffffffffffffffffffffffffff19166001600160a01b039290921691909117905556fe4f776e61626c653a206e6577206f776e657220697320746865207a65726f2061646472657373a2646970667358221220b70517d5bf3f3dcbae7007af62dda3df602650b5257fee005dd797bde0ca4cf664736f6c634300060c0033",
  "linkReferences": {},
  "deployedLinkReferences": {}
}