{
  "_format": "hh-sol-artifact-1",
  "contractName": "Presale",
  "sourceName": "contracts/Presale.sol",
  "abi": [
    {
      "inputs": [
        {
          "internalType": "address",
          "name": "_token",
          "type": "address"
        },
        {
          "internalType": "uint256",
          "name": "_whitelistBegins",
          "type": "uint256"
        },
        {
          "internalType": "uint256",
          "name": "_publicBegins",
          "type": "uint256"
        }
      ],
      "stateMutability": "nonpayable",
      "type": "constructor"
    },
    {
      "anonymous": false,
      "inputs": [
        {
          "indexed": false,
          "internalType": "address",
          "name": "tokenRecovered",
          "type": "address"
        },
        {
          "indexed": false,
          "internalType": "uint256",
          "name": "amount",
          "type": "uint256"
        }
      ],
      "name": "AdminTokenRecovery",
      "type": "event"
    },
    {
      "anonymous": false,
      "inputs": [
        {
          "indexed": true,
          "internalType": "address",
          "name": "previousOwner",
          "type": "address"
        },
        {
          "indexed": true,
          "internalType": "address",
          "name": "newOwner",
          "type": "address"
        }
      ],
      "name": "OwnershipTransferred",
      "type": "event"
    },
    {
      "anonymous": false,
      "inputs": [
        {
          "indexed": false,
          "internalType": "address",
          "name": "buyer",
          "type": "address"
        },
        {
          "indexed": false,
          "internalType": "uint256",
          "name": "amountBNB",
          "type": "uint256"
        },
        {
          "indexed": false,
          "internalType": "uint256",
          "name": "globalAmount",
          "type": "uint256"
        },
        {
          "indexed": false,
          "internalType": "uint256",
          "name": "bnb_Acc",
          "type": "uint256"
        }
      ],
      "name": "TokensBought",
      "type": "event"
    },
    {
      "anonymous": false,
      "inputs": [
        {
          "indexed": false,
          "internalType": "address",
          "name": "addr",
          "type": "address"
        }
      ],
      "name": "WhitelistedAddressAdded",
      "type": "event"
    },
    {
      "anonymous": false,
      "inputs": [
        {
          "indexed": false,
          "internalType": "address",
          "name": "addr",
          "type": "address"
        }
      ],
      "name": "WhitelistedAddressRemoved",
      "type": "event"
    },
    {
      "inputs": [
        {
          "internalType": "address",
          "name": "addr",
          "type": "address"
        }
      ],
      "name": "addAddressToWhitelist",
      "outputs": [
        {
          "internalType": "bool",
          "name": "success",
          "type": "bool"
        }
      ],
      "stateMutability": "nonpayable",
      "type": "function"
    },
    {
      "inputs": [
        {
          "internalType": "address[]",
          "name": "addrs",
          "type": "address[]"
        }
      ],
      "name": "addAddressesToWhitelist",
      "outputs": [
        {
          "internalType": "bool",
          "name": "success",
          "type": "bool"
        }
      ],
      "stateMutability": "nonpayable",
      "type": "function"
    },
    {
      "inputs": [],
      "name": "bnbacc",
      "outputs": [
        {
          "internalType": "uint256",
          "name": "",
          "type": "uint256"
        }
      ],
      "stateMutability": "view",
      "type": "function"
    },
    {
      "inputs": [
        {
          "internalType": "uint256",
          "name": "_publicBegins",
          "type": "uint256"
        }
      ],
      "name": "changePublicBegins",
      "outputs": [],
      "stateMutability": "nonpayable",
      "type": "function"
    },
    {
      "inputs": [
        {
          "internalType": "uint256",
          "name": "_whitelistBegins",
          "type": "uint256"
        }
      ],
      "name": "changeWhitelistBegins",
      "outputs": [],
      "stateMutability": "nonpayable",
      "type": "function"
    },
    {
      "inputs": [
        {
          "internalType": "uint256",
          "name": "position",
          "type": "uint256"
        }
      ],
      "name": "getBuyer",
      "outputs": [
        {
          "internalType": "address",
          "name": "",
          "type": "address"
        }
      ],
      "stateMutability": "view",
      "type": "function"
    },
    {
      "inputs": [],
      "name": "getBuyers",
      "outputs": [
        {
          "internalType": "address[]",
          "name": "",
          "type": "address[]"
        }
      ],
      "stateMutability": "view",
      "type": "function"
    },
    {
      "inputs": [],
      "name": "getQuantities",
      "outputs": [
        {
          "internalType": "uint256[]",
          "name": "",
          "type": "uint256[]"
        }
      ],
      "stateMutability": "view",
      "type": "function"
    },
    {
      "inputs": [
        {
          "internalType": "address",
          "name": "buyer",
          "type": "address"
        }
      ],
      "name": "getQuantityBought",
      "outputs": [
        {
          "internalType": "uint256",
          "name": "",
          "type": "uint256"
        }
      ],
      "stateMutability": "view",
      "type": "function"
    },
    {
      "inputs": [],
      "name": "getStatus",
      "outputs": [
        {
          "internalType": "uint256",
          "name": "whitelistStep",
          "type": "uint256"
        }
      ],
      "stateMutability": "view",
      "type": "function"
    },
    {
      "inputs": [
        {
          "internalType": "address",
          "name": "addr",
          "type": "address"
        }
      ],
      "name": "isAddressWhitelisted",
      "outputs": [
        {
          "internalType": "bool",
          "name": "success",
          "type": "bool"
        }
      ],
      "stateMutability": "view",
      "type": "function"
    },
    {
      "inputs": [],
      "name": "nativeToken",
      "outputs": [
        {
          "internalType": "contract NativeToken",
          "name": "",
          "type": "address"
        }
      ],
      "stateMutability": "view",
      "type": "function"
    },
    {
      "inputs": [],
      "name": "owner",
      "outputs": [
        {
          "internalType": "address",
          "name": "",
          "type": "address"
        }
      ],
      "stateMutability": "view",
      "type": "function"
    },
    {
      "inputs": [],
      "name": "publicBegins",
      "outputs": [
        {
          "internalType": "uint256",
          "name": "",
          "type": "uint256"
        }
      ],
      "stateMutability": "view",
      "type": "function"
    },
    {
      "inputs": [],
      "name": "publicEnds",
      "outputs": [
        {
          "internalType": "uint256",
          "name": "",
          "type": "uint256"
        }
      ],
      "stateMutability": "view",
      "type": "function"
    },
    {
      "inputs": [
        {
          "internalType": "address",
          "name": "_tokenAddress",
          "type": "address"
        },
        {
          "internalType": "uint256",
          "name": "_tokenAmount",
          "type": "uint256"
        }
      ],
      "name": "recoverWrongTokens",
      "outputs": [],
      "stateMutability": "nonpayable",
      "type": "function"
    },
    {
      "inputs": [
        {
          "internalType": "address",
          "name": "addr",
          "type": "address"
        }
      ],
      "name": "removeAddressFromWhitelist",
      "outputs": [
        {
          "internalType": "bool",
          "name": "success",
          "type": "bool"
        }
      ],
      "stateMutability": "nonpayable",
      "type": "function"
    },
    {
      "inputs": [
        {
          "internalType": "address[]",
          "name": "addrs",
          "type": "address[]"
        }
      ],
      "name": "removeAddressesFromWhitelist",
      "outputs": [
        {
          "internalType": "bool",
          "name": "success",
          "type": "bool"
        }
      ],
      "stateMutability": "nonpayable",
      "type": "function"
    },
    {
      "inputs": [],
      "name": "renounceOwnership",
      "outputs": [],
      "stateMutability": "nonpayable",
      "type": "function"
    },
    {
      "inputs": [
        {
          "internalType": "uint256",
          "name": "amount",
          "type": "uint256"
        }
      ],
      "name": "transferBNBsAcc",
      "outputs": [],
      "stateMutability": "nonpayable",
      "type": "function"
    },
    {
      "inputs": [
        {
          "internalType": "address",
          "name": "newOwner",
          "type": "address"
        }
      ],
      "name": "transferOwnership",
      "outputs": [],
      "stateMutability": "nonpayable",
      "type": "function"
    },
    {
      "inputs": [
        {
          "internalType": "address",
          "name": "_masterchef",
          "type": "address"
        }
      ],
      "name": "transferTokenOwnership",
      "outputs": [],
      "stateMutability": "nonpayable",
      "type": "function"
    },
    {
      "inputs": [
        {
          "internalType": "address",
          "name": "",
          "type": "address"
        }
      ],
      "name": "whitelist",
      "outputs": [
        {
          "internalType": "bool",
          "name": "",
          "type": "bool"
        }
      ],
      "stateMutability": "view",
      "type": "function"
    },
    {
      "inputs": [],
      "name": "whitelistBegins",
      "outputs": [
        {
          "internalType": "uint256",
          "name": "",
          "type": "uint256"
        }
      ],
      "stateMutability": "view",
      "type": "function"
    },
    {
      "inputs": [],
      "name": "whitelistEnds",
      "outputs": [
        {
          "internalType": "uint256",
          "name": "",
          "type": "uint256"
        }
      ],
      "stateMutability": "view",
      "type": "function"
    },
    {
      "stateMutability": "payable",
      "type": "receive"
    }
  ],
  "bytecode": "0x608060405269018e2c59f885ac24000060075560006008553480156200002457600080fd5b5060405162001c9c38038062001c9c833981810160405260608110156200004a57600080fd5b50805160208201516040909201519091906000620000676200011c565b600080546001600160a01b0319166001600160a01b0383169081178255604051929350917f8be0079c531659141344cd1fd0a4f28419497f9722a3daafe3b4186f6b6457e0908290a350600280546001600160a01b0319166001600160a01b0385161790556003829055620000ec826206978062000120602090811b620014ba17901c565b60045560058190556200010f816202a30062000120602090811b620014ba17901c565b6006555062000182915050565b3390565b6000828201838110156200017b576040805162461bcd60e51b815260206004820152601b60248201527f536166654d6174683a206164646974696f6e206f766572666c6f770000000000604482015290519081900360640190fd5b9392505050565b611b0a80620001926000396000f3fe60806040526004361061019a5760003560e01c80638da5cb5b116100e1578063d03b0f221161008a578063e4b799c911610064578063e4b799c9146105e2578063f2fde38b146105f7578063f64bfaba1461062a578063f835886d1461063f576101ab565b8063d03b0f2214610526578063e1758bd814610550578063e2ec6ec314610565576101ab565b8063b13ee3ad116100bb578063b13ee3ad146104d2578063be7811a1146104fc578063c6481cda14610511576101ab565b80638da5cb5b146104755780639b19251a1461048a5780639bb31c34146104bd576101ab565b80635bf608b811610143578063792b1ed91161011d578063792b1ed9146103aa5780637b9417c81461040f5780637be9214414610442576101ab565b80635bf608b81461033a578063715018a61461038057806373bfceef14610395576101ab565b8063286dd3f511610174578063286dd3f5146102a75780633f138d4b146102da5780634e69d56014610313576101ab565b806313f44d10146101b057806321e6b53d146101f757806324953eaa1461022a576101ab565b366101ab576101a93433610669565b005b600080fd5b3480156101bc57600080fd5b506101e3600480360360208110156101d357600080fd5b50356001600160a01b0316610b38565b604080519115158252519081900360200190f35b34801561020357600080fd5b506101a96004803603602081101561021a57600080fd5b50356001600160a01b0316610bb1565b34801561023657600080fd5b506101e36004803603602081101561024d57600080fd5b81019060208101813564010000000081111561026857600080fd5b82018360208201111561027a57600080fd5b8035906020019184602083028401116401000000008311171561029c57600080fd5b509092509050610c8b565b3480156102b357600080fd5b506101e3600480360360208110156102ca57600080fd5b50356001600160a01b0316610d2d565b3480156102e657600080fd5b506101a9600480360360408110156102fd57600080fd5b506001600160a01b038135169060200135610e06565b34801561031f57600080fd5b50610328610eba565b60408051918252519081900360200190f35b34801561034657600080fd5b506103646004803603602081101561035d57600080fd5b5035610f0b565b604080516001600160a01b039092168252519081900360200190f35b34801561038c57600080fd5b506101a9610f35565b3480156103a157600080fd5b50610328610fe4565b3480156103b657600080fd5b506103bf610fea565b60408051602080825283518183015283519192839290830191858101910280838360005b838110156103fb5781810151838201526020016103e3565b505050509050019250505060405180910390f35b34801561041b57600080fd5b506101e36004803603602081101561043257600080fd5b50356001600160a01b031661109f565b34801561044e57600080fd5b506103286004803603602081101561046557600080fd5b50356001600160a01b031661117a565b34801561048157600080fd5b50610364611195565b34801561049657600080fd5b506101e3600480360360208110156104ad57600080fd5b50356001600160a01b03166111a4565b3480156104c957600080fd5b506103286111b9565b3480156104de57600080fd5b506101a9600480360360208110156104f557600080fd5b50356111bf565b34801561050857600080fd5b5061032861122f565b34801561051d57600080fd5b50610328611235565b34801561053257600080fd5b506101a96004803603602081101561054957600080fd5b503561123b565b34801561055c57600080fd5b506103646112d4565b34801561057157600080fd5b506101e36004803603602081101561058857600080fd5b8101906020810181356401000000008111156105a357600080fd5b8201836020820111156105b557600080fd5b803590602001918460208302840111640100000000831117156105d757600080fd5b5090925090506112e3565b3480156105ee57600080fd5b5061032861137e565b34801561060357600080fd5b506101a96004803603602081101561061a57600080fd5b50356001600160a01b0316611384565b34801561063657600080fd5b506103bf6113e8565b34801561064b57600080fd5b506101a96004803603602081101561066257600080fd5b503561144a565b333214801561067e575061067c3361151d565b155b6106b95760405162461bcd60e51b8152600401808060200182810382526026815260200180611a256026913960400191505060405180910390fd5b6106c1610eba565b1580156106e657506001600160a01b03811660009081526001602052604090205460ff165b80156106f55750600754600854105b806107155750610703610eba565b60011480156107155750600754600854105b806107405750610723610eba565b60011480156107405750600554429061073e90611c206114ba565b115b61077b5760405162461bcd60e51b8152600401808060200182810382526023815260200180611ab26023913960400191505060405180910390fd5b6000610785610eba565b1580156107aa57506001600160a01b03821660009081526001602052604090205460ff165b80156107b95750600754600854105b15610950576107ca8361125c611523565b60025460408051630bedd3a760e01b81526001600160a01b038681166004830152602482018590529151939450911691630bedd3a79160448082019260009290919082900301818387803b15801561082157600080fd5b505af1158015610835573d6000803e3d6000fd5b505060085461084792509050846114ba565b6008556001600160a01b0382166000908152600960205260409020546108c057600a80546001810182556000919091527fc65a7bb8d6351c1cf70c95a316cc6a92839c986682d98bc35f958f4883f9d2a801805473ffffffffffffffffffffffffffffffffffffffff19166001600160a01b0384161790555b6001600160a01b0382166000908152600960205260409020546108e390846114ba565b6001600160a01b038316600081815260096020908152604091829020939093556008548151928352928201869052818101849052606082019290925290517f22f6af6e13430e3e7b6418d01e6a48c1fbce5e8cb1698901fc95134b4b1c58ad9181900360800190a1610b33565b610958610eba565b600114801561096a5750600754600854105b1561097b576107ca836110fe611523565b610983610eba565b60011480156109a05750600554429061099e90611c206114ba565b115b15610b33576109b183611004611523565b60025460408051630bedd3a760e01b81526001600160a01b038681166004830152602482018590529151939450911691630bedd3a79160448082019260009290919082900301818387803b158015610a0857600080fd5b505af1158015610a1c573d6000803e3d6000fd5b5050600854610a2e92509050846114ba565b6008556001600160a01b038216600090815260096020526040902054610aa757600a80546001810182556000919091527fc65a7bb8d6351c1cf70c95a316cc6a92839c986682d98bc35f958f4883f9d2a801805473ffffffffffffffffffffffffffffffffffffffff19166001600160a01b0384161790555b6001600160a01b038216600090815260096020526040902054610aca90846114ba565b6001600160a01b038316600081815260096020908152604091829020939093556008548151928352928201869052818101849052606082019290925290517f22f6af6e13430e3e7b6418d01e6a48c1fbce5e8cb1698901fc95134b4b1c58ad9181900360800190a15b505050565b6000610b4261157c565b6000546001600160a01b03908116911614610b92576040805162461bcd60e51b81526020600482018190526024820152600080516020611a92833981519152604482015290519081900360640190fd5b506001600160a01b031660009081526001602052604090205460ff1690565b610bb961157c565b6000546001600160a01b03908116911614610c09576040805162461bcd60e51b81526020600482018190526024820152600080516020611a92833981519152604482015290519081900360640190fd5b600254604080517ff2fde38b0000000000000000000000000000000000000000000000000000000081526001600160a01b0384811660048301529151919092169163f2fde38b91602480830192600092919082900301818387803b158015610c7057600080fd5b505af1158015610c84573d6000803e3d6000fd5b5050505050565b6000610c9561157c565b6000546001600160a01b03908116911614610ce5576040805162461bcd60e51b81526020600482018190526024820152600080516020611a92833981519152604482015290519081900360640190fd5b60005b82811015610d2657610d14848483818110610cff57fe5b905060200201356001600160a01b0316610d2d565b15610d1e57600191505b600101610ce8565b5092915050565b6000610d3761157c565b6000546001600160a01b03908116911614610d87576040805162461bcd60e51b81526020600482018190526024820152600080516020611a92833981519152604482015290519081900360640190fd5b6001600160a01b03821660009081526001602052604090205460ff1615610e01576001600160a01b038216600081815260016020908152604091829020805460ff19169055815192835290517ff1abf01a1043b7c244d128e8595cf0c1d10743b022b03a02dffd8ca3bf729f5a9281900390910190a15060015b919050565b610e0e61157c565b6000546001600160a01b03908116911614610e5e576040805162461bcd60e51b81526020600482018190526024820152600080516020611a92833981519152604482015290519081900360640190fd5b610e726001600160a01b0383163383611580565b604080516001600160a01b03841681526020810183905281517f74545154aac348a3eac92596bd1971957ca94795f4e954ec5f613b55fab78129929181900390910190a15050565b6000600354421015610ece57506002610f08565b600454421015610ee057506000610f08565b600554421015610ef257506002610f08565b600654421015610f0457506001610f08565b5060025b90565b6000600a8281548110610f1a57fe5b6000918252602090912001546001600160a01b031692915050565b610f3d61157c565b6000546001600160a01b03908116911614610f8d576040805162461bcd60e51b81526020600482018190526024820152600080516020611a92833981519152604482015290519081900360640190fd5b600080546040516001600160a01b03909116907f8be0079c531659141344cd1fd0a4f28419497f9722a3daafe3b4186f6b6457e0908390a36000805473ffffffffffffffffffffffffffffffffffffffff19169055565b60065481565b600a54606090819067ffffffffffffffff8111801561100857600080fd5b50604051908082528060200260200182016040528015611032578160200160208202803683370190505b50905060005b600a548110156110995760096000600a838154811061105357fe5b60009182526020808320909101546001600160a01b03168352820192909252604001902054825183908390811061108657fe5b6020908102919091010152600101611038565b50905090565b60006110a961157c565b6000546001600160a01b039081169116146110f9576040805162461bcd60e51b81526020600482018190526024820152600080516020611a92833981519152604482015290519081900360640190fd5b6001600160a01b03821660009081526001602052604090205460ff16610e01576001600160a01b038216600081815260016020818152604092839020805460ff1916909217909155815192835290517fd1bba68c128cc3f427e5831b3c6f99f480b6efa6b9e80c757768f6124158cc3f9281900390910190a1506001919050565b6001600160a01b031660009081526009602052604090205490565b6000546001600160a01b031690565b60016020526000908152604090205460ff1681565b60045481565b6111c761157c565b6000546001600160a01b03908116911614611217576040805162461bcd60e51b81526020600482018190526024820152600080516020611a92833981519152604482015290519081900360640190fd5b600381905561122981620697806114ba565b60045550565b60055481565b60035481565b61124361157c565b6000546001600160a01b03908116911614611293576040805162461bcd60e51b81526020600482018190526024820152600080516020611a92833981519152604482015290519081900360640190fd5b604051339082156108fc029083906000818181858888f193505050501580156112c0573d6000803e3d6000fd5b506008546112ce9082611600565b60085550565b6002546001600160a01b031681565b60006112ed61157c565b6000546001600160a01b0390811691161461133d576040805162461bcd60e51b81526020600482018190526024820152600080516020611a92833981519152604482015290519081900360640190fd5b60005b82811015610d265761136c84848381811061135757fe5b905060200201356001600160a01b031661109f565b1561137657600191505b600101611340565b60085481565b61138c61157c565b6000546001600160a01b039081169116146113dc576040805162461bcd60e51b81526020600482018190526024820152600080516020611a92833981519152604482015290519081900360640190fd5b6113e58161165d565b50565b6060600a80548060200260200160405190810160405280929190818152602001828054801561144057602002820191906000526020600020905b81546001600160a01b03168152600190910190602001808311611422575b5050505050905090565b61145261157c565b6000546001600160a01b039081169116146114a2576040805162461bcd60e51b81526020600482018190526024820152600080516020611a92833981519152604482015290519081900360640190fd5b60058190556114b4816202a3006114ba565b60065550565b600082820183811015611514576040805162461bcd60e51b815260206004820152601b60248201527f536166654d6174683a206164646974696f6e206f766572666c6f770000000000604482015290519081900360640190fd5b90505b92915050565b3b151590565b60008261153257506000611517565b8282028284828161153f57fe5b04146115145760405162461bcd60e51b8152600401808060200182810382526021815260200180611a716021913960400191505060405180910390fd5b3390565b604080516001600160a01b038416602482015260448082018490528251808303909101815260649091019091526020810180517bffffffffffffffffffffffffffffffffffffffffffffffffffffffff167fa9059cbb00000000000000000000000000000000000000000000000000000000179052610b3390849061170a565b600082821115611657576040805162461bcd60e51b815260206004820152601e60248201527f536166654d6174683a207375627472616374696f6e206f766572666c6f770000604482015290519081900360640190fd5b50900390565b6001600160a01b0381166116a25760405162461bcd60e51b81526004018080602001828103825260268152602001806119ff6026913960400191505060405180910390fd5b600080546040516001600160a01b03808516939216917f8be0079c531659141344cd1fd0a4f28419497f9722a3daafe3b4186f6b6457e091a36000805473ffffffffffffffffffffffffffffffffffffffff19166001600160a01b0392909216919091179055565b606061175f826040518060400160405280602081526020017f5361666542455032303a206c6f772d6c6576656c2063616c6c206661696c6564815250856001600160a01b03166117bb9092919063ffffffff16565b805190915015610b335780806020019051602081101561177e57600080fd5b5051610b335760405162461bcd60e51b815260040180806020018281038252602a8152602001806119d5602a913960400191505060405180910390fd5b60606117ca84846000856117d4565b90505b9392505050565b6060824710156118155760405162461bcd60e51b8152600401808060200182810382526026815260200180611a4b6026913960400191505060405180910390fd5b61181e8561151d565b61186f576040805162461bcd60e51b815260206004820152601d60248201527f416464726573733a2063616c6c20746f206e6f6e2d636f6e7472616374000000604482015290519081900360640190fd5b60006060866001600160a01b031685876040518082805190602001908083835b602083106118ae5780518252601f19909201916020918201910161188f565b6001836020036101000a03801982511681845116808217855250505050505090500191505060006040518083038185875af1925050503d8060008114611910576040519150601f19603f3d011682016040523d82523d6000602084013e611915565b606091505b5091509150611925828286611930565b979650505050505050565b6060831561193f5750816117cd565b82511561194f5782518084602001fd5b8160405162461bcd60e51b81526004018080602001828103825283818151815260200191508051906020019080838360005b83811015611999578181015183820152602001611981565b50505050905090810190601f1680156119c65780820380516001836020036101000a031916815260200191505b509250505060405180910390fdfe5361666542455032303a204245503230206f7065726174696f6e20646964206e6f7420737563636565644f776e61626c653a206e6577206f776e657220697320746865207a65726f2061646472657373596f7520617265206e6f7420747275737465643a20796f7520617265206e6f742068756d616e416464726573733a20696e73756666696369656e742062616c616e636520666f722063616c6c536166654d6174683a206d756c7469706c69636174696f6e206f766572666c6f774f776e61626c653a2063616c6c6572206973206e6f7420746865206f776e65725b4552524f523a20594f5520415245204e4f5420414c4c4f57454420544f204255595da26469706673582212209919826ac1208ef3d75e4d22924cccb9569186142aae9978bcc9d6a2a066fe5264736f6c634300060c0033",
  "linkReferences": {},
  "deployedLinkReferences": {}
}