{
  "_format": "hh-sol-artifact-1",
  "contractName": "VaultLocked",
  "sourceName": "contracts/Vaults/VaultLocked.sol",
  "abi": [
    {
      "inputs": [
        {
          "internalType": "address",
          "name": "_global",
          "type": "address"
        },
        {
          "internalType": "address",
          "name": "_bnb",
          "type": "address"
        },
        {
          "internalType": "address",
          "name": "_globalMasterChef",
          "type": "address"
        },
        {
          "internalType": "uint256",
          "name": "_rewardInterval",
          "type": "uint256"
        }
      ],
      "stateMutability": "nonpayable",
      "type": "constructor"
    },
    {
      "anonymous": false,
      "inputs": [
        {
          "indexed": true,
          "internalType": "address",
          "name": "_user",
          "type": "address"
        },
        {
          "indexed": false,
          "internalType": "uint256",
          "name": "_amount",
          "type": "uint256"
        }
      ],
      "name": "Deposited",
      "type": "event"
    },
    {
      "anonymous": false,
      "inputs": [
        {
          "indexed": false,
          "internalType": "uint256",
          "name": "_distributedAmount",
          "type": "uint256"
        }
      ],
      "name": "Distributed",
      "type": "event"
    },
    {
      "anonymous": false,
      "inputs": [
        {
          "indexed": false,
          "internalType": "uint256",
          "name": "GLOBALAmount",
          "type": "uint256"
        }
      ],
      "name": "DistributedGLOBAL",
      "type": "event"
    },
    {
      "anonymous": false,
      "inputs": [
        {
          "indexed": true,
          "internalType": "address",
          "name": "previousOwner",
          "type": "address"
        },
        {
          "indexed": true,
          "internalType": "address",
          "name": "newOwner",
          "type": "address"
        }
      ],
      "name": "OwnershipTransferred",
      "type": "event"
    },
    {
      "anonymous": false,
      "inputs": [
        {
          "indexed": true,
          "internalType": "address",
          "name": "_user",
          "type": "address"
        },
        {
          "indexed": false,
          "internalType": "uint256",
          "name": "_amount",
          "type": "uint256"
        },
        {
          "indexed": false,
          "internalType": "uint256",
          "name": "_amount2",
          "type": "uint256"
        }
      ],
      "name": "RewardPaid",
      "type": "event"
    },
    {
      "anonymous": false,
      "inputs": [
        {
          "indexed": true,
          "internalType": "address",
          "name": "_account",
          "type": "address"
        },
        {
          "indexed": false,
          "internalType": "uint256",
          "name": "_amount",
          "type": "uint256"
        }
      ],
      "name": "RewardsDeposited",
      "type": "event"
    },
    {
      "anonymous": false,
      "inputs": [
        {
          "indexed": true,
          "internalType": "address",
          "name": "_user",
          "type": "address"
        },
        {
          "indexed": false,
          "internalType": "uint256",
          "name": "_amount",
          "type": "uint256"
        }
      ],
      "name": "Withdrawn",
      "type": "event"
    },
    {
      "inputs": [],
      "name": "DUST",
      "outputs": [
        {
          "internalType": "uint256",
          "name": "",
          "type": "uint256"
        }
      ],
      "stateMutability": "view",
      "type": "function"
    },
    {
      "inputs": [],
      "name": "LOCKUP",
      "outputs": [
        {
          "internalType": "uint256",
          "name": "",
          "type": "uint256"
        }
      ],
      "stateMutability": "view",
      "type": "function"
    },
    {
      "inputs": [
        {
          "internalType": "address",
          "name": "_user",
          "type": "address"
        }
      ],
      "name": "amountOfUser",
      "outputs": [
        {
          "internalType": "uint256",
          "name": "totalAmount",
          "type": "uint256"
        }
      ],
      "stateMutability": "view",
      "type": "function"
    },
    {
      "inputs": [
        {
          "internalType": "uint256",
          "name": "_time",
          "type": "uint256"
        },
        {
          "internalType": "address",
          "name": "_user",
          "type": "address"
        }
      ],
      "name": "availableForWithdraw",
      "outputs": [
        {
          "internalType": "uint256",
          "name": "totalAmount",
          "type": "uint256"
        }
      ],
      "stateMutability": "view",
      "type": "function"
    },
    {
      "inputs": [],
      "name": "balance",
      "outputs": [
        {
          "internalType": "uint256",
          "name": "amount",
          "type": "uint256"
        }
      ],
      "stateMutability": "view",
      "type": "function"
    },
    {
      "inputs": [
        {
          "internalType": "address",
          "name": "_account",
          "type": "address"
        }
      ],
      "name": "balanceOf",
      "outputs": [
        {
          "internalType": "uint256",
          "name": "",
          "type": "uint256"
        }
      ],
      "stateMutability": "view",
      "type": "function"
    },
    {
      "inputs": [],
      "name": "bnb",
      "outputs": [
        {
          "internalType": "contract IBEP20",
          "name": "",
          "type": "address"
        }
      ],
      "stateMutability": "view",
      "type": "function"
    },
    {
      "inputs": [],
      "name": "bnbBalance",
      "outputs": [
        {
          "internalType": "uint256",
          "name": "",
          "type": "uint256"
        }
      ],
      "stateMutability": "view",
      "type": "function"
    },
    {
      "inputs": [
        {
          "internalType": "address",
          "name": "",
          "type": "address"
        }
      ],
      "name": "bnbEarned",
      "outputs": [
        {
          "internalType": "uint256",
          "name": "",
          "type": "uint256"
        }
      ],
      "stateMutability": "view",
      "type": "function"
    },
    {
      "inputs": [
        {
          "internalType": "address",
          "name": "_account",
          "type": "address"
        }
      ],
      "name": "bnbToEarn",
      "outputs": [
        {
          "internalType": "uint256",
          "name": "",
          "type": "uint256"
        }
      ],
      "stateMutability": "view",
      "type": "function"
    },
    {
      "inputs": [
        {
          "internalType": "uint256",
          "name": "_amount",
          "type": "uint256"
        }
      ],
      "name": "deposit",
      "outputs": [],
      "stateMutability": "nonpayable",
      "type": "function"
    },
    {
      "inputs": [
        {
          "internalType": "address",
          "name": "",
          "type": "address"
        },
        {
          "internalType": "uint256",
          "name": "",
          "type": "uint256"
        }
      ],
      "name": "depositInfo",
      "outputs": [
        {
          "internalType": "uint256",
          "name": "amount",
          "type": "uint256"
        },
        {
          "internalType": "uint256",
          "name": "nextWithdraw",
          "type": "uint256"
        }
      ],
      "stateMutability": "view",
      "type": "function"
    },
    {
      "inputs": [
        {
          "internalType": "uint256",
          "name": "_amount",
          "type": "uint256"
        }
      ],
      "name": "depositRewards",
      "outputs": [],
      "stateMutability": "nonpayable",
      "type": "function"
    },
    {
      "inputs": [
        {
          "internalType": "address",
          "name": "",
          "type": "address"
        }
      ],
      "name": "depositories",
      "outputs": [
        {
          "internalType": "bool",
          "name": "",
          "type": "bool"
        }
      ],
      "stateMutability": "view",
      "type": "function"
    },
    {
      "inputs": [
        {
          "internalType": "address",
          "name": "addr",
          "type": "address"
        }
      ],
      "name": "getDepositInfoLengthForAddress",
      "outputs": [
        {
          "internalType": "uint256",
          "name": "",
          "type": "uint256"
        }
      ],
      "stateMutability": "view",
      "type": "function"
    },
    {
      "inputs": [],
      "name": "getLastDistributedBNBAmount",
      "outputs": [
        {
          "internalType": "uint256",
          "name": "",
          "type": "uint256"
        }
      ],
      "stateMutability": "view",
      "type": "function"
    },
    {
      "inputs": [],
      "name": "getLastDistributedGLOBALAmount",
      "outputs": [
        {
          "internalType": "uint256",
          "name": "",
          "type": "uint256"
        }
      ],
      "stateMutability": "view",
      "type": "function"
    },
    {
      "inputs": [],
      "name": "getReward",
      "outputs": [],
      "stateMutability": "nonpayable",
      "type": "function"
    },
    {
      "inputs": [],
      "name": "global",
      "outputs": [
        {
          "internalType": "contract IBEP20",
          "name": "",
          "type": "address"
        }
      ],
      "stateMutability": "view",
      "type": "function"
    },
    {
      "inputs": [],
      "name": "globalBalance",
      "outputs": [
        {
          "internalType": "uint256",
          "name": "",
          "type": "uint256"
        }
      ],
      "stateMutability": "view",
      "type": "function"
    },
    {
      "inputs": [
        {
          "internalType": "address",
          "name": "",
          "type": "address"
        }
      ],
      "name": "globalEarned",
      "outputs": [
        {
          "internalType": "uint256",
          "name": "",
          "type": "uint256"
        }
      ],
      "stateMutability": "view",
      "type": "function"
    },
    {
      "inputs": [],
      "name": "globalMasterChef",
      "outputs": [
        {
          "internalType": "contract IGlobalMasterChef",
          "name": "",
          "type": "address"
        }
      ],
      "stateMutability": "view",
      "type": "function"
    },
    {
      "inputs": [
        {
          "internalType": "address",
          "name": "_account",
          "type": "address"
        }
      ],
      "name": "globalToEarn",
      "outputs": [
        {
          "internalType": "uint256",
          "name": "",
          "type": "uint256"
        }
      ],
      "stateMutability": "view",
      "type": "function"
    },
    {
      "inputs": [],
      "name": "lastDistributedBNBAmount",
      "outputs": [
        {
          "internalType": "uint256",
          "name": "",
          "type": "uint256"
        }
      ],
      "stateMutability": "view",
      "type": "function"
    },
    {
      "inputs": [],
      "name": "lastDistributedGLOBALAmount",
      "outputs": [
        {
          "internalType": "uint256",
          "name": "",
          "type": "uint256"
        }
      ],
      "stateMutability": "view",
      "type": "function"
    },
    {
      "inputs": [],
      "name": "lastRewardEvent",
      "outputs": [
        {
          "internalType": "uint256",
          "name": "",
          "type": "uint256"
        }
      ],
      "stateMutability": "view",
      "type": "function"
    },
    {
      "inputs": [],
      "name": "minGlobalAmountToDistribute",
      "outputs": [
        {
          "internalType": "uint256",
          "name": "",
          "type": "uint256"
        }
      ],
      "stateMutability": "view",
      "type": "function"
    },
    {
      "inputs": [],
      "name": "minTokenAmountToDistribute",
      "outputs": [
        {
          "internalType": "uint256",
          "name": "",
          "type": "uint256"
        }
      ],
      "stateMutability": "view",
      "type": "function"
    },
    {
      "inputs": [],
      "name": "owner",
      "outputs": [
        {
          "internalType": "address",
          "name": "",
          "type": "address"
        }
      ],
      "stateMutability": "view",
      "type": "function"
    },
    {
      "inputs": [],
      "name": "pid",
      "outputs": [
        {
          "internalType": "uint256",
          "name": "",
          "type": "uint256"
        }
      ],
      "stateMutability": "view",
      "type": "function"
    },
    {
      "inputs": [],
      "name": "renounceOwnership",
      "outputs": [],
      "stateMutability": "nonpayable",
      "type": "function"
    },
    {
      "inputs": [],
      "name": "rewardInterval",
      "outputs": [
        {
          "internalType": "uint256",
          "name": "",
          "type": "uint256"
        }
      ],
      "stateMutability": "view",
      "type": "function"
    },
    {
      "inputs": [],
      "name": "rewardsToken",
      "outputs": [
        {
          "internalType": "address",
          "name": "",
          "type": "address"
        }
      ],
      "stateMutability": "view",
      "type": "function"
    },
    {
      "inputs": [
        {
          "internalType": "address",
          "name": "_depository",
          "type": "address"
        },
        {
          "internalType": "bool",
          "name": "_canDeposit",
          "type": "bool"
        }
      ],
      "name": "setDepositary",
      "outputs": [],
      "stateMutability": "nonpayable",
      "type": "function"
    },
    {
      "inputs": [
        {
          "internalType": "uint256",
          "name": "_minGlobalAmountToDistribute",
          "type": "uint256"
        }
      ],
      "name": "setMinGlobalAmountToDistribute",
      "outputs": [],
      "stateMutability": "nonpayable",
      "type": "function"
    },
    {
      "inputs": [
        {
          "internalType": "uint256",
          "name": "_newAmount",
          "type": "uint256"
        }
      ],
      "name": "setMinTokenAmountToDistribute",
      "outputs": [],
      "stateMutability": "nonpayable",
      "type": "function"
    },
    {
      "inputs": [
        {
          "internalType": "uint256",
          "name": "_rewardInterval",
          "type": "uint256"
        }
      ],
      "name": "setRewardInterval",
      "outputs": [],
      "stateMutability": "nonpayable",
      "type": "function"
    },
    {
      "inputs": [
        {
          "internalType": "address",
          "name": "_rewarder",
          "type": "address"
        },
        {
          "internalType": "bool",
          "name": "_canReward",
          "type": "bool"
        }
      ],
      "name": "setRewarder",
      "outputs": [],
      "stateMutability": "nonpayable",
      "type": "function"
    },
    {
      "inputs": [],
      "name": "stakingToken",
      "outputs": [
        {
          "internalType": "address",
          "name": "",
          "type": "address"
        }
      ],
      "stateMutability": "view",
      "type": "function"
    },
    {
      "inputs": [],
      "name": "totalSupply",
      "outputs": [
        {
          "internalType": "uint256",
          "name": "",
          "type": "uint256"
        }
      ],
      "stateMutability": "view",
      "type": "function"
    },
    {
      "inputs": [
        {
          "internalType": "address",
          "name": "newOwner",
          "type": "address"
        }
      ],
      "name": "transferOwnership",
      "outputs": [],
      "stateMutability": "nonpayable",
      "type": "function"
    },
    {
      "inputs": [
        {
          "internalType": "uint256",
          "name": "_amount",
          "type": "uint256"
        }
      ],
      "name": "triggerDistribute",
      "outputs": [],
      "stateMutability": "nonpayable",
      "type": "function"
    },
    {
      "inputs": [
        {
          "internalType": "address",
          "name": "",
          "type": "address"
        }
      ],
      "name": "userExistance",
      "outputs": [
        {
          "internalType": "bool",
          "name": "",
          "type": "bool"
        }
      ],
      "stateMutability": "view",
      "type": "function"
    },
    {
      "inputs": [
        {
          "internalType": "uint256",
          "name": "",
          "type": "uint256"
        }
      ],
      "name": "users",
      "outputs": [
        {
          "internalType": "address",
          "name": "",
          "type": "address"
        }
      ],
      "stateMutability": "view",
      "type": "function"
    },
    {
      "inputs": [],
      "name": "withdraw",
      "outputs": [],
      "stateMutability": "nonpayable",
      "type": "function"
    }
  ],
  "bytecode": "0x608060405234801561001057600080fd5b506040516124083803806124088339818101604052608081101561003357600080fd5b50805160208201516040830151606090930151919290916000610054610123565b600080546001600160a01b0319166001600160a01b0383169081178255604051929350917f8be0079c531659141344cd1fd0a4f28419497f9722a3daafe3b4186f6b6457e0908290a350600180556000600a819055600780546001600160a01b039687166001600160a01b031991821617909155600880549587169582169590951790945560098054939095169290931691909117909255670de0b6b3a7640000600b5568056bc75e2d63100000600c5560128190556013819055601481905560155560115542601055610127565b3390565b6122d2806101366000396000f3fe608060405234801561001057600080fd5b50600436106102ff5760003560e01c80638bdf67f21161019c578063d013cbe2116100ee578063db8ede0e11610097578063ed09fa2a11610071578063ed09fa2a146106e6578063f1068454146106ee578063f2fde38b146106f6576102ff565b8063db8ede0e146106b9578063e0714885146106c1578063e3e84213146106c9576102ff565b8063d70f4c79116100c8578063d70f4c791461066e578063d8b07bbc14610676578063db88de8a14610693576102ff565b8063d013cbe214610638578063d1af0c7d14610640578063d428ca8c14610648576102ff565b8063a750212e11610150578063b9d774df1161012a578063b9d774df146105b1578063bec4de3f146105f6578063cdc0e2e7146105fe576102ff565b8063a750212e1461055e578063b69ef8a81461058c578063b6b55f2514610594576102ff565b80639657f274116101815780639657f274146105025780639be0e57714610528578063a05f990614610556576102ff565b80638bdf67f2146104dd5780638da5cb5b146104fa576102ff565b80634c5ee120116102555780636d94ad2f1161020957806372f702f3116101e357806372f702f3146104c55780637dd15614146104cd578063845aef4b146104d5576102ff565b80636d94ad2f1461047a57806370a0823114610497578063715018a6146104bd576102ff565b80634e4c72df1161023a5780634e4c72df1461044d57806355b9502b1461046a57806365a359e714610472576102ff565b80634c5ee1201461041f5780634e0cd79914610445576102ff565b80632c561893116102b75780633ccfd60b116102915780633ccfd60b146104055780633d18b9121461040f57806349a876e414610417576102ff565b80632c5618931461039e578063344ee024146103c4578063365b98b2146103cc576102ff565b80631cc893c3116102e85780631cc893c31461032657806320d4e92d1461034c57806321b11a2e14610372576102ff565b806306bd857e1461030457806318160ddd1461031e575b600080fd5b61030c61071c565b60408051918252519081900360200190f35b61030c610722565b61030c6004803603602081101561033c57600080fd5b50356001600160a01b0316610728565b61030c6004803603602081101561036257600080fd5b50356001600160a01b0316610747565b61030c6004803603604081101561038857600080fd5b50803590602001356001600160a01b031661080e565b61030c600480360360208110156103b457600080fd5b50356001600160a01b03166108db565b61030c6108ed565b6103e9600480360360208110156103e257600080fd5b50356108f3565b604080516001600160a01b039092168252519081900360200190f35b61040d61091a565b005b61040d610afa565b6103e9610ba0565b61030c6004803603602081101561043557600080fd5b50356001600160a01b0316610baf565b61030c610be8565b61040d6004803603602081101561046357600080fd5b5035610bee565b61030c610cbd565b61030c610cc3565b61040d6004803603602081101561049057600080fd5b5035610cc9565b61030c600480360360208110156104ad57600080fd5b50356001600160a01b0316610d38565b61040d610d5c565b6103e9610e10565b61030c610e1f565b61030c610e25565b61040d600480360360208110156104f357600080fd5b5035610e2c565b6103e9610ee8565b61030c6004803603602081101561051857600080fd5b50356001600160a01b0316610ef7565b61040d6004803603604081101561053e57600080fd5b506001600160a01b0381351690602001351515610f28565b6103e9610fe6565b61040d6004803603604081101561057457600080fd5b506001600160a01b0381351690602001351515610ff5565b61030c6110b0565b61040d600480360360208110156105aa57600080fd5b503561114d565b6105dd600480360360408110156105c757600080fd5b506001600160a01b038135169060200135611433565b6040805192835260208301919091528051918290030190f35b61030c61146c565b6106246004803603602081101561061457600080fd5b50356001600160a01b0316611472565b604080519115158252519081900360200190f35b61030c611487565b6103e961148d565b61030c6004803603602081101561065e57600080fd5b50356001600160a01b031661149c565b61030c6114ae565b61040d6004803603602081101561068c57600080fd5b50356114b4565b610624600480360360208110156106a957600080fd5b50356001600160a01b0316611523565b61030c611538565b6103e961153e565b61040d600480360360208110156106df57600080fd5b503561154d565b61030c6115bc565b61030c6115c2565b61040d6004803603602081101561070c57600080fd5b50356001600160a01b03166115c8565b60145481565b600f5481565b6001600160a01b0381166000908152600460205260409020545b919050565b6001600160a01b03811660009081526004602090815260408083208054825181850281018501909352808352606093859084015b828210156107c15783829060005260206000209060020201604051806040016040529081600082015481526020016001820154815250508152602001906001019061077b565b50505050905060005b8151811015610807576107fd8282815181106107e257fe5b6020026020010151600001518461163e90919063ffffffff16565b92506001016107ca565b5050919050565b6001600160a01b03811660009081526004602090815260408083208054825181850281018501909352808352606093859084015b8282101561088857838290600052602060002090600202016040518060400160405290816000820154815260200160018201548152505081526020019060010190610842565b50505050905060005b81518110156108d357848282815181106108a757fe5b60200260200101516020015110156108cb576108c88282815181106107e257fe5b92505b600101610891565b505092915050565b600d6020526000908152604090205481565b60155481565b6006818154811061090057fe5b6000918252602090912001546001600160a01b0316905081565b60026001541415610972576040805162461bcd60e51b815260206004820152601f60248201527f5265656e7472616e637947756172643a207265656e7472616e742063616c6c00604482015290519081900360640190fd5b60026001556000610983423361080e565b9050600081116109c45760405162461bcd60e51b815260040180806020018281038252602c815260200180612248602c913960400191505060405180910390fd5b60006109cf33610baf565b905060006109dc33610ef7565b90506109e73361169f565b600954604080517f1058d2810000000000000000000000000000000000000000000000000000000081526004810186905290516001600160a01b0390921691631058d2819160248082019260009290919082900301818387803b158015610a4d57600080fd5b505af1158015610a61573d6000803e3d6000fd5b5050600754610a7d92506001600160a01b0316905033856117f5565b610a87828261187a565b600f54610a94908461190d565b600f55610aa03361196a565b336000818152600d60209081526040808320839055600e825280832092909255815186815291517f7084f5476618d8e60b11ef0d7d3f06914655adb8793e28ff7f018d4c76d505d59281900390910190a250506001805550565b60026001541415610b52576040805162461bcd60e51b815260206004820152601f60248201527f5265656e7472616e637947756172643a207265656e7472616e742063616c6c00604482015290519081900360640190fd5b60026001556000610b6233610baf565b90506000610b6f33610ef7565b9050610b7b828261187a565b5050336000908152600d60209081526040808320839055600e90915281205560018055565b6008546001600160a01b031681565b600080610bbb83610747565b1115610be057506001600160a01b0381166000908152600d6020526040902054610742565b506000610742565b6103e881565b60026001541415610c46576040805162461bcd60e51b815260206004820152601f60248201527f5265656e7472616e637947756172643a207265656e7472616e742063616c6c00604482015290519081900360640190fd5b600260019081553360009081526003602052604090205460ff16151514610c9e5760405162461bcd60e51b81526004018080602001828103825260268152602001806121db6026913960400191505060405180910390fd5b601254610cab908261163e565b601255610cb6611a57565b5060018055565b600c5481565b60105481565b610cd1611bad565b6000546001600160a01b03908116911614610d33576040805162461bcd60e51b815260206004820181905260248201527f4f776e61626c653a2063616c6c6572206973206e6f7420746865206f776e6572604482015290519081900360640190fd5b600b55565b6000600f5460001415610d4d57506000610742565b610d5682610747565b92915050565b610d64611bad565b6000546001600160a01b03908116911614610dc6576040805162461bcd60e51b815260206004820181905260248201527f4f776e61626c653a2063616c6c6572206973206e6f7420746865206f776e6572604482015290519081900360640190fd5b600080546040516001600160a01b03909116907f8be0079c531659141344cd1fd0a4f28419497f9722a3daafe3b4186f6b6457e0908390a3600080546001600160a01b0319169055565b6007546001600160a01b031690565b60145490565b6276a70081565b3360009081526002602052604090205460ff161515600114610e7f5760405162461bcd60e51b81526004018080602001828103825260298152602001806122746029913960400191505060405180910390fd5b600754610e97906001600160a01b0316333084611bb1565b601354610ea4908261163e565b601355610eaf611c3f565b60408051828152905133917fb8b27d0db504fa5d914f1fd330347096e88d5ff94b6c612d32797e7c12a8f66f919081900360200190a250565b6000546001600160a01b031690565b600080610f0383610747565b1115610be057506001600160a01b0381166000908152600e6020526040902054610742565b610f30611bad565b6000546001600160a01b03908116911614610f92576040805162461bcd60e51b815260206004820181905260248201527f4f776e61626c653a2063616c6c6572206973206e6f7420746865206f776e6572604482015290519081900360640190fd5b8015610fc1576001600160a01b0382166000908152600260205260409020805460ff1916821515179055610fe2565b6001600160a01b0382166000908152600260205260409020805460ff191690555b5050565b6007546001600160a01b031681565b610ffd611bad565b6000546001600160a01b0390811691161461105f576040805162461bcd60e51b815260206004820181905260248201527f4f776e61626c653a2063616c6c6572206973206e6f7420746865206f776e6572604482015290519081900360640190fd5b801561108e576001600160a01b0382166000908152600360205260409020805460ff1916821515179055610fe2565b506001600160a01b03166000908152600360205260409020805460ff19169055565b600954600a54604080517f93f1a40b000000000000000000000000000000000000000000000000000000008152600481019290925230602483015280516000936001600160a01b0316926393f1a40b926044808301939192829003018186803b15801561111c57600080fd5b505afa158015611130573d6000803e3d6000fd5b505050506040513d604081101561114657600080fd5b5051919050565b600260015414156111a5576040805162461bcd60e51b815260206004820152601f60248201527f5265656e7472616e637947756172643a207265656e7472616e742063616c6c00604482015290519081900360640190fd5b60026001556007546111c2906001600160a01b0316333084611bb1565b336000908152600460209081526040918290208251808401909352838352919081016111f1426276a70061163e565b905281546001818101845560009384526020808520845160029094020192835592830151910155600754600954604080517f095ea7b30000000000000000000000000000000000000000000000000000000081526001600160a01b039283166004820152602481018790529051919092169363095ea7b393604480850194919392918390030190829087803b15801561128957600080fd5b505af115801561129d573d6000803e3d6000fd5b505050506040513d60208110156112b357600080fd5b5050600954604080517f41441d3b0000000000000000000000000000000000000000000000000000000081526004810184905290516001600160a01b03909216916341441d3b9160248082019260009290919082900301818387803b15801561131b57600080fd5b505af115801561132f573d6000803e3d6000fd5b50503360009081526005602052604090205460ff1615159150611391905057600680546001810182556000919091527ff652222313e28459528d920b65115c16c04f3efc82aaedc97be59f3f377c0d3f0180546001600160a01b031916331790555b600f5461139e908261163e565b600f556113aa33610baf565b6113bf57336000908152600d60205260408120555b6113c833610ef7565b6113dd57336000908152600e60205260408120555b33600081815260056020908152604091829020805460ff19166001179055815184815291517f2da466a7b24304f47e87fa2e1e5a81b9831ce54fec19055ce277ca2f39ba42c49281900390910190a25060018055565b6004602052816000526040600020818154811061144c57fe5b600091825260209091206002909102018054600190910154909250905082565b60115481565b60026020526000908152604090205460ff1681565b60125481565b6008546001600160a01b031690565b600e6020526000908152604090205481565b600b5481565b6114bc611bad565b6000546001600160a01b0390811691161461151e576040805162461bcd60e51b815260206004820181905260248201527f4f776e61626c653a2063616c6c6572206973206e6f7420746865206f776e6572604482015290519081900360640190fd5b600c55565b60056020526000908152604090205460ff1681565b60135481565b6009546001600160a01b031681565b611555611bad565b6000546001600160a01b039081169116146115b7576040805162461bcd60e51b815260206004820181905260248201527f4f776e61626c653a2063616c6c6572206973206e6f7420746865206f776e6572604482015290519081900360640190fd5b601155565b60155490565b600a5481565b6115d0611bad565b6000546001600160a01b03908116911614611632576040805162461bcd60e51b815260206004820181905260248201527f4f776e61626c653a2063616c6c6572206973206e6f7420746865206f776e6572604482015290519081900360640190fd5b61163b81611d5c565b50565b600082820183811015611698576040805162461bcd60e51b815260206004820152601b60248201527f536166654d6174683a206164646974696f6e206f766572666c6f770000000000604482015290519081900360640190fd5b9392505050565b425b6001600160a01b038216600090815260046020526040902054158015906116fa57506001600160a01b038216600090815260046020526040812080548392906116e657fe5b906000526020600020906002020160010154105b15610fe25760005b6001600160a01b038316600090815260046020526040902054600019018110156117b0576001600160a01b038316600090815260046020526040902080546001830190811061174d57fe5b906000526020600020906002020160046000856001600160a01b03166001600160a01b03168152602001908152602001600020828154811061178b57fe5b6000918252602090912082546002909202019081556001918201549082015501611702565b506001600160a01b03821660009081526004602052604090208054806117d257fe5b6000828152602081206002600019909301928302018181556001015590556116a1565b604080516001600160a01b038416602482015260448082018490528251808303909101815260649091019091526020810180517bffffffffffffffffffffffffffffffffffffffffffffffffffffffff167fa9059cbb00000000000000000000000000000000000000000000000000000000179052611875908490611dfc565b505050565b6103e88211156118a05760085461189b906001600160a01b031633846117f5565b6118a5565b600091505b6103e88111156118cb576007546118c6906001600160a01b031633836117f5565b6118cf565b5060005b6040805183815260208101839052815133927fd6f2c8500df5b44f11e9e48b91ff9f1b9d81bc496d55570c2b1b75bf65243f51928290030190a25050565b600082821115611964576040805162461bcd60e51b815260206004820152601e60248201527f536166654d6174683a207375627472616374696f6e206f766572666c6f770000604482015290519081900360640190fd5b50900390565b60005b600654811015610fe257816001600160a01b03166006828154811061198e57fe5b6000918252602090912001546001600160a01b03161415611a4f57805b60065460001901811015611a2057600681600101815481106119c957fe5b600091825260209091200154600680546001600160a01b0390921691839081106119ef57fe5b600091825260209091200180546001600160a01b0319166001600160a01b03929092169190911790556001016119ab565b506006805480611a2c57fe5b600082815260209020810160001990810180546001600160a01b03191690550190555b60010161196d565b601254600b54811015611a6a5750611bab565b60005b600654811015611b63576000611aba600f54611ab46064611aae60068781548110611a9457fe5b6000918252602090912001546001600160a01b0316610747565b90611ead565b90611f06565b90506000611acd6064611ab48685611ead565b601254909150611add908261190d565b601281905550611b2381600d600060068781548110611af857fe5b60009182526020808320909101546001600160a01b031683528201929092526040019020549061163e565b600d600060068681548110611b3457fe5b60009182526020808320909101546001600160a01b031683528201929092526040019020555050600101611a6d565b50601254611b7290829061190d565b601581905560408051918252517fddc9c30275a04c48091f24199f9c405765de34d979d6847f5b9798a57232d2e59181900360200190a1505b565b3390565b604080516001600160a01b0380861660248301528416604482015260648082018490528251808303909101815260849091019091526020810180517bffffffffffffffffffffffffffffffffffffffffffffffffffffffff167f23b872dd00000000000000000000000000000000000000000000000000000000179052611c39908590611dfc565b50505050565b60135460115460105482914291611c559161163e565b11158015611c655750600c548210155b15610fe2574260105560005b600654811015611d11576000611c98600f54611ab46064611aae60068781548110611a9457fe5b90506000611cae6014611ab46064818987611ead565b9050611cba848261190d565b9350611cd181600e600060068781548110611af857fe5b600e600060068681548110611ce257fe5b60009182526020808320909101546001600160a01b031683528201929092526040019020555050600101611c71565b50611d1c828261190d565b6014819055601382905560408051918252517f4c3226776baeb9608ae77325302acb17ab16fa66473f93629aac12f2d46918059181900360200190a15050565b6001600160a01b038116611da15760405162461bcd60e51b81526004018080602001828103825260268152602001806121b56026913960400191505060405180910390fd5b600080546040516001600160a01b03808516939216917f8be0079c531659141344cd1fd0a4f28419497f9722a3daafe3b4186f6b6457e091a3600080546001600160a01b0319166001600160a01b0392909216919091179055565b6060611e51826040518060400160405280602081526020017f5361666542455032303a206c6f772d6c6576656c2063616c6c206661696c6564815250856001600160a01b0316611f6d9092919063ffffffff16565b80519091501561187557808060200190516020811015611e7057600080fd5b50516118755760405162461bcd60e51b815260040180806020018281038252602a81526020018061218b602a913960400191505060405180910390fd5b600082611ebc57506000610d56565b82820282848281611ec957fe5b04146116985760405162461bcd60e51b81526004018080602001828103825260218152602001806122276021913960400191505060405180910390fd5b6000808211611f5c576040805162461bcd60e51b815260206004820152601a60248201527f536166654d6174683a206469766973696f6e206279207a65726f000000000000604482015290519081900360640190fd5b818381611f6557fe5b049392505050565b6060611f7c8484600085611f84565b949350505050565b606082471015611fc55760405162461bcd60e51b81526004018080602001828103825260268152602001806122016026913960400191505060405180910390fd5b611fce856120e0565b61201f576040805162461bcd60e51b815260206004820152601d60248201527f416464726573733a2063616c6c20746f206e6f6e2d636f6e7472616374000000604482015290519081900360640190fd5b60006060866001600160a01b031685876040518082805190602001908083835b6020831061205e5780518252601f19909201916020918201910161203f565b6001836020036101000a03801982511681845116808217855250505050505090500191505060006040518083038185875af1925050503d80600081146120c0576040519150601f19603f3d011682016040523d82523d6000602084013e6120c5565b606091505b50915091506120d58282866120e6565b979650505050505050565b3b151590565b606083156120f5575081611698565b8251156121055782518084602001fd5b8160405162461bcd60e51b81526004018080602001828103825283818151815260200191508051906020019080838360005b8381101561214f578181015183820152602001612137565b50505050905090810190601f16801561217c5780820380516001836020036101000a031916815260200191505b509250505060405180910390fdfe5361666542455032303a204245503230206f7065726174696f6e20646964206e6f7420737563636565644f776e61626c653a206e6577206f776e657220697320746865207a65726f20616464726573734f6e6c79207265776172646572732063616e20706572666f726d207468697320616374696f6e416464726573733a20696e73756666696369656e742062616c616e636520666f722063616c6c536166654d6174683a206d756c7469706c69636174696f6e206f766572666c6f775661756c744c6f636b65643a20796f752068617665206e6f20746f6b656e7320746f207769746864726177214f6e6c79206465706f7369746f726965732063616e20706572666f726d207468697320616374696f6ea264697066735822122062da45a58f4abd0e1eafcf2671666bc7774cc940cbea1869fd45cae50b19a41364736f6c634300060c0033",
  "linkReferences": {},
  "deployedLinkReferences": {}
}